{
	"contracts/EuroBetToken.sol": {
		"EuroBetToken": {
			"abi": [
				{
					"inputs": [
						{
							"internalType": "uint256",
							"name": "cap",
							"type": "uint256"
						},
						{
							"internalType": "uint256",
							"name": "reward",
							"type": "uint256"
						}
					],
					"stateMutability": "nonpayable",
					"type": "constructor"
				},
				{
					"anonymous": false,
					"inputs": [
						{
							"indexed": true,
							"internalType": "address",
							"name": "owner",
							"type": "address"
						},
						{
							"indexed": true,
							"internalType": "address",
							"name": "spender",
							"type": "address"
						},
						{
							"indexed": false,
							"internalType": "uint256",
							"name": "value",
							"type": "uint256"
						}
					],
					"name": "Approval",
					"type": "event"
				},
				{
					"anonymous": false,
					"inputs": [
						{
							"indexed": true,
							"internalType": "address",
							"name": "from",
							"type": "address"
						},
						{
							"indexed": true,
							"internalType": "address",
							"name": "to",
							"type": "address"
						},
						{
							"indexed": false,
							"internalType": "uint256",
							"name": "value",
							"type": "uint256"
						}
					],
					"name": "Transfer",
					"type": "event"
				},
				{
					"inputs": [
						{
							"internalType": "address",
							"name": "owner",
							"type": "address"
						},
						{
							"internalType": "address",
							"name": "spender",
							"type": "address"
						}
					],
					"name": "allowance",
					"outputs": [
						{
							"internalType": "uint256",
							"name": "",
							"type": "uint256"
						}
					],
					"stateMutability": "view",
					"type": "function"
				},
				{
					"inputs": [
						{
							"internalType": "address",
							"name": "spender",
							"type": "address"
						},
						{
							"internalType": "uint256",
							"name": "amount",
							"type": "uint256"
						}
					],
					"name": "approve",
					"outputs": [
						{
							"internalType": "bool",
							"name": "",
							"type": "bool"
						}
					],
					"stateMutability": "nonpayable",
					"type": "function"
				},
				{
					"inputs": [
						{
							"internalType": "address",
							"name": "account",
							"type": "address"
						}
					],
					"name": "balanceOf",
					"outputs": [
						{
							"internalType": "uint256",
							"name": "",
							"type": "uint256"
						}
					],
					"stateMutability": "view",
					"type": "function"
				},
				{
					"inputs": [
						{
							"internalType": "address",
							"name": "",
							"type": "address"
						}
					],
					"name": "bettingContracts",
					"outputs": [
						{
							"internalType": "bool",
							"name": "",
							"type": "bool"
						}
					],
					"stateMutability": "view",
					"type": "function"
				},
				{
					"inputs": [],
					"name": "blockReward",
					"outputs": [
						{
							"internalType": "uint256",
							"name": "",
							"type": "uint256"
						}
					],
					"stateMutability": "view",
					"type": "function"
				},
				{
					"inputs": [
						{
							"internalType": "uint256",
							"name": "amount",
							"type": "uint256"
						}
					],
					"name": "burn",
					"outputs": [],
					"stateMutability": "nonpayable",
					"type": "function"
				},
				{
					"inputs": [
						{
							"internalType": "address",
							"name": "account",
							"type": "address"
						},
						{
							"internalType": "uint256",
							"name": "amount",
							"type": "uint256"
						}
					],
					"name": "burnFrom",
					"outputs": [],
					"stateMutability": "nonpayable",
					"type": "function"
				},
				{
					"inputs": [],
					"name": "cap",
					"outputs": [
						{
							"internalType": "uint256",
							"name": "",
							"type": "uint256"
						}
					],
					"stateMutability": "view",
					"type": "function"
				},
				{
					"inputs": [],
					"name": "decimals",
					"outputs": [
						{
							"internalType": "uint8",
							"name": "",
							"type": "uint8"
						}
					],
					"stateMutability": "view",
					"type": "function"
				},
				{
					"inputs": [
						{
							"internalType": "address",
							"name": "spender",
							"type": "address"
						},
						{
							"internalType": "uint256",
							"name": "subtractedValue",
							"type": "uint256"
						}
					],
					"name": "decreaseAllowance",
					"outputs": [
						{
							"internalType": "bool",
							"name": "",
							"type": "bool"
						}
					],
					"stateMutability": "nonpayable",
					"type": "function"
				},
				{
					"inputs": [
						{
							"internalType": "address",
							"name": "spender",
							"type": "address"
						},
						{
							"internalType": "uint256",
							"name": "addedValue",
							"type": "uint256"
						}
					],
					"name": "increaseAllowance",
					"outputs": [
						{
							"internalType": "bool",
							"name": "",
							"type": "bool"
						}
					],
					"stateMutability": "nonpayable",
					"type": "function"
				},
				{
					"inputs": [],
					"name": "name",
					"outputs": [
						{
							"internalType": "string",
							"name": "",
							"type": "string"
						}
					],
					"stateMutability": "view",
					"type": "function"
				},
				{
					"inputs": [],
					"name": "owner",
					"outputs": [
						{
							"internalType": "address payable",
							"name": "",
							"type": "address"
						}
					],
					"stateMutability": "view",
					"type": "function"
				},
				{
					"inputs": [
						{
							"internalType": "address",
							"name": "_bettingContract",
							"type": "address"
						},
						{
							"internalType": "bool",
							"name": "status",
							"type": "bool"
						}
					],
					"name": "setBettingContract",
					"outputs": [],
					"stateMutability": "nonpayable",
					"type": "function"
				},
				{
					"inputs": [
						{
							"internalType": "uint256",
							"name": "reward",
							"type": "uint256"
						}
					],
					"name": "setBlockReward",
					"outputs": [],
					"stateMutability": "nonpayable",
					"type": "function"
				},
				{
					"inputs": [],
					"name": "symbol",
					"outputs": [
						{
							"internalType": "string",
							"name": "",
							"type": "string"
						}
					],
					"stateMutability": "view",
					"type": "function"
				},
				{
					"inputs": [],
					"name": "totalSupply",
					"outputs": [
						{
							"internalType": "uint256",
							"name": "",
							"type": "uint256"
						}
					],
					"stateMutability": "view",
					"type": "function"
				},
				{
					"inputs": [
						{
							"internalType": "address",
							"name": "to",
							"type": "address"
						},
						{
							"internalType": "uint256",
							"name": "amount",
							"type": "uint256"
						}
					],
					"name": "transfer",
					"outputs": [
						{
							"internalType": "bool",
							"name": "",
							"type": "bool"
						}
					],
					"stateMutability": "nonpayable",
					"type": "function"
				},
				{
					"inputs": [
						{
							"internalType": "address",
							"name": "from",
							"type": "address"
						},
						{
							"internalType": "address",
							"name": "to",
							"type": "address"
						},
						{
							"internalType": "uint256",
							"name": "amount",
							"type": "uint256"
						}
					],
					"name": "transferForBetting",
					"outputs": [
						{
							"internalType": "bool",
							"name": "",
							"type": "bool"
						}
					],
					"stateMutability": "nonpayable",
					"type": "function"
				},
				{
					"inputs": [
						{
							"internalType": "address",
							"name": "from",
							"type": "address"
						},
						{
							"internalType": "address",
							"name": "to",
							"type": "address"
						},
						{
							"internalType": "uint256",
							"name": "amount",
							"type": "uint256"
						}
					],
					"name": "transferFrom",
					"outputs": [
						{
							"internalType": "bool",
							"name": "",
							"type": "bool"
						}
					],
					"stateMutability": "nonpayable",
					"type": "function"
				}
			],
			"devdoc": {
				"events": {
					"Approval(address,address,uint256)": {
						"details": "Emitted when the allowance of a `spender` for an `owner` is set by a call to {approve}. `value` is the new allowance."
					},
					"Transfer(address,address,uint256)": {
						"details": "Emitted when `value` tokens are moved from one account (`from`) to another (`to`). Note that `value` may be zero."
					}
				},
				"kind": "dev",
				"methods": {
					"allowance(address,address)": {
						"details": "See {IERC20-allowance}."
					},
					"approve(address,uint256)": {
						"details": "See {IERC20-approve}. NOTE: If `amount` is the maximum `uint256`, the allowance is not updated on `transferFrom`. This is semantically equivalent to an infinite approval. Requirements: - `spender` cannot be the zero address."
					},
					"balanceOf(address)": {
						"details": "See {IERC20-balanceOf}."
					},
					"burn(uint256)": {
						"details": "Destroys `amount` tokens from the caller. See {ERC20-_burn}."
					},
					"burnFrom(address,uint256)": {
						"details": "Destroys `amount` tokens from `account`, deducting from the caller's allowance. See {ERC20-_burn} and {ERC20-allowance}. Requirements: - the caller must have allowance for ``accounts``'s tokens of at least `amount`."
					},
					"cap()": {
						"details": "Returns the cap on the token's total supply."
					},
					"decimals()": {
						"details": "Returns the number of decimals used to get its user representation. For example, if `decimals` equals `2`, a balance of `505` tokens should be displayed to a user as `5.05` (`505 / 10 ** 2`). Tokens usually opt for a value of 18, imitating the relationship between Ether and Wei. This is the default value returned by this function, unless it's overridden. NOTE: This information is only used for _display_ purposes: it in no way affects any of the arithmetic of the contract, including {IERC20-balanceOf} and {IERC20-transfer}."
					},
					"decreaseAllowance(address,uint256)": {
						"details": "Atomically decreases the allowance granted to `spender` by the caller. This is an alternative to {approve} that can be used as a mitigation for problems described in {IERC20-approve}. Emits an {Approval} event indicating the updated allowance. Requirements: - `spender` cannot be the zero address. - `spender` must have allowance for the caller of at least `subtractedValue`."
					},
					"increaseAllowance(address,uint256)": {
						"details": "Atomically increases the allowance granted to `spender` by the caller. This is an alternative to {approve} that can be used as a mitigation for problems described in {IERC20-approve}. Emits an {Approval} event indicating the updated allowance. Requirements: - `spender` cannot be the zero address."
					},
					"name()": {
						"details": "Returns the name of the token."
					},
					"symbol()": {
						"details": "Returns the symbol of the token, usually a shorter version of the name."
					},
					"totalSupply()": {
						"details": "See {IERC20-totalSupply}."
					},
					"transfer(address,uint256)": {
						"details": "See {IERC20-transfer}. Requirements: - `to` cannot be the zero address. - the caller must have a balance of at least `amount`."
					},
					"transferFrom(address,address,uint256)": {
						"details": "See {IERC20-transferFrom}. Emits an {Approval} event indicating the updated allowance. This is not required by the EIP. See the note at the beginning of {ERC20}. NOTE: Does not update the allowance if the current allowance is the maximum `uint256`. Requirements: - `from` and `to` cannot be the zero address. - `from` must have a balance of at least `amount`. - the caller must have allowance for ``from``'s tokens of at least `amount`."
					}
				},
				"version": 1
			},
			"evm": {
				"assembly": "    /* \"contracts/EuroBetToken.sol\":470:2723  contract EuroBetToken is ERC20Capped, ERC20Burnable {  //Burnable dadurch, dass wir nicht wissen ob das Cap zuviel ist, können wir sie danach burnen... */\n  mstore(0x40, 0xa0)\n    /* \"contracts/EuroBetToken.sol\":776:1147  constructor(uint256 cap, uint256 reward) ERC20(\"EuroBetToken\", \"EBT\") ERC20Capped (cap * (10 ** decimals())){ //10 Millionen CAP Tokens... */\n  callvalue\n  dup1\n  iszero\n  tag_1\n  jumpi\n  0x00\n  dup1\n  revert\ntag_1:\n  pop\n  mload(0x40)\n  sub(codesize, bytecodeSize)\n  dup1\n  bytecodeSize\n  dup4\n  codecopy\n  dup2\n  dup2\n  add\n  0x40\n  mstore\n  dup2\n  add\n  swap1\n  tag_2\n  swap2\n  swap1\n  tag_3\n  jump\t// in\ntag_2:\n    /* \"contracts/EuroBetToken.sol\":872:882  decimals() */\n  tag_5\n    /* \"contracts/EuroBetToken.sol\":872:880  decimals */\n  shl(0x20, tag_6)\n    /* \"contracts/EuroBetToken.sol\":872:882  decimals() */\n  0x20\n  shr\n  jump\t// in\ntag_5:\n    /* \"contracts/EuroBetToken.sol\":866:868  10 */\n  0x0a\n    /* \"contracts/EuroBetToken.sol\":866:882  10 ** decimals() */\n  tag_7\n  swap2\n  swap1\n  tag_8\n  jump\t// in\ntag_7:\n    /* \"contracts/EuroBetToken.sol\":859:862  cap */\n  dup3\n    /* \"contracts/EuroBetToken.sol\":859:883  cap * (10 ** decimals()) */\n  tag_9\n  swap2\n  swap1\n  tag_10\n  jump\t// in\ntag_9:\n    /* \"https://github.com/OpenZeppelin/openzeppelin-contracts/blob/master/contracts/token/ERC20/ERC20.sol\":1980:2093  constructor(string memory name_, string memory symbol_) {... */\n  mload(0x40)\n  dup1\n  0x40\n  add\n  0x40\n  mstore\n  dup1\n  0x0c\n  dup2\n  mstore\n  0x20\n  add\n  0x4575726f426574546f6b656e0000000000000000000000000000000000000000\n  dup2\n  mstore\n  pop\n  mload(0x40)\n  dup1\n  0x40\n  add\n  0x40\n  mstore\n  dup1\n  0x03\n  dup2\n  mstore\n  0x20\n  add\n  0x4542540000000000000000000000000000000000000000000000000000000000\n  dup2\n  mstore\n  pop\n    /* \"https://github.com/OpenZeppelin/openzeppelin-contracts/blob/master/contracts/token/ERC20/ERC20.sol\":2054:2059  name_ */\n  dup2\n    /* \"https://github.com/OpenZeppelin/openzeppelin-contracts/blob/master/contracts/token/ERC20/ERC20.sol\":2046:2051  _name */\n  0x03\n    /* \"https://github.com/OpenZeppelin/openzeppelin-contracts/blob/master/contracts/token/ERC20/ERC20.sol\":2046:2059  _name = name_ */\n  swap1\n  dup2\n  tag_14\n  swap2\n  swap1\n  tag_15\n  jump\t// in\ntag_14:\n  pop\n    /* \"https://github.com/OpenZeppelin/openzeppelin-contracts/blob/master/contracts/token/ERC20/ERC20.sol\":2079:2086  symbol_ */\n  dup1\n    /* \"https://github.com/OpenZeppelin/openzeppelin-contracts/blob/master/contracts/token/ERC20/ERC20.sol\":2069:2076  _symbol */\n  0x04\n    /* \"https://github.com/OpenZeppelin/openzeppelin-contracts/blob/master/contracts/token/ERC20/ERC20.sol\":2069:2086  _symbol = symbol_ */\n  swap1\n  dup2\n  tag_16\n  swap2\n  swap1\n  tag_15\n  jump\t// in\ntag_16:\n  pop\n    /* \"https://github.com/OpenZeppelin/openzeppelin-contracts/blob/master/contracts/token/ERC20/ERC20.sol\":1980:2093  constructor(string memory name_, string memory symbol_) {... */\n  pop\n  pop\n    /* \"https://github.com/OpenZeppelin/openzeppelin-contracts/blob/master/contracts/token/ERC20/extensions/ERC20Capped.sol\":501:502  0 */\n  0x00\n    /* \"https://github.com/OpenZeppelin/openzeppelin-contracts/blob/master/contracts/token/ERC20/extensions/ERC20Capped.sol\":494:498  cap_ */\n  dup2\n    /* \"https://github.com/OpenZeppelin/openzeppelin-contracts/blob/master/contracts/token/ERC20/extensions/ERC20Capped.sol\":494:502  cap_ > 0 */\n  gt\n    /* \"https://github.com/OpenZeppelin/openzeppelin-contracts/blob/master/contracts/token/ERC20/extensions/ERC20Capped.sol\":486:528  require(cap_ > 0, \"ERC20Capped: cap is 0\") */\n  tag_18\n  jumpi\n  mload(0x40)\n  0x08c379a000000000000000000000000000000000000000000000000000000000\n  dup2\n  mstore\n  0x04\n  add\n  tag_19\n  swap1\n  tag_20\n  jump\t// in\ntag_19:\n  mload(0x40)\n  dup1\n  swap2\n  sub\n  swap1\n  revert\ntag_18:\n    /* \"https://github.com/OpenZeppelin/openzeppelin-contracts/blob/master/contracts/token/ERC20/extensions/ERC20Capped.sol\":545:549  cap_ */\n  dup1\n    /* \"https://github.com/OpenZeppelin/openzeppelin-contracts/blob/master/contracts/token/ERC20/extensions/ERC20Capped.sol\":538:549  _cap = cap_ */\n  0x80\n  dup2\n  dup2\n  mstore\n  pop\n  pop\n    /* \"https://github.com/OpenZeppelin/openzeppelin-contracts/blob/master/contracts/token/ERC20/extensions/ERC20Capped.sol\":450:556  constructor(uint256 cap_) {... */\n  pop\n    /* \"contracts/EuroBetToken.sol\":937:947  msg.sender */\n  caller\n    /* \"contracts/EuroBetToken.sol\":921:926  owner */\n  0x05\n  0x00\n    /* \"contracts/EuroBetToken.sol\":921:948  owner = payable(msg.sender) */\n  0x0100\n  exp\n  dup2\n  sload\n  dup2\n  0xffffffffffffffffffffffffffffffffffffffff\n  mul\n  not\n  and\n  swap1\n  dup4\n  0xffffffffffffffffffffffffffffffffffffffff\n  and\n  mul\n  or\n  swap1\n  sstore\n  pop\n    /* \"contracts/EuroBetToken.sol\":959:1001  _mint(owner, 5000000 * (10 ** decimals())) */\n  tag_22\n    /* \"contracts/EuroBetToken.sol\":965:970  owner */\n  0x05\n  0x00\n  swap1\n  sload\n  swap1\n  0x0100\n  exp\n  swap1\n  div\n  0xffffffffffffffffffffffffffffffffffffffff\n  and\n    /* \"contracts/EuroBetToken.sol\":989:999  decimals() */\n  tag_23\n    /* \"contracts/EuroBetToken.sol\":989:997  decimals */\n  shl(0x20, tag_6)\n    /* \"contracts/EuroBetToken.sol\":989:999  decimals() */\n  0x20\n  shr\n  jump\t// in\ntag_23:\n    /* \"contracts/EuroBetToken.sol\":983:985  10 */\n  0x0a\n    /* \"contracts/EuroBetToken.sol\":983:999  10 ** decimals() */\n  tag_24\n  swap2\n  swap1\n  tag_8\n  jump\t// in\ntag_24:\n    /* \"contracts/EuroBetToken.sol\":972:979  5000000 */\n  0x4c4b40\n    /* \"contracts/EuroBetToken.sol\":972:1000  5000000 * (10 ** decimals()) */\n  tag_25\n  swap2\n  swap1\n  tag_10\n  jump\t// in\ntag_25:\n    /* \"contracts/EuroBetToken.sol\":959:964  _mint */\n  shl(0x20, tag_26)\n    /* \"contracts/EuroBetToken.sol\":959:1001  _mint(owner, 5000000 * (10 ** decimals())) */\n  0x20\n  shr\n  jump\t// in\ntag_22:\n    /* \"contracts/EuroBetToken.sol\":1102:1112  decimals() */\n  tag_27\n    /* \"contracts/EuroBetToken.sol\":1102:1110  decimals */\n  shl(0x20, tag_6)\n    /* \"contracts/EuroBetToken.sol\":1102:1112  decimals() */\n  0x20\n  shr\n  jump\t// in\ntag_27:\n    /* \"contracts/EuroBetToken.sol\":1096:1098  10 */\n  0x0a\n    /* \"contracts/EuroBetToken.sol\":1096:1112  10 ** decimals() */\n  tag_28\n  swap2\n  swap1\n  tag_8\n  jump\t// in\ntag_28:\n    /* \"contracts/EuroBetToken.sol\":1086:1092  reward */\n  dup2\n    /* \"contracts/EuroBetToken.sol\":1086:1113  reward * (10 ** decimals()) */\n  tag_29\n  swap2\n  swap1\n  tag_10\n  jump\t// in\ntag_29:\n    /* \"contracts/EuroBetToken.sol\":1072:1083  blockReward */\n  0x06\n    /* \"contracts/EuroBetToken.sol\":1072:1113  blockReward = reward * (10 ** decimals()) */\n  dup2\n  swap1\n  sstore\n  pop\n    /* \"contracts/EuroBetToken.sol\":776:1147  constructor(uint256 cap, uint256 reward) ERC20(\"EuroBetToken\", \"EBT\") ERC20Capped (cap * (10 ** decimals())){ //10 Millionen CAP Tokens... */\n  pop\n  pop\n    /* \"contracts/EuroBetToken.sol\":470:2723  contract EuroBetToken is ERC20Capped, ERC20Burnable {  //Burnable dadurch, dass wir nicht wissen ob das Cap zuviel ist, können wir sie danach burnen... */\n  jump(tag_30)\n    /* \"https://github.com/OpenZeppelin/openzeppelin-contracts/blob/master/contracts/token/ERC20/ERC20.sol\":3104:3195  function decimals() public view virtual override returns (uint8) {... */\ntag_6:\n    /* \"https://github.com/OpenZeppelin/openzeppelin-contracts/blob/master/contracts/token/ERC20/ERC20.sol\":3162:3167  uint8 */\n  0x00\n    /* \"https://github.com/OpenZeppelin/openzeppelin-contracts/blob/master/contracts/token/ERC20/ERC20.sol\":3186:3188  18 */\n  0x12\n    /* \"https://github.com/OpenZeppelin/openzeppelin-contracts/blob/master/contracts/token/ERC20/ERC20.sol\":3179:3188  return 18 */\n  swap1\n  pop\n    /* \"https://github.com/OpenZeppelin/openzeppelin-contracts/blob/master/contracts/token/ERC20/ERC20.sol\":3104:3195  function decimals() public view virtual override returns (uint8) {... */\n  swap1\n  jump\t// out\n    /* \"contracts/EuroBetToken.sol\":1267:1494  function _mint(address account, uint256 amount) internal virtual override(ERC20Capped, ERC20) {... */\ntag_26:\n    /* \"contracts/EuroBetToken.sol\":1412:1417  cap() */\n  tag_33\n    /* \"contracts/EuroBetToken.sol\":1412:1415  cap */\n  shl(0x20, tag_34)\n    /* \"contracts/EuroBetToken.sol\":1412:1417  cap() */\n  0x20\n  shr\n  jump\t// in\ntag_33:\n    /* \"contracts/EuroBetToken.sol\":1402:1408  amount */\n  dup2\n    /* \"contracts/EuroBetToken.sol\":1380:1399  ERC20.totalSupply() */\n  tag_35\n    /* \"contracts/EuroBetToken.sol\":1380:1397  ERC20.totalSupply */\n  shl(0x20, tag_36)\n    /* \"contracts/EuroBetToken.sol\":1380:1399  ERC20.totalSupply() */\n  0x20\n  shr\n  jump\t// in\ntag_35:\n    /* \"contracts/EuroBetToken.sol\":1380:1408  ERC20.totalSupply() + amount */\n  tag_37\n  swap2\n  swap1\n  tag_38\n  jump\t// in\ntag_37:\n    /* \"contracts/EuroBetToken.sol\":1380:1417  ERC20.totalSupply() + amount <= cap() */\n  gt\n  iszero\n    /* \"contracts/EuroBetToken.sol\":1372:1447  require(ERC20.totalSupply() + amount <= cap(), \"ERC20Capped: cap exceeded\") */\n  tag_39\n  jumpi\n  mload(0x40)\n  0x08c379a000000000000000000000000000000000000000000000000000000000\n  dup2\n  mstore\n  0x04\n  add\n  tag_40\n  swap1\n  tag_41\n  jump\t// in\ntag_40:\n  mload(0x40)\n  dup1\n  swap2\n  sub\n  swap1\n  revert\ntag_39:\n    /* \"contracts/EuroBetToken.sol\":1458:1486  super._mint(account, amount) */\n  tag_42\n    /* \"contracts/EuroBetToken.sol\":1470:1477  account */\n  dup3\n    /* \"contracts/EuroBetToken.sol\":1479:1485  amount */\n  dup3\n    /* \"contracts/EuroBetToken.sol\":1458:1469  super._mint */\n  shl(0x20, tag_43)\n    /* \"contracts/EuroBetToken.sol\":1458:1486  super._mint(account, amount) */\n  0x20\n  shr\n  jump\t// in\ntag_42:\n    /* \"contracts/EuroBetToken.sol\":1267:1494  function _mint(address account, uint256 amount) internal virtual override(ERC20Capped, ERC20) {... */\n  pop\n  pop\n  jump\t// out\n    /* \"https://github.com/OpenZeppelin/openzeppelin-contracts/blob/master/contracts/token/ERC20/extensions/ERC20Capped.sol\":635:716  function cap() public view virtual returns (uint256) {... */\ntag_34:\n    /* \"https://github.com/OpenZeppelin/openzeppelin-contracts/blob/master/contracts/token/ERC20/extensions/ERC20Capped.sol\":679:686  uint256 */\n  0x00\n    /* \"https://github.com/OpenZeppelin/openzeppelin-contracts/blob/master/contracts/token/ERC20/extensions/ERC20Capped.sol\":705:709  _cap */\n  mload(0x80)\n    /* \"https://github.com/OpenZeppelin/openzeppelin-contracts/blob/master/contracts/token/ERC20/extensions/ERC20Capped.sol\":698:709  return _cap */\n  swap1\n  pop\n    /* \"https://github.com/OpenZeppelin/openzeppelin-contracts/blob/master/contracts/token/ERC20/extensions/ERC20Capped.sol\":635:716  function cap() public view virtual returns (uint256) {... */\n  swap1\n  jump\t// out\n    /* \"https://github.com/OpenZeppelin/openzeppelin-contracts/blob/master/contracts/token/ERC20/ERC20.sol\":3255:3361  function totalSupply() public view virtual override returns (uint256) {... */\ntag_36:\n    /* \"https://github.com/OpenZeppelin/openzeppelin-contracts/blob/master/contracts/token/ERC20/ERC20.sol\":3316:3323  uint256 */\n  0x00\n    /* \"https://github.com/OpenZeppelin/openzeppelin-contracts/blob/master/contracts/token/ERC20/ERC20.sol\":3342:3354  _totalSupply */\n  sload(0x02)\n    /* \"https://github.com/OpenZeppelin/openzeppelin-contracts/blob/master/contracts/token/ERC20/ERC20.sol\":3335:3354  return _totalSupply */\n  swap1\n  pop\n    /* \"https://github.com/OpenZeppelin/openzeppelin-contracts/blob/master/contracts/token/ERC20/ERC20.sol\":3255:3361  function totalSupply() public view virtual override returns (uint256) {... */\n  swap1\n  jump\t// out\n    /* \"https://github.com/OpenZeppelin/openzeppelin-contracts/blob/master/contracts/token/ERC20/extensions/ERC20Capped.sol\":769:973  function _mint(address account, uint256 amount) internal virtual override {... */\ntag_43:\n    /* \"https://github.com/OpenZeppelin/openzeppelin-contracts/blob/master/contracts/token/ERC20/extensions/ERC20Capped.sol\":893:898  cap() */\n  tag_47\n    /* \"https://github.com/OpenZeppelin/openzeppelin-contracts/blob/master/contracts/token/ERC20/extensions/ERC20Capped.sol\":893:896  cap */\n  shl(0x20, tag_34)\n    /* \"https://github.com/OpenZeppelin/openzeppelin-contracts/blob/master/contracts/token/ERC20/extensions/ERC20Capped.sol\":893:898  cap() */\n  0x20\n  shr\n  jump\t// in\ntag_47:\n    /* \"https://github.com/OpenZeppelin/openzeppelin-contracts/blob/master/contracts/token/ERC20/extensions/ERC20Capped.sol\":883:889  amount */\n  dup2\n    /* \"https://github.com/OpenZeppelin/openzeppelin-contracts/blob/master/contracts/token/ERC20/extensions/ERC20Capped.sol\":861:880  ERC20.totalSupply() */\n  tag_48\n    /* \"https://github.com/OpenZeppelin/openzeppelin-contracts/blob/master/contracts/token/ERC20/extensions/ERC20Capped.sol\":861:878  ERC20.totalSupply */\n  shl(0x20, tag_36)\n    /* \"https://github.com/OpenZeppelin/openzeppelin-contracts/blob/master/contracts/token/ERC20/extensions/ERC20Capped.sol\":861:880  ERC20.totalSupply() */\n  0x20\n  shr\n  jump\t// in\ntag_48:\n    /* \"https://github.com/OpenZeppelin/openzeppelin-contracts/blob/master/contracts/token/ERC20/extensions/ERC20Capped.sol\":861:889  ERC20.totalSupply() + amount */\n  tag_49\n  swap2\n  swap1\n  tag_38\n  jump\t// in\ntag_49:\n    /* \"https://github.com/OpenZeppelin/openzeppelin-contracts/blob/master/contracts/token/ERC20/extensions/ERC20Capped.sol\":861:898  ERC20.totalSupply() + amount <= cap() */\n  gt\n  iszero\n    /* \"https://github.com/OpenZeppelin/openzeppelin-contracts/blob/master/contracts/token/ERC20/extensions/ERC20Capped.sol\":853:928  require(ERC20.totalSupply() + amount <= cap(), \"ERC20Capped: cap exceeded\") */\n  tag_50\n  jumpi\n  mload(0x40)\n  0x08c379a000000000000000000000000000000000000000000000000000000000\n  dup2\n  mstore\n  0x04\n  add\n  tag_51\n  swap1\n  tag_41\n  jump\t// in\ntag_51:\n  mload(0x40)\n  dup1\n  swap2\n  sub\n  swap1\n  revert\ntag_50:\n    /* \"https://github.com/OpenZeppelin/openzeppelin-contracts/blob/master/contracts/token/ERC20/extensions/ERC20Capped.sol\":938:966  super._mint(account, amount) */\n  tag_52\n    /* \"https://github.com/OpenZeppelin/openzeppelin-contracts/blob/master/contracts/token/ERC20/extensions/ERC20Capped.sol\":950:957  account */\n  dup3\n    /* \"https://github.com/OpenZeppelin/openzeppelin-contracts/blob/master/contracts/token/ERC20/extensions/ERC20Capped.sol\":959:965  amount */\n  dup3\n    /* \"https://github.com/OpenZeppelin/openzeppelin-contracts/blob/master/contracts/token/ERC20/extensions/ERC20Capped.sol\":938:949  super._mint */\n  shl(0x20, tag_53)\n    /* \"https://github.com/OpenZeppelin/openzeppelin-contracts/blob/master/contracts/token/ERC20/extensions/ERC20Capped.sol\":938:966  super._mint(account, amount) */\n  0x20\n  shr\n  jump\t// in\ntag_52:\n    /* \"https://github.com/OpenZeppelin/openzeppelin-contracts/blob/master/contracts/token/ERC20/extensions/ERC20Capped.sol\":769:973  function _mint(address account, uint256 amount) internal virtual override {... */\n  pop\n  pop\n  jump\t// out\n    /* \"https://github.com/OpenZeppelin/openzeppelin-contracts/blob/master/contracts/token/ERC20/ERC20.sol\":8520:9055  function _mint(address account, uint256 amount) internal virtual {... */\ntag_53:\n    /* \"https://github.com/OpenZeppelin/openzeppelin-contracts/blob/master/contracts/token/ERC20/ERC20.sol\":8622:8623  0 */\n  0x00\n    /* \"https://github.com/OpenZeppelin/openzeppelin-contracts/blob/master/contracts/token/ERC20/ERC20.sol\":8603:8624  account != address(0) */\n  0xffffffffffffffffffffffffffffffffffffffff\n  and\n    /* \"https://github.com/OpenZeppelin/openzeppelin-contracts/blob/master/contracts/token/ERC20/ERC20.sol\":8603:8610  account */\n  dup3\n    /* \"https://github.com/OpenZeppelin/openzeppelin-contracts/blob/master/contracts/token/ERC20/ERC20.sol\":8603:8624  account != address(0) */\n  0xffffffffffffffffffffffffffffffffffffffff\n  and\n  sub\n    /* \"https://github.com/OpenZeppelin/openzeppelin-contracts/blob/master/contracts/token/ERC20/ERC20.sol\":8595:8660  require(account != address(0), \"ERC20: mint to the zero address\") */\n  tag_55\n  jumpi\n  mload(0x40)\n  0x08c379a000000000000000000000000000000000000000000000000000000000\n  dup2\n  mstore\n  0x04\n  add\n  tag_56\n  swap1\n  tag_57\n  jump\t// in\ntag_56:\n  mload(0x40)\n  dup1\n  swap2\n  sub\n  swap1\n  revert\ntag_55:\n    /* \"https://github.com/OpenZeppelin/openzeppelin-contracts/blob/master/contracts/token/ERC20/ERC20.sol\":8671:8720  _beforeTokenTransfer(address(0), account, amount) */\n  tag_58\n    /* \"https://github.com/OpenZeppelin/openzeppelin-contracts/blob/master/contracts/token/ERC20/ERC20.sol\":8700:8701  0 */\n  0x00\n    /* \"https://github.com/OpenZeppelin/openzeppelin-contracts/blob/master/contracts/token/ERC20/ERC20.sol\":8704:8711  account */\n  dup4\n    /* \"https://github.com/OpenZeppelin/openzeppelin-contracts/blob/master/contracts/token/ERC20/ERC20.sol\":8713:8719  amount */\n  dup4\n    /* \"https://github.com/OpenZeppelin/openzeppelin-contracts/blob/master/contracts/token/ERC20/ERC20.sol\":8671:8691  _beforeTokenTransfer */\n  shl(0x20, tag_59)\n    /* \"https://github.com/OpenZeppelin/openzeppelin-contracts/blob/master/contracts/token/ERC20/ERC20.sol\":8671:8720  _beforeTokenTransfer(address(0), account, amount) */\n  0x20\n  shr\n  jump\t// in\ntag_58:\n    /* \"https://github.com/OpenZeppelin/openzeppelin-contracts/blob/master/contracts/token/ERC20/ERC20.sol\":8747:8753  amount */\n  dup1\n    /* \"https://github.com/OpenZeppelin/openzeppelin-contracts/blob/master/contracts/token/ERC20/ERC20.sol\":8731:8743  _totalSupply */\n  0x02\n  0x00\n    /* \"https://github.com/OpenZeppelin/openzeppelin-contracts/blob/master/contracts/token/ERC20/ERC20.sol\":8731:8753  _totalSupply += amount */\n  dup3\n  dup3\n  sload\n  tag_60\n  swap2\n  swap1\n  tag_38\n  jump\t// in\ntag_60:\n  swap3\n  pop\n  pop\n  dup2\n  swap1\n  sstore\n  pop\n    /* \"https://github.com/OpenZeppelin/openzeppelin-contracts/blob/master/contracts/token/ERC20/ERC20.sol\":8921:8927  amount */\n  dup1\n    /* \"https://github.com/OpenZeppelin/openzeppelin-contracts/blob/master/contracts/token/ERC20/ERC20.sol\":8899:8908  _balances */\n  0x00\n    /* \"https://github.com/OpenZeppelin/openzeppelin-contracts/blob/master/contracts/token/ERC20/ERC20.sol\":8899:8917  _balances[account] */\n  dup1\n    /* \"https://github.com/OpenZeppelin/openzeppelin-contracts/blob/master/contracts/token/ERC20/ERC20.sol\":8909:8916  account */\n  dup5\n    /* \"https://github.com/OpenZeppelin/openzeppelin-contracts/blob/master/contracts/token/ERC20/ERC20.sol\":8899:8917  _balances[account] */\n  0xffffffffffffffffffffffffffffffffffffffff\n  and\n  0xffffffffffffffffffffffffffffffffffffffff\n  and\n  dup2\n  mstore\n  0x20\n  add\n  swap1\n  dup2\n  mstore\n  0x20\n  add\n  0x00\n  keccak256\n  0x00\n    /* \"https://github.com/OpenZeppelin/openzeppelin-contracts/blob/master/contracts/token/ERC20/ERC20.sol\":8899:8927  _balances[account] += amount */\n  dup3\n  dup3\n  sload\n  add\n  swap3\n  pop\n  pop\n  dup2\n  swap1\n  sstore\n  pop\n    /* \"https://github.com/OpenZeppelin/openzeppelin-contracts/blob/master/contracts/token/ERC20/ERC20.sol\":8973:8980  account */\n  dup2\n    /* \"https://github.com/OpenZeppelin/openzeppelin-contracts/blob/master/contracts/token/ERC20/ERC20.sol\":8952:8989  Transfer(address(0), account, amount) */\n  0xffffffffffffffffffffffffffffffffffffffff\n  and\n    /* \"https://github.com/OpenZeppelin/openzeppelin-contracts/blob/master/contracts/token/ERC20/ERC20.sol\":8969:8970  0 */\n  0x00\n    /* \"https://github.com/OpenZeppelin/openzeppelin-contracts/blob/master/contracts/token/ERC20/ERC20.sol\":8952:8989  Transfer(address(0), account, amount) */\n  0xffffffffffffffffffffffffffffffffffffffff\n  and\n  0xddf252ad1be2c89b69c2b068fc378daa952ba7f163c4a11628f55a4df523b3ef\n    /* \"https://github.com/OpenZeppelin/openzeppelin-contracts/blob/master/contracts/token/ERC20/ERC20.sol\":8982:8988  amount */\n  dup4\n    /* \"https://github.com/OpenZeppelin/openzeppelin-contracts/blob/master/contracts/token/ERC20/ERC20.sol\":8952:8989  Transfer(address(0), account, amount) */\n  mload(0x40)\n  tag_61\n  swap2\n  swap1\n  tag_62\n  jump\t// in\ntag_61:\n  mload(0x40)\n  dup1\n  swap2\n  sub\n  swap1\n  log3\n    /* \"https://github.com/OpenZeppelin/openzeppelin-contracts/blob/master/contracts/token/ERC20/ERC20.sol\":9000:9048  _afterTokenTransfer(address(0), account, amount) */\n  tag_63\n    /* \"https://github.com/OpenZeppelin/openzeppelin-contracts/blob/master/contracts/token/ERC20/ERC20.sol\":9028:9029  0 */\n  0x00\n    /* \"https://github.com/OpenZeppelin/openzeppelin-contracts/blob/master/contracts/token/ERC20/ERC20.sol\":9032:9039  account */\n  dup4\n    /* \"https://github.com/OpenZeppelin/openzeppelin-contracts/blob/master/contracts/token/ERC20/ERC20.sol\":9041:9047  amount */\n  dup4\n    /* \"https://github.com/OpenZeppelin/openzeppelin-contracts/blob/master/contracts/token/ERC20/ERC20.sol\":9000:9019  _afterTokenTransfer */\n  shl(0x20, tag_64)\n    /* \"https://github.com/OpenZeppelin/openzeppelin-contracts/blob/master/contracts/token/ERC20/ERC20.sol\":9000:9048  _afterTokenTransfer(address(0), account, amount) */\n  0x20\n  shr\n  jump\t// in\ntag_63:\n    /* \"https://github.com/OpenZeppelin/openzeppelin-contracts/blob/master/contracts/token/ERC20/ERC20.sol\":8520:9055  function _mint(address account, uint256 amount) internal virtual {... */\n  pop\n  pop\n  jump\t// out\n    /* \"contracts/EuroBetToken.sol\":1502:1841  function _beforeTokenTransfer(address from, address to, uint256 value) internal virtual override {... */\ntag_59:\n    /* \"contracts/EuroBetToken.sol\":1629:1630  0 */\n  0x00\n    /* \"contracts/EuroBetToken.sol\":1613:1631  from != address(0) */\n  0xffffffffffffffffffffffffffffffffffffffff\n  and\n    /* \"contracts/EuroBetToken.sol\":1613:1617  from */\n  dup4\n    /* \"contracts/EuroBetToken.sol\":1613:1631  from != address(0) */\n  0xffffffffffffffffffffffffffffffffffffffff\n  and\n  eq\n  iszero\n    /* \"contracts/EuroBetToken.sol\":1613:1655  from != address(0) && to != block.coinbase */\n  dup1\n  iszero\n  tag_66\n  jumpi\n  pop\n    /* \"contracts/EuroBetToken.sol\":1641:1655  block.coinbase */\n  coinbase\n    /* \"contracts/EuroBetToken.sol\":1635:1655  to != block.coinbase */\n  0xffffffffffffffffffffffffffffffffffffffff\n  and\n    /* \"contracts/EuroBetToken.sol\":1635:1637  to */\n  dup3\n    /* \"contracts/EuroBetToken.sol\":1635:1655  to != block.coinbase */\n  0xffffffffffffffffffffffffffffffffffffffff\n  and\n  eq\n  iszero\n    /* \"contracts/EuroBetToken.sol\":1613:1655  from != address(0) && to != block.coinbase */\ntag_66:\n    /* \"contracts/EuroBetToken.sol\":1613:1687  from != address(0) && to != block.coinbase && block.coinbase != address(0) */\n  dup1\n  iszero\n  tag_67\n  jumpi\n  pop\n    /* \"contracts/EuroBetToken.sol\":1685:1686  0 */\n  0x00\n    /* \"contracts/EuroBetToken.sol\":1659:1687  block.coinbase != address(0) */\n  0xffffffffffffffffffffffffffffffffffffffff\n  and\n    /* \"contracts/EuroBetToken.sol\":1659:1673  block.coinbase */\n  coinbase\n    /* \"contracts/EuroBetToken.sol\":1659:1687  block.coinbase != address(0) */\n  0xffffffffffffffffffffffffffffffffffffffff\n  and\n  eq\n  iszero\n    /* \"contracts/EuroBetToken.sol\":1613:1687  from != address(0) && to != block.coinbase && block.coinbase != address(0) */\ntag_67:\n    /* \"contracts/EuroBetToken.sol\":1613:1733  from != address(0) && to != block.coinbase && block.coinbase != address(0) && ERC20.totalSupply() + blockReward <= cap() */\n  dup1\n  iszero\n  tag_68\n  jumpi\n  pop\n    /* \"contracts/EuroBetToken.sol\":1728:1733  cap() */\n  tag_69\n    /* \"contracts/EuroBetToken.sol\":1728:1731  cap */\n  shl(0x20, tag_34)\n    /* \"contracts/EuroBetToken.sol\":1728:1733  cap() */\n  0x20\n  shr\n  jump\t// in\ntag_69:\n    /* \"contracts/EuroBetToken.sol\":1713:1724  blockReward */\n  sload(0x06)\n    /* \"contracts/EuroBetToken.sol\":1691:1710  ERC20.totalSupply() */\n  tag_70\n    /* \"contracts/EuroBetToken.sol\":1691:1708  ERC20.totalSupply */\n  shl(0x20, tag_36)\n    /* \"contracts/EuroBetToken.sol\":1691:1710  ERC20.totalSupply() */\n  0x20\n  shr\n  jump\t// in\ntag_70:\n    /* \"contracts/EuroBetToken.sol\":1691:1724  ERC20.totalSupply() + blockReward */\n  tag_71\n  swap2\n  swap1\n  tag_38\n  jump\t// in\ntag_71:\n    /* \"contracts/EuroBetToken.sol\":1691:1733  ERC20.totalSupply() + blockReward <= cap() */\n  gt\n  iszero\n    /* \"contracts/EuroBetToken.sol\":1613:1733  from != address(0) && to != block.coinbase && block.coinbase != address(0) && ERC20.totalSupply() + blockReward <= cap() */\ntag_68:\n    /* \"contracts/EuroBetToken.sol\":1610:1780  if(from != address(0) && to != block.coinbase && block.coinbase != address(0) && ERC20.totalSupply() + blockReward <= cap()) {... */\n  iszero\n  tag_72\n  jumpi\n    /* \"contracts/EuroBetToken.sol\":1750:1768  _mintMinerReward() */\n  tag_73\n    /* \"contracts/EuroBetToken.sol\":1750:1766  _mintMinerReward */\n  shl(0x20, tag_74)\n    /* \"contracts/EuroBetToken.sol\":1750:1768  _mintMinerReward() */\n  0x20\n  shr\n  jump\t// in\ntag_73:\n    /* \"contracts/EuroBetToken.sol\":1610:1780  if(from != address(0) && to != block.coinbase && block.coinbase != address(0) && ERC20.totalSupply() + blockReward <= cap()) {... */\ntag_72:\n    /* \"contracts/EuroBetToken.sol\":1790:1833  super._beforeTokenTransfer(from, to, value) */\n  tag_75\n    /* \"contracts/EuroBetToken.sol\":1817:1821  from */\n  dup4\n    /* \"contracts/EuroBetToken.sol\":1823:1825  to */\n  dup4\n    /* \"contracts/EuroBetToken.sol\":1827:1832  value */\n  dup4\n    /* \"contracts/EuroBetToken.sol\":1790:1816  super._beforeTokenTransfer */\n  shl(0x20, tag_76)\n    /* \"contracts/EuroBetToken.sol\":1790:1833  super._beforeTokenTransfer(from, to, value) */\n  0x20\n  shr\n  jump\t// in\ntag_75:\n    /* \"contracts/EuroBetToken.sol\":1502:1841  function _beforeTokenTransfer(address from, address to, uint256 value) internal virtual override {... */\n  pop\n  pop\n  pop\n  jump\t// out\n    /* \"https://github.com/OpenZeppelin/openzeppelin-contracts/blob/master/contracts/token/ERC20/ERC20.sol\":12752:12842  function _afterTokenTransfer(address from, address to, uint256 amount) internal virtual {} */\ntag_64:\n  pop\n  pop\n  pop\n  jump\t// out\n    /* \"contracts/EuroBetToken.sol\":1169:1259  function _mintMinerReward() internal {... */\ntag_74:\n    /* \"contracts/EuroBetToken.sol\":1217:1251  _mint(block.coinbase, blockReward) */\n  tag_79\n    /* \"contracts/EuroBetToken.sol\":1223:1237  block.coinbase */\n  coinbase\n    /* \"contracts/EuroBetToken.sol\":1239:1250  blockReward */\n  sload(0x06)\n    /* \"contracts/EuroBetToken.sol\":1217:1222  _mint */\n  shl(0x20, tag_26)\n    /* \"contracts/EuroBetToken.sol\":1217:1251  _mint(block.coinbase, blockReward) */\n  0x20\n  shr\n  jump\t// in\ntag_79:\n    /* \"contracts/EuroBetToken.sol\":1169:1259  function _mintMinerReward() internal {... */\n  jump\t// out\n    /* \"https://github.com/OpenZeppelin/openzeppelin-contracts/blob/master/contracts/token/ERC20/ERC20.sol\":12073:12164  function _beforeTokenTransfer(address from, address to, uint256 amount) internal virtual {} */\ntag_76:\n  pop\n  pop\n  pop\n  jump\t// out\n    /* \"#utility.yul\":88:205   */\ntag_82:\n    /* \"#utility.yul\":197:198   */\n  0x00\n    /* \"#utility.yul\":194:195   */\n  dup1\n    /* \"#utility.yul\":187:199   */\n  revert\n    /* \"#utility.yul\":334:411   */\ntag_84:\n    /* \"#utility.yul\":371:378   */\n  0x00\n    /* \"#utility.yul\":400:405   */\n  dup2\n    /* \"#utility.yul\":389:405   */\n  swap1\n  pop\n    /* \"#utility.yul\":334:411   */\n  swap2\n  swap1\n  pop\n  jump\t// out\n    /* \"#utility.yul\":417:539   */\ntag_85:\n    /* \"#utility.yul\":490:514   */\n  tag_125\n    /* \"#utility.yul\":508:513   */\n  dup2\n    /* \"#utility.yul\":490:514   */\n  tag_84\n  jump\t// in\ntag_125:\n    /* \"#utility.yul\":483:488   */\n  dup2\n    /* \"#utility.yul\":480:515   */\n  eq\n    /* \"#utility.yul\":470:533   */\n  tag_126\n  jumpi\n    /* \"#utility.yul\":529:530   */\n  0x00\n    /* \"#utility.yul\":526:527   */\n  dup1\n    /* \"#utility.yul\":519:531   */\n  revert\n    /* \"#utility.yul\":470:533   */\ntag_126:\n    /* \"#utility.yul\":417:539   */\n  pop\n  jump\t// out\n    /* \"#utility.yul\":545:688   */\ntag_86:\n    /* \"#utility.yul\":602:607   */\n  0x00\n    /* \"#utility.yul\":633:639   */\n  dup2\n    /* \"#utility.yul\":627:640   */\n  mload\n    /* \"#utility.yul\":618:640   */\n  swap1\n  pop\n    /* \"#utility.yul\":649:682   */\n  tag_128\n    /* \"#utility.yul\":676:681   */\n  dup2\n    /* \"#utility.yul\":649:682   */\n  tag_85\n  jump\t// in\ntag_128:\n    /* \"#utility.yul\":545:688   */\n  swap3\n  swap2\n  pop\n  pop\n  jump\t// out\n    /* \"#utility.yul\":694:1201   */\ntag_3:\n    /* \"#utility.yul\":773:779   */\n  0x00\n    /* \"#utility.yul\":781:787   */\n  dup1\n    /* \"#utility.yul\":830:832   */\n  0x40\n    /* \"#utility.yul\":818:827   */\n  dup4\n    /* \"#utility.yul\":809:816   */\n  dup6\n    /* \"#utility.yul\":805:828   */\n  sub\n    /* \"#utility.yul\":801:833   */\n  slt\n    /* \"#utility.yul\":798:917   */\n  iszero\n  tag_130\n  jumpi\n    /* \"#utility.yul\":836:915   */\n  tag_131\n  tag_82\n  jump\t// in\ntag_131:\n    /* \"#utility.yul\":798:917   */\ntag_130:\n    /* \"#utility.yul\":956:957   */\n  0x00\n    /* \"#utility.yul\":981:1045   */\n  tag_132\n    /* \"#utility.yul\":1037:1044   */\n  dup6\n    /* \"#utility.yul\":1028:1034   */\n  dup3\n    /* \"#utility.yul\":1017:1026   */\n  dup7\n    /* \"#utility.yul\":1013:1035   */\n  add\n    /* \"#utility.yul\":981:1045   */\n  tag_86\n  jump\t// in\ntag_132:\n    /* \"#utility.yul\":971:1045   */\n  swap3\n  pop\n    /* \"#utility.yul\":927:1055   */\n  pop\n    /* \"#utility.yul\":1094:1096   */\n  0x20\n    /* \"#utility.yul\":1120:1184   */\n  tag_133\n    /* \"#utility.yul\":1176:1183   */\n  dup6\n    /* \"#utility.yul\":1167:1173   */\n  dup3\n    /* \"#utility.yul\":1156:1165   */\n  dup7\n    /* \"#utility.yul\":1152:1174   */\n  add\n    /* \"#utility.yul\":1120:1184   */\n  tag_86\n  jump\t// in\ntag_133:\n    /* \"#utility.yul\":1110:1184   */\n  swap2\n  pop\n    /* \"#utility.yul\":1065:1194   */\n  pop\n    /* \"#utility.yul\":694:1201   */\n  swap3\n  pop\n  swap3\n  swap1\n  pop\n  jump\t// out\n    /* \"#utility.yul\":1207:1387   */\ntag_87:\n    /* \"#utility.yul\":1255:1332   */\n  0x4e487b7100000000000000000000000000000000000000000000000000000000\n    /* \"#utility.yul\":1252:1253   */\n  0x00\n    /* \"#utility.yul\":1245:1333   */\n  mstore\n    /* \"#utility.yul\":1352:1356   */\n  0x11\n    /* \"#utility.yul\":1349:1350   */\n  0x04\n    /* \"#utility.yul\":1342:1357   */\n  mstore\n    /* \"#utility.yul\":1376:1380   */\n  0x24\n    /* \"#utility.yul\":1373:1374   */\n  0x00\n    /* \"#utility.yul\":1366:1381   */\n  revert\n    /* \"#utility.yul\":1393:1495   */\ntag_88:\n    /* \"#utility.yul\":1435:1443   */\n  0x00\n    /* \"#utility.yul\":1482:1487   */\n  dup2\n    /* \"#utility.yul\":1479:1480   */\n  0x01\n    /* \"#utility.yul\":1475:1488   */\n  shr\n    /* \"#utility.yul\":1454:1488   */\n  swap1\n  pop\n    /* \"#utility.yul\":1393:1495   */\n  swap2\n  swap1\n  pop\n  jump\t// out\n    /* \"#utility.yul\":1501:2349   */\ntag_89:\n    /* \"#utility.yul\":1562:1567   */\n  0x00\n    /* \"#utility.yul\":1569:1573   */\n  dup1\n    /* \"#utility.yul\":1593:1599   */\n  dup3\n    /* \"#utility.yul\":1584:1599   */\n  swap2\n  pop\n    /* \"#utility.yul\":1617:1622   */\n  dup4\n    /* \"#utility.yul\":1608:1622   */\n  swap1\n  pop\n    /* \"#utility.yul\":1631:2343   */\ntag_137:\n    /* \"#utility.yul\":1652:1653   */\n  0x01\n    /* \"#utility.yul\":1642:1650   */\n  dup6\n    /* \"#utility.yul\":1639:1654   */\n  gt\n    /* \"#utility.yul\":1631:2343   */\n  iszero\n  tag_139\n  jumpi\n    /* \"#utility.yul\":1747:1751   */\n  dup1\n    /* \"#utility.yul\":1742:1745   */\n  dup7\n    /* \"#utility.yul\":1738:1752   */\n  div\n    /* \"#utility.yul\":1732:1736   */\n  dup2\n    /* \"#utility.yul\":1729:1753   */\n  gt\n    /* \"#utility.yul\":1726:1776   */\n  iszero\n  tag_140\n  jumpi\n    /* \"#utility.yul\":1756:1774   */\n  tag_141\n  tag_87\n  jump\t// in\ntag_141:\n    /* \"#utility.yul\":1726:1776   */\ntag_140:\n    /* \"#utility.yul\":1806:1807   */\n  0x01\n    /* \"#utility.yul\":1796:1804   */\n  dup6\n    /* \"#utility.yul\":1792:1808   */\n  and\n    /* \"#utility.yul\":1789:2240   */\n  iszero\n  tag_142\n  jumpi\n    /* \"#utility.yul\":2221:2225   */\n  dup1\n    /* \"#utility.yul\":2214:2219   */\n  dup3\n    /* \"#utility.yul\":2210:2226   */\n  mul\n    /* \"#utility.yul\":2201:2226   */\n  swap2\n  pop\n    /* \"#utility.yul\":1789:2240   */\ntag_142:\n    /* \"#utility.yul\":2271:2275   */\n  dup1\n    /* \"#utility.yul\":2265:2269   */\n  dup2\n    /* \"#utility.yul\":2261:2276   */\n  mul\n    /* \"#utility.yul\":2253:2276   */\n  swap1\n  pop\n    /* \"#utility.yul\":2301:2333   */\n  tag_143\n    /* \"#utility.yul\":2324:2332   */\n  dup6\n    /* \"#utility.yul\":2301:2333   */\n  tag_88\n  jump\t// in\ntag_143:\n    /* \"#utility.yul\":2289:2333   */\n  swap5\n  pop\n    /* \"#utility.yul\":1631:2343   */\n  jump(tag_137)\ntag_139:\n    /* \"#utility.yul\":1501:2349   */\n  swap5\n  pop\n  swap5\n  swap3\n  pop\n  pop\n  pop\n  jump\t// out\n    /* \"#utility.yul\":2355:3428   */\ntag_90:\n    /* \"#utility.yul\":2409:2414   */\n  0x00\n    /* \"#utility.yul\":2600:2608   */\n  dup3\n    /* \"#utility.yul\":2590:2630   */\n  tag_145\n  jumpi\n    /* \"#utility.yul\":2621:2622   */\n  0x01\n    /* \"#utility.yul\":2612:2622   */\n  swap1\n  pop\n    /* \"#utility.yul\":2623:2628   */\n  jump(tag_144)\n    /* \"#utility.yul\":2590:2630   */\ntag_145:\n    /* \"#utility.yul\":2649:2653   */\n  dup2\n    /* \"#utility.yul\":2639:2675   */\n  tag_146\n  jumpi\n    /* \"#utility.yul\":2666:2667   */\n  0x00\n    /* \"#utility.yul\":2657:2667   */\n  swap1\n  pop\n    /* \"#utility.yul\":2668:2673   */\n  jump(tag_144)\n    /* \"#utility.yul\":2639:2675   */\ntag_146:\n    /* \"#utility.yul\":2735:2739   */\n  dup2\n    /* \"#utility.yul\":2783:2784   */\n  0x01\n    /* \"#utility.yul\":2778:2805   */\n  dup2\n  eq\n  tag_148\n  jumpi\n    /* \"#utility.yul\":2819:2820   */\n  0x02\n    /* \"#utility.yul\":2814:3005   */\n  dup2\n  eq\n  tag_149\n  jumpi\n    /* \"#utility.yul\":2728:3005   */\n  jump(tag_147)\n    /* \"#utility.yul\":2778:2805   */\ntag_148:\n    /* \"#utility.yul\":2796:2797   */\n  0x01\n    /* \"#utility.yul\":2787:2797   */\n  swap2\n  pop\n    /* \"#utility.yul\":2798:2803   */\n  pop\n  jump(tag_144)\n    /* \"#utility.yul\":2814:3005   */\ntag_149:\n    /* \"#utility.yul\":2859:2862   */\n  0xff\n    /* \"#utility.yul\":2849:2857   */\n  dup5\n    /* \"#utility.yul\":2846:2863   */\n  gt\n    /* \"#utility.yul\":2843:2886   */\n  iszero\n  tag_150\n  jumpi\n    /* \"#utility.yul\":2866:2884   */\n  tag_151\n  tag_87\n  jump\t// in\ntag_151:\n    /* \"#utility.yul\":2843:2886   */\ntag_150:\n    /* \"#utility.yul\":2915:2923   */\n  dup4\n    /* \"#utility.yul\":2912:2913   */\n  0x02\n    /* \"#utility.yul\":2908:2924   */\n  exp\n    /* \"#utility.yul\":2899:2924   */\n  swap2\n  pop\n    /* \"#utility.yul\":2950:2953   */\n  dup5\n    /* \"#utility.yul\":2943:2948   */\n  dup3\n    /* \"#utility.yul\":2940:2954   */\n  gt\n    /* \"#utility.yul\":2937:2977   */\n  iszero\n  tag_152\n  jumpi\n    /* \"#utility.yul\":2957:2975   */\n  tag_153\n  tag_87\n  jump\t// in\ntag_153:\n    /* \"#utility.yul\":2937:2977   */\ntag_152:\n    /* \"#utility.yul\":2990:2995   */\n  pop\n  jump(tag_144)\n    /* \"#utility.yul\":2728:3005   */\ntag_147:\n  pop\n    /* \"#utility.yul\":3114:3116   */\n  0x20\n    /* \"#utility.yul\":3104:3112   */\n  dup4\n    /* \"#utility.yul\":3101:3117   */\n  lt\n    /* \"#utility.yul\":3095:3098   */\n  0x0133\n    /* \"#utility.yul\":3089:3093   */\n  dup4\n    /* \"#utility.yul\":3086:3099   */\n  lt\n    /* \"#utility.yul\":3082:3118   */\n  and\n    /* \"#utility.yul\":3064:3066   */\n  0x4e\n    /* \"#utility.yul\":3054:3062   */\n  dup5\n    /* \"#utility.yul\":3051:3067   */\n  lt\n    /* \"#utility.yul\":3046:3048   */\n  0x0b\n    /* \"#utility.yul\":3040:3044   */\n  dup5\n    /* \"#utility.yul\":3037:3049   */\n  lt\n    /* \"#utility.yul\":3033:3068   */\n  and\n    /* \"#utility.yul\":3017:3128   */\n  or\n    /* \"#utility.yul\":3014:3260   */\n  iszero\n  tag_154\n  jumpi\n    /* \"#utility.yul\":3170:3178   */\n  dup3\n    /* \"#utility.yul\":3164:3168   */\n  dup3\n    /* \"#utility.yul\":3160:3179   */\n  exp\n    /* \"#utility.yul\":3151:3179   */\n  swap1\n  pop\n    /* \"#utility.yul\":3205:3208   */\n  dup4\n    /* \"#utility.yul\":3198:3203   */\n  dup2\n    /* \"#utility.yul\":3195:3209   */\n  gt\n    /* \"#utility.yul\":3192:3232   */\n  iszero\n  tag_155\n  jumpi\n    /* \"#utility.yul\":3212:3230   */\n  tag_156\n  tag_87\n  jump\t// in\ntag_156:\n    /* \"#utility.yul\":3192:3232   */\ntag_155:\n    /* \"#utility.yul\":3245:3250   */\n  jump(tag_144)\n    /* \"#utility.yul\":3014:3260   */\ntag_154:\n    /* \"#utility.yul\":3285:3327   */\n  tag_157\n    /* \"#utility.yul\":3323:3326   */\n  dup5\n    /* \"#utility.yul\":3313:3321   */\n  dup5\n    /* \"#utility.yul\":3307:3311   */\n  dup5\n    /* \"#utility.yul\":3304:3305   */\n  0x01\n    /* \"#utility.yul\":3285:3327   */\n  tag_89\n  jump\t// in\ntag_157:\n    /* \"#utility.yul\":3270:3327   */\n  swap3\n  pop\n  swap1\n  pop\n    /* \"#utility.yul\":3359:3363   */\n  dup2\n    /* \"#utility.yul\":3354:3357   */\n  dup5\n    /* \"#utility.yul\":3350:3364   */\n  div\n    /* \"#utility.yul\":3343:3348   */\n  dup2\n    /* \"#utility.yul\":3340:3365   */\n  gt\n    /* \"#utility.yul\":3337:3388   */\n  iszero\n  tag_158\n  jumpi\n    /* \"#utility.yul\":3368:3386   */\n  tag_159\n  tag_87\n  jump\t// in\ntag_159:\n    /* \"#utility.yul\":3337:3388   */\ntag_158:\n    /* \"#utility.yul\":3417:3421   */\n  dup2\n    /* \"#utility.yul\":3410:3415   */\n  dup2\n    /* \"#utility.yul\":3406:3422   */\n  mul\n    /* \"#utility.yul\":3397:3422   */\n  swap1\n  pop\n    /* \"#utility.yul\":2355:3428   */\ntag_144:\n  swap4\n  swap3\n  pop\n  pop\n  pop\n  jump\t// out\n    /* \"#utility.yul\":3434:3520   */\ntag_91:\n    /* \"#utility.yul\":3469:3476   */\n  0x00\n    /* \"#utility.yul\":3509:3513   */\n  0xff\n    /* \"#utility.yul\":3502:3507   */\n  dup3\n    /* \"#utility.yul\":3498:3514   */\n  and\n    /* \"#utility.yul\":3487:3514   */\n  swap1\n  pop\n    /* \"#utility.yul\":3434:3520   */\n  swap2\n  swap1\n  pop\n  jump\t// out\n    /* \"#utility.yul\":3526:3807   */\ntag_8:\n    /* \"#utility.yul\":3584:3589   */\n  0x00\n    /* \"#utility.yul\":3608:3631   */\n  tag_162\n    /* \"#utility.yul\":3626:3630   */\n  dup3\n    /* \"#utility.yul\":3608:3631   */\n  tag_84\n  jump\t// in\ntag_162:\n    /* \"#utility.yul\":3600:3631   */\n  swap2\n  pop\n    /* \"#utility.yul\":3652:3677   */\n  tag_163\n    /* \"#utility.yul\":3668:3676   */\n  dup4\n    /* \"#utility.yul\":3652:3677   */\n  tag_91\n  jump\t// in\ntag_163:\n    /* \"#utility.yul\":3640:3677   */\n  swap3\n  pop\n    /* \"#utility.yul\":3696:3800   */\n  tag_164\n    /* \"#utility.yul\":3733:3799   */\n  0xffffffffffffffffffffffffffffffffffffffffffffffffffffffffffffffff\n    /* \"#utility.yul\":3723:3731   */\n  dup5\n    /* \"#utility.yul\":3717:3721   */\n  dup5\n    /* \"#utility.yul\":3696:3800   */\n  tag_90\n  jump\t// in\ntag_164:\n    /* \"#utility.yul\":3687:3800   */\n  swap1\n  pop\n    /* \"#utility.yul\":3526:3807   */\n  swap3\n  swap2\n  pop\n  pop\n  jump\t// out\n    /* \"#utility.yul\":3813:4223   */\ntag_10:\n    /* \"#utility.yul\":3853:3860   */\n  0x00\n    /* \"#utility.yul\":3876:3896   */\n  tag_166\n    /* \"#utility.yul\":3894:3895   */\n  dup3\n    /* \"#utility.yul\":3876:3896   */\n  tag_84\n  jump\t// in\ntag_166:\n    /* \"#utility.yul\":3871:3896   */\n  swap2\n  pop\n    /* \"#utility.yul\":3910:3930   */\n  tag_167\n    /* \"#utility.yul\":3928:3929   */\n  dup4\n    /* \"#utility.yul\":3910:3930   */\n  tag_84\n  jump\t// in\ntag_167:\n    /* \"#utility.yul\":3905:3930   */\n  swap3\n  pop\n    /* \"#utility.yul\":3965:3966   */\n  dup3\n    /* \"#utility.yul\":3962:3963   */\n  dup3\n    /* \"#utility.yul\":3958:3967   */\n  mul\n    /* \"#utility.yul\":3987:4017   */\n  tag_168\n    /* \"#utility.yul\":4005:4016   */\n  dup2\n    /* \"#utility.yul\":3987:4017   */\n  tag_84\n  jump\t// in\ntag_168:\n    /* \"#utility.yul\":3976:4017   */\n  swap2\n  pop\n    /* \"#utility.yul\":4166:4167   */\n  dup3\n    /* \"#utility.yul\":4157:4164   */\n  dup3\n    /* \"#utility.yul\":4153:4168   */\n  div\n    /* \"#utility.yul\":4150:4151   */\n  dup5\n    /* \"#utility.yul\":4147:4169   */\n  eq\n    /* \"#utility.yul\":4127:4128   */\n  dup4\n    /* \"#utility.yul\":4120:4129   */\n  iszero\n    /* \"#utility.yul\":4100:4183   */\n  or\n    /* \"#utility.yul\":4077:4216   */\n  tag_169\n  jumpi\n    /* \"#utility.yul\":4196:4214   */\n  tag_170\n  tag_87\n  jump\t// in\ntag_170:\n    /* \"#utility.yul\":4077:4216   */\ntag_169:\n    /* \"#utility.yul\":3861:4223   */\n  pop\n    /* \"#utility.yul\":3813:4223   */\n  swap3\n  swap2\n  pop\n  pop\n  jump\t// out\n    /* \"#utility.yul\":4229:4328   */\ntag_92:\n    /* \"#utility.yul\":4281:4287   */\n  0x00\n    /* \"#utility.yul\":4315:4320   */\n  dup2\n    /* \"#utility.yul\":4309:4321   */\n  mload\n    /* \"#utility.yul\":4299:4321   */\n  swap1\n  pop\n    /* \"#utility.yul\":4229:4328   */\n  swap2\n  swap1\n  pop\n  jump\t// out\n    /* \"#utility.yul\":4334:4514   */\ntag_93:\n    /* \"#utility.yul\":4382:4459   */\n  0x4e487b7100000000000000000000000000000000000000000000000000000000\n    /* \"#utility.yul\":4379:4380   */\n  0x00\n    /* \"#utility.yul\":4372:4460   */\n  mstore\n    /* \"#utility.yul\":4479:4483   */\n  0x41\n    /* \"#utility.yul\":4476:4477   */\n  0x04\n    /* \"#utility.yul\":4469:4484   */\n  mstore\n    /* \"#utility.yul\":4503:4507   */\n  0x24\n    /* \"#utility.yul\":4500:4501   */\n  0x00\n    /* \"#utility.yul\":4493:4508   */\n  revert\n    /* \"#utility.yul\":4520:4700   */\ntag_94:\n    /* \"#utility.yul\":4568:4645   */\n  0x4e487b7100000000000000000000000000000000000000000000000000000000\n    /* \"#utility.yul\":4565:4566   */\n  0x00\n    /* \"#utility.yul\":4558:4646   */\n  mstore\n    /* \"#utility.yul\":4665:4669   */\n  0x22\n    /* \"#utility.yul\":4662:4663   */\n  0x04\n    /* \"#utility.yul\":4655:4670   */\n  mstore\n    /* \"#utility.yul\":4689:4693   */\n  0x24\n    /* \"#utility.yul\":4686:4687   */\n  0x00\n    /* \"#utility.yul\":4679:4694   */\n  revert\n    /* \"#utility.yul\":4706:5026   */\ntag_95:\n    /* \"#utility.yul\":4750:4756   */\n  0x00\n    /* \"#utility.yul\":4787:4788   */\n  0x02\n    /* \"#utility.yul\":4781:4785   */\n  dup3\n    /* \"#utility.yul\":4777:4789   */\n  div\n    /* \"#utility.yul\":4767:4789   */\n  swap1\n  pop\n    /* \"#utility.yul\":4834:4835   */\n  0x01\n    /* \"#utility.yul\":4828:4832   */\n  dup3\n    /* \"#utility.yul\":4824:4836   */\n  and\n    /* \"#utility.yul\":4855:4873   */\n  dup1\n    /* \"#utility.yul\":4845:4926   */\n  tag_175\n  jumpi\n    /* \"#utility.yul\":4911:4915   */\n  0x7f\n    /* \"#utility.yul\":4903:4909   */\n  dup3\n    /* \"#utility.yul\":4899:4916   */\n  and\n    /* \"#utility.yul\":4889:4916   */\n  swap2\n  pop\n    /* \"#utility.yul\":4845:4926   */\ntag_175:\n    /* \"#utility.yul\":4973:4975   */\n  0x20\n    /* \"#utility.yul\":4965:4971   */\n  dup3\n    /* \"#utility.yul\":4962:4976   */\n  lt\n    /* \"#utility.yul\":4942:4960   */\n  dup2\n    /* \"#utility.yul\":4939:4977   */\n  sub\n    /* \"#utility.yul\":4936:5020   */\n  tag_176\n  jumpi\n    /* \"#utility.yul\":4992:5010   */\n  tag_177\n  tag_94\n  jump\t// in\ntag_177:\n    /* \"#utility.yul\":4936:5020   */\ntag_176:\n    /* \"#utility.yul\":4757:5026   */\n  pop\n    /* \"#utility.yul\":4706:5026   */\n  swap2\n  swap1\n  pop\n  jump\t// out\n    /* \"#utility.yul\":5032:5173   */\ntag_96:\n    /* \"#utility.yul\":5081:5085   */\n  0x00\n    /* \"#utility.yul\":5104:5107   */\n  dup2\n    /* \"#utility.yul\":5096:5107   */\n  swap1\n  pop\n    /* \"#utility.yul\":5127:5130   */\n  dup2\n    /* \"#utility.yul\":5124:5125   */\n  0x00\n    /* \"#utility.yul\":5117:5131   */\n  mstore\n    /* \"#utility.yul\":5161:5165   */\n  0x20\n    /* \"#utility.yul\":5158:5159   */\n  0x00\n    /* \"#utility.yul\":5148:5166   */\n  keccak256\n    /* \"#utility.yul\":5140:5166   */\n  swap1\n  pop\n    /* \"#utility.yul\":5032:5173   */\n  swap2\n  swap1\n  pop\n  jump\t// out\n    /* \"#utility.yul\":5179:5272   */\ntag_97:\n    /* \"#utility.yul\":5216:5222   */\n  0x00\n    /* \"#utility.yul\":5263:5265   */\n  0x20\n    /* \"#utility.yul\":5258:5260   */\n  0x1f\n    /* \"#utility.yul\":5251:5256   */\n  dup4\n    /* \"#utility.yul\":5247:5261   */\n  add\n    /* \"#utility.yul\":5243:5266   */\n  div\n    /* \"#utility.yul\":5233:5266   */\n  swap1\n  pop\n    /* \"#utility.yul\":5179:5272   */\n  swap2\n  swap1\n  pop\n  jump\t// out\n    /* \"#utility.yul\":5278:5385   */\ntag_98:\n    /* \"#utility.yul\":5322:5330   */\n  0x00\n    /* \"#utility.yul\":5372:5377   */\n  dup3\n    /* \"#utility.yul\":5366:5370   */\n  dup3\n    /* \"#utility.yul\":5362:5378   */\n  shl\n    /* \"#utility.yul\":5341:5378   */\n  swap1\n  pop\n    /* \"#utility.yul\":5278:5385   */\n  swap3\n  swap2\n  pop\n  pop\n  jump\t// out\n    /* \"#utility.yul\":5391:5784   */\ntag_99:\n    /* \"#utility.yul\":5460:5466   */\n  0x00\n    /* \"#utility.yul\":5510:5511   */\n  0x08\n    /* \"#utility.yul\":5498:5508   */\n  dup4\n    /* \"#utility.yul\":5494:5512   */\n  mul\n    /* \"#utility.yul\":5533:5630   */\n  tag_182\n    /* \"#utility.yul\":5563:5629   */\n  0xffffffffffffffffffffffffffffffffffffffffffffffffffffffffffffffff\n    /* \"#utility.yul\":5552:5561   */\n  dup3\n    /* \"#utility.yul\":5533:5630   */\n  tag_98\n  jump\t// in\ntag_182:\n    /* \"#utility.yul\":5651:5690   */\n  tag_183\n    /* \"#utility.yul\":5681:5689   */\n  dup7\n    /* \"#utility.yul\":5670:5679   */\n  dup4\n    /* \"#utility.yul\":5651:5690   */\n  tag_98\n  jump\t// in\ntag_183:\n    /* \"#utility.yul\":5639:5690   */\n  swap6\n  pop\n    /* \"#utility.yul\":5723:5727   */\n  dup1\n    /* \"#utility.yul\":5719:5728   */\n  not\n    /* \"#utility.yul\":5712:5717   */\n  dup5\n    /* \"#utility.yul\":5708:5729   */\n  and\n    /* \"#utility.yul\":5699:5729   */\n  swap4\n  pop\n    /* \"#utility.yul\":5772:5776   */\n  dup1\n    /* \"#utility.yul\":5762:5770   */\n  dup7\n    /* \"#utility.yul\":5758:5777   */\n  and\n    /* \"#utility.yul\":5751:5756   */\n  dup5\n    /* \"#utility.yul\":5748:5778   */\n  or\n    /* \"#utility.yul\":5738:5778   */\n  swap3\n  pop\n    /* \"#utility.yul\":5467:5784   */\n  pop\n  pop\n    /* \"#utility.yul\":5391:5784   */\n  swap4\n  swap3\n  pop\n  pop\n  pop\n  jump\t// out\n    /* \"#utility.yul\":5790:5850   */\ntag_100:\n    /* \"#utility.yul\":5818:5821   */\n  0x00\n    /* \"#utility.yul\":5839:5844   */\n  dup2\n    /* \"#utility.yul\":5832:5844   */\n  swap1\n  pop\n    /* \"#utility.yul\":5790:5850   */\n  swap2\n  swap1\n  pop\n  jump\t// out\n    /* \"#utility.yul\":5856:5998   */\ntag_101:\n    /* \"#utility.yul\":5906:5915   */\n  0x00\n    /* \"#utility.yul\":5939:5992   */\n  tag_186\n    /* \"#utility.yul\":5957:5991   */\n  tag_187\n    /* \"#utility.yul\":5966:5990   */\n  tag_188\n    /* \"#utility.yul\":5984:5989   */\n  dup5\n    /* \"#utility.yul\":5966:5990   */\n  tag_84\n  jump\t// in\ntag_188:\n    /* \"#utility.yul\":5957:5991   */\n  tag_100\n  jump\t// in\ntag_187:\n    /* \"#utility.yul\":5939:5992   */\n  tag_84\n  jump\t// in\ntag_186:\n    /* \"#utility.yul\":5926:5992   */\n  swap1\n  pop\n    /* \"#utility.yul\":5856:5998   */\n  swap2\n  swap1\n  pop\n  jump\t// out\n    /* \"#utility.yul\":6004:6079   */\ntag_102:\n    /* \"#utility.yul\":6047:6050   */\n  0x00\n    /* \"#utility.yul\":6068:6073   */\n  dup2\n    /* \"#utility.yul\":6061:6073   */\n  swap1\n  pop\n    /* \"#utility.yul\":6004:6079   */\n  swap2\n  swap1\n  pop\n  jump\t// out\n    /* \"#utility.yul\":6085:6354   */\ntag_103:\n    /* \"#utility.yul\":6195:6234   */\n  tag_191\n    /* \"#utility.yul\":6226:6233   */\n  dup4\n    /* \"#utility.yul\":6195:6234   */\n  tag_101\n  jump\t// in\ntag_191:\n    /* \"#utility.yul\":6256:6347   */\n  tag_192\n    /* \"#utility.yul\":6305:6346   */\n  tag_193\n    /* \"#utility.yul\":6329:6345   */\n  dup3\n    /* \"#utility.yul\":6305:6346   */\n  tag_102\n  jump\t// in\ntag_193:\n    /* \"#utility.yul\":6297:6303   */\n  dup5\n    /* \"#utility.yul\":6290:6294   */\n  dup5\n    /* \"#utility.yul\":6284:6295   */\n  sload\n    /* \"#utility.yul\":6256:6347   */\n  tag_99\n  jump\t// in\ntag_192:\n    /* \"#utility.yul\":6250:6254   */\n  dup3\n    /* \"#utility.yul\":6243:6348   */\n  sstore\n    /* \"#utility.yul\":6161:6354   */\n  pop\n    /* \"#utility.yul\":6085:6354   */\n  pop\n  pop\n  pop\n  jump\t// out\n    /* \"#utility.yul\":6360:6433   */\ntag_104:\n    /* \"#utility.yul\":6405:6408   */\n  0x00\n    /* \"#utility.yul\":6360:6433   */\n  swap1\n  jump\t// out\n    /* \"#utility.yul\":6439:6628   */\ntag_105:\n    /* \"#utility.yul\":6516:6548   */\n  tag_196\n  tag_104\n  jump\t// in\ntag_196:\n    /* \"#utility.yul\":6557:6622   */\n  tag_197\n    /* \"#utility.yul\":6615:6621   */\n  dup2\n    /* \"#utility.yul\":6607:6613   */\n  dup5\n    /* \"#utility.yul\":6601:6605   */\n  dup5\n    /* \"#utility.yul\":6557:6622   */\n  tag_103\n  jump\t// in\ntag_197:\n    /* \"#utility.yul\":6492:6628   */\n  pop\n    /* \"#utility.yul\":6439:6628   */\n  pop\n  pop\n  jump\t// out\n    /* \"#utility.yul\":6634:6820   */\ntag_106:\n    /* \"#utility.yul\":6694:6814   */\ntag_199:\n    /* \"#utility.yul\":6711:6714   */\n  dup2\n    /* \"#utility.yul\":6704:6709   */\n  dup2\n    /* \"#utility.yul\":6701:6715   */\n  lt\n    /* \"#utility.yul\":6694:6814   */\n  iszero\n  tag_201\n  jumpi\n    /* \"#utility.yul\":6765:6804   */\n  tag_202\n    /* \"#utility.yul\":6802:6803   */\n  0x00\n    /* \"#utility.yul\":6795:6800   */\n  dup3\n    /* \"#utility.yul\":6765:6804   */\n  tag_105\n  jump\t// in\ntag_202:\n    /* \"#utility.yul\":6738:6739   */\n  0x01\n    /* \"#utility.yul\":6731:6736   */\n  dup2\n    /* \"#utility.yul\":6727:6740   */\n  add\n    /* \"#utility.yul\":6718:6740   */\n  swap1\n  pop\n    /* \"#utility.yul\":6694:6814   */\n  jump(tag_199)\ntag_201:\n    /* \"#utility.yul\":6634:6820   */\n  pop\n  pop\n  jump\t// out\n    /* \"#utility.yul\":6826:7369   */\ntag_107:\n    /* \"#utility.yul\":6927:6929   */\n  0x1f\n    /* \"#utility.yul\":6922:6925   */\n  dup3\n    /* \"#utility.yul\":6919:6930   */\n  gt\n    /* \"#utility.yul\":6916:7362   */\n  iszero\n  tag_204\n  jumpi\n    /* \"#utility.yul\":6961:6999   */\n  tag_205\n    /* \"#utility.yul\":6993:6998   */\n  dup2\n    /* \"#utility.yul\":6961:6999   */\n  tag_96\n  jump\t// in\ntag_205:\n    /* \"#utility.yul\":7045:7074   */\n  tag_206\n    /* \"#utility.yul\":7063:7073   */\n  dup5\n    /* \"#utility.yul\":7045:7074   */\n  tag_97\n  jump\t// in\ntag_206:\n    /* \"#utility.yul\":7035:7043   */\n  dup2\n    /* \"#utility.yul\":7031:7075   */\n  add\n    /* \"#utility.yul\":7228:7230   */\n  0x20\n    /* \"#utility.yul\":7216:7226   */\n  dup6\n    /* \"#utility.yul\":7213:7231   */\n  lt\n    /* \"#utility.yul\":7210:7259   */\n  iszero\n  tag_207\n  jumpi\n    /* \"#utility.yul\":7249:7257   */\n  dup2\n    /* \"#utility.yul\":7234:7257   */\n  swap1\n  pop\n    /* \"#utility.yul\":7210:7259   */\ntag_207:\n    /* \"#utility.yul\":7272:7352   */\n  tag_208\n    /* \"#utility.yul\":7328:7350   */\n  tag_209\n    /* \"#utility.yul\":7346:7349   */\n  dup6\n    /* \"#utility.yul\":7328:7350   */\n  tag_97\n  jump\t// in\ntag_209:\n    /* \"#utility.yul\":7318:7326   */\n  dup4\n    /* \"#utility.yul\":7314:7351   */\n  add\n    /* \"#utility.yul\":7301:7312   */\n  dup3\n    /* \"#utility.yul\":7272:7352   */\n  tag_106\n  jump\t// in\ntag_208:\n    /* \"#utility.yul\":6931:7362   */\n  pop\n  pop\n    /* \"#utility.yul\":6916:7362   */\ntag_204:\n    /* \"#utility.yul\":6826:7369   */\n  pop\n  pop\n  pop\n  jump\t// out\n    /* \"#utility.yul\":7375:7492   */\ntag_108:\n    /* \"#utility.yul\":7429:7437   */\n  0x00\n    /* \"#utility.yul\":7479:7484   */\n  dup3\n    /* \"#utility.yul\":7473:7477   */\n  dup3\n    /* \"#utility.yul\":7469:7485   */\n  shr\n    /* \"#utility.yul\":7448:7485   */\n  swap1\n  pop\n    /* \"#utility.yul\":7375:7492   */\n  swap3\n  swap2\n  pop\n  pop\n  jump\t// out\n    /* \"#utility.yul\":7498:7667   */\ntag_109:\n    /* \"#utility.yul\":7542:7548   */\n  0x00\n    /* \"#utility.yul\":7575:7626   */\n  tag_212\n    /* \"#utility.yul\":7623:7624   */\n  0x00\n    /* \"#utility.yul\":7619:7625   */\n  not\n    /* \"#utility.yul\":7611:7616   */\n  dup5\n    /* \"#utility.yul\":7608:7609   */\n  0x08\n    /* \"#utility.yul\":7604:7617   */\n  mul\n    /* \"#utility.yul\":7575:7626   */\n  tag_108\n  jump\t// in\ntag_212:\n    /* \"#utility.yul\":7571:7627   */\n  not\n    /* \"#utility.yul\":7656:7660   */\n  dup1\n    /* \"#utility.yul\":7650:7654   */\n  dup4\n    /* \"#utility.yul\":7646:7661   */\n  and\n    /* \"#utility.yul\":7636:7661   */\n  swap2\n  pop\n    /* \"#utility.yul\":7549:7667   */\n  pop\n    /* \"#utility.yul\":7498:7667   */\n  swap3\n  swap2\n  pop\n  pop\n  jump\t// out\n    /* \"#utility.yul\":7672:7967   */\ntag_110:\n    /* \"#utility.yul\":7748:7752   */\n  0x00\n    /* \"#utility.yul\":7894:7923   */\n  tag_214\n    /* \"#utility.yul\":7919:7922   */\n  dup4\n    /* \"#utility.yul\":7913:7917   */\n  dup4\n    /* \"#utility.yul\":7894:7923   */\n  tag_109\n  jump\t// in\ntag_214:\n    /* \"#utility.yul\":7886:7923   */\n  swap2\n  pop\n    /* \"#utility.yul\":7956:7959   */\n  dup3\n    /* \"#utility.yul\":7953:7954   */\n  0x02\n    /* \"#utility.yul\":7949:7960   */\n  mul\n    /* \"#utility.yul\":7943:7947   */\n  dup3\n    /* \"#utility.yul\":7940:7961   */\n  or\n    /* \"#utility.yul\":7932:7961   */\n  swap1\n  pop\n    /* \"#utility.yul\":7672:7967   */\n  swap3\n  swap2\n  pop\n  pop\n  jump\t// out\n    /* \"#utility.yul\":7972:9367   */\ntag_15:\n    /* \"#utility.yul\":8089:8126   */\n  tag_216\n    /* \"#utility.yul\":8122:8125   */\n  dup3\n    /* \"#utility.yul\":8089:8126   */\n  tag_92\n  jump\t// in\ntag_216:\n    /* \"#utility.yul\":8191:8209   */\n  0xffffffffffffffff\n    /* \"#utility.yul\":8183:8189   */\n  dup2\n    /* \"#utility.yul\":8180:8210   */\n  gt\n    /* \"#utility.yul\":8177:8233   */\n  iszero\n  tag_217\n  jumpi\n    /* \"#utility.yul\":8213:8231   */\n  tag_218\n  tag_93\n  jump\t// in\ntag_218:\n    /* \"#utility.yul\":8177:8233   */\ntag_217:\n    /* \"#utility.yul\":8257:8295   */\n  tag_219\n    /* \"#utility.yul\":8289:8293   */\n  dup3\n    /* \"#utility.yul\":8283:8294   */\n  sload\n    /* \"#utility.yul\":8257:8295   */\n  tag_95\n  jump\t// in\ntag_219:\n    /* \"#utility.yul\":8342:8409   */\n  tag_220\n    /* \"#utility.yul\":8402:8408   */\n  dup3\n    /* \"#utility.yul\":8394:8400   */\n  dup3\n    /* \"#utility.yul\":8388:8392   */\n  dup6\n    /* \"#utility.yul\":8342:8409   */\n  tag_107\n  jump\t// in\ntag_220:\n    /* \"#utility.yul\":8436:8437   */\n  0x00\n    /* \"#utility.yul\":8460:8464   */\n  0x20\n    /* \"#utility.yul\":8447:8464   */\n  swap1\n  pop\n    /* \"#utility.yul\":8492:8494   */\n  0x1f\n    /* \"#utility.yul\":8484:8490   */\n  dup4\n    /* \"#utility.yul\":8481:8495   */\n  gt\n    /* \"#utility.yul\":8509:8510   */\n  0x01\n    /* \"#utility.yul\":8504:9122   */\n  dup2\n  eq\n  tag_222\n  jumpi\n    /* \"#utility.yul\":9166:9167   */\n  0x00\n    /* \"#utility.yul\":9183:9189   */\n  dup5\n    /* \"#utility.yul\":9180:9257   */\n  iszero\n  tag_223\n  jumpi\n    /* \"#utility.yul\":9232:9241   */\n  dup3\n    /* \"#utility.yul\":9227:9230   */\n  dup8\n    /* \"#utility.yul\":9223:9242   */\n  add\n    /* \"#utility.yul\":9217:9243   */\n  mload\n    /* \"#utility.yul\":9208:9243   */\n  swap1\n  pop\n    /* \"#utility.yul\":9180:9257   */\ntag_223:\n    /* \"#utility.yul\":9283:9350   */\n  tag_224\n    /* \"#utility.yul\":9343:9349   */\n  dup6\n    /* \"#utility.yul\":9336:9341   */\n  dup3\n    /* \"#utility.yul\":9283:9350   */\n  tag_110\n  jump\t// in\ntag_224:\n    /* \"#utility.yul\":9277:9281   */\n  dup7\n    /* \"#utility.yul\":9270:9351   */\n  sstore\n    /* \"#utility.yul\":9139:9361   */\n  pop\n    /* \"#utility.yul\":8474:9361   */\n  jump(tag_221)\n    /* \"#utility.yul\":8504:9122   */\ntag_222:\n    /* \"#utility.yul\":8556:8560   */\n  0x1f\n    /* \"#utility.yul\":8552:8561   */\n  not\n    /* \"#utility.yul\":8544:8550   */\n  dup5\n    /* \"#utility.yul\":8540:8562   */\n  and\n    /* \"#utility.yul\":8590:8627   */\n  tag_225\n    /* \"#utility.yul\":8622:8626   */\n  dup7\n    /* \"#utility.yul\":8590:8627   */\n  tag_96\n  jump\t// in\ntag_225:\n    /* \"#utility.yul\":8649:8650   */\n  0x00\n    /* \"#utility.yul\":8663:8871   */\ntag_226:\n    /* \"#utility.yul\":8677:8684   */\n  dup3\n    /* \"#utility.yul\":8674:8675   */\n  dup2\n    /* \"#utility.yul\":8671:8685   */\n  lt\n    /* \"#utility.yul\":8663:8871   */\n  iszero\n  tag_228\n  jumpi\n    /* \"#utility.yul\":8756:8765   */\n  dup5\n    /* \"#utility.yul\":8751:8754   */\n  dup10\n    /* \"#utility.yul\":8747:8766   */\n  add\n    /* \"#utility.yul\":8741:8767   */\n  mload\n    /* \"#utility.yul\":8733:8739   */\n  dup3\n    /* \"#utility.yul\":8726:8768   */\n  sstore\n    /* \"#utility.yul\":8807:8808   */\n  0x01\n    /* \"#utility.yul\":8799:8805   */\n  dup3\n    /* \"#utility.yul\":8795:8809   */\n  add\n    /* \"#utility.yul\":8785:8809   */\n  swap2\n  pop\n    /* \"#utility.yul\":8854:8856   */\n  0x20\n    /* \"#utility.yul\":8843:8852   */\n  dup6\n    /* \"#utility.yul\":8839:8857   */\n  add\n    /* \"#utility.yul\":8826:8857   */\n  swap5\n  pop\n    /* \"#utility.yul\":8700:8704   */\n  0x20\n    /* \"#utility.yul\":8697:8698   */\n  dup2\n    /* \"#utility.yul\":8693:8705   */\n  add\n    /* \"#utility.yul\":8688:8705   */\n  swap1\n  pop\n    /* \"#utility.yul\":8663:8871   */\n  jump(tag_226)\ntag_228:\n    /* \"#utility.yul\":8899:8905   */\n  dup7\n    /* \"#utility.yul\":8890:8897   */\n  dup4\n    /* \"#utility.yul\":8887:8906   */\n  lt\n    /* \"#utility.yul\":8884:9063   */\n  iszero\n  tag_229\n  jumpi\n    /* \"#utility.yul\":8957:8966   */\n  dup5\n    /* \"#utility.yul\":8952:8955   */\n  dup10\n    /* \"#utility.yul\":8948:8967   */\n  add\n    /* \"#utility.yul\":8942:8968   */\n  mload\n    /* \"#utility.yul\":9000:9048   */\n  tag_230\n    /* \"#utility.yul\":9042:9046   */\n  0x1f\n    /* \"#utility.yul\":9034:9040   */\n  dup10\n    /* \"#utility.yul\":9030:9047   */\n  and\n    /* \"#utility.yul\":9019:9028   */\n  dup3\n    /* \"#utility.yul\":9000:9048   */\n  tag_109\n  jump\t// in\ntag_230:\n    /* \"#utility.yul\":8992:8998   */\n  dup4\n    /* \"#utility.yul\":8985:9049   */\n  sstore\n    /* \"#utility.yul\":8907:9063   */\n  pop\n    /* \"#utility.yul\":8884:9063   */\ntag_229:\n    /* \"#utility.yul\":9109:9110   */\n  0x01\n    /* \"#utility.yul\":9105:9106   */\n  0x02\n    /* \"#utility.yul\":9097:9103   */\n  dup9\n    /* \"#utility.yul\":9093:9107   */\n  mul\n    /* \"#utility.yul\":9089:9111   */\n  add\n    /* \"#utility.yul\":9083:9087   */\n  dup9\n    /* \"#utility.yul\":9076:9112   */\n  sstore\n    /* \"#utility.yul\":8511:9122   */\n  pop\n  pop\n  pop\n    /* \"#utility.yul\":8474:9361   */\ntag_221:\n  pop\n    /* \"#utility.yul\":8064:9367   */\n  pop\n  pop\n  pop\n    /* \"#utility.yul\":7972:9367   */\n  pop\n  pop\n  jump\t// out\n    /* \"#utility.yul\":9373:9542   */\ntag_111:\n    /* \"#utility.yul\":9457:9468   */\n  0x00\n    /* \"#utility.yul\":9491:9497   */\n  dup3\n    /* \"#utility.yul\":9486:9489   */\n  dup3\n    /* \"#utility.yul\":9479:9498   */\n  mstore\n    /* \"#utility.yul\":9531:9535   */\n  0x20\n    /* \"#utility.yul\":9526:9529   */\n  dup3\n    /* \"#utility.yul\":9522:9536   */\n  add\n    /* \"#utility.yul\":9507:9536   */\n  swap1\n  pop\n    /* \"#utility.yul\":9373:9542   */\n  swap3\n  swap2\n  pop\n  pop\n  jump\t// out\n    /* \"#utility.yul\":9548:9719   */\ntag_112:\n    /* \"#utility.yul\":9688:9711   */\n  0x45524332304361707065643a2063617020697320300000000000000000000000\n    /* \"#utility.yul\":9684:9685   */\n  0x00\n    /* \"#utility.yul\":9676:9682   */\n  dup3\n    /* \"#utility.yul\":9672:9686   */\n  add\n    /* \"#utility.yul\":9665:9712   */\n  mstore\n    /* \"#utility.yul\":9548:9719   */\n  pop\n  jump\t// out\n    /* \"#utility.yul\":9725:10091   */\ntag_113:\n    /* \"#utility.yul\":9867:9870   */\n  0x00\n    /* \"#utility.yul\":9888:9955   */\n  tag_234\n    /* \"#utility.yul\":9952:9954   */\n  0x15\n    /* \"#utility.yul\":9947:9950   */\n  dup4\n    /* \"#utility.yul\":9888:9955   */\n  tag_111\n  jump\t// in\ntag_234:\n    /* \"#utility.yul\":9881:9955   */\n  swap2\n  pop\n    /* \"#utility.yul\":9964:10057   */\n  tag_235\n    /* \"#utility.yul\":10053:10056   */\n  dup3\n    /* \"#utility.yul\":9964:10057   */\n  tag_112\n  jump\t// in\ntag_235:\n    /* \"#utility.yul\":10082:10084   */\n  0x20\n    /* \"#utility.yul\":10077:10080   */\n  dup3\n    /* \"#utility.yul\":10073:10085   */\n  add\n    /* \"#utility.yul\":10066:10085   */\n  swap1\n  pop\n    /* \"#utility.yul\":9725:10091   */\n  swap2\n  swap1\n  pop\n  jump\t// out\n    /* \"#utility.yul\":10097:10516   */\ntag_20:\n    /* \"#utility.yul\":10263:10267   */\n  0x00\n    /* \"#utility.yul\":10301:10303   */\n  0x20\n    /* \"#utility.yul\":10290:10299   */\n  dup3\n    /* \"#utility.yul\":10286:10304   */\n  add\n    /* \"#utility.yul\":10278:10304   */\n  swap1\n  pop\n    /* \"#utility.yul\":10350:10359   */\n  dup2\n    /* \"#utility.yul\":10344:10348   */\n  dup2\n    /* \"#utility.yul\":10340:10360   */\n  sub\n    /* \"#utility.yul\":10336:10337   */\n  0x00\n    /* \"#utility.yul\":10325:10334   */\n  dup4\n    /* \"#utility.yul\":10321:10338   */\n  add\n    /* \"#utility.yul\":10314:10361   */\n  mstore\n    /* \"#utility.yul\":10378:10509   */\n  tag_237\n    /* \"#utility.yul\":10504:10508   */\n  dup2\n    /* \"#utility.yul\":10378:10509   */\n  tag_113\n  jump\t// in\ntag_237:\n    /* \"#utility.yul\":10370:10509   */\n  swap1\n  pop\n    /* \"#utility.yul\":10097:10516   */\n  swap2\n  swap1\n  pop\n  jump\t// out\n    /* \"#utility.yul\":10522:10713   */\ntag_38:\n    /* \"#utility.yul\":10562:10565   */\n  0x00\n    /* \"#utility.yul\":10581:10601   */\n  tag_239\n    /* \"#utility.yul\":10599:10600   */\n  dup3\n    /* \"#utility.yul\":10581:10601   */\n  tag_84\n  jump\t// in\ntag_239:\n    /* \"#utility.yul\":10576:10601   */\n  swap2\n  pop\n    /* \"#utility.yul\":10615:10635   */\n  tag_240\n    /* \"#utility.yul\":10633:10634   */\n  dup4\n    /* \"#utility.yul\":10615:10635   */\n  tag_84\n  jump\t// in\ntag_240:\n    /* \"#utility.yul\":10610:10635   */\n  swap3\n  pop\n    /* \"#utility.yul\":10658:10659   */\n  dup3\n    /* \"#utility.yul\":10655:10656   */\n  dup3\n    /* \"#utility.yul\":10651:10660   */\n  add\n    /* \"#utility.yul\":10644:10660   */\n  swap1\n  pop\n    /* \"#utility.yul\":10679:10682   */\n  dup1\n    /* \"#utility.yul\":10676:10677   */\n  dup3\n    /* \"#utility.yul\":10673:10683   */\n  gt\n    /* \"#utility.yul\":10670:10706   */\n  iszero\n  tag_241\n  jumpi\n    /* \"#utility.yul\":10686:10704   */\n  tag_242\n  tag_87\n  jump\t// in\ntag_242:\n    /* \"#utility.yul\":10670:10706   */\ntag_241:\n    /* \"#utility.yul\":10522:10713   */\n  swap3\n  swap2\n  pop\n  pop\n  jump\t// out\n    /* \"#utility.yul\":10719:10894   */\ntag_114:\n    /* \"#utility.yul\":10859:10886   */\n  0x45524332304361707065643a2063617020657863656564656400000000000000\n    /* \"#utility.yul\":10855:10856   */\n  0x00\n    /* \"#utility.yul\":10847:10853   */\n  dup3\n    /* \"#utility.yul\":10843:10857   */\n  add\n    /* \"#utility.yul\":10836:10887   */\n  mstore\n    /* \"#utility.yul\":10719:10894   */\n  pop\n  jump\t// out\n    /* \"#utility.yul\":10900:11266   */\ntag_115:\n    /* \"#utility.yul\":11042:11045   */\n  0x00\n    /* \"#utility.yul\":11063:11130   */\n  tag_245\n    /* \"#utility.yul\":11127:11129   */\n  0x19\n    /* \"#utility.yul\":11122:11125   */\n  dup4\n    /* \"#utility.yul\":11063:11130   */\n  tag_111\n  jump\t// in\ntag_245:\n    /* \"#utility.yul\":11056:11130   */\n  swap2\n  pop\n    /* \"#utility.yul\":11139:11232   */\n  tag_246\n    /* \"#utility.yul\":11228:11231   */\n  dup3\n    /* \"#utility.yul\":11139:11232   */\n  tag_114\n  jump\t// in\ntag_246:\n    /* \"#utility.yul\":11257:11259   */\n  0x20\n    /* \"#utility.yul\":11252:11255   */\n  dup3\n    /* \"#utility.yul\":11248:11260   */\n  add\n    /* \"#utility.yul\":11241:11260   */\n  swap1\n  pop\n    /* \"#utility.yul\":10900:11266   */\n  swap2\n  swap1\n  pop\n  jump\t// out\n    /* \"#utility.yul\":11272:11691   */\ntag_41:\n    /* \"#utility.yul\":11438:11442   */\n  0x00\n    /* \"#utility.yul\":11476:11478   */\n  0x20\n    /* \"#utility.yul\":11465:11474   */\n  dup3\n    /* \"#utility.yul\":11461:11479   */\n  add\n    /* \"#utility.yul\":11453:11479   */\n  swap1\n  pop\n    /* \"#utility.yul\":11525:11534   */\n  dup2\n    /* \"#utility.yul\":11519:11523   */\n  dup2\n    /* \"#utility.yul\":11515:11535   */\n  sub\n    /* \"#utility.yul\":11511:11512   */\n  0x00\n    /* \"#utility.yul\":11500:11509   */\n  dup4\n    /* \"#utility.yul\":11496:11513   */\n  add\n    /* \"#utility.yul\":11489:11536   */\n  mstore\n    /* \"#utility.yul\":11553:11684   */\n  tag_248\n    /* \"#utility.yul\":11679:11683   */\n  dup2\n    /* \"#utility.yul\":11553:11684   */\n  tag_115\n  jump\t// in\ntag_248:\n    /* \"#utility.yul\":11545:11684   */\n  swap1\n  pop\n    /* \"#utility.yul\":11272:11691   */\n  swap2\n  swap1\n  pop\n  jump\t// out\n    /* \"#utility.yul\":11697:11878   */\ntag_116:\n    /* \"#utility.yul\":11837:11870   */\n  0x45524332303a206d696e7420746f20746865207a65726f206164647265737300\n    /* \"#utility.yul\":11833:11834   */\n  0x00\n    /* \"#utility.yul\":11825:11831   */\n  dup3\n    /* \"#utility.yul\":11821:11835   */\n  add\n    /* \"#utility.yul\":11814:11871   */\n  mstore\n    /* \"#utility.yul\":11697:11878   */\n  pop\n  jump\t// out\n    /* \"#utility.yul\":11884:12250   */\ntag_117:\n    /* \"#utility.yul\":12026:12029   */\n  0x00\n    /* \"#utility.yul\":12047:12114   */\n  tag_251\n    /* \"#utility.yul\":12111:12113   */\n  0x1f\n    /* \"#utility.yul\":12106:12109   */\n  dup4\n    /* \"#utility.yul\":12047:12114   */\n  tag_111\n  jump\t// in\ntag_251:\n    /* \"#utility.yul\":12040:12114   */\n  swap2\n  pop\n    /* \"#utility.yul\":12123:12216   */\n  tag_252\n    /* \"#utility.yul\":12212:12215   */\n  dup3\n    /* \"#utility.yul\":12123:12216   */\n  tag_116\n  jump\t// in\ntag_252:\n    /* \"#utility.yul\":12241:12243   */\n  0x20\n    /* \"#utility.yul\":12236:12239   */\n  dup3\n    /* \"#utility.yul\":12232:12244   */\n  add\n    /* \"#utility.yul\":12225:12244   */\n  swap1\n  pop\n    /* \"#utility.yul\":11884:12250   */\n  swap2\n  swap1\n  pop\n  jump\t// out\n    /* \"#utility.yul\":12256:12675   */\ntag_57:\n    /* \"#utility.yul\":12422:12426   */\n  0x00\n    /* \"#utility.yul\":12460:12462   */\n  0x20\n    /* \"#utility.yul\":12449:12458   */\n  dup3\n    /* \"#utility.yul\":12445:12463   */\n  add\n    /* \"#utility.yul\":12437:12463   */\n  swap1\n  pop\n    /* \"#utility.yul\":12509:12518   */\n  dup2\n    /* \"#utility.yul\":12503:12507   */\n  dup2\n    /* \"#utility.yul\":12499:12519   */\n  sub\n    /* \"#utility.yul\":12495:12496   */\n  0x00\n    /* \"#utility.yul\":12484:12493   */\n  dup4\n    /* \"#utility.yul\":12480:12497   */\n  add\n    /* \"#utility.yul\":12473:12520   */\n  mstore\n    /* \"#utility.yul\":12537:12668   */\n  tag_254\n    /* \"#utility.yul\":12663:12667   */\n  dup2\n    /* \"#utility.yul\":12537:12668   */\n  tag_117\n  jump\t// in\ntag_254:\n    /* \"#utility.yul\":12529:12668   */\n  swap1\n  pop\n    /* \"#utility.yul\":12256:12675   */\n  swap2\n  swap1\n  pop\n  jump\t// out\n    /* \"#utility.yul\":12681:12799   */\ntag_118:\n    /* \"#utility.yul\":12768:12792   */\n  tag_256\n    /* \"#utility.yul\":12786:12791   */\n  dup2\n    /* \"#utility.yul\":12768:12792   */\n  tag_84\n  jump\t// in\ntag_256:\n    /* \"#utility.yul\":12763:12766   */\n  dup3\n    /* \"#utility.yul\":12756:12793   */\n  mstore\n    /* \"#utility.yul\":12681:12799   */\n  pop\n  pop\n  jump\t// out\n    /* \"#utility.yul\":12805:13027   */\ntag_62:\n    /* \"#utility.yul\":12898:12902   */\n  0x00\n    /* \"#utility.yul\":12936:12938   */\n  0x20\n    /* \"#utility.yul\":12925:12934   */\n  dup3\n    /* \"#utility.yul\":12921:12939   */\n  add\n    /* \"#utility.yul\":12913:12939   */\n  swap1\n  pop\n    /* \"#utility.yul\":12949:13020   */\n  tag_258\n    /* \"#utility.yul\":13017:13018   */\n  0x00\n    /* \"#utility.yul\":13006:13015   */\n  dup4\n    /* \"#utility.yul\":13002:13019   */\n  add\n    /* \"#utility.yul\":12993:12999   */\n  dup5\n    /* \"#utility.yul\":12949:13020   */\n  tag_118\n  jump\t// in\ntag_258:\n    /* \"#utility.yul\":12805:13027   */\n  swap3\n  swap2\n  pop\n  pop\n  jump\t// out\n    /* \"contracts/EuroBetToken.sol\":470:2723  contract EuroBetToken is ERC20Capped, ERC20Burnable {  //Burnable dadurch, dass wir nicht wissen ob das Cap zuviel ist, können wir sie danach burnen... */\ntag_30:\n  mload(0x80)\n  codecopy(0x00, dataOffset(sub_0), dataSize(sub_0))\n  0x00\n  assignImmutable(\"0x705a6ef83029e2c8cd72d6aefd2a2bbc4a5113a33398eeb61dd1988b11595ae5\")\n  return(0x00, dataSize(sub_0))\nstop\n\nsub_0: assembly {\n        /* \"contracts/EuroBetToken.sol\":470:2723  contract EuroBetToken is ERC20Capped, ERC20Burnable {  //Burnable dadurch, dass wir nicht wissen ob das Cap zuviel ist, können wir sie danach burnen... */\n      mstore(0x40, 0x80)\n      callvalue\n      dup1\n      iszero\n      tag_1\n      jumpi\n      0x00\n      dup1\n      revert\n    tag_1:\n      pop\n      jumpi(tag_2, lt(calldatasize, 0x04))\n      shr(0xe0, calldataload(0x00))\n      dup1\n      0x42966c68\n      gt\n      tag_23\n      jumpi\n      dup1\n      0x95d89b41\n      gt\n      tag_24\n      jumpi\n      dup1\n      0x95d89b41\n      eq\n      tag_18\n      jumpi\n      dup1\n      0xa457c2d7\n      eq\n      tag_19\n      jumpi\n      dup1\n      0xa9059cbb\n      eq\n      tag_20\n      jumpi\n      dup1\n      0xc0e6c965\n      eq\n      tag_21\n      jumpi\n      dup1\n      0xdd62ed3e\n      eq\n      tag_22\n      jumpi\n      jump(tag_2)\n    tag_24:\n      dup1\n      0x42966c68\n      eq\n      tag_13\n      jumpi\n      dup1\n      0x70a08231\n      eq\n      tag_14\n      jumpi\n      dup1\n      0x79cc6790\n      eq\n      tag_15\n      jumpi\n      dup1\n      0x80ac4be8\n      eq\n      tag_16\n      jumpi\n      dup1\n      0x8da5cb5b\n      eq\n      tag_17\n      jumpi\n      jump(tag_2)\n    tag_23:\n      dup1\n      0x1a18e707\n      gt\n      tag_25\n      jumpi\n      dup1\n      0x1a18e707\n      eq\n      tag_8\n      jumpi\n      dup1\n      0x23b872dd\n      eq\n      tag_9\n      jumpi\n      dup1\n      0x313ce567\n      eq\n      tag_10\n      jumpi\n      dup1\n      0x355274ea\n      eq\n      tag_11\n      jumpi\n      dup1\n      0x39509351\n      eq\n      tag_12\n      jumpi\n      jump(tag_2)\n    tag_25:\n      dup1\n      0x06fdde03\n      eq\n      tag_3\n      jumpi\n      dup1\n      0x095ea7b3\n      eq\n      tag_4\n      jumpi\n      dup1\n      0x0ac168a1\n      eq\n      tag_5\n      jumpi\n      dup1\n      0x155184c6\n      eq\n      tag_6\n      jumpi\n      dup1\n      0x18160ddd\n      eq\n      tag_7\n      jumpi\n    tag_2:\n      0x00\n      dup1\n      revert\n        /* \"https://github.com/OpenZeppelin/openzeppelin-contracts/blob/master/contracts/token/ERC20/ERC20.sol\":2158:2256  function name() public view virtual override returns (string memory) {... */\n    tag_3:\n      tag_26\n      tag_27\n      jump\t// in\n    tag_26:\n      mload(0x40)\n      tag_28\n      swap2\n      swap1\n      tag_29\n      jump\t// in\n    tag_28:\n      mload(0x40)\n      dup1\n      swap2\n      sub\n      swap1\n      return\n        /* \"https://github.com/OpenZeppelin/openzeppelin-contracts/blob/master/contracts/token/ERC20/ERC20.sol\":4444:4641  function approve(address spender, uint256 amount) public virtual override returns (bool) {... */\n    tag_4:\n      tag_30\n      0x04\n      dup1\n      calldatasize\n      sub\n      dup2\n      add\n      swap1\n      tag_31\n      swap2\n      swap1\n      tag_32\n      jump\t// in\n    tag_31:\n      tag_33\n      jump\t// in\n    tag_30:\n      mload(0x40)\n      tag_34\n      swap2\n      swap1\n      tag_35\n      jump\t// in\n    tag_34:\n      mload(0x40)\n      dup1\n      swap2\n      sub\n      swap1\n      return\n        /* \"contracts/EuroBetToken.sol\":660:686  uint256 public blockReward */\n    tag_5:\n      tag_36\n      tag_37\n      jump\t// in\n    tag_36:\n      mload(0x40)\n      tag_38\n      swap2\n      swap1\n      tag_39\n      jump\t// in\n    tag_38:\n      mload(0x40)\n      dup1\n      swap2\n      sub\n      swap1\n      return\n        /* \"contracts/EuroBetToken.sol\":2464:2720  function transferForBetting(address from, address to, uint256 amount) public returns (bool) {... */\n    tag_6:\n      tag_40\n      0x04\n      dup1\n      calldatasize\n      sub\n      dup2\n      add\n      swap1\n      tag_41\n      swap2\n      swap1\n      tag_42\n      jump\t// in\n    tag_41:\n      tag_43\n      jump\t// in\n    tag_40:\n      mload(0x40)\n      tag_44\n      swap2\n      swap1\n      tag_35\n      jump\t// in\n    tag_44:\n      mload(0x40)\n      dup1\n      swap2\n      sub\n      swap1\n      return\n        /* \"https://github.com/OpenZeppelin/openzeppelin-contracts/blob/master/contracts/token/ERC20/ERC20.sol\":3255:3361  function totalSupply() public view virtual override returns (uint256) {... */\n    tag_7:\n      tag_45\n      tag_46\n      jump\t// in\n    tag_45:\n      mload(0x40)\n      tag_47\n      swap2\n      swap1\n      tag_39\n      jump\t// in\n    tag_47:\n      mload(0x40)\n      dup1\n      swap2\n      sub\n      swap1\n      return\n        /* \"contracts/EuroBetToken.sol\":1876:1993  function setBlockReward(uint256 reward) public onlyOwner {... */\n    tag_8:\n      tag_48\n      0x04\n      dup1\n      calldatasize\n      sub\n      dup2\n      add\n      swap1\n      tag_49\n      swap2\n      swap1\n      tag_50\n      jump\t// in\n    tag_49:\n      tag_51\n      jump\t// in\n    tag_48:\n      stop\n        /* \"https://github.com/OpenZeppelin/openzeppelin-contracts/blob/master/contracts/token/ERC20/ERC20.sol\":5203:5459  function transferFrom(address from, address to, uint256 amount) public virtual override returns (bool) {... */\n    tag_9:\n      tag_52\n      0x04\n      dup1\n      calldatasize\n      sub\n      dup2\n      add\n      swap1\n      tag_53\n      swap2\n      swap1\n      tag_42\n      jump\t// in\n    tag_53:\n      tag_54\n      jump\t// in\n    tag_52:\n      mload(0x40)\n      tag_55\n      swap2\n      swap1\n      tag_35\n      jump\t// in\n    tag_55:\n      mload(0x40)\n      dup1\n      swap2\n      sub\n      swap1\n      return\n        /* \"https://github.com/OpenZeppelin/openzeppelin-contracts/blob/master/contracts/token/ERC20/ERC20.sol\":3104:3195  function decimals() public view virtual override returns (uint8) {... */\n    tag_10:\n      tag_56\n      tag_57\n      jump\t// in\n    tag_56:\n      mload(0x40)\n      tag_58\n      swap2\n      swap1\n      tag_59\n      jump\t// in\n    tag_58:\n      mload(0x40)\n      dup1\n      swap2\n      sub\n      swap1\n      return\n        /* \"https://github.com/OpenZeppelin/openzeppelin-contracts/blob/master/contracts/token/ERC20/extensions/ERC20Capped.sol\":635:716  function cap() public view virtual returns (uint256) {... */\n    tag_11:\n      tag_60\n      tag_61\n      jump\t// in\n    tag_60:\n      mload(0x40)\n      tag_62\n      swap2\n      swap1\n      tag_39\n      jump\t// in\n    tag_62:\n      mload(0x40)\n      dup1\n      swap2\n      sub\n      swap1\n      return\n        /* \"https://github.com/OpenZeppelin/openzeppelin-contracts/blob/master/contracts/token/ERC20/ERC20.sol\":5854:6088  function increaseAllowance(address spender, uint256 addedValue) public virtual returns (bool) {... */\n    tag_12:\n      tag_63\n      0x04\n      dup1\n      calldatasize\n      sub\n      dup2\n      add\n      swap1\n      tag_64\n      swap2\n      swap1\n      tag_32\n      jump\t// in\n    tag_64:\n      tag_65\n      jump\t// in\n    tag_63:\n      mload(0x40)\n      tag_66\n      swap2\n      swap1\n      tag_35\n      jump\t// in\n    tag_66:\n      mload(0x40)\n      dup1\n      swap2\n      sub\n      swap1\n      return\n        /* \"https://github.com/OpenZeppelin/openzeppelin-contracts/blob/master/contracts/token/ERC20/extensions/ERC20Burnable.sol\":578:667  function burn(uint256 amount) public virtual {... */\n    tag_13:\n      tag_67\n      0x04\n      dup1\n      calldatasize\n      sub\n      dup2\n      add\n      swap1\n      tag_68\n      swap2\n      swap1\n      tag_50\n      jump\t// in\n    tag_68:\n      tag_69\n      jump\t// in\n    tag_67:\n      stop\n        /* \"https://github.com/OpenZeppelin/openzeppelin-contracts/blob/master/contracts/token/ERC20/ERC20.sol\":3419:3544  function balanceOf(address account) public view virtual override returns (uint256) {... */\n    tag_14:\n      tag_70\n      0x04\n      dup1\n      calldatasize\n      sub\n      dup2\n      add\n      swap1\n      tag_71\n      swap2\n      swap1\n      tag_72\n      jump\t// in\n    tag_71:\n      tag_73\n      jump\t// in\n    tag_70:\n      mload(0x40)\n      tag_74\n      swap2\n      swap1\n      tag_39\n      jump\t// in\n    tag_74:\n      mload(0x40)\n      dup1\n      swap2\n      sub\n      swap1\n      return\n        /* \"https://github.com/OpenZeppelin/openzeppelin-contracts/blob/master/contracts/token/ERC20/extensions/ERC20Burnable.sol\":973:1134  function burnFrom(address account, uint256 amount) public virtual {... */\n    tag_15:\n      tag_75\n      0x04\n      dup1\n      calldatasize\n      sub\n      dup2\n      add\n      swap1\n      tag_76\n      swap2\n      swap1\n      tag_32\n      jump\t// in\n    tag_76:\n      tag_77\n      jump\t// in\n    tag_75:\n      stop\n        /* \"contracts/EuroBetToken.sol\":693:741  mapping(address => bool) public bettingContracts */\n    tag_16:\n      tag_78\n      0x04\n      dup1\n      calldatasize\n      sub\n      dup2\n      add\n      swap1\n      tag_79\n      swap2\n      swap1\n      tag_72\n      jump\t// in\n    tag_79:\n      tag_80\n      jump\t// in\n    tag_78:\n      mload(0x40)\n      tag_81\n      swap2\n      swap1\n      tag_35\n      jump\t// in\n    tag_81:\n      mload(0x40)\n      dup1\n      swap2\n      sub\n      swap1\n      return\n        /* \"contracts/EuroBetToken.sol\":625:653  address payable public owner */\n    tag_17:\n      tag_82\n      tag_83\n      jump\t// in\n    tag_82:\n      mload(0x40)\n      tag_84\n      swap2\n      swap1\n      tag_85\n      jump\t// in\n    tag_84:\n      mload(0x40)\n      dup1\n      swap2\n      sub\n      swap1\n      return\n        /* \"https://github.com/OpenZeppelin/openzeppelin-contracts/blob/master/contracts/token/ERC20/ERC20.sol\":2369:2471  function symbol() public view virtual override returns (string memory) {... */\n    tag_18:\n      tag_86\n      tag_87\n      jump\t// in\n    tag_86:\n      mload(0x40)\n      tag_88\n      swap2\n      swap1\n      tag_29\n      jump\t// in\n    tag_88:\n      mload(0x40)\n      dup1\n      swap2\n      sub\n      swap1\n      return\n        /* \"https://github.com/OpenZeppelin/openzeppelin-contracts/blob/master/contracts/token/ERC20/ERC20.sol\":6575:7002  function decreaseAllowance(address spender, uint256 subtractedValue) public virtual returns (bool) {... */\n    tag_19:\n      tag_89\n      0x04\n      dup1\n      calldatasize\n      sub\n      dup2\n      add\n      swap1\n      tag_90\n      swap2\n      swap1\n      tag_32\n      jump\t// in\n    tag_90:\n      tag_91\n      jump\t// in\n    tag_89:\n      mload(0x40)\n      tag_92\n      swap2\n      swap1\n      tag_35\n      jump\t// in\n    tag_92:\n      mload(0x40)\n      dup1\n      swap2\n      sub\n      swap1\n      return\n        /* \"https://github.com/OpenZeppelin/openzeppelin-contracts/blob/master/contracts/token/ERC20/ERC20.sol\":3740:3929  function transfer(address to, uint256 amount) public virtual override returns (bool) {... */\n    tag_20:\n      tag_93\n      0x04\n      dup1\n      calldatasize\n      sub\n      dup2\n      add\n      swap1\n      tag_94\n      swap2\n      swap1\n      tag_32\n      jump\t// in\n    tag_94:\n      tag_95\n      jump\t// in\n    tag_93:\n      mload(0x40)\n      tag_96\n      swap2\n      swap1\n      tag_35\n      jump\t// in\n    tag_96:\n      mload(0x40)\n      dup1\n      swap2\n      sub\n      swap1\n      return\n        /* \"contracts/EuroBetToken.sol\":2310:2456  function setBettingContract(address _bettingContract, bool status) public onlyOwner {... */\n    tag_21:\n      tag_97\n      0x04\n      dup1\n      calldatasize\n      sub\n      dup2\n      add\n      swap1\n      tag_98\n      swap2\n      swap1\n      tag_99\n      jump\t// in\n    tag_98:\n      tag_100\n      jump\t// in\n    tag_97:\n      stop\n        /* \"https://github.com/OpenZeppelin/openzeppelin-contracts/blob/master/contracts/token/ERC20/ERC20.sol\":3987:4136  function allowance(address owner, address spender) public view virtual override returns (uint256) {... */\n    tag_22:\n      tag_101\n      0x04\n      dup1\n      calldatasize\n      sub\n      dup2\n      add\n      swap1\n      tag_102\n      swap2\n      swap1\n      tag_103\n      jump\t// in\n    tag_102:\n      tag_104\n      jump\t// in\n    tag_101:\n      mload(0x40)\n      tag_105\n      swap2\n      swap1\n      tag_39\n      jump\t// in\n    tag_105:\n      mload(0x40)\n      dup1\n      swap2\n      sub\n      swap1\n      return\n        /* \"https://github.com/OpenZeppelin/openzeppelin-contracts/blob/master/contracts/token/ERC20/ERC20.sol\":2158:2256  function name() public view virtual override returns (string memory) {... */\n    tag_27:\n        /* \"https://github.com/OpenZeppelin/openzeppelin-contracts/blob/master/contracts/token/ERC20/ERC20.sol\":2212:2225  string memory */\n      0x60\n        /* \"https://github.com/OpenZeppelin/openzeppelin-contracts/blob/master/contracts/token/ERC20/ERC20.sol\":2244:2249  _name */\n      0x03\n        /* \"https://github.com/OpenZeppelin/openzeppelin-contracts/blob/master/contracts/token/ERC20/ERC20.sol\":2237:2249  return _name */\n      dup1\n      sload\n      tag_107\n      swap1\n      tag_108\n      jump\t// in\n    tag_107:\n      dup1\n      0x1f\n      add\n      0x20\n      dup1\n      swap2\n      div\n      mul\n      0x20\n      add\n      mload(0x40)\n      swap1\n      dup2\n      add\n      0x40\n      mstore\n      dup1\n      swap3\n      swap2\n      swap1\n      dup2\n      dup2\n      mstore\n      0x20\n      add\n      dup3\n      dup1\n      sload\n      tag_109\n      swap1\n      tag_108\n      jump\t// in\n    tag_109:\n      dup1\n      iszero\n      tag_110\n      jumpi\n      dup1\n      0x1f\n      lt\n      tag_111\n      jumpi\n      0x0100\n      dup1\n      dup4\n      sload\n      div\n      mul\n      dup4\n      mstore\n      swap2\n      0x20\n      add\n      swap2\n      jump(tag_110)\n    tag_111:\n      dup3\n      add\n      swap2\n      swap1\n      0x00\n      mstore\n      keccak256(0x00, 0x20)\n      swap1\n    tag_112:\n      dup2\n      sload\n      dup2\n      mstore\n      swap1\n      0x01\n      add\n      swap1\n      0x20\n      add\n      dup1\n      dup4\n      gt\n      tag_112\n      jumpi\n      dup3\n      swap1\n      sub\n      0x1f\n      and\n      dup3\n      add\n      swap2\n    tag_110:\n      pop\n      pop\n      pop\n      pop\n      pop\n      swap1\n      pop\n        /* \"https://github.com/OpenZeppelin/openzeppelin-contracts/blob/master/contracts/token/ERC20/ERC20.sol\":2158:2256  function name() public view virtual override returns (string memory) {... */\n      swap1\n      jump\t// out\n        /* \"https://github.com/OpenZeppelin/openzeppelin-contracts/blob/master/contracts/token/ERC20/ERC20.sol\":4444:4641  function approve(address spender, uint256 amount) public virtual override returns (bool) {... */\n    tag_33:\n        /* \"https://github.com/OpenZeppelin/openzeppelin-contracts/blob/master/contracts/token/ERC20/ERC20.sol\":4527:4531  bool */\n      0x00\n        /* \"https://github.com/OpenZeppelin/openzeppelin-contracts/blob/master/contracts/token/ERC20/ERC20.sol\":4543:4556  address owner */\n      dup1\n        /* \"https://github.com/OpenZeppelin/openzeppelin-contracts/blob/master/contracts/token/ERC20/ERC20.sol\":4559:4571  _msgSender() */\n      tag_114\n        /* \"https://github.com/OpenZeppelin/openzeppelin-contracts/blob/master/contracts/token/ERC20/ERC20.sol\":4559:4569  _msgSender */\n      tag_115\n        /* \"https://github.com/OpenZeppelin/openzeppelin-contracts/blob/master/contracts/token/ERC20/ERC20.sol\":4559:4571  _msgSender() */\n      jump\t// in\n    tag_114:\n        /* \"https://github.com/OpenZeppelin/openzeppelin-contracts/blob/master/contracts/token/ERC20/ERC20.sol\":4543:4571  address owner = _msgSender() */\n      swap1\n      pop\n        /* \"https://github.com/OpenZeppelin/openzeppelin-contracts/blob/master/contracts/token/ERC20/ERC20.sol\":4581:4613  _approve(owner, spender, amount) */\n      tag_116\n        /* \"https://github.com/OpenZeppelin/openzeppelin-contracts/blob/master/contracts/token/ERC20/ERC20.sol\":4590:4595  owner */\n      dup2\n        /* \"https://github.com/OpenZeppelin/openzeppelin-contracts/blob/master/contracts/token/ERC20/ERC20.sol\":4597:4604  spender */\n      dup6\n        /* \"https://github.com/OpenZeppelin/openzeppelin-contracts/blob/master/contracts/token/ERC20/ERC20.sol\":4606:4612  amount */\n      dup6\n        /* \"https://github.com/OpenZeppelin/openzeppelin-contracts/blob/master/contracts/token/ERC20/ERC20.sol\":4581:4589  _approve */\n      tag_117\n        /* \"https://github.com/OpenZeppelin/openzeppelin-contracts/blob/master/contracts/token/ERC20/ERC20.sol\":4581:4613  _approve(owner, spender, amount) */\n      jump\t// in\n    tag_116:\n        /* \"https://github.com/OpenZeppelin/openzeppelin-contracts/blob/master/contracts/token/ERC20/ERC20.sol\":4630:4634  true */\n      0x01\n        /* \"https://github.com/OpenZeppelin/openzeppelin-contracts/blob/master/contracts/token/ERC20/ERC20.sol\":4623:4634  return true */\n      swap2\n      pop\n      pop\n        /* \"https://github.com/OpenZeppelin/openzeppelin-contracts/blob/master/contracts/token/ERC20/ERC20.sol\":4444:4641  function approve(address spender, uint256 amount) public virtual override returns (bool) {... */\n      swap3\n      swap2\n      pop\n      pop\n      jump\t// out\n        /* \"contracts/EuroBetToken.sol\":660:686  uint256 public blockReward */\n    tag_37:\n      sload(0x06)\n      dup2\n      jump\t// out\n        /* \"contracts/EuroBetToken.sol\":2464:2720  function transferForBetting(address from, address to, uint256 amount) public returns (bool) {... */\n    tag_43:\n        /* \"contracts/EuroBetToken.sol\":2550:2554  bool */\n      0x00\n        /* \"contracts/EuroBetToken.sol\":2607:2611  true */\n      0x01\n        /* \"contracts/EuroBetToken.sol\":2575:2611  bettingContracts[msg.sender] == true */\n      iszero\n      iszero\n        /* \"contracts/EuroBetToken.sol\":2575:2591  bettingContracts */\n      0x07\n        /* \"contracts/EuroBetToken.sol\":2575:2603  bettingContracts[msg.sender] */\n      0x00\n        /* \"contracts/EuroBetToken.sol\":2592:2602  msg.sender */\n      caller\n        /* \"contracts/EuroBetToken.sol\":2575:2603  bettingContracts[msg.sender] */\n      0xffffffffffffffffffffffffffffffffffffffff\n      and\n      0xffffffffffffffffffffffffffffffffffffffff\n      and\n      dup2\n      mstore\n      0x20\n      add\n      swap1\n      dup2\n      mstore\n      0x20\n      add\n      0x00\n      keccak256\n      0x00\n      swap1\n      sload\n      swap1\n      0x0100\n      exp\n      swap1\n      div\n      0xff\n      and\n        /* \"contracts/EuroBetToken.sol\":2575:2611  bettingContracts[msg.sender] == true */\n      iszero\n      iszero\n      eq\n        /* \"contracts/EuroBetToken.sol\":2567:2652  require(bettingContracts[msg.sender] == true, \"Only betting contracts can call this\") */\n      tag_119\n      jumpi\n      mload(0x40)\n      0x08c379a000000000000000000000000000000000000000000000000000000000\n      dup2\n      mstore\n      0x04\n      add\n      tag_120\n      swap1\n      tag_121\n      jump\t// in\n    tag_120:\n      mload(0x40)\n      dup1\n      swap2\n      sub\n      swap1\n      revert\n    tag_119:\n        /* \"contracts/EuroBetToken.sol\":2663:2690  _transfer(from, to, amount) */\n      tag_122\n        /* \"contracts/EuroBetToken.sol\":2673:2677  from */\n      dup5\n        /* \"contracts/EuroBetToken.sol\":2679:2681  to */\n      dup5\n        /* \"contracts/EuroBetToken.sol\":2683:2689  amount */\n      dup5\n        /* \"contracts/EuroBetToken.sol\":2663:2672  _transfer */\n      tag_123\n        /* \"contracts/EuroBetToken.sol\":2663:2690  _transfer(from, to, amount) */\n      jump\t// in\n    tag_122:\n        /* \"contracts/EuroBetToken.sol\":2708:2712  true */\n      0x01\n        /* \"contracts/EuroBetToken.sol\":2701:2712  return true */\n      swap1\n      pop\n        /* \"contracts/EuroBetToken.sol\":2464:2720  function transferForBetting(address from, address to, uint256 amount) public returns (bool) {... */\n      swap4\n      swap3\n      pop\n      pop\n      pop\n      jump\t// out\n        /* \"https://github.com/OpenZeppelin/openzeppelin-contracts/blob/master/contracts/token/ERC20/ERC20.sol\":3255:3361  function totalSupply() public view virtual override returns (uint256) {... */\n    tag_46:\n        /* \"https://github.com/OpenZeppelin/openzeppelin-contracts/blob/master/contracts/token/ERC20/ERC20.sol\":3316:3323  uint256 */\n      0x00\n        /* \"https://github.com/OpenZeppelin/openzeppelin-contracts/blob/master/contracts/token/ERC20/ERC20.sol\":3342:3354  _totalSupply */\n      sload(0x02)\n        /* \"https://github.com/OpenZeppelin/openzeppelin-contracts/blob/master/contracts/token/ERC20/ERC20.sol\":3335:3354  return _totalSupply */\n      swap1\n      pop\n        /* \"https://github.com/OpenZeppelin/openzeppelin-contracts/blob/master/contracts/token/ERC20/ERC20.sol\":3255:3361  function totalSupply() public view virtual override returns (uint256) {... */\n      swap1\n      jump\t// out\n        /* \"contracts/EuroBetToken.sol\":1876:1993  function setBlockReward(uint256 reward) public onlyOwner {... */\n    tag_51:\n        /* \"contracts/EuroBetToken.sol\":2132:2137  owner */\n      0x05\n      0x00\n      swap1\n      sload\n      swap1\n      0x0100\n      exp\n      swap1\n      div\n      0xffffffffffffffffffffffffffffffffffffffff\n      and\n        /* \"contracts/EuroBetToken.sol\":2118:2137  msg.sender == owner */\n      0xffffffffffffffffffffffffffffffffffffffff\n      and\n        /* \"contracts/EuroBetToken.sol\":2118:2128  msg.sender */\n      caller\n        /* \"contracts/EuroBetToken.sol\":2118:2137  msg.sender == owner */\n      0xffffffffffffffffffffffffffffffffffffffff\n      and\n      eq\n        /* \"contracts/EuroBetToken.sol\":2110:2179  require(msg.sender == owner, \"Only the owner can call this function\") */\n      tag_126\n      jumpi\n      mload(0x40)\n      0x08c379a000000000000000000000000000000000000000000000000000000000\n      dup2\n      mstore\n      0x04\n      add\n      tag_127\n      swap1\n      tag_128\n      jump\t// in\n    tag_127:\n      mload(0x40)\n      dup1\n      swap2\n      sub\n      swap1\n      revert\n    tag_126:\n        /* \"contracts/EuroBetToken.sol\":1974:1984  decimals() */\n      tag_130\n        /* \"contracts/EuroBetToken.sol\":1974:1982  decimals */\n      tag_57\n        /* \"contracts/EuroBetToken.sol\":1974:1984  decimals() */\n      jump\t// in\n    tag_130:\n        /* \"contracts/EuroBetToken.sol\":1968:1970  10 */\n      0x0a\n        /* \"contracts/EuroBetToken.sol\":1968:1984  10 ** decimals() */\n      tag_131\n      swap2\n      swap1\n      tag_132\n      jump\t// in\n    tag_131:\n        /* \"contracts/EuroBetToken.sol\":1958:1964  reward */\n      dup2\n        /* \"contracts/EuroBetToken.sol\":1958:1985  reward * (10 ** decimals()) */\n      tag_133\n      swap2\n      swap1\n      tag_134\n      jump\t// in\n    tag_133:\n        /* \"contracts/EuroBetToken.sol\":1944:1955  blockReward */\n      0x06\n        /* \"contracts/EuroBetToken.sol\":1944:1985  blockReward = reward * (10 ** decimals()) */\n      dup2\n      swap1\n      sstore\n      pop\n        /* \"contracts/EuroBetToken.sol\":1876:1993  function setBlockReward(uint256 reward) public onlyOwner {... */\n      pop\n      jump\t// out\n        /* \"https://github.com/OpenZeppelin/openzeppelin-contracts/blob/master/contracts/token/ERC20/ERC20.sol\":5203:5459  function transferFrom(address from, address to, uint256 amount) public virtual override returns (bool) {... */\n    tag_54:\n        /* \"https://github.com/OpenZeppelin/openzeppelin-contracts/blob/master/contracts/token/ERC20/ERC20.sol\":5300:5304  bool */\n      0x00\n        /* \"https://github.com/OpenZeppelin/openzeppelin-contracts/blob/master/contracts/token/ERC20/ERC20.sol\":5316:5331  address spender */\n      dup1\n        /* \"https://github.com/OpenZeppelin/openzeppelin-contracts/blob/master/contracts/token/ERC20/ERC20.sol\":5334:5346  _msgSender() */\n      tag_136\n        /* \"https://github.com/OpenZeppelin/openzeppelin-contracts/blob/master/contracts/token/ERC20/ERC20.sol\":5334:5344  _msgSender */\n      tag_115\n        /* \"https://github.com/OpenZeppelin/openzeppelin-contracts/blob/master/contracts/token/ERC20/ERC20.sol\":5334:5346  _msgSender() */\n      jump\t// in\n    tag_136:\n        /* \"https://github.com/OpenZeppelin/openzeppelin-contracts/blob/master/contracts/token/ERC20/ERC20.sol\":5316:5346  address spender = _msgSender() */\n      swap1\n      pop\n        /* \"https://github.com/OpenZeppelin/openzeppelin-contracts/blob/master/contracts/token/ERC20/ERC20.sol\":5356:5394  _spendAllowance(from, spender, amount) */\n      tag_137\n        /* \"https://github.com/OpenZeppelin/openzeppelin-contracts/blob/master/contracts/token/ERC20/ERC20.sol\":5372:5376  from */\n      dup6\n        /* \"https://github.com/OpenZeppelin/openzeppelin-contracts/blob/master/contracts/token/ERC20/ERC20.sol\":5378:5385  spender */\n      dup3\n        /* \"https://github.com/OpenZeppelin/openzeppelin-contracts/blob/master/contracts/token/ERC20/ERC20.sol\":5387:5393  amount */\n      dup6\n        /* \"https://github.com/OpenZeppelin/openzeppelin-contracts/blob/master/contracts/token/ERC20/ERC20.sol\":5356:5371  _spendAllowance */\n      tag_138\n        /* \"https://github.com/OpenZeppelin/openzeppelin-contracts/blob/master/contracts/token/ERC20/ERC20.sol\":5356:5394  _spendAllowance(from, spender, amount) */\n      jump\t// in\n    tag_137:\n        /* \"https://github.com/OpenZeppelin/openzeppelin-contracts/blob/master/contracts/token/ERC20/ERC20.sol\":5404:5431  _transfer(from, to, amount) */\n      tag_139\n        /* \"https://github.com/OpenZeppelin/openzeppelin-contracts/blob/master/contracts/token/ERC20/ERC20.sol\":5414:5418  from */\n      dup6\n        /* \"https://github.com/OpenZeppelin/openzeppelin-contracts/blob/master/contracts/token/ERC20/ERC20.sol\":5420:5422  to */\n      dup6\n        /* \"https://github.com/OpenZeppelin/openzeppelin-contracts/blob/master/contracts/token/ERC20/ERC20.sol\":5424:5430  amount */\n      dup6\n        /* \"https://github.com/OpenZeppelin/openzeppelin-contracts/blob/master/contracts/token/ERC20/ERC20.sol\":5404:5413  _transfer */\n      tag_123\n        /* \"https://github.com/OpenZeppelin/openzeppelin-contracts/blob/master/contracts/token/ERC20/ERC20.sol\":5404:5431  _transfer(from, to, amount) */\n      jump\t// in\n    tag_139:\n        /* \"https://github.com/OpenZeppelin/openzeppelin-contracts/blob/master/contracts/token/ERC20/ERC20.sol\":5448:5452  true */\n      0x01\n        /* \"https://github.com/OpenZeppelin/openzeppelin-contracts/blob/master/contracts/token/ERC20/ERC20.sol\":5441:5452  return true */\n      swap2\n      pop\n      pop\n        /* \"https://github.com/OpenZeppelin/openzeppelin-contracts/blob/master/contracts/token/ERC20/ERC20.sol\":5203:5459  function transferFrom(address from, address to, uint256 amount) public virtual override returns (bool) {... */\n      swap4\n      swap3\n      pop\n      pop\n      pop\n      jump\t// out\n        /* \"https://github.com/OpenZeppelin/openzeppelin-contracts/blob/master/contracts/token/ERC20/ERC20.sol\":3104:3195  function decimals() public view virtual override returns (uint8) {... */\n    tag_57:\n        /* \"https://github.com/OpenZeppelin/openzeppelin-contracts/blob/master/contracts/token/ERC20/ERC20.sol\":3162:3167  uint8 */\n      0x00\n        /* \"https://github.com/OpenZeppelin/openzeppelin-contracts/blob/master/contracts/token/ERC20/ERC20.sol\":3186:3188  18 */\n      0x12\n        /* \"https://github.com/OpenZeppelin/openzeppelin-contracts/blob/master/contracts/token/ERC20/ERC20.sol\":3179:3188  return 18 */\n      swap1\n      pop\n        /* \"https://github.com/OpenZeppelin/openzeppelin-contracts/blob/master/contracts/token/ERC20/ERC20.sol\":3104:3195  function decimals() public view virtual override returns (uint8) {... */\n      swap1\n      jump\t// out\n        /* \"https://github.com/OpenZeppelin/openzeppelin-contracts/blob/master/contracts/token/ERC20/extensions/ERC20Capped.sol\":635:716  function cap() public view virtual returns (uint256) {... */\n    tag_61:\n        /* \"https://github.com/OpenZeppelin/openzeppelin-contracts/blob/master/contracts/token/ERC20/extensions/ERC20Capped.sol\":679:686  uint256 */\n      0x00\n        /* \"https://github.com/OpenZeppelin/openzeppelin-contracts/blob/master/contracts/token/ERC20/extensions/ERC20Capped.sol\":705:709  _cap */\n      immutable(\"0x705a6ef83029e2c8cd72d6aefd2a2bbc4a5113a33398eeb61dd1988b11595ae5\")\n        /* \"https://github.com/OpenZeppelin/openzeppelin-contracts/blob/master/contracts/token/ERC20/extensions/ERC20Capped.sol\":698:709  return _cap */\n      swap1\n      pop\n        /* \"https://github.com/OpenZeppelin/openzeppelin-contracts/blob/master/contracts/token/ERC20/extensions/ERC20Capped.sol\":635:716  function cap() public view virtual returns (uint256) {... */\n      swap1\n      jump\t// out\n        /* \"https://github.com/OpenZeppelin/openzeppelin-contracts/blob/master/contracts/token/ERC20/ERC20.sol\":5854:6088  function increaseAllowance(address spender, uint256 addedValue) public virtual returns (bool) {... */\n    tag_65:\n        /* \"https://github.com/OpenZeppelin/openzeppelin-contracts/blob/master/contracts/token/ERC20/ERC20.sol\":5942:5946  bool */\n      0x00\n        /* \"https://github.com/OpenZeppelin/openzeppelin-contracts/blob/master/contracts/token/ERC20/ERC20.sol\":5958:5971  address owner */\n      dup1\n        /* \"https://github.com/OpenZeppelin/openzeppelin-contracts/blob/master/contracts/token/ERC20/ERC20.sol\":5974:5986  _msgSender() */\n      tag_143\n        /* \"https://github.com/OpenZeppelin/openzeppelin-contracts/blob/master/contracts/token/ERC20/ERC20.sol\":5974:5984  _msgSender */\n      tag_115\n        /* \"https://github.com/OpenZeppelin/openzeppelin-contracts/blob/master/contracts/token/ERC20/ERC20.sol\":5974:5986  _msgSender() */\n      jump\t// in\n    tag_143:\n        /* \"https://github.com/OpenZeppelin/openzeppelin-contracts/blob/master/contracts/token/ERC20/ERC20.sol\":5958:5986  address owner = _msgSender() */\n      swap1\n      pop\n        /* \"https://github.com/OpenZeppelin/openzeppelin-contracts/blob/master/contracts/token/ERC20/ERC20.sol\":5996:6060  _approve(owner, spender, allowance(owner, spender) + addedValue) */\n      tag_144\n        /* \"https://github.com/OpenZeppelin/openzeppelin-contracts/blob/master/contracts/token/ERC20/ERC20.sol\":6005:6010  owner */\n      dup2\n        /* \"https://github.com/OpenZeppelin/openzeppelin-contracts/blob/master/contracts/token/ERC20/ERC20.sol\":6012:6019  spender */\n      dup6\n        /* \"https://github.com/OpenZeppelin/openzeppelin-contracts/blob/master/contracts/token/ERC20/ERC20.sol\":6049:6059  addedValue */\n      dup6\n        /* \"https://github.com/OpenZeppelin/openzeppelin-contracts/blob/master/contracts/token/ERC20/ERC20.sol\":6021:6046  allowance(owner, spender) */\n      tag_145\n        /* \"https://github.com/OpenZeppelin/openzeppelin-contracts/blob/master/contracts/token/ERC20/ERC20.sol\":6031:6036  owner */\n      dup6\n        /* \"https://github.com/OpenZeppelin/openzeppelin-contracts/blob/master/contracts/token/ERC20/ERC20.sol\":6038:6045  spender */\n      dup10\n        /* \"https://github.com/OpenZeppelin/openzeppelin-contracts/blob/master/contracts/token/ERC20/ERC20.sol\":6021:6030  allowance */\n      tag_104\n        /* \"https://github.com/OpenZeppelin/openzeppelin-contracts/blob/master/contracts/token/ERC20/ERC20.sol\":6021:6046  allowance(owner, spender) */\n      jump\t// in\n    tag_145:\n        /* \"https://github.com/OpenZeppelin/openzeppelin-contracts/blob/master/contracts/token/ERC20/ERC20.sol\":6021:6059  allowance(owner, spender) + addedValue */\n      tag_146\n      swap2\n      swap1\n      tag_147\n      jump\t// in\n    tag_146:\n        /* \"https://github.com/OpenZeppelin/openzeppelin-contracts/blob/master/contracts/token/ERC20/ERC20.sol\":5996:6004  _approve */\n      tag_117\n        /* \"https://github.com/OpenZeppelin/openzeppelin-contracts/blob/master/contracts/token/ERC20/ERC20.sol\":5996:6060  _approve(owner, spender, allowance(owner, spender) + addedValue) */\n      jump\t// in\n    tag_144:\n        /* \"https://github.com/OpenZeppelin/openzeppelin-contracts/blob/master/contracts/token/ERC20/ERC20.sol\":6077:6081  true */\n      0x01\n        /* \"https://github.com/OpenZeppelin/openzeppelin-contracts/blob/master/contracts/token/ERC20/ERC20.sol\":6070:6081  return true */\n      swap2\n      pop\n      pop\n        /* \"https://github.com/OpenZeppelin/openzeppelin-contracts/blob/master/contracts/token/ERC20/ERC20.sol\":5854:6088  function increaseAllowance(address spender, uint256 addedValue) public virtual returns (bool) {... */\n      swap3\n      swap2\n      pop\n      pop\n      jump\t// out\n        /* \"https://github.com/OpenZeppelin/openzeppelin-contracts/blob/master/contracts/token/ERC20/extensions/ERC20Burnable.sol\":578:667  function burn(uint256 amount) public virtual {... */\n    tag_69:\n        /* \"https://github.com/OpenZeppelin/openzeppelin-contracts/blob/master/contracts/token/ERC20/extensions/ERC20Burnable.sol\":633:660  _burn(_msgSender(), amount) */\n      tag_149\n        /* \"https://github.com/OpenZeppelin/openzeppelin-contracts/blob/master/contracts/token/ERC20/extensions/ERC20Burnable.sol\":639:651  _msgSender() */\n      tag_150\n        /* \"https://github.com/OpenZeppelin/openzeppelin-contracts/blob/master/contracts/token/ERC20/extensions/ERC20Burnable.sol\":639:649  _msgSender */\n      tag_115\n        /* \"https://github.com/OpenZeppelin/openzeppelin-contracts/blob/master/contracts/token/ERC20/extensions/ERC20Burnable.sol\":639:651  _msgSender() */\n      jump\t// in\n    tag_150:\n        /* \"https://github.com/OpenZeppelin/openzeppelin-contracts/blob/master/contracts/token/ERC20/extensions/ERC20Burnable.sol\":653:659  amount */\n      dup3\n        /* \"https://github.com/OpenZeppelin/openzeppelin-contracts/blob/master/contracts/token/ERC20/extensions/ERC20Burnable.sol\":633:638  _burn */\n      tag_151\n        /* \"https://github.com/OpenZeppelin/openzeppelin-contracts/blob/master/contracts/token/ERC20/extensions/ERC20Burnable.sol\":633:660  _burn(_msgSender(), amount) */\n      jump\t// in\n    tag_149:\n        /* \"https://github.com/OpenZeppelin/openzeppelin-contracts/blob/master/contracts/token/ERC20/extensions/ERC20Burnable.sol\":578:667  function burn(uint256 amount) public virtual {... */\n      pop\n      jump\t// out\n        /* \"https://github.com/OpenZeppelin/openzeppelin-contracts/blob/master/contracts/token/ERC20/ERC20.sol\":3419:3544  function balanceOf(address account) public view virtual override returns (uint256) {... */\n    tag_73:\n        /* \"https://github.com/OpenZeppelin/openzeppelin-contracts/blob/master/contracts/token/ERC20/ERC20.sol\":3493:3500  uint256 */\n      0x00\n        /* \"https://github.com/OpenZeppelin/openzeppelin-contracts/blob/master/contracts/token/ERC20/ERC20.sol\":3519:3528  _balances */\n      dup1\n        /* \"https://github.com/OpenZeppelin/openzeppelin-contracts/blob/master/contracts/token/ERC20/ERC20.sol\":3519:3537  _balances[account] */\n      0x00\n        /* \"https://github.com/OpenZeppelin/openzeppelin-contracts/blob/master/contracts/token/ERC20/ERC20.sol\":3529:3536  account */\n      dup4\n        /* \"https://github.com/OpenZeppelin/openzeppelin-contracts/blob/master/contracts/token/ERC20/ERC20.sol\":3519:3537  _balances[account] */\n      0xffffffffffffffffffffffffffffffffffffffff\n      and\n      0xffffffffffffffffffffffffffffffffffffffff\n      and\n      dup2\n      mstore\n      0x20\n      add\n      swap1\n      dup2\n      mstore\n      0x20\n      add\n      0x00\n      keccak256\n      sload\n        /* \"https://github.com/OpenZeppelin/openzeppelin-contracts/blob/master/contracts/token/ERC20/ERC20.sol\":3512:3537  return _balances[account] */\n      swap1\n      pop\n        /* \"https://github.com/OpenZeppelin/openzeppelin-contracts/blob/master/contracts/token/ERC20/ERC20.sol\":3419:3544  function balanceOf(address account) public view virtual override returns (uint256) {... */\n      swap2\n      swap1\n      pop\n      jump\t// out\n        /* \"https://github.com/OpenZeppelin/openzeppelin-contracts/blob/master/contracts/token/ERC20/extensions/ERC20Burnable.sol\":973:1134  function burnFrom(address account, uint256 amount) public virtual {... */\n    tag_77:\n        /* \"https://github.com/OpenZeppelin/openzeppelin-contracts/blob/master/contracts/token/ERC20/extensions/ERC20Burnable.sol\":1049:1095  _spendAllowance(account, _msgSender(), amount) */\n      tag_154\n        /* \"https://github.com/OpenZeppelin/openzeppelin-contracts/blob/master/contracts/token/ERC20/extensions/ERC20Burnable.sol\":1065:1072  account */\n      dup3\n        /* \"https://github.com/OpenZeppelin/openzeppelin-contracts/blob/master/contracts/token/ERC20/extensions/ERC20Burnable.sol\":1074:1086  _msgSender() */\n      tag_155\n        /* \"https://github.com/OpenZeppelin/openzeppelin-contracts/blob/master/contracts/token/ERC20/extensions/ERC20Burnable.sol\":1074:1084  _msgSender */\n      tag_115\n        /* \"https://github.com/OpenZeppelin/openzeppelin-contracts/blob/master/contracts/token/ERC20/extensions/ERC20Burnable.sol\":1074:1086  _msgSender() */\n      jump\t// in\n    tag_155:\n        /* \"https://github.com/OpenZeppelin/openzeppelin-contracts/blob/master/contracts/token/ERC20/extensions/ERC20Burnable.sol\":1088:1094  amount */\n      dup4\n        /* \"https://github.com/OpenZeppelin/openzeppelin-contracts/blob/master/contracts/token/ERC20/extensions/ERC20Burnable.sol\":1049:1064  _spendAllowance */\n      tag_138\n        /* \"https://github.com/OpenZeppelin/openzeppelin-contracts/blob/master/contracts/token/ERC20/extensions/ERC20Burnable.sol\":1049:1095  _spendAllowance(account, _msgSender(), amount) */\n      jump\t// in\n    tag_154:\n        /* \"https://github.com/OpenZeppelin/openzeppelin-contracts/blob/master/contracts/token/ERC20/extensions/ERC20Burnable.sol\":1105:1127  _burn(account, amount) */\n      tag_156\n        /* \"https://github.com/OpenZeppelin/openzeppelin-contracts/blob/master/contracts/token/ERC20/extensions/ERC20Burnable.sol\":1111:1118  account */\n      dup3\n        /* \"https://github.com/OpenZeppelin/openzeppelin-contracts/blob/master/contracts/token/ERC20/extensions/ERC20Burnable.sol\":1120:1126  amount */\n      dup3\n        /* \"https://github.com/OpenZeppelin/openzeppelin-contracts/blob/master/contracts/token/ERC20/extensions/ERC20Burnable.sol\":1105:1110  _burn */\n      tag_151\n        /* \"https://github.com/OpenZeppelin/openzeppelin-contracts/blob/master/contracts/token/ERC20/extensions/ERC20Burnable.sol\":1105:1127  _burn(account, amount) */\n      jump\t// in\n    tag_156:\n        /* \"https://github.com/OpenZeppelin/openzeppelin-contracts/blob/master/contracts/token/ERC20/extensions/ERC20Burnable.sol\":973:1134  function burnFrom(address account, uint256 amount) public virtual {... */\n      pop\n      pop\n      jump\t// out\n        /* \"contracts/EuroBetToken.sol\":693:741  mapping(address => bool) public bettingContracts */\n    tag_80:\n      mstore(0x20, 0x07)\n      dup1\n      0x00\n      mstore\n      keccak256(0x00, 0x40)\n      0x00\n      swap2\n      pop\n      sload\n      swap1\n      0x0100\n      exp\n      swap1\n      div\n      0xff\n      and\n      dup2\n      jump\t// out\n        /* \"contracts/EuroBetToken.sol\":625:653  address payable public owner */\n    tag_83:\n      0x05\n      0x00\n      swap1\n      sload\n      swap1\n      0x0100\n      exp\n      swap1\n      div\n      0xffffffffffffffffffffffffffffffffffffffff\n      and\n      dup2\n      jump\t// out\n        /* \"https://github.com/OpenZeppelin/openzeppelin-contracts/blob/master/contracts/token/ERC20/ERC20.sol\":2369:2471  function symbol() public view virtual override returns (string memory) {... */\n    tag_87:\n        /* \"https://github.com/OpenZeppelin/openzeppelin-contracts/blob/master/contracts/token/ERC20/ERC20.sol\":2425:2438  string memory */\n      0x60\n        /* \"https://github.com/OpenZeppelin/openzeppelin-contracts/blob/master/contracts/token/ERC20/ERC20.sol\":2457:2464  _symbol */\n      0x04\n        /* \"https://github.com/OpenZeppelin/openzeppelin-contracts/blob/master/contracts/token/ERC20/ERC20.sol\":2450:2464  return _symbol */\n      dup1\n      sload\n      tag_158\n      swap1\n      tag_108\n      jump\t// in\n    tag_158:\n      dup1\n      0x1f\n      add\n      0x20\n      dup1\n      swap2\n      div\n      mul\n      0x20\n      add\n      mload(0x40)\n      swap1\n      dup2\n      add\n      0x40\n      mstore\n      dup1\n      swap3\n      swap2\n      swap1\n      dup2\n      dup2\n      mstore\n      0x20\n      add\n      dup3\n      dup1\n      sload\n      tag_159\n      swap1\n      tag_108\n      jump\t// in\n    tag_159:\n      dup1\n      iszero\n      tag_160\n      jumpi\n      dup1\n      0x1f\n      lt\n      tag_161\n      jumpi\n      0x0100\n      dup1\n      dup4\n      sload\n      div\n      mul\n      dup4\n      mstore\n      swap2\n      0x20\n      add\n      swap2\n      jump(tag_160)\n    tag_161:\n      dup3\n      add\n      swap2\n      swap1\n      0x00\n      mstore\n      keccak256(0x00, 0x20)\n      swap1\n    tag_162:\n      dup2\n      sload\n      dup2\n      mstore\n      swap1\n      0x01\n      add\n      swap1\n      0x20\n      add\n      dup1\n      dup4\n      gt\n      tag_162\n      jumpi\n      dup3\n      swap1\n      sub\n      0x1f\n      and\n      dup3\n      add\n      swap2\n    tag_160:\n      pop\n      pop\n      pop\n      pop\n      pop\n      swap1\n      pop\n        /* \"https://github.com/OpenZeppelin/openzeppelin-contracts/blob/master/contracts/token/ERC20/ERC20.sol\":2369:2471  function symbol() public view virtual override returns (string memory) {... */\n      swap1\n      jump\t// out\n        /* \"https://github.com/OpenZeppelin/openzeppelin-contracts/blob/master/contracts/token/ERC20/ERC20.sol\":6575:7002  function decreaseAllowance(address spender, uint256 subtractedValue) public virtual returns (bool) {... */\n    tag_91:\n        /* \"https://github.com/OpenZeppelin/openzeppelin-contracts/blob/master/contracts/token/ERC20/ERC20.sol\":6668:6672  bool */\n      0x00\n        /* \"https://github.com/OpenZeppelin/openzeppelin-contracts/blob/master/contracts/token/ERC20/ERC20.sol\":6684:6697  address owner */\n      dup1\n        /* \"https://github.com/OpenZeppelin/openzeppelin-contracts/blob/master/contracts/token/ERC20/ERC20.sol\":6700:6712  _msgSender() */\n      tag_164\n        /* \"https://github.com/OpenZeppelin/openzeppelin-contracts/blob/master/contracts/token/ERC20/ERC20.sol\":6700:6710  _msgSender */\n      tag_115\n        /* \"https://github.com/OpenZeppelin/openzeppelin-contracts/blob/master/contracts/token/ERC20/ERC20.sol\":6700:6712  _msgSender() */\n      jump\t// in\n    tag_164:\n        /* \"https://github.com/OpenZeppelin/openzeppelin-contracts/blob/master/contracts/token/ERC20/ERC20.sol\":6684:6712  address owner = _msgSender() */\n      swap1\n      pop\n        /* \"https://github.com/OpenZeppelin/openzeppelin-contracts/blob/master/contracts/token/ERC20/ERC20.sol\":6722:6746  uint256 currentAllowance */\n      0x00\n        /* \"https://github.com/OpenZeppelin/openzeppelin-contracts/blob/master/contracts/token/ERC20/ERC20.sol\":6749:6774  allowance(owner, spender) */\n      tag_165\n        /* \"https://github.com/OpenZeppelin/openzeppelin-contracts/blob/master/contracts/token/ERC20/ERC20.sol\":6759:6764  owner */\n      dup3\n        /* \"https://github.com/OpenZeppelin/openzeppelin-contracts/blob/master/contracts/token/ERC20/ERC20.sol\":6766:6773  spender */\n      dup7\n        /* \"https://github.com/OpenZeppelin/openzeppelin-contracts/blob/master/contracts/token/ERC20/ERC20.sol\":6749:6758  allowance */\n      tag_104\n        /* \"https://github.com/OpenZeppelin/openzeppelin-contracts/blob/master/contracts/token/ERC20/ERC20.sol\":6749:6774  allowance(owner, spender) */\n      jump\t// in\n    tag_165:\n        /* \"https://github.com/OpenZeppelin/openzeppelin-contracts/blob/master/contracts/token/ERC20/ERC20.sol\":6722:6774  uint256 currentAllowance = allowance(owner, spender) */\n      swap1\n      pop\n        /* \"https://github.com/OpenZeppelin/openzeppelin-contracts/blob/master/contracts/token/ERC20/ERC20.sol\":6812:6827  subtractedValue */\n      dup4\n        /* \"https://github.com/OpenZeppelin/openzeppelin-contracts/blob/master/contracts/token/ERC20/ERC20.sol\":6792:6808  currentAllowance */\n      dup2\n        /* \"https://github.com/OpenZeppelin/openzeppelin-contracts/blob/master/contracts/token/ERC20/ERC20.sol\":6792:6827  currentAllowance >= subtractedValue */\n      lt\n      iszero\n        /* \"https://github.com/OpenZeppelin/openzeppelin-contracts/blob/master/contracts/token/ERC20/ERC20.sol\":6784:6869  require(currentAllowance >= subtractedValue, \"ERC20: decreased allowance below zero\") */\n      tag_166\n      jumpi\n      mload(0x40)\n      0x08c379a000000000000000000000000000000000000000000000000000000000\n      dup2\n      mstore\n      0x04\n      add\n      tag_167\n      swap1\n      tag_168\n      jump\t// in\n    tag_167:\n      mload(0x40)\n      dup1\n      swap2\n      sub\n      swap1\n      revert\n    tag_166:\n        /* \"https://github.com/OpenZeppelin/openzeppelin-contracts/blob/master/contracts/token/ERC20/ERC20.sol\":6903:6963  _approve(owner, spender, currentAllowance - subtractedValue) */\n      tag_169\n        /* \"https://github.com/OpenZeppelin/openzeppelin-contracts/blob/master/contracts/token/ERC20/ERC20.sol\":6912:6917  owner */\n      dup3\n        /* \"https://github.com/OpenZeppelin/openzeppelin-contracts/blob/master/contracts/token/ERC20/ERC20.sol\":6919:6926  spender */\n      dup7\n        /* \"https://github.com/OpenZeppelin/openzeppelin-contracts/blob/master/contracts/token/ERC20/ERC20.sol\":6947:6962  subtractedValue */\n      dup7\n        /* \"https://github.com/OpenZeppelin/openzeppelin-contracts/blob/master/contracts/token/ERC20/ERC20.sol\":6928:6944  currentAllowance */\n      dup5\n        /* \"https://github.com/OpenZeppelin/openzeppelin-contracts/blob/master/contracts/token/ERC20/ERC20.sol\":6928:6962  currentAllowance - subtractedValue */\n      sub\n        /* \"https://github.com/OpenZeppelin/openzeppelin-contracts/blob/master/contracts/token/ERC20/ERC20.sol\":6903:6911  _approve */\n      tag_117\n        /* \"https://github.com/OpenZeppelin/openzeppelin-contracts/blob/master/contracts/token/ERC20/ERC20.sol\":6903:6963  _approve(owner, spender, currentAllowance - subtractedValue) */\n      jump\t// in\n    tag_169:\n        /* \"https://github.com/OpenZeppelin/openzeppelin-contracts/blob/master/contracts/token/ERC20/ERC20.sol\":6991:6995  true */\n      0x01\n        /* \"https://github.com/OpenZeppelin/openzeppelin-contracts/blob/master/contracts/token/ERC20/ERC20.sol\":6984:6995  return true */\n      swap3\n      pop\n      pop\n      pop\n        /* \"https://github.com/OpenZeppelin/openzeppelin-contracts/blob/master/contracts/token/ERC20/ERC20.sol\":6575:7002  function decreaseAllowance(address spender, uint256 subtractedValue) public virtual returns (bool) {... */\n      swap3\n      swap2\n      pop\n      pop\n      jump\t// out\n        /* \"https://github.com/OpenZeppelin/openzeppelin-contracts/blob/master/contracts/token/ERC20/ERC20.sol\":3740:3929  function transfer(address to, uint256 amount) public virtual override returns (bool) {... */\n    tag_95:\n        /* \"https://github.com/OpenZeppelin/openzeppelin-contracts/blob/master/contracts/token/ERC20/ERC20.sol\":3819:3823  bool */\n      0x00\n        /* \"https://github.com/OpenZeppelin/openzeppelin-contracts/blob/master/contracts/token/ERC20/ERC20.sol\":3835:3848  address owner */\n      dup1\n        /* \"https://github.com/OpenZeppelin/openzeppelin-contracts/blob/master/contracts/token/ERC20/ERC20.sol\":3851:3863  _msgSender() */\n      tag_171\n        /* \"https://github.com/OpenZeppelin/openzeppelin-contracts/blob/master/contracts/token/ERC20/ERC20.sol\":3851:3861  _msgSender */\n      tag_115\n        /* \"https://github.com/OpenZeppelin/openzeppelin-contracts/blob/master/contracts/token/ERC20/ERC20.sol\":3851:3863  _msgSender() */\n      jump\t// in\n    tag_171:\n        /* \"https://github.com/OpenZeppelin/openzeppelin-contracts/blob/master/contracts/token/ERC20/ERC20.sol\":3835:3863  address owner = _msgSender() */\n      swap1\n      pop\n        /* \"https://github.com/OpenZeppelin/openzeppelin-contracts/blob/master/contracts/token/ERC20/ERC20.sol\":3873:3901  _transfer(owner, to, amount) */\n      tag_172\n        /* \"https://github.com/OpenZeppelin/openzeppelin-contracts/blob/master/contracts/token/ERC20/ERC20.sol\":3883:3888  owner */\n      dup2\n        /* \"https://github.com/OpenZeppelin/openzeppelin-contracts/blob/master/contracts/token/ERC20/ERC20.sol\":3890:3892  to */\n      dup6\n        /* \"https://github.com/OpenZeppelin/openzeppelin-contracts/blob/master/contracts/token/ERC20/ERC20.sol\":3894:3900  amount */\n      dup6\n        /* \"https://github.com/OpenZeppelin/openzeppelin-contracts/blob/master/contracts/token/ERC20/ERC20.sol\":3873:3882  _transfer */\n      tag_123\n        /* \"https://github.com/OpenZeppelin/openzeppelin-contracts/blob/master/contracts/token/ERC20/ERC20.sol\":3873:3901  _transfer(owner, to, amount) */\n      jump\t// in\n    tag_172:\n        /* \"https://github.com/OpenZeppelin/openzeppelin-contracts/blob/master/contracts/token/ERC20/ERC20.sol\":3918:3922  true */\n      0x01\n        /* \"https://github.com/OpenZeppelin/openzeppelin-contracts/blob/master/contracts/token/ERC20/ERC20.sol\":3911:3922  return true */\n      swap2\n      pop\n      pop\n        /* \"https://github.com/OpenZeppelin/openzeppelin-contracts/blob/master/contracts/token/ERC20/ERC20.sol\":3740:3929  function transfer(address to, uint256 amount) public virtual override returns (bool) {... */\n      swap3\n      swap2\n      pop\n      pop\n      jump\t// out\n        /* \"contracts/EuroBetToken.sol\":2310:2456  function setBettingContract(address _bettingContract, bool status) public onlyOwner {... */\n    tag_100:\n        /* \"contracts/EuroBetToken.sol\":2132:2137  owner */\n      0x05\n      0x00\n      swap1\n      sload\n      swap1\n      0x0100\n      exp\n      swap1\n      div\n      0xffffffffffffffffffffffffffffffffffffffff\n      and\n        /* \"contracts/EuroBetToken.sol\":2118:2137  msg.sender == owner */\n      0xffffffffffffffffffffffffffffffffffffffff\n      and\n        /* \"contracts/EuroBetToken.sol\":2118:2128  msg.sender */\n      caller\n        /* \"contracts/EuroBetToken.sol\":2118:2137  msg.sender == owner */\n      0xffffffffffffffffffffffffffffffffffffffff\n      and\n      eq\n        /* \"contracts/EuroBetToken.sol\":2110:2179  require(msg.sender == owner, \"Only the owner can call this function\") */\n      tag_174\n      jumpi\n      mload(0x40)\n      0x08c379a000000000000000000000000000000000000000000000000000000000\n      dup2\n      mstore\n      0x04\n      add\n      tag_175\n      swap1\n      tag_128\n      jump\t// in\n    tag_175:\n      mload(0x40)\n      dup1\n      swap2\n      sub\n      swap1\n      revert\n    tag_174:\n        /* \"contracts/EuroBetToken.sol\":2442:2448  status */\n      dup1\n        /* \"contracts/EuroBetToken.sol\":2405:2421  bettingContracts */\n      0x07\n        /* \"contracts/EuroBetToken.sol\":2405:2439  bettingContracts[_bettingContract] */\n      0x00\n        /* \"contracts/EuroBetToken.sol\":2422:2438  _bettingContract */\n      dup5\n        /* \"contracts/EuroBetToken.sol\":2405:2439  bettingContracts[_bettingContract] */\n      0xffffffffffffffffffffffffffffffffffffffff\n      and\n      0xffffffffffffffffffffffffffffffffffffffff\n      and\n      dup2\n      mstore\n      0x20\n      add\n      swap1\n      dup2\n      mstore\n      0x20\n      add\n      0x00\n      keccak256\n      0x00\n        /* \"contracts/EuroBetToken.sol\":2405:2448  bettingContracts[_bettingContract] = status */\n      0x0100\n      exp\n      dup2\n      sload\n      dup2\n      0xff\n      mul\n      not\n      and\n      swap1\n      dup4\n      iszero\n      iszero\n      mul\n      or\n      swap1\n      sstore\n      pop\n        /* \"contracts/EuroBetToken.sol\":2310:2456  function setBettingContract(address _bettingContract, bool status) public onlyOwner {... */\n      pop\n      pop\n      jump\t// out\n        /* \"https://github.com/OpenZeppelin/openzeppelin-contracts/blob/master/contracts/token/ERC20/ERC20.sol\":3987:4136  function allowance(address owner, address spender) public view virtual override returns (uint256) {... */\n    tag_104:\n        /* \"https://github.com/OpenZeppelin/openzeppelin-contracts/blob/master/contracts/token/ERC20/ERC20.sol\":4076:4083  uint256 */\n      0x00\n        /* \"https://github.com/OpenZeppelin/openzeppelin-contracts/blob/master/contracts/token/ERC20/ERC20.sol\":4102:4113  _allowances */\n      0x01\n        /* \"https://github.com/OpenZeppelin/openzeppelin-contracts/blob/master/contracts/token/ERC20/ERC20.sol\":4102:4120  _allowances[owner] */\n      0x00\n        /* \"https://github.com/OpenZeppelin/openzeppelin-contracts/blob/master/contracts/token/ERC20/ERC20.sol\":4114:4119  owner */\n      dup5\n        /* \"https://github.com/OpenZeppelin/openzeppelin-contracts/blob/master/contracts/token/ERC20/ERC20.sol\":4102:4120  _allowances[owner] */\n      0xffffffffffffffffffffffffffffffffffffffff\n      and\n      0xffffffffffffffffffffffffffffffffffffffff\n      and\n      dup2\n      mstore\n      0x20\n      add\n      swap1\n      dup2\n      mstore\n      0x20\n      add\n      0x00\n      keccak256\n        /* \"https://github.com/OpenZeppelin/openzeppelin-contracts/blob/master/contracts/token/ERC20/ERC20.sol\":4102:4129  _allowances[owner][spender] */\n      0x00\n        /* \"https://github.com/OpenZeppelin/openzeppelin-contracts/blob/master/contracts/token/ERC20/ERC20.sol\":4121:4128  spender */\n      dup4\n        /* \"https://github.com/OpenZeppelin/openzeppelin-contracts/blob/master/contracts/token/ERC20/ERC20.sol\":4102:4129  _allowances[owner][spender] */\n      0xffffffffffffffffffffffffffffffffffffffff\n      and\n      0xffffffffffffffffffffffffffffffffffffffff\n      and\n      dup2\n      mstore\n      0x20\n      add\n      swap1\n      dup2\n      mstore\n      0x20\n      add\n      0x00\n      keccak256\n      sload\n        /* \"https://github.com/OpenZeppelin/openzeppelin-contracts/blob/master/contracts/token/ERC20/ERC20.sol\":4095:4129  return _allowances[owner][spender] */\n      swap1\n      pop\n        /* \"https://github.com/OpenZeppelin/openzeppelin-contracts/blob/master/contracts/token/ERC20/ERC20.sol\":3987:4136  function allowance(address owner, address spender) public view virtual override returns (uint256) {... */\n      swap3\n      swap2\n      pop\n      pop\n      jump\t// out\n        /* \"https://github.com/OpenZeppelin/openzeppelin-contracts/blob/master/contracts/utils/Context.sol\":655:751  function _msgSender() internal view virtual returns (address) {... */\n    tag_115:\n        /* \"https://github.com/OpenZeppelin/openzeppelin-contracts/blob/master/contracts/utils/Context.sol\":708:715  address */\n      0x00\n        /* \"https://github.com/OpenZeppelin/openzeppelin-contracts/blob/master/contracts/utils/Context.sol\":734:744  msg.sender */\n      caller\n        /* \"https://github.com/OpenZeppelin/openzeppelin-contracts/blob/master/contracts/utils/Context.sol\":727:744  return msg.sender */\n      swap1\n      pop\n        /* \"https://github.com/OpenZeppelin/openzeppelin-contracts/blob/master/contracts/utils/Context.sol\":655:751  function _msgSender() internal view virtual returns (address) {... */\n      swap1\n      jump\t// out\n        /* \"https://github.com/OpenZeppelin/openzeppelin-contracts/blob/master/contracts/token/ERC20/ERC20.sol\":10457:10797  function _approve(address owner, address spender, uint256 amount) internal virtual {... */\n    tag_117:\n        /* \"https://github.com/OpenZeppelin/openzeppelin-contracts/blob/master/contracts/token/ERC20/ERC20.sol\":10575:10576  0 */\n      0x00\n        /* \"https://github.com/OpenZeppelin/openzeppelin-contracts/blob/master/contracts/token/ERC20/ERC20.sol\":10558:10577  owner != address(0) */\n      0xffffffffffffffffffffffffffffffffffffffff\n      and\n        /* \"https://github.com/OpenZeppelin/openzeppelin-contracts/blob/master/contracts/token/ERC20/ERC20.sol\":10558:10563  owner */\n      dup4\n        /* \"https://github.com/OpenZeppelin/openzeppelin-contracts/blob/master/contracts/token/ERC20/ERC20.sol\":10558:10577  owner != address(0) */\n      0xffffffffffffffffffffffffffffffffffffffff\n      and\n      sub\n        /* \"https://github.com/OpenZeppelin/openzeppelin-contracts/blob/master/contracts/token/ERC20/ERC20.sol\":10550:10618  require(owner != address(0), \"ERC20: approve from the zero address\") */\n      tag_180\n      jumpi\n      mload(0x40)\n      0x08c379a000000000000000000000000000000000000000000000000000000000\n      dup2\n      mstore\n      0x04\n      add\n      tag_181\n      swap1\n      tag_182\n      jump\t// in\n    tag_181:\n      mload(0x40)\n      dup1\n      swap2\n      sub\n      swap1\n      revert\n    tag_180:\n        /* \"https://github.com/OpenZeppelin/openzeppelin-contracts/blob/master/contracts/token/ERC20/ERC20.sol\":10655:10656  0 */\n      0x00\n        /* \"https://github.com/OpenZeppelin/openzeppelin-contracts/blob/master/contracts/token/ERC20/ERC20.sol\":10636:10657  spender != address(0) */\n      0xffffffffffffffffffffffffffffffffffffffff\n      and\n        /* \"https://github.com/OpenZeppelin/openzeppelin-contracts/blob/master/contracts/token/ERC20/ERC20.sol\":10636:10643  spender */\n      dup3\n        /* \"https://github.com/OpenZeppelin/openzeppelin-contracts/blob/master/contracts/token/ERC20/ERC20.sol\":10636:10657  spender != address(0) */\n      0xffffffffffffffffffffffffffffffffffffffff\n      and\n      sub\n        /* \"https://github.com/OpenZeppelin/openzeppelin-contracts/blob/master/contracts/token/ERC20/ERC20.sol\":10628:10696  require(spender != address(0), \"ERC20: approve to the zero address\") */\n      tag_183\n      jumpi\n      mload(0x40)\n      0x08c379a000000000000000000000000000000000000000000000000000000000\n      dup2\n      mstore\n      0x04\n      add\n      tag_184\n      swap1\n      tag_185\n      jump\t// in\n    tag_184:\n      mload(0x40)\n      dup1\n      swap2\n      sub\n      swap1\n      revert\n    tag_183:\n        /* \"https://github.com/OpenZeppelin/openzeppelin-contracts/blob/master/contracts/token/ERC20/ERC20.sol\":10737:10743  amount */\n      dup1\n        /* \"https://github.com/OpenZeppelin/openzeppelin-contracts/blob/master/contracts/token/ERC20/ERC20.sol\":10707:10718  _allowances */\n      0x01\n        /* \"https://github.com/OpenZeppelin/openzeppelin-contracts/blob/master/contracts/token/ERC20/ERC20.sol\":10707:10725  _allowances[owner] */\n      0x00\n        /* \"https://github.com/OpenZeppelin/openzeppelin-contracts/blob/master/contracts/token/ERC20/ERC20.sol\":10719:10724  owner */\n      dup6\n        /* \"https://github.com/OpenZeppelin/openzeppelin-contracts/blob/master/contracts/token/ERC20/ERC20.sol\":10707:10725  _allowances[owner] */\n      0xffffffffffffffffffffffffffffffffffffffff\n      and\n      0xffffffffffffffffffffffffffffffffffffffff\n      and\n      dup2\n      mstore\n      0x20\n      add\n      swap1\n      dup2\n      mstore\n      0x20\n      add\n      0x00\n      keccak256\n        /* \"https://github.com/OpenZeppelin/openzeppelin-contracts/blob/master/contracts/token/ERC20/ERC20.sol\":10707:10734  _allowances[owner][spender] */\n      0x00\n        /* \"https://github.com/OpenZeppelin/openzeppelin-contracts/blob/master/contracts/token/ERC20/ERC20.sol\":10726:10733  spender */\n      dup5\n        /* \"https://github.com/OpenZeppelin/openzeppelin-contracts/blob/master/contracts/token/ERC20/ERC20.sol\":10707:10734  _allowances[owner][spender] */\n      0xffffffffffffffffffffffffffffffffffffffff\n      and\n      0xffffffffffffffffffffffffffffffffffffffff\n      and\n      dup2\n      mstore\n      0x20\n      add\n      swap1\n      dup2\n      mstore\n      0x20\n      add\n      0x00\n      keccak256\n        /* \"https://github.com/OpenZeppelin/openzeppelin-contracts/blob/master/contracts/token/ERC20/ERC20.sol\":10707:10743  _allowances[owner][spender] = amount */\n      dup2\n      swap1\n      sstore\n      pop\n        /* \"https://github.com/OpenZeppelin/openzeppelin-contracts/blob/master/contracts/token/ERC20/ERC20.sol\":10774:10781  spender */\n      dup2\n        /* \"https://github.com/OpenZeppelin/openzeppelin-contracts/blob/master/contracts/token/ERC20/ERC20.sol\":10758:10790  Approval(owner, spender, amount) */\n      0xffffffffffffffffffffffffffffffffffffffff\n      and\n        /* \"https://github.com/OpenZeppelin/openzeppelin-contracts/blob/master/contracts/token/ERC20/ERC20.sol\":10767:10772  owner */\n      dup4\n        /* \"https://github.com/OpenZeppelin/openzeppelin-contracts/blob/master/contracts/token/ERC20/ERC20.sol\":10758:10790  Approval(owner, spender, amount) */\n      0xffffffffffffffffffffffffffffffffffffffff\n      and\n      0x8c5be1e5ebec7d5bd14f71427d1e84f3dd0314c0f7b2291e5b200ac8c7c3b925\n        /* \"https://github.com/OpenZeppelin/openzeppelin-contracts/blob/master/contracts/token/ERC20/ERC20.sol\":10783:10789  amount */\n      dup4\n        /* \"https://github.com/OpenZeppelin/openzeppelin-contracts/blob/master/contracts/token/ERC20/ERC20.sol\":10758:10790  Approval(owner, spender, amount) */\n      mload(0x40)\n      tag_186\n      swap2\n      swap1\n      tag_39\n      jump\t// in\n    tag_186:\n      mload(0x40)\n      dup1\n      swap2\n      sub\n      swap1\n      log3\n        /* \"https://github.com/OpenZeppelin/openzeppelin-contracts/blob/master/contracts/token/ERC20/ERC20.sol\":10457:10797  function _approve(address owner, address spender, uint256 amount) internal virtual {... */\n      pop\n      pop\n      pop\n      jump\t// out\n        /* \"https://github.com/OpenZeppelin/openzeppelin-contracts/blob/master/contracts/token/ERC20/ERC20.sol\":7456:8244  function _transfer(address from, address to, uint256 amount) internal virtual {... */\n    tag_123:\n        /* \"https://github.com/OpenZeppelin/openzeppelin-contracts/blob/master/contracts/token/ERC20/ERC20.sol\":7568:7569  0 */\n      0x00\n        /* \"https://github.com/OpenZeppelin/openzeppelin-contracts/blob/master/contracts/token/ERC20/ERC20.sol\":7552:7570  from != address(0) */\n      0xffffffffffffffffffffffffffffffffffffffff\n      and\n        /* \"https://github.com/OpenZeppelin/openzeppelin-contracts/blob/master/contracts/token/ERC20/ERC20.sol\":7552:7556  from */\n      dup4\n        /* \"https://github.com/OpenZeppelin/openzeppelin-contracts/blob/master/contracts/token/ERC20/ERC20.sol\":7552:7570  from != address(0) */\n      0xffffffffffffffffffffffffffffffffffffffff\n      and\n      sub\n        /* \"https://github.com/OpenZeppelin/openzeppelin-contracts/blob/master/contracts/token/ERC20/ERC20.sol\":7544:7612  require(from != address(0), \"ERC20: transfer from the zero address\") */\n      tag_188\n      jumpi\n      mload(0x40)\n      0x08c379a000000000000000000000000000000000000000000000000000000000\n      dup2\n      mstore\n      0x04\n      add\n      tag_189\n      swap1\n      tag_190\n      jump\t// in\n    tag_189:\n      mload(0x40)\n      dup1\n      swap2\n      sub\n      swap1\n      revert\n    tag_188:\n        /* \"https://github.com/OpenZeppelin/openzeppelin-contracts/blob/master/contracts/token/ERC20/ERC20.sol\":7644:7645  0 */\n      0x00\n        /* \"https://github.com/OpenZeppelin/openzeppelin-contracts/blob/master/contracts/token/ERC20/ERC20.sol\":7630:7646  to != address(0) */\n      0xffffffffffffffffffffffffffffffffffffffff\n      and\n        /* \"https://github.com/OpenZeppelin/openzeppelin-contracts/blob/master/contracts/token/ERC20/ERC20.sol\":7630:7632  to */\n      dup3\n        /* \"https://github.com/OpenZeppelin/openzeppelin-contracts/blob/master/contracts/token/ERC20/ERC20.sol\":7630:7646  to != address(0) */\n      0xffffffffffffffffffffffffffffffffffffffff\n      and\n      sub\n        /* \"https://github.com/OpenZeppelin/openzeppelin-contracts/blob/master/contracts/token/ERC20/ERC20.sol\":7622:7686  require(to != address(0), \"ERC20: transfer to the zero address\") */\n      tag_191\n      jumpi\n      mload(0x40)\n      0x08c379a000000000000000000000000000000000000000000000000000000000\n      dup2\n      mstore\n      0x04\n      add\n      tag_192\n      swap1\n      tag_193\n      jump\t// in\n    tag_192:\n      mload(0x40)\n      dup1\n      swap2\n      sub\n      swap1\n      revert\n    tag_191:\n        /* \"https://github.com/OpenZeppelin/openzeppelin-contracts/blob/master/contracts/token/ERC20/ERC20.sol\":7697:7735  _beforeTokenTransfer(from, to, amount) */\n      tag_194\n        /* \"https://github.com/OpenZeppelin/openzeppelin-contracts/blob/master/contracts/token/ERC20/ERC20.sol\":7718:7722  from */\n      dup4\n        /* \"https://github.com/OpenZeppelin/openzeppelin-contracts/blob/master/contracts/token/ERC20/ERC20.sol\":7724:7726  to */\n      dup4\n        /* \"https://github.com/OpenZeppelin/openzeppelin-contracts/blob/master/contracts/token/ERC20/ERC20.sol\":7728:7734  amount */\n      dup4\n        /* \"https://github.com/OpenZeppelin/openzeppelin-contracts/blob/master/contracts/token/ERC20/ERC20.sol\":7697:7717  _beforeTokenTransfer */\n      tag_195\n        /* \"https://github.com/OpenZeppelin/openzeppelin-contracts/blob/master/contracts/token/ERC20/ERC20.sol\":7697:7735  _beforeTokenTransfer(from, to, amount) */\n      jump\t// in\n    tag_194:\n        /* \"https://github.com/OpenZeppelin/openzeppelin-contracts/blob/master/contracts/token/ERC20/ERC20.sol\":7746:7765  uint256 fromBalance */\n      0x00\n        /* \"https://github.com/OpenZeppelin/openzeppelin-contracts/blob/master/contracts/token/ERC20/ERC20.sol\":7768:7777  _balances */\n      dup1\n        /* \"https://github.com/OpenZeppelin/openzeppelin-contracts/blob/master/contracts/token/ERC20/ERC20.sol\":7768:7783  _balances[from] */\n      0x00\n        /* \"https://github.com/OpenZeppelin/openzeppelin-contracts/blob/master/contracts/token/ERC20/ERC20.sol\":7778:7782  from */\n      dup6\n        /* \"https://github.com/OpenZeppelin/openzeppelin-contracts/blob/master/contracts/token/ERC20/ERC20.sol\":7768:7783  _balances[from] */\n      0xffffffffffffffffffffffffffffffffffffffff\n      and\n      0xffffffffffffffffffffffffffffffffffffffff\n      and\n      dup2\n      mstore\n      0x20\n      add\n      swap1\n      dup2\n      mstore\n      0x20\n      add\n      0x00\n      keccak256\n      sload\n        /* \"https://github.com/OpenZeppelin/openzeppelin-contracts/blob/master/contracts/token/ERC20/ERC20.sol\":7746:7783  uint256 fromBalance = _balances[from] */\n      swap1\n      pop\n        /* \"https://github.com/OpenZeppelin/openzeppelin-contracts/blob/master/contracts/token/ERC20/ERC20.sol\":7816:7822  amount */\n      dup2\n        /* \"https://github.com/OpenZeppelin/openzeppelin-contracts/blob/master/contracts/token/ERC20/ERC20.sol\":7801:7812  fromBalance */\n      dup2\n        /* \"https://github.com/OpenZeppelin/openzeppelin-contracts/blob/master/contracts/token/ERC20/ERC20.sol\":7801:7822  fromBalance >= amount */\n      lt\n      iszero\n        /* \"https://github.com/OpenZeppelin/openzeppelin-contracts/blob/master/contracts/token/ERC20/ERC20.sol\":7793:7865  require(fromBalance >= amount, \"ERC20: transfer amount exceeds balance\") */\n      tag_196\n      jumpi\n      mload(0x40)\n      0x08c379a000000000000000000000000000000000000000000000000000000000\n      dup2\n      mstore\n      0x04\n      add\n      tag_197\n      swap1\n      tag_198\n      jump\t// in\n    tag_197:\n      mload(0x40)\n      dup1\n      swap2\n      sub\n      swap1\n      revert\n    tag_196:\n        /* \"https://github.com/OpenZeppelin/openzeppelin-contracts/blob/master/contracts/token/ERC20/ERC20.sol\":7931:7937  amount */\n      dup2\n        /* \"https://github.com/OpenZeppelin/openzeppelin-contracts/blob/master/contracts/token/ERC20/ERC20.sol\":7917:7928  fromBalance */\n      dup2\n        /* \"https://github.com/OpenZeppelin/openzeppelin-contracts/blob/master/contracts/token/ERC20/ERC20.sol\":7917:7937  fromBalance - amount */\n      sub\n        /* \"https://github.com/OpenZeppelin/openzeppelin-contracts/blob/master/contracts/token/ERC20/ERC20.sol\":7899:7908  _balances */\n      0x00\n        /* \"https://github.com/OpenZeppelin/openzeppelin-contracts/blob/master/contracts/token/ERC20/ERC20.sol\":7899:7914  _balances[from] */\n      dup1\n        /* \"https://github.com/OpenZeppelin/openzeppelin-contracts/blob/master/contracts/token/ERC20/ERC20.sol\":7909:7913  from */\n      dup7\n        /* \"https://github.com/OpenZeppelin/openzeppelin-contracts/blob/master/contracts/token/ERC20/ERC20.sol\":7899:7914  _balances[from] */\n      0xffffffffffffffffffffffffffffffffffffffff\n      and\n      0xffffffffffffffffffffffffffffffffffffffff\n      and\n      dup2\n      mstore\n      0x20\n      add\n      swap1\n      dup2\n      mstore\n      0x20\n      add\n      0x00\n      keccak256\n        /* \"https://github.com/OpenZeppelin/openzeppelin-contracts/blob/master/contracts/token/ERC20/ERC20.sol\":7899:7937  _balances[from] = fromBalance - amount */\n      dup2\n      swap1\n      sstore\n      pop\n        /* \"https://github.com/OpenZeppelin/openzeppelin-contracts/blob/master/contracts/token/ERC20/ERC20.sol\":8131:8137  amount */\n      dup2\n        /* \"https://github.com/OpenZeppelin/openzeppelin-contracts/blob/master/contracts/token/ERC20/ERC20.sol\":8114:8123  _balances */\n      0x00\n        /* \"https://github.com/OpenZeppelin/openzeppelin-contracts/blob/master/contracts/token/ERC20/ERC20.sol\":8114:8127  _balances[to] */\n      dup1\n        /* \"https://github.com/OpenZeppelin/openzeppelin-contracts/blob/master/contracts/token/ERC20/ERC20.sol\":8124:8126  to */\n      dup6\n        /* \"https://github.com/OpenZeppelin/openzeppelin-contracts/blob/master/contracts/token/ERC20/ERC20.sol\":8114:8127  _balances[to] */\n      0xffffffffffffffffffffffffffffffffffffffff\n      and\n      0xffffffffffffffffffffffffffffffffffffffff\n      and\n      dup2\n      mstore\n      0x20\n      add\n      swap1\n      dup2\n      mstore\n      0x20\n      add\n      0x00\n      keccak256\n      0x00\n        /* \"https://github.com/OpenZeppelin/openzeppelin-contracts/blob/master/contracts/token/ERC20/ERC20.sol\":8114:8137  _balances[to] += amount */\n      dup3\n      dup3\n      sload\n      add\n      swap3\n      pop\n      pop\n      dup2\n      swap1\n      sstore\n      pop\n        /* \"https://github.com/OpenZeppelin/openzeppelin-contracts/blob/master/contracts/token/ERC20/ERC20.sol\":8178:8180  to */\n      dup3\n        /* \"https://github.com/OpenZeppelin/openzeppelin-contracts/blob/master/contracts/token/ERC20/ERC20.sol\":8163:8189  Transfer(from, to, amount) */\n      0xffffffffffffffffffffffffffffffffffffffff\n      and\n        /* \"https://github.com/OpenZeppelin/openzeppelin-contracts/blob/master/contracts/token/ERC20/ERC20.sol\":8172:8176  from */\n      dup5\n        /* \"https://github.com/OpenZeppelin/openzeppelin-contracts/blob/master/contracts/token/ERC20/ERC20.sol\":8163:8189  Transfer(from, to, amount) */\n      0xffffffffffffffffffffffffffffffffffffffff\n      and\n      0xddf252ad1be2c89b69c2b068fc378daa952ba7f163c4a11628f55a4df523b3ef\n        /* \"https://github.com/OpenZeppelin/openzeppelin-contracts/blob/master/contracts/token/ERC20/ERC20.sol\":8182:8188  amount */\n      dup5\n        /* \"https://github.com/OpenZeppelin/openzeppelin-contracts/blob/master/contracts/token/ERC20/ERC20.sol\":8163:8189  Transfer(from, to, amount) */\n      mload(0x40)\n      tag_199\n      swap2\n      swap1\n      tag_39\n      jump\t// in\n    tag_199:\n      mload(0x40)\n      dup1\n      swap2\n      sub\n      swap1\n      log3\n        /* \"https://github.com/OpenZeppelin/openzeppelin-contracts/blob/master/contracts/token/ERC20/ERC20.sol\":8200:8237  _afterTokenTransfer(from, to, amount) */\n      tag_200\n        /* \"https://github.com/OpenZeppelin/openzeppelin-contracts/blob/master/contracts/token/ERC20/ERC20.sol\":8220:8224  from */\n      dup5\n        /* \"https://github.com/OpenZeppelin/openzeppelin-contracts/blob/master/contracts/token/ERC20/ERC20.sol\":8226:8228  to */\n      dup5\n        /* \"https://github.com/OpenZeppelin/openzeppelin-contracts/blob/master/contracts/token/ERC20/ERC20.sol\":8230:8236  amount */\n      dup5\n        /* \"https://github.com/OpenZeppelin/openzeppelin-contracts/blob/master/contracts/token/ERC20/ERC20.sol\":8200:8219  _afterTokenTransfer */\n      tag_201\n        /* \"https://github.com/OpenZeppelin/openzeppelin-contracts/blob/master/contracts/token/ERC20/ERC20.sol\":8200:8237  _afterTokenTransfer(from, to, amount) */\n      jump\t// in\n    tag_200:\n        /* \"https://github.com/OpenZeppelin/openzeppelin-contracts/blob/master/contracts/token/ERC20/ERC20.sol\":7534:8244  {... */\n      pop\n        /* \"https://github.com/OpenZeppelin/openzeppelin-contracts/blob/master/contracts/token/ERC20/ERC20.sol\":7456:8244  function _transfer(address from, address to, uint256 amount) internal virtual {... */\n      pop\n      pop\n      pop\n      jump\t// out\n        /* \"https://github.com/OpenZeppelin/openzeppelin-contracts/blob/master/contracts/token/ERC20/ERC20.sol\":11078:11489  function _spendAllowance(address owner, address spender, uint256 amount) internal virtual {... */\n    tag_138:\n        /* \"https://github.com/OpenZeppelin/openzeppelin-contracts/blob/master/contracts/token/ERC20/ERC20.sol\":11178:11202  uint256 currentAllowance */\n      0x00\n        /* \"https://github.com/OpenZeppelin/openzeppelin-contracts/blob/master/contracts/token/ERC20/ERC20.sol\":11205:11230  allowance(owner, spender) */\n      tag_203\n        /* \"https://github.com/OpenZeppelin/openzeppelin-contracts/blob/master/contracts/token/ERC20/ERC20.sol\":11215:11220  owner */\n      dup5\n        /* \"https://github.com/OpenZeppelin/openzeppelin-contracts/blob/master/contracts/token/ERC20/ERC20.sol\":11222:11229  spender */\n      dup5\n        /* \"https://github.com/OpenZeppelin/openzeppelin-contracts/blob/master/contracts/token/ERC20/ERC20.sol\":11205:11214  allowance */\n      tag_104\n        /* \"https://github.com/OpenZeppelin/openzeppelin-contracts/blob/master/contracts/token/ERC20/ERC20.sol\":11205:11230  allowance(owner, spender) */\n      jump\t// in\n    tag_203:\n        /* \"https://github.com/OpenZeppelin/openzeppelin-contracts/blob/master/contracts/token/ERC20/ERC20.sol\":11178:11230  uint256 currentAllowance = allowance(owner, spender) */\n      swap1\n      pop\n        /* \"https://github.com/OpenZeppelin/openzeppelin-contracts/blob/master/contracts/token/ERC20/ERC20.sol\":11264:11281  type(uint256).max */\n      0xffffffffffffffffffffffffffffffffffffffffffffffffffffffffffffffff\n        /* \"https://github.com/OpenZeppelin/openzeppelin-contracts/blob/master/contracts/token/ERC20/ERC20.sol\":11244:11260  currentAllowance */\n      dup2\n        /* \"https://github.com/OpenZeppelin/openzeppelin-contracts/blob/master/contracts/token/ERC20/ERC20.sol\":11244:11281  currentAllowance != type(uint256).max */\n      eq\n        /* \"https://github.com/OpenZeppelin/openzeppelin-contracts/blob/master/contracts/token/ERC20/ERC20.sol\":11240:11483  if (currentAllowance != type(uint256).max) {... */\n      tag_204\n      jumpi\n        /* \"https://github.com/OpenZeppelin/openzeppelin-contracts/blob/master/contracts/token/ERC20/ERC20.sol\":11325:11331  amount */\n      dup2\n        /* \"https://github.com/OpenZeppelin/openzeppelin-contracts/blob/master/contracts/token/ERC20/ERC20.sol\":11305:11321  currentAllowance */\n      dup2\n        /* \"https://github.com/OpenZeppelin/openzeppelin-contracts/blob/master/contracts/token/ERC20/ERC20.sol\":11305:11331  currentAllowance >= amount */\n      lt\n      iszero\n        /* \"https://github.com/OpenZeppelin/openzeppelin-contracts/blob/master/contracts/token/ERC20/ERC20.sol\":11297:11365  require(currentAllowance >= amount, \"ERC20: insufficient allowance\") */\n      tag_205\n      jumpi\n      mload(0x40)\n      0x08c379a000000000000000000000000000000000000000000000000000000000\n      dup2\n      mstore\n      0x04\n      add\n      tag_206\n      swap1\n      tag_207\n      jump\t// in\n    tag_206:\n      mload(0x40)\n      dup1\n      swap2\n      sub\n      swap1\n      revert\n    tag_205:\n        /* \"https://github.com/OpenZeppelin/openzeppelin-contracts/blob/master/contracts/token/ERC20/ERC20.sol\":11407:11458  _approve(owner, spender, currentAllowance - amount) */\n      tag_208\n        /* \"https://github.com/OpenZeppelin/openzeppelin-contracts/blob/master/contracts/token/ERC20/ERC20.sol\":11416:11421  owner */\n      dup5\n        /* \"https://github.com/OpenZeppelin/openzeppelin-contracts/blob/master/contracts/token/ERC20/ERC20.sol\":11423:11430  spender */\n      dup5\n        /* \"https://github.com/OpenZeppelin/openzeppelin-contracts/blob/master/contracts/token/ERC20/ERC20.sol\":11451:11457  amount */\n      dup5\n        /* \"https://github.com/OpenZeppelin/openzeppelin-contracts/blob/master/contracts/token/ERC20/ERC20.sol\":11432:11448  currentAllowance */\n      dup5\n        /* \"https://github.com/OpenZeppelin/openzeppelin-contracts/blob/master/contracts/token/ERC20/ERC20.sol\":11432:11457  currentAllowance - amount */\n      sub\n        /* \"https://github.com/OpenZeppelin/openzeppelin-contracts/blob/master/contracts/token/ERC20/ERC20.sol\":11407:11415  _approve */\n      tag_117\n        /* \"https://github.com/OpenZeppelin/openzeppelin-contracts/blob/master/contracts/token/ERC20/ERC20.sol\":11407:11458  _approve(owner, spender, currentAllowance - amount) */\n      jump\t// in\n    tag_208:\n        /* \"https://github.com/OpenZeppelin/openzeppelin-contracts/blob/master/contracts/token/ERC20/ERC20.sol\":11240:11483  if (currentAllowance != type(uint256).max) {... */\n    tag_204:\n        /* \"https://github.com/OpenZeppelin/openzeppelin-contracts/blob/master/contracts/token/ERC20/ERC20.sol\":11168:11489  {... */\n      pop\n        /* \"https://github.com/OpenZeppelin/openzeppelin-contracts/blob/master/contracts/token/ERC20/ERC20.sol\":11078:11489  function _spendAllowance(address owner, address spender, uint256 amount) internal virtual {... */\n      pop\n      pop\n      pop\n      jump\t// out\n        /* \"https://github.com/OpenZeppelin/openzeppelin-contracts/blob/master/contracts/token/ERC20/ERC20.sol\":9375:10034  function _burn(address account, uint256 amount) internal virtual {... */\n    tag_151:\n        /* \"https://github.com/OpenZeppelin/openzeppelin-contracts/blob/master/contracts/token/ERC20/ERC20.sol\":9477:9478  0 */\n      0x00\n        /* \"https://github.com/OpenZeppelin/openzeppelin-contracts/blob/master/contracts/token/ERC20/ERC20.sol\":9458:9479  account != address(0) */\n      0xffffffffffffffffffffffffffffffffffffffff\n      and\n        /* \"https://github.com/OpenZeppelin/openzeppelin-contracts/blob/master/contracts/token/ERC20/ERC20.sol\":9458:9465  account */\n      dup3\n        /* \"https://github.com/OpenZeppelin/openzeppelin-contracts/blob/master/contracts/token/ERC20/ERC20.sol\":9458:9479  account != address(0) */\n      0xffffffffffffffffffffffffffffffffffffffff\n      and\n      sub\n        /* \"https://github.com/OpenZeppelin/openzeppelin-contracts/blob/master/contracts/token/ERC20/ERC20.sol\":9450:9517  require(account != address(0), \"ERC20: burn from the zero address\") */\n      tag_210\n      jumpi\n      mload(0x40)\n      0x08c379a000000000000000000000000000000000000000000000000000000000\n      dup2\n      mstore\n      0x04\n      add\n      tag_211\n      swap1\n      tag_212\n      jump\t// in\n    tag_211:\n      mload(0x40)\n      dup1\n      swap2\n      sub\n      swap1\n      revert\n    tag_210:\n        /* \"https://github.com/OpenZeppelin/openzeppelin-contracts/blob/master/contracts/token/ERC20/ERC20.sol\":9528:9577  _beforeTokenTransfer(account, address(0), amount) */\n      tag_213\n        /* \"https://github.com/OpenZeppelin/openzeppelin-contracts/blob/master/contracts/token/ERC20/ERC20.sol\":9549:9556  account */\n      dup3\n        /* \"https://github.com/OpenZeppelin/openzeppelin-contracts/blob/master/contracts/token/ERC20/ERC20.sol\":9566:9567  0 */\n      0x00\n        /* \"https://github.com/OpenZeppelin/openzeppelin-contracts/blob/master/contracts/token/ERC20/ERC20.sol\":9570:9576  amount */\n      dup4\n        /* \"https://github.com/OpenZeppelin/openzeppelin-contracts/blob/master/contracts/token/ERC20/ERC20.sol\":9528:9548  _beforeTokenTransfer */\n      tag_195\n        /* \"https://github.com/OpenZeppelin/openzeppelin-contracts/blob/master/contracts/token/ERC20/ERC20.sol\":9528:9577  _beforeTokenTransfer(account, address(0), amount) */\n      jump\t// in\n    tag_213:\n        /* \"https://github.com/OpenZeppelin/openzeppelin-contracts/blob/master/contracts/token/ERC20/ERC20.sol\":9588:9610  uint256 accountBalance */\n      0x00\n        /* \"https://github.com/OpenZeppelin/openzeppelin-contracts/blob/master/contracts/token/ERC20/ERC20.sol\":9613:9622  _balances */\n      dup1\n        /* \"https://github.com/OpenZeppelin/openzeppelin-contracts/blob/master/contracts/token/ERC20/ERC20.sol\":9613:9631  _balances[account] */\n      0x00\n        /* \"https://github.com/OpenZeppelin/openzeppelin-contracts/blob/master/contracts/token/ERC20/ERC20.sol\":9623:9630  account */\n      dup5\n        /* \"https://github.com/OpenZeppelin/openzeppelin-contracts/blob/master/contracts/token/ERC20/ERC20.sol\":9613:9631  _balances[account] */\n      0xffffffffffffffffffffffffffffffffffffffff\n      and\n      0xffffffffffffffffffffffffffffffffffffffff\n      and\n      dup2\n      mstore\n      0x20\n      add\n      swap1\n      dup2\n      mstore\n      0x20\n      add\n      0x00\n      keccak256\n      sload\n        /* \"https://github.com/OpenZeppelin/openzeppelin-contracts/blob/master/contracts/token/ERC20/ERC20.sol\":9588:9631  uint256 accountBalance = _balances[account] */\n      swap1\n      pop\n        /* \"https://github.com/OpenZeppelin/openzeppelin-contracts/blob/master/contracts/token/ERC20/ERC20.sol\":9667:9673  amount */\n      dup2\n        /* \"https://github.com/OpenZeppelin/openzeppelin-contracts/blob/master/contracts/token/ERC20/ERC20.sol\":9649:9663  accountBalance */\n      dup2\n        /* \"https://github.com/OpenZeppelin/openzeppelin-contracts/blob/master/contracts/token/ERC20/ERC20.sol\":9649:9673  accountBalance >= amount */\n      lt\n      iszero\n        /* \"https://github.com/OpenZeppelin/openzeppelin-contracts/blob/master/contracts/token/ERC20/ERC20.sol\":9641:9712  require(accountBalance >= amount, \"ERC20: burn amount exceeds balance\") */\n      tag_214\n      jumpi\n      mload(0x40)\n      0x08c379a000000000000000000000000000000000000000000000000000000000\n      dup2\n      mstore\n      0x04\n      add\n      tag_215\n      swap1\n      tag_216\n      jump\t// in\n    tag_215:\n      mload(0x40)\n      dup1\n      swap2\n      sub\n      swap1\n      revert\n    tag_214:\n        /* \"https://github.com/OpenZeppelin/openzeppelin-contracts/blob/master/contracts/token/ERC20/ERC20.sol\":9784:9790  amount */\n      dup2\n        /* \"https://github.com/OpenZeppelin/openzeppelin-contracts/blob/master/contracts/token/ERC20/ERC20.sol\":9767:9781  accountBalance */\n      dup2\n        /* \"https://github.com/OpenZeppelin/openzeppelin-contracts/blob/master/contracts/token/ERC20/ERC20.sol\":9767:9790  accountBalance - amount */\n      sub\n        /* \"https://github.com/OpenZeppelin/openzeppelin-contracts/blob/master/contracts/token/ERC20/ERC20.sol\":9746:9755  _balances */\n      0x00\n        /* \"https://github.com/OpenZeppelin/openzeppelin-contracts/blob/master/contracts/token/ERC20/ERC20.sol\":9746:9764  _balances[account] */\n      dup1\n        /* \"https://github.com/OpenZeppelin/openzeppelin-contracts/blob/master/contracts/token/ERC20/ERC20.sol\":9756:9763  account */\n      dup6\n        /* \"https://github.com/OpenZeppelin/openzeppelin-contracts/blob/master/contracts/token/ERC20/ERC20.sol\":9746:9764  _balances[account] */\n      0xffffffffffffffffffffffffffffffffffffffff\n      and\n      0xffffffffffffffffffffffffffffffffffffffff\n      and\n      dup2\n      mstore\n      0x20\n      add\n      swap1\n      dup2\n      mstore\n      0x20\n      add\n      0x00\n      keccak256\n        /* \"https://github.com/OpenZeppelin/openzeppelin-contracts/blob/master/contracts/token/ERC20/ERC20.sol\":9746:9790  _balances[account] = accountBalance - amount */\n      dup2\n      swap1\n      sstore\n      pop\n        /* \"https://github.com/OpenZeppelin/openzeppelin-contracts/blob/master/contracts/token/ERC20/ERC20.sol\":9899:9905  amount */\n      dup2\n        /* \"https://github.com/OpenZeppelin/openzeppelin-contracts/blob/master/contracts/token/ERC20/ERC20.sol\":9883:9895  _totalSupply */\n      0x02\n      0x00\n        /* \"https://github.com/OpenZeppelin/openzeppelin-contracts/blob/master/contracts/token/ERC20/ERC20.sol\":9883:9905  _totalSupply -= amount */\n      dup3\n      dup3\n      sload\n      sub\n      swap3\n      pop\n      pop\n      dup2\n      swap1\n      sstore\n      pop\n        /* \"https://github.com/OpenZeppelin/openzeppelin-contracts/blob/master/contracts/token/ERC20/ERC20.sol\":9957:9958  0 */\n      0x00\n        /* \"https://github.com/OpenZeppelin/openzeppelin-contracts/blob/master/contracts/token/ERC20/ERC20.sol\":9931:9968  Transfer(account, address(0), amount) */\n      0xffffffffffffffffffffffffffffffffffffffff\n      and\n        /* \"https://github.com/OpenZeppelin/openzeppelin-contracts/blob/master/contracts/token/ERC20/ERC20.sol\":9940:9947  account */\n      dup4\n        /* \"https://github.com/OpenZeppelin/openzeppelin-contracts/blob/master/contracts/token/ERC20/ERC20.sol\":9931:9968  Transfer(account, address(0), amount) */\n      0xffffffffffffffffffffffffffffffffffffffff\n      and\n      0xddf252ad1be2c89b69c2b068fc378daa952ba7f163c4a11628f55a4df523b3ef\n        /* \"https://github.com/OpenZeppelin/openzeppelin-contracts/blob/master/contracts/token/ERC20/ERC20.sol\":9961:9967  amount */\n      dup5\n        /* \"https://github.com/OpenZeppelin/openzeppelin-contracts/blob/master/contracts/token/ERC20/ERC20.sol\":9931:9968  Transfer(account, address(0), amount) */\n      mload(0x40)\n      tag_217\n      swap2\n      swap1\n      tag_39\n      jump\t// in\n    tag_217:\n      mload(0x40)\n      dup1\n      swap2\n      sub\n      swap1\n      log3\n        /* \"https://github.com/OpenZeppelin/openzeppelin-contracts/blob/master/contracts/token/ERC20/ERC20.sol\":9979:10027  _afterTokenTransfer(account, address(0), amount) */\n      tag_218\n        /* \"https://github.com/OpenZeppelin/openzeppelin-contracts/blob/master/contracts/token/ERC20/ERC20.sol\":9999:10006  account */\n      dup4\n        /* \"https://github.com/OpenZeppelin/openzeppelin-contracts/blob/master/contracts/token/ERC20/ERC20.sol\":10016:10017  0 */\n      0x00\n        /* \"https://github.com/OpenZeppelin/openzeppelin-contracts/blob/master/contracts/token/ERC20/ERC20.sol\":10020:10026  amount */\n      dup5\n        /* \"https://github.com/OpenZeppelin/openzeppelin-contracts/blob/master/contracts/token/ERC20/ERC20.sol\":9979:9998  _afterTokenTransfer */\n      tag_201\n        /* \"https://github.com/OpenZeppelin/openzeppelin-contracts/blob/master/contracts/token/ERC20/ERC20.sol\":9979:10027  _afterTokenTransfer(account, address(0), amount) */\n      jump\t// in\n    tag_218:\n        /* \"https://github.com/OpenZeppelin/openzeppelin-contracts/blob/master/contracts/token/ERC20/ERC20.sol\":9440:10034  {... */\n      pop\n        /* \"https://github.com/OpenZeppelin/openzeppelin-contracts/blob/master/contracts/token/ERC20/ERC20.sol\":9375:10034  function _burn(address account, uint256 amount) internal virtual {... */\n      pop\n      pop\n      jump\t// out\n        /* \"contracts/EuroBetToken.sol\":1502:1841  function _beforeTokenTransfer(address from, address to, uint256 value) internal virtual override {... */\n    tag_195:\n        /* \"contracts/EuroBetToken.sol\":1629:1630  0 */\n      0x00\n        /* \"contracts/EuroBetToken.sol\":1613:1631  from != address(0) */\n      0xffffffffffffffffffffffffffffffffffffffff\n      and\n        /* \"contracts/EuroBetToken.sol\":1613:1617  from */\n      dup4\n        /* \"contracts/EuroBetToken.sol\":1613:1631  from != address(0) */\n      0xffffffffffffffffffffffffffffffffffffffff\n      and\n      eq\n      iszero\n        /* \"contracts/EuroBetToken.sol\":1613:1655  from != address(0) && to != block.coinbase */\n      dup1\n      iszero\n      tag_220\n      jumpi\n      pop\n        /* \"contracts/EuroBetToken.sol\":1641:1655  block.coinbase */\n      coinbase\n        /* \"contracts/EuroBetToken.sol\":1635:1655  to != block.coinbase */\n      0xffffffffffffffffffffffffffffffffffffffff\n      and\n        /* \"contracts/EuroBetToken.sol\":1635:1637  to */\n      dup3\n        /* \"contracts/EuroBetToken.sol\":1635:1655  to != block.coinbase */\n      0xffffffffffffffffffffffffffffffffffffffff\n      and\n      eq\n      iszero\n        /* \"contracts/EuroBetToken.sol\":1613:1655  from != address(0) && to != block.coinbase */\n    tag_220:\n        /* \"contracts/EuroBetToken.sol\":1613:1687  from != address(0) && to != block.coinbase && block.coinbase != address(0) */\n      dup1\n      iszero\n      tag_221\n      jumpi\n      pop\n        /* \"contracts/EuroBetToken.sol\":1685:1686  0 */\n      0x00\n        /* \"contracts/EuroBetToken.sol\":1659:1687  block.coinbase != address(0) */\n      0xffffffffffffffffffffffffffffffffffffffff\n      and\n        /* \"contracts/EuroBetToken.sol\":1659:1673  block.coinbase */\n      coinbase\n        /* \"contracts/EuroBetToken.sol\":1659:1687  block.coinbase != address(0) */\n      0xffffffffffffffffffffffffffffffffffffffff\n      and\n      eq\n      iszero\n        /* \"contracts/EuroBetToken.sol\":1613:1687  from != address(0) && to != block.coinbase && block.coinbase != address(0) */\n    tag_221:\n        /* \"contracts/EuroBetToken.sol\":1613:1733  from != address(0) && to != block.coinbase && block.coinbase != address(0) && ERC20.totalSupply() + blockReward <= cap() */\n      dup1\n      iszero\n      tag_222\n      jumpi\n      pop\n        /* \"contracts/EuroBetToken.sol\":1728:1733  cap() */\n      tag_223\n        /* \"contracts/EuroBetToken.sol\":1728:1731  cap */\n      tag_61\n        /* \"contracts/EuroBetToken.sol\":1728:1733  cap() */\n      jump\t// in\n    tag_223:\n        /* \"contracts/EuroBetToken.sol\":1713:1724  blockReward */\n      sload(0x06)\n        /* \"contracts/EuroBetToken.sol\":1691:1710  ERC20.totalSupply() */\n      tag_224\n        /* \"contracts/EuroBetToken.sol\":1691:1708  ERC20.totalSupply */\n      tag_46\n        /* \"contracts/EuroBetToken.sol\":1691:1710  ERC20.totalSupply() */\n      jump\t// in\n    tag_224:\n        /* \"contracts/EuroBetToken.sol\":1691:1724  ERC20.totalSupply() + blockReward */\n      tag_225\n      swap2\n      swap1\n      tag_147\n      jump\t// in\n    tag_225:\n        /* \"contracts/EuroBetToken.sol\":1691:1733  ERC20.totalSupply() + blockReward <= cap() */\n      gt\n      iszero\n        /* \"contracts/EuroBetToken.sol\":1613:1733  from != address(0) && to != block.coinbase && block.coinbase != address(0) && ERC20.totalSupply() + blockReward <= cap() */\n    tag_222:\n        /* \"contracts/EuroBetToken.sol\":1610:1780  if(from != address(0) && to != block.coinbase && block.coinbase != address(0) && ERC20.totalSupply() + blockReward <= cap()) {... */\n      iszero\n      tag_226\n      jumpi\n        /* \"contracts/EuroBetToken.sol\":1750:1768  _mintMinerReward() */\n      tag_227\n        /* \"contracts/EuroBetToken.sol\":1750:1766  _mintMinerReward */\n      tag_228\n        /* \"contracts/EuroBetToken.sol\":1750:1768  _mintMinerReward() */\n      jump\t// in\n    tag_227:\n        /* \"contracts/EuroBetToken.sol\":1610:1780  if(from != address(0) && to != block.coinbase && block.coinbase != address(0) && ERC20.totalSupply() + blockReward <= cap()) {... */\n    tag_226:\n        /* \"contracts/EuroBetToken.sol\":1790:1833  super._beforeTokenTransfer(from, to, value) */\n      tag_229\n        /* \"contracts/EuroBetToken.sol\":1817:1821  from */\n      dup4\n        /* \"contracts/EuroBetToken.sol\":1823:1825  to */\n      dup4\n        /* \"contracts/EuroBetToken.sol\":1827:1832  value */\n      dup4\n        /* \"contracts/EuroBetToken.sol\":1790:1816  super._beforeTokenTransfer */\n      tag_230\n        /* \"contracts/EuroBetToken.sol\":1790:1833  super._beforeTokenTransfer(from, to, value) */\n      jump\t// in\n    tag_229:\n        /* \"contracts/EuroBetToken.sol\":1502:1841  function _beforeTokenTransfer(address from, address to, uint256 value) internal virtual override {... */\n      pop\n      pop\n      pop\n      jump\t// out\n        /* \"https://github.com/OpenZeppelin/openzeppelin-contracts/blob/master/contracts/token/ERC20/ERC20.sol\":12752:12842  function _afterTokenTransfer(address from, address to, uint256 amount) internal virtual {} */\n    tag_201:\n      pop\n      pop\n      pop\n      jump\t// out\n        /* \"contracts/EuroBetToken.sol\":1169:1259  function _mintMinerReward() internal {... */\n    tag_228:\n        /* \"contracts/EuroBetToken.sol\":1217:1251  _mint(block.coinbase, blockReward) */\n      tag_233\n        /* \"contracts/EuroBetToken.sol\":1223:1237  block.coinbase */\n      coinbase\n        /* \"contracts/EuroBetToken.sol\":1239:1250  blockReward */\n      sload(0x06)\n        /* \"contracts/EuroBetToken.sol\":1217:1222  _mint */\n      tag_234\n        /* \"contracts/EuroBetToken.sol\":1217:1251  _mint(block.coinbase, blockReward) */\n      jump\t// in\n    tag_233:\n        /* \"contracts/EuroBetToken.sol\":1169:1259  function _mintMinerReward() internal {... */\n      jump\t// out\n        /* \"https://github.com/OpenZeppelin/openzeppelin-contracts/blob/master/contracts/token/ERC20/ERC20.sol\":12073:12164  function _beforeTokenTransfer(address from, address to, uint256 amount) internal virtual {} */\n    tag_230:\n      pop\n      pop\n      pop\n      jump\t// out\n        /* \"contracts/EuroBetToken.sol\":1267:1494  function _mint(address account, uint256 amount) internal virtual override(ERC20Capped, ERC20) {... */\n    tag_234:\n        /* \"contracts/EuroBetToken.sol\":1412:1417  cap() */\n      tag_237\n        /* \"contracts/EuroBetToken.sol\":1412:1415  cap */\n      tag_61\n        /* \"contracts/EuroBetToken.sol\":1412:1417  cap() */\n      jump\t// in\n    tag_237:\n        /* \"contracts/EuroBetToken.sol\":1402:1408  amount */\n      dup2\n        /* \"contracts/EuroBetToken.sol\":1380:1399  ERC20.totalSupply() */\n      tag_238\n        /* \"contracts/EuroBetToken.sol\":1380:1397  ERC20.totalSupply */\n      tag_46\n        /* \"contracts/EuroBetToken.sol\":1380:1399  ERC20.totalSupply() */\n      jump\t// in\n    tag_238:\n        /* \"contracts/EuroBetToken.sol\":1380:1408  ERC20.totalSupply() + amount */\n      tag_239\n      swap2\n      swap1\n      tag_147\n      jump\t// in\n    tag_239:\n        /* \"contracts/EuroBetToken.sol\":1380:1417  ERC20.totalSupply() + amount <= cap() */\n      gt\n      iszero\n        /* \"contracts/EuroBetToken.sol\":1372:1447  require(ERC20.totalSupply() + amount <= cap(), \"ERC20Capped: cap exceeded\") */\n      tag_240\n      jumpi\n      mload(0x40)\n      0x08c379a000000000000000000000000000000000000000000000000000000000\n      dup2\n      mstore\n      0x04\n      add\n      tag_241\n      swap1\n      tag_242\n      jump\t// in\n    tag_241:\n      mload(0x40)\n      dup1\n      swap2\n      sub\n      swap1\n      revert\n    tag_240:\n        /* \"contracts/EuroBetToken.sol\":1458:1486  super._mint(account, amount) */\n      tag_243\n        /* \"contracts/EuroBetToken.sol\":1470:1477  account */\n      dup3\n        /* \"contracts/EuroBetToken.sol\":1479:1485  amount */\n      dup3\n        /* \"contracts/EuroBetToken.sol\":1458:1469  super._mint */\n      tag_244\n        /* \"contracts/EuroBetToken.sol\":1458:1486  super._mint(account, amount) */\n      jump\t// in\n    tag_243:\n        /* \"contracts/EuroBetToken.sol\":1267:1494  function _mint(address account, uint256 amount) internal virtual override(ERC20Capped, ERC20) {... */\n      pop\n      pop\n      jump\t// out\n        /* \"https://github.com/OpenZeppelin/openzeppelin-contracts/blob/master/contracts/token/ERC20/extensions/ERC20Capped.sol\":769:973  function _mint(address account, uint256 amount) internal virtual override {... */\n    tag_244:\n        /* \"https://github.com/OpenZeppelin/openzeppelin-contracts/blob/master/contracts/token/ERC20/extensions/ERC20Capped.sol\":893:898  cap() */\n      tag_246\n        /* \"https://github.com/OpenZeppelin/openzeppelin-contracts/blob/master/contracts/token/ERC20/extensions/ERC20Capped.sol\":893:896  cap */\n      tag_61\n        /* \"https://github.com/OpenZeppelin/openzeppelin-contracts/blob/master/contracts/token/ERC20/extensions/ERC20Capped.sol\":893:898  cap() */\n      jump\t// in\n    tag_246:\n        /* \"https://github.com/OpenZeppelin/openzeppelin-contracts/blob/master/contracts/token/ERC20/extensions/ERC20Capped.sol\":883:889  amount */\n      dup2\n        /* \"https://github.com/OpenZeppelin/openzeppelin-contracts/blob/master/contracts/token/ERC20/extensions/ERC20Capped.sol\":861:880  ERC20.totalSupply() */\n      tag_247\n        /* \"https://github.com/OpenZeppelin/openzeppelin-contracts/blob/master/contracts/token/ERC20/extensions/ERC20Capped.sol\":861:878  ERC20.totalSupply */\n      tag_46\n        /* \"https://github.com/OpenZeppelin/openzeppelin-contracts/blob/master/contracts/token/ERC20/extensions/ERC20Capped.sol\":861:880  ERC20.totalSupply() */\n      jump\t// in\n    tag_247:\n        /* \"https://github.com/OpenZeppelin/openzeppelin-contracts/blob/master/contracts/token/ERC20/extensions/ERC20Capped.sol\":861:889  ERC20.totalSupply() + amount */\n      tag_248\n      swap2\n      swap1\n      tag_147\n      jump\t// in\n    tag_248:\n        /* \"https://github.com/OpenZeppelin/openzeppelin-contracts/blob/master/contracts/token/ERC20/extensions/ERC20Capped.sol\":861:898  ERC20.totalSupply() + amount <= cap() */\n      gt\n      iszero\n        /* \"https://github.com/OpenZeppelin/openzeppelin-contracts/blob/master/contracts/token/ERC20/extensions/ERC20Capped.sol\":853:928  require(ERC20.totalSupply() + amount <= cap(), \"ERC20Capped: cap exceeded\") */\n      tag_249\n      jumpi\n      mload(0x40)\n      0x08c379a000000000000000000000000000000000000000000000000000000000\n      dup2\n      mstore\n      0x04\n      add\n      tag_250\n      swap1\n      tag_242\n      jump\t// in\n    tag_250:\n      mload(0x40)\n      dup1\n      swap2\n      sub\n      swap1\n      revert\n    tag_249:\n        /* \"https://github.com/OpenZeppelin/openzeppelin-contracts/blob/master/contracts/token/ERC20/extensions/ERC20Capped.sol\":938:966  super._mint(account, amount) */\n      tag_251\n        /* \"https://github.com/OpenZeppelin/openzeppelin-contracts/blob/master/contracts/token/ERC20/extensions/ERC20Capped.sol\":950:957  account */\n      dup3\n        /* \"https://github.com/OpenZeppelin/openzeppelin-contracts/blob/master/contracts/token/ERC20/extensions/ERC20Capped.sol\":959:965  amount */\n      dup3\n        /* \"https://github.com/OpenZeppelin/openzeppelin-contracts/blob/master/contracts/token/ERC20/extensions/ERC20Capped.sol\":938:949  super._mint */\n      tag_252\n        /* \"https://github.com/OpenZeppelin/openzeppelin-contracts/blob/master/contracts/token/ERC20/extensions/ERC20Capped.sol\":938:966  super._mint(account, amount) */\n      jump\t// in\n    tag_251:\n        /* \"https://github.com/OpenZeppelin/openzeppelin-contracts/blob/master/contracts/token/ERC20/extensions/ERC20Capped.sol\":769:973  function _mint(address account, uint256 amount) internal virtual override {... */\n      pop\n      pop\n      jump\t// out\n        /* \"https://github.com/OpenZeppelin/openzeppelin-contracts/blob/master/contracts/token/ERC20/ERC20.sol\":8520:9055  function _mint(address account, uint256 amount) internal virtual {... */\n    tag_252:\n        /* \"https://github.com/OpenZeppelin/openzeppelin-contracts/blob/master/contracts/token/ERC20/ERC20.sol\":8622:8623  0 */\n      0x00\n        /* \"https://github.com/OpenZeppelin/openzeppelin-contracts/blob/master/contracts/token/ERC20/ERC20.sol\":8603:8624  account != address(0) */\n      0xffffffffffffffffffffffffffffffffffffffff\n      and\n        /* \"https://github.com/OpenZeppelin/openzeppelin-contracts/blob/master/contracts/token/ERC20/ERC20.sol\":8603:8610  account */\n      dup3\n        /* \"https://github.com/OpenZeppelin/openzeppelin-contracts/blob/master/contracts/token/ERC20/ERC20.sol\":8603:8624  account != address(0) */\n      0xffffffffffffffffffffffffffffffffffffffff\n      and\n      sub\n        /* \"https://github.com/OpenZeppelin/openzeppelin-contracts/blob/master/contracts/token/ERC20/ERC20.sol\":8595:8660  require(account != address(0), \"ERC20: mint to the zero address\") */\n      tag_254\n      jumpi\n      mload(0x40)\n      0x08c379a000000000000000000000000000000000000000000000000000000000\n      dup2\n      mstore\n      0x04\n      add\n      tag_255\n      swap1\n      tag_256\n      jump\t// in\n    tag_255:\n      mload(0x40)\n      dup1\n      swap2\n      sub\n      swap1\n      revert\n    tag_254:\n        /* \"https://github.com/OpenZeppelin/openzeppelin-contracts/blob/master/contracts/token/ERC20/ERC20.sol\":8671:8720  _beforeTokenTransfer(address(0), account, amount) */\n      tag_257\n        /* \"https://github.com/OpenZeppelin/openzeppelin-contracts/blob/master/contracts/token/ERC20/ERC20.sol\":8700:8701  0 */\n      0x00\n        /* \"https://github.com/OpenZeppelin/openzeppelin-contracts/blob/master/contracts/token/ERC20/ERC20.sol\":8704:8711  account */\n      dup4\n        /* \"https://github.com/OpenZeppelin/openzeppelin-contracts/blob/master/contracts/token/ERC20/ERC20.sol\":8713:8719  amount */\n      dup4\n        /* \"https://github.com/OpenZeppelin/openzeppelin-contracts/blob/master/contracts/token/ERC20/ERC20.sol\":8671:8691  _beforeTokenTransfer */\n      tag_195\n        /* \"https://github.com/OpenZeppelin/openzeppelin-contracts/blob/master/contracts/token/ERC20/ERC20.sol\":8671:8720  _beforeTokenTransfer(address(0), account, amount) */\n      jump\t// in\n    tag_257:\n        /* \"https://github.com/OpenZeppelin/openzeppelin-contracts/blob/master/contracts/token/ERC20/ERC20.sol\":8747:8753  amount */\n      dup1\n        /* \"https://github.com/OpenZeppelin/openzeppelin-contracts/blob/master/contracts/token/ERC20/ERC20.sol\":8731:8743  _totalSupply */\n      0x02\n      0x00\n        /* \"https://github.com/OpenZeppelin/openzeppelin-contracts/blob/master/contracts/token/ERC20/ERC20.sol\":8731:8753  _totalSupply += amount */\n      dup3\n      dup3\n      sload\n      tag_258\n      swap2\n      swap1\n      tag_147\n      jump\t// in\n    tag_258:\n      swap3\n      pop\n      pop\n      dup2\n      swap1\n      sstore\n      pop\n        /* \"https://github.com/OpenZeppelin/openzeppelin-contracts/blob/master/contracts/token/ERC20/ERC20.sol\":8921:8927  amount */\n      dup1\n        /* \"https://github.com/OpenZeppelin/openzeppelin-contracts/blob/master/contracts/token/ERC20/ERC20.sol\":8899:8908  _balances */\n      0x00\n        /* \"https://github.com/OpenZeppelin/openzeppelin-contracts/blob/master/contracts/token/ERC20/ERC20.sol\":8899:8917  _balances[account] */\n      dup1\n        /* \"https://github.com/OpenZeppelin/openzeppelin-contracts/blob/master/contracts/token/ERC20/ERC20.sol\":8909:8916  account */\n      dup5\n        /* \"https://github.com/OpenZeppelin/openzeppelin-contracts/blob/master/contracts/token/ERC20/ERC20.sol\":8899:8917  _balances[account] */\n      0xffffffffffffffffffffffffffffffffffffffff\n      and\n      0xffffffffffffffffffffffffffffffffffffffff\n      and\n      dup2\n      mstore\n      0x20\n      add\n      swap1\n      dup2\n      mstore\n      0x20\n      add\n      0x00\n      keccak256\n      0x00\n        /* \"https://github.com/OpenZeppelin/openzeppelin-contracts/blob/master/contracts/token/ERC20/ERC20.sol\":8899:8927  _balances[account] += amount */\n      dup3\n      dup3\n      sload\n      add\n      swap3\n      pop\n      pop\n      dup2\n      swap1\n      sstore\n      pop\n        /* \"https://github.com/OpenZeppelin/openzeppelin-contracts/blob/master/contracts/token/ERC20/ERC20.sol\":8973:8980  account */\n      dup2\n        /* \"https://github.com/OpenZeppelin/openzeppelin-contracts/blob/master/contracts/token/ERC20/ERC20.sol\":8952:8989  Transfer(address(0), account, amount) */\n      0xffffffffffffffffffffffffffffffffffffffff\n      and\n        /* \"https://github.com/OpenZeppelin/openzeppelin-contracts/blob/master/contracts/token/ERC20/ERC20.sol\":8969:8970  0 */\n      0x00\n        /* \"https://github.com/OpenZeppelin/openzeppelin-contracts/blob/master/contracts/token/ERC20/ERC20.sol\":8952:8989  Transfer(address(0), account, amount) */\n      0xffffffffffffffffffffffffffffffffffffffff\n      and\n      0xddf252ad1be2c89b69c2b068fc378daa952ba7f163c4a11628f55a4df523b3ef\n        /* \"https://github.com/OpenZeppelin/openzeppelin-contracts/blob/master/contracts/token/ERC20/ERC20.sol\":8982:8988  amount */\n      dup4\n        /* \"https://github.com/OpenZeppelin/openzeppelin-contracts/blob/master/contracts/token/ERC20/ERC20.sol\":8952:8989  Transfer(address(0), account, amount) */\n      mload(0x40)\n      tag_259\n      swap2\n      swap1\n      tag_39\n      jump\t// in\n    tag_259:\n      mload(0x40)\n      dup1\n      swap2\n      sub\n      swap1\n      log3\n        /* \"https://github.com/OpenZeppelin/openzeppelin-contracts/blob/master/contracts/token/ERC20/ERC20.sol\":9000:9048  _afterTokenTransfer(address(0), account, amount) */\n      tag_260\n        /* \"https://github.com/OpenZeppelin/openzeppelin-contracts/blob/master/contracts/token/ERC20/ERC20.sol\":9028:9029  0 */\n      0x00\n        /* \"https://github.com/OpenZeppelin/openzeppelin-contracts/blob/master/contracts/token/ERC20/ERC20.sol\":9032:9039  account */\n      dup4\n        /* \"https://github.com/OpenZeppelin/openzeppelin-contracts/blob/master/contracts/token/ERC20/ERC20.sol\":9041:9047  amount */\n      dup4\n        /* \"https://github.com/OpenZeppelin/openzeppelin-contracts/blob/master/contracts/token/ERC20/ERC20.sol\":9000:9019  _afterTokenTransfer */\n      tag_201\n        /* \"https://github.com/OpenZeppelin/openzeppelin-contracts/blob/master/contracts/token/ERC20/ERC20.sol\":9000:9048  _afterTokenTransfer(address(0), account, amount) */\n      jump\t// in\n    tag_260:\n        /* \"https://github.com/OpenZeppelin/openzeppelin-contracts/blob/master/contracts/token/ERC20/ERC20.sol\":8520:9055  function _mint(address account, uint256 amount) internal virtual {... */\n      pop\n      pop\n      jump\t// out\n        /* \"#utility.yul\":7:106   */\n    tag_261:\n        /* \"#utility.yul\":59:65   */\n      0x00\n        /* \"#utility.yul\":93:98   */\n      dup2\n        /* \"#utility.yul\":87:99   */\n      mload\n        /* \"#utility.yul\":77:99   */\n      swap1\n      pop\n        /* \"#utility.yul\":7:106   */\n      swap2\n      swap1\n      pop\n      jump\t// out\n        /* \"#utility.yul\":112:281   */\n    tag_262:\n        /* \"#utility.yul\":196:207   */\n      0x00\n        /* \"#utility.yul\":230:236   */\n      dup3\n        /* \"#utility.yul\":225:228   */\n      dup3\n        /* \"#utility.yul\":218:237   */\n      mstore\n        /* \"#utility.yul\":270:274   */\n      0x20\n        /* \"#utility.yul\":265:268   */\n      dup3\n        /* \"#utility.yul\":261:275   */\n      add\n        /* \"#utility.yul\":246:275   */\n      swap1\n      pop\n        /* \"#utility.yul\":112:281   */\n      swap3\n      swap2\n      pop\n      pop\n      jump\t// out\n        /* \"#utility.yul\":287:426   */\n    tag_263:\n        /* \"#utility.yul\":376:382   */\n      dup3\n        /* \"#utility.yul\":371:374   */\n      dup2\n        /* \"#utility.yul\":366:369   */\n      dup4\n        /* \"#utility.yul\":360:383   */\n      mcopy\n        /* \"#utility.yul\":417:418   */\n      0x00\n        /* \"#utility.yul\":408:414   */\n      dup4\n        /* \"#utility.yul\":403:406   */\n      dup4\n        /* \"#utility.yul\":399:415   */\n      add\n        /* \"#utility.yul\":392:419   */\n      mstore\n        /* \"#utility.yul\":287:426   */\n      pop\n      pop\n      pop\n      jump\t// out\n        /* \"#utility.yul\":432:534   */\n    tag_264:\n        /* \"#utility.yul\":473:479   */\n      0x00\n        /* \"#utility.yul\":524:526   */\n      0x1f\n        /* \"#utility.yul\":520:527   */\n      not\n        /* \"#utility.yul\":515:517   */\n      0x1f\n        /* \"#utility.yul\":508:513   */\n      dup4\n        /* \"#utility.yul\":504:518   */\n      add\n        /* \"#utility.yul\":500:528   */\n      and\n        /* \"#utility.yul\":490:528   */\n      swap1\n      pop\n        /* \"#utility.yul\":432:534   */\n      swap2\n      swap1\n      pop\n      jump\t// out\n        /* \"#utility.yul\":540:917   */\n    tag_265:\n        /* \"#utility.yul\":628:631   */\n      0x00\n        /* \"#utility.yul\":656:695   */\n      tag_322\n        /* \"#utility.yul\":689:694   */\n      dup3\n        /* \"#utility.yul\":656:695   */\n      tag_261\n      jump\t// in\n    tag_322:\n        /* \"#utility.yul\":711:782   */\n      tag_323\n        /* \"#utility.yul\":775:781   */\n      dup2\n        /* \"#utility.yul\":770:773   */\n      dup6\n        /* \"#utility.yul\":711:782   */\n      tag_262\n      jump\t// in\n    tag_323:\n        /* \"#utility.yul\":704:782   */\n      swap4\n      pop\n        /* \"#utility.yul\":791:856   */\n      tag_324\n        /* \"#utility.yul\":849:855   */\n      dup2\n        /* \"#utility.yul\":844:847   */\n      dup6\n        /* \"#utility.yul\":837:841   */\n      0x20\n        /* \"#utility.yul\":830:835   */\n      dup7\n        /* \"#utility.yul\":826:842   */\n      add\n        /* \"#utility.yul\":791:856   */\n      tag_263\n      jump\t// in\n    tag_324:\n        /* \"#utility.yul\":881:910   */\n      tag_325\n        /* \"#utility.yul\":903:909   */\n      dup2\n        /* \"#utility.yul\":881:910   */\n      tag_264\n      jump\t// in\n    tag_325:\n        /* \"#utility.yul\":876:879   */\n      dup5\n        /* \"#utility.yul\":872:911   */\n      add\n        /* \"#utility.yul\":865:911   */\n      swap2\n      pop\n        /* \"#utility.yul\":632:917   */\n      pop\n        /* \"#utility.yul\":540:917   */\n      swap3\n      swap2\n      pop\n      pop\n      jump\t// out\n        /* \"#utility.yul\":923:1236   */\n    tag_29:\n        /* \"#utility.yul\":1036:1040   */\n      0x00\n        /* \"#utility.yul\":1074:1076   */\n      0x20\n        /* \"#utility.yul\":1063:1072   */\n      dup3\n        /* \"#utility.yul\":1059:1077   */\n      add\n        /* \"#utility.yul\":1051:1077   */\n      swap1\n      pop\n        /* \"#utility.yul\":1123:1132   */\n      dup2\n        /* \"#utility.yul\":1117:1121   */\n      dup2\n        /* \"#utility.yul\":1113:1133   */\n      sub\n        /* \"#utility.yul\":1109:1110   */\n      0x00\n        /* \"#utility.yul\":1098:1107   */\n      dup4\n        /* \"#utility.yul\":1094:1111   */\n      add\n        /* \"#utility.yul\":1087:1134   */\n      mstore\n        /* \"#utility.yul\":1151:1229   */\n      tag_327\n        /* \"#utility.yul\":1224:1228   */\n      dup2\n        /* \"#utility.yul\":1215:1221   */\n      dup5\n        /* \"#utility.yul\":1151:1229   */\n      tag_265\n      jump\t// in\n    tag_327:\n        /* \"#utility.yul\":1143:1229   */\n      swap1\n      pop\n        /* \"#utility.yul\":923:1236   */\n      swap3\n      swap2\n      pop\n      pop\n      jump\t// out\n        /* \"#utility.yul\":1323:1440   */\n    tag_267:\n        /* \"#utility.yul\":1432:1433   */\n      0x00\n        /* \"#utility.yul\":1429:1430   */\n      dup1\n        /* \"#utility.yul\":1422:1434   */\n      revert\n        /* \"#utility.yul\":1569:1695   */\n    tag_269:\n        /* \"#utility.yul\":1606:1613   */\n      0x00\n        /* \"#utility.yul\":1646:1688   */\n      0xffffffffffffffffffffffffffffffffffffffff\n        /* \"#utility.yul\":1639:1644   */\n      dup3\n        /* \"#utility.yul\":1635:1689   */\n      and\n        /* \"#utility.yul\":1624:1689   */\n      swap1\n      pop\n        /* \"#utility.yul\":1569:1695   */\n      swap2\n      swap1\n      pop\n      jump\t// out\n        /* \"#utility.yul\":1701:1797   */\n    tag_270:\n        /* \"#utility.yul\":1738:1745   */\n      0x00\n        /* \"#utility.yul\":1767:1791   */\n      tag_333\n        /* \"#utility.yul\":1785:1790   */\n      dup3\n        /* \"#utility.yul\":1767:1791   */\n      tag_269\n      jump\t// in\n    tag_333:\n        /* \"#utility.yul\":1756:1791   */\n      swap1\n      pop\n        /* \"#utility.yul\":1701:1797   */\n      swap2\n      swap1\n      pop\n      jump\t// out\n        /* \"#utility.yul\":1803:1925   */\n    tag_271:\n        /* \"#utility.yul\":1876:1900   */\n      tag_335\n        /* \"#utility.yul\":1894:1899   */\n      dup2\n        /* \"#utility.yul\":1876:1900   */\n      tag_270\n      jump\t// in\n    tag_335:\n        /* \"#utility.yul\":1869:1874   */\n      dup2\n        /* \"#utility.yul\":1866:1901   */\n      eq\n        /* \"#utility.yul\":1856:1919   */\n      tag_336\n      jumpi\n        /* \"#utility.yul\":1915:1916   */\n      0x00\n        /* \"#utility.yul\":1912:1913   */\n      dup1\n        /* \"#utility.yul\":1905:1917   */\n      revert\n        /* \"#utility.yul\":1856:1919   */\n    tag_336:\n        /* \"#utility.yul\":1803:1925   */\n      pop\n      jump\t// out\n        /* \"#utility.yul\":1931:2070   */\n    tag_272:\n        /* \"#utility.yul\":1977:1982   */\n      0x00\n        /* \"#utility.yul\":2015:2021   */\n      dup2\n        /* \"#utility.yul\":2002:2022   */\n      calldataload\n        /* \"#utility.yul\":1993:2022   */\n      swap1\n      pop\n        /* \"#utility.yul\":2031:2064   */\n      tag_338\n        /* \"#utility.yul\":2058:2063   */\n      dup2\n        /* \"#utility.yul\":2031:2064   */\n      tag_271\n      jump\t// in\n    tag_338:\n        /* \"#utility.yul\":1931:2070   */\n      swap3\n      swap2\n      pop\n      pop\n      jump\t// out\n        /* \"#utility.yul\":2076:2153   */\n    tag_273:\n        /* \"#utility.yul\":2113:2120   */\n      0x00\n        /* \"#utility.yul\":2142:2147   */\n      dup2\n        /* \"#utility.yul\":2131:2147   */\n      swap1\n      pop\n        /* \"#utility.yul\":2076:2153   */\n      swap2\n      swap1\n      pop\n      jump\t// out\n        /* \"#utility.yul\":2159:2281   */\n    tag_274:\n        /* \"#utility.yul\":2232:2256   */\n      tag_341\n        /* \"#utility.yul\":2250:2255   */\n      dup2\n        /* \"#utility.yul\":2232:2256   */\n      tag_273\n      jump\t// in\n    tag_341:\n        /* \"#utility.yul\":2225:2230   */\n      dup2\n        /* \"#utility.yul\":2222:2257   */\n      eq\n        /* \"#utility.yul\":2212:2275   */\n      tag_342\n      jumpi\n        /* \"#utility.yul\":2271:2272   */\n      0x00\n        /* \"#utility.yul\":2268:2269   */\n      dup1\n        /* \"#utility.yul\":2261:2273   */\n      revert\n        /* \"#utility.yul\":2212:2275   */\n    tag_342:\n        /* \"#utility.yul\":2159:2281   */\n      pop\n      jump\t// out\n        /* \"#utility.yul\":2287:2426   */\n    tag_275:\n        /* \"#utility.yul\":2333:2338   */\n      0x00\n        /* \"#utility.yul\":2371:2377   */\n      dup2\n        /* \"#utility.yul\":2358:2378   */\n      calldataload\n        /* \"#utility.yul\":2349:2378   */\n      swap1\n      pop\n        /* \"#utility.yul\":2387:2420   */\n      tag_344\n        /* \"#utility.yul\":2414:2419   */\n      dup2\n        /* \"#utility.yul\":2387:2420   */\n      tag_274\n      jump\t// in\n    tag_344:\n        /* \"#utility.yul\":2287:2426   */\n      swap3\n      swap2\n      pop\n      pop\n      jump\t// out\n        /* \"#utility.yul\":2432:2906   */\n    tag_32:\n        /* \"#utility.yul\":2500:2506   */\n      0x00\n        /* \"#utility.yul\":2508:2514   */\n      dup1\n        /* \"#utility.yul\":2557:2559   */\n      0x40\n        /* \"#utility.yul\":2545:2554   */\n      dup4\n        /* \"#utility.yul\":2536:2543   */\n      dup6\n        /* \"#utility.yul\":2532:2555   */\n      sub\n        /* \"#utility.yul\":2528:2560   */\n      slt\n        /* \"#utility.yul\":2525:2644   */\n      iszero\n      tag_346\n      jumpi\n        /* \"#utility.yul\":2563:2642   */\n      tag_347\n      tag_267\n      jump\t// in\n    tag_347:\n        /* \"#utility.yul\":2525:2644   */\n    tag_346:\n        /* \"#utility.yul\":2683:2684   */\n      0x00\n        /* \"#utility.yul\":2708:2761   */\n      tag_348\n        /* \"#utility.yul\":2753:2760   */\n      dup6\n        /* \"#utility.yul\":2744:2750   */\n      dup3\n        /* \"#utility.yul\":2733:2742   */\n      dup7\n        /* \"#utility.yul\":2729:2751   */\n      add\n        /* \"#utility.yul\":2708:2761   */\n      tag_272\n      jump\t// in\n    tag_348:\n        /* \"#utility.yul\":2698:2761   */\n      swap3\n      pop\n        /* \"#utility.yul\":2654:2771   */\n      pop\n        /* \"#utility.yul\":2810:2812   */\n      0x20\n        /* \"#utility.yul\":2836:2889   */\n      tag_349\n        /* \"#utility.yul\":2881:2888   */\n      dup6\n        /* \"#utility.yul\":2872:2878   */\n      dup3\n        /* \"#utility.yul\":2861:2870   */\n      dup7\n        /* \"#utility.yul\":2857:2879   */\n      add\n        /* \"#utility.yul\":2836:2889   */\n      tag_275\n      jump\t// in\n    tag_349:\n        /* \"#utility.yul\":2826:2889   */\n      swap2\n      pop\n        /* \"#utility.yul\":2781:2899   */\n      pop\n        /* \"#utility.yul\":2432:2906   */\n      swap3\n      pop\n      swap3\n      swap1\n      pop\n      jump\t// out\n        /* \"#utility.yul\":2912:3002   */\n    tag_276:\n        /* \"#utility.yul\":2946:2953   */\n      0x00\n        /* \"#utility.yul\":2989:2994   */\n      dup2\n        /* \"#utility.yul\":2982:2995   */\n      iszero\n        /* \"#utility.yul\":2975:2996   */\n      iszero\n        /* \"#utility.yul\":2964:2996   */\n      swap1\n      pop\n        /* \"#utility.yul\":2912:3002   */\n      swap2\n      swap1\n      pop\n      jump\t// out\n        /* \"#utility.yul\":3008:3117   */\n    tag_277:\n        /* \"#utility.yul\":3089:3110   */\n      tag_352\n        /* \"#utility.yul\":3104:3109   */\n      dup2\n        /* \"#utility.yul\":3089:3110   */\n      tag_276\n      jump\t// in\n    tag_352:\n        /* \"#utility.yul\":3084:3087   */\n      dup3\n        /* \"#utility.yul\":3077:3111   */\n      mstore\n        /* \"#utility.yul\":3008:3117   */\n      pop\n      pop\n      jump\t// out\n        /* \"#utility.yul\":3123:3333   */\n    tag_35:\n        /* \"#utility.yul\":3210:3214   */\n      0x00\n        /* \"#utility.yul\":3248:3250   */\n      0x20\n        /* \"#utility.yul\":3237:3246   */\n      dup3\n        /* \"#utility.yul\":3233:3251   */\n      add\n        /* \"#utility.yul\":3225:3251   */\n      swap1\n      pop\n        /* \"#utility.yul\":3261:3326   */\n      tag_354\n        /* \"#utility.yul\":3323:3324   */\n      0x00\n        /* \"#utility.yul\":3312:3321   */\n      dup4\n        /* \"#utility.yul\":3308:3325   */\n      add\n        /* \"#utility.yul\":3299:3305   */\n      dup5\n        /* \"#utility.yul\":3261:3326   */\n      tag_277\n      jump\t// in\n    tag_354:\n        /* \"#utility.yul\":3123:3333   */\n      swap3\n      swap2\n      pop\n      pop\n      jump\t// out\n        /* \"#utility.yul\":3339:3457   */\n    tag_278:\n        /* \"#utility.yul\":3426:3450   */\n      tag_356\n        /* \"#utility.yul\":3444:3449   */\n      dup2\n        /* \"#utility.yul\":3426:3450   */\n      tag_273\n      jump\t// in\n    tag_356:\n        /* \"#utility.yul\":3421:3424   */\n      dup3\n        /* \"#utility.yul\":3414:3451   */\n      mstore\n        /* \"#utility.yul\":3339:3457   */\n      pop\n      pop\n      jump\t// out\n        /* \"#utility.yul\":3463:3685   */\n    tag_39:\n        /* \"#utility.yul\":3556:3560   */\n      0x00\n        /* \"#utility.yul\":3594:3596   */\n      0x20\n        /* \"#utility.yul\":3583:3592   */\n      dup3\n        /* \"#utility.yul\":3579:3597   */\n      add\n        /* \"#utility.yul\":3571:3597   */\n      swap1\n      pop\n        /* \"#utility.yul\":3607:3678   */\n      tag_358\n        /* \"#utility.yul\":3675:3676   */\n      0x00\n        /* \"#utility.yul\":3664:3673   */\n      dup4\n        /* \"#utility.yul\":3660:3677   */\n      add\n        /* \"#utility.yul\":3651:3657   */\n      dup5\n        /* \"#utility.yul\":3607:3678   */\n      tag_278\n      jump\t// in\n    tag_358:\n        /* \"#utility.yul\":3463:3685   */\n      swap3\n      swap2\n      pop\n      pop\n      jump\t// out\n        /* \"#utility.yul\":3691:4310   */\n    tag_42:\n        /* \"#utility.yul\":3768:3774   */\n      0x00\n        /* \"#utility.yul\":3776:3782   */\n      dup1\n        /* \"#utility.yul\":3784:3790   */\n      0x00\n        /* \"#utility.yul\":3833:3835   */\n      0x60\n        /* \"#utility.yul\":3821:3830   */\n      dup5\n        /* \"#utility.yul\":3812:3819   */\n      dup7\n        /* \"#utility.yul\":3808:3831   */\n      sub\n        /* \"#utility.yul\":3804:3836   */\n      slt\n        /* \"#utility.yul\":3801:3920   */\n      iszero\n      tag_360\n      jumpi\n        /* \"#utility.yul\":3839:3918   */\n      tag_361\n      tag_267\n      jump\t// in\n    tag_361:\n        /* \"#utility.yul\":3801:3920   */\n    tag_360:\n        /* \"#utility.yul\":3959:3960   */\n      0x00\n        /* \"#utility.yul\":3984:4037   */\n      tag_362\n        /* \"#utility.yul\":4029:4036   */\n      dup7\n        /* \"#utility.yul\":4020:4026   */\n      dup3\n        /* \"#utility.yul\":4009:4018   */\n      dup8\n        /* \"#utility.yul\":4005:4027   */\n      add\n        /* \"#utility.yul\":3984:4037   */\n      tag_272\n      jump\t// in\n    tag_362:\n        /* \"#utility.yul\":3974:4037   */\n      swap4\n      pop\n        /* \"#utility.yul\":3930:4047   */\n      pop\n        /* \"#utility.yul\":4086:4088   */\n      0x20\n        /* \"#utility.yul\":4112:4165   */\n      tag_363\n        /* \"#utility.yul\":4157:4164   */\n      dup7\n        /* \"#utility.yul\":4148:4154   */\n      dup3\n        /* \"#utility.yul\":4137:4146   */\n      dup8\n        /* \"#utility.yul\":4133:4155   */\n      add\n        /* \"#utility.yul\":4112:4165   */\n      tag_272\n      jump\t// in\n    tag_363:\n        /* \"#utility.yul\":4102:4165   */\n      swap3\n      pop\n        /* \"#utility.yul\":4057:4175   */\n      pop\n        /* \"#utility.yul\":4214:4216   */\n      0x40\n        /* \"#utility.yul\":4240:4293   */\n      tag_364\n        /* \"#utility.yul\":4285:4292   */\n      dup7\n        /* \"#utility.yul\":4276:4282   */\n      dup3\n        /* \"#utility.yul\":4265:4274   */\n      dup8\n        /* \"#utility.yul\":4261:4283   */\n      add\n        /* \"#utility.yul\":4240:4293   */\n      tag_275\n      jump\t// in\n    tag_364:\n        /* \"#utility.yul\":4230:4293   */\n      swap2\n      pop\n        /* \"#utility.yul\":4185:4303   */\n      pop\n        /* \"#utility.yul\":3691:4310   */\n      swap3\n      pop\n      swap3\n      pop\n      swap3\n      jump\t// out\n        /* \"#utility.yul\":4316:4645   */\n    tag_50:\n        /* \"#utility.yul\":4375:4381   */\n      0x00\n        /* \"#utility.yul\":4424:4426   */\n      0x20\n        /* \"#utility.yul\":4412:4421   */\n      dup3\n        /* \"#utility.yul\":4403:4410   */\n      dup5\n        /* \"#utility.yul\":4399:4422   */\n      sub\n        /* \"#utility.yul\":4395:4427   */\n      slt\n        /* \"#utility.yul\":4392:4511   */\n      iszero\n      tag_366\n      jumpi\n        /* \"#utility.yul\":4430:4509   */\n      tag_367\n      tag_267\n      jump\t// in\n    tag_367:\n        /* \"#utility.yul\":4392:4511   */\n    tag_366:\n        /* \"#utility.yul\":4550:4551   */\n      0x00\n        /* \"#utility.yul\":4575:4628   */\n      tag_368\n        /* \"#utility.yul\":4620:4627   */\n      dup5\n        /* \"#utility.yul\":4611:4617   */\n      dup3\n        /* \"#utility.yul\":4600:4609   */\n      dup6\n        /* \"#utility.yul\":4596:4618   */\n      add\n        /* \"#utility.yul\":4575:4628   */\n      tag_275\n      jump\t// in\n    tag_368:\n        /* \"#utility.yul\":4565:4628   */\n      swap2\n      pop\n        /* \"#utility.yul\":4521:4638   */\n      pop\n        /* \"#utility.yul\":4316:4645   */\n      swap3\n      swap2\n      pop\n      pop\n      jump\t// out\n        /* \"#utility.yul\":4651:4737   */\n    tag_279:\n        /* \"#utility.yul\":4686:4693   */\n      0x00\n        /* \"#utility.yul\":4726:4730   */\n      0xff\n        /* \"#utility.yul\":4719:4724   */\n      dup3\n        /* \"#utility.yul\":4715:4731   */\n      and\n        /* \"#utility.yul\":4704:4731   */\n      swap1\n      pop\n        /* \"#utility.yul\":4651:4737   */\n      swap2\n      swap1\n      pop\n      jump\t// out\n        /* \"#utility.yul\":4743:4855   */\n    tag_280:\n        /* \"#utility.yul\":4826:4848   */\n      tag_371\n        /* \"#utility.yul\":4842:4847   */\n      dup2\n        /* \"#utility.yul\":4826:4848   */\n      tag_279\n      jump\t// in\n    tag_371:\n        /* \"#utility.yul\":4821:4824   */\n      dup3\n        /* \"#utility.yul\":4814:4849   */\n      mstore\n        /* \"#utility.yul\":4743:4855   */\n      pop\n      pop\n      jump\t// out\n        /* \"#utility.yul\":4861:5075   */\n    tag_59:\n        /* \"#utility.yul\":4950:4954   */\n      0x00\n        /* \"#utility.yul\":4988:4990   */\n      0x20\n        /* \"#utility.yul\":4977:4986   */\n      dup3\n        /* \"#utility.yul\":4973:4991   */\n      add\n        /* \"#utility.yul\":4965:4991   */\n      swap1\n      pop\n        /* \"#utility.yul\":5001:5068   */\n      tag_373\n        /* \"#utility.yul\":5065:5066   */\n      0x00\n        /* \"#utility.yul\":5054:5063   */\n      dup4\n        /* \"#utility.yul\":5050:5067   */\n      add\n        /* \"#utility.yul\":5041:5047   */\n      dup5\n        /* \"#utility.yul\":5001:5068   */\n      tag_280\n      jump\t// in\n    tag_373:\n        /* \"#utility.yul\":4861:5075   */\n      swap3\n      swap2\n      pop\n      pop\n      jump\t// out\n        /* \"#utility.yul\":5081:5410   */\n    tag_72:\n        /* \"#utility.yul\":5140:5146   */\n      0x00\n        /* \"#utility.yul\":5189:5191   */\n      0x20\n        /* \"#utility.yul\":5177:5186   */\n      dup3\n        /* \"#utility.yul\":5168:5175   */\n      dup5\n        /* \"#utility.yul\":5164:5187   */\n      sub\n        /* \"#utility.yul\":5160:5192   */\n      slt\n        /* \"#utility.yul\":5157:5276   */\n      iszero\n      tag_375\n      jumpi\n        /* \"#utility.yul\":5195:5274   */\n      tag_376\n      tag_267\n      jump\t// in\n    tag_376:\n        /* \"#utility.yul\":5157:5276   */\n    tag_375:\n        /* \"#utility.yul\":5315:5316   */\n      0x00\n        /* \"#utility.yul\":5340:5393   */\n      tag_377\n        /* \"#utility.yul\":5385:5392   */\n      dup5\n        /* \"#utility.yul\":5376:5382   */\n      dup3\n        /* \"#utility.yul\":5365:5374   */\n      dup6\n        /* \"#utility.yul\":5361:5383   */\n      add\n        /* \"#utility.yul\":5340:5393   */\n      tag_272\n      jump\t// in\n    tag_377:\n        /* \"#utility.yul\":5330:5393   */\n      swap2\n      pop\n        /* \"#utility.yul\":5286:5403   */\n      pop\n        /* \"#utility.yul\":5081:5410   */\n      swap3\n      swap2\n      pop\n      pop\n      jump\t// out\n        /* \"#utility.yul\":5416:5520   */\n    tag_281:\n        /* \"#utility.yul\":5461:5468   */\n      0x00\n        /* \"#utility.yul\":5490:5514   */\n      tag_379\n        /* \"#utility.yul\":5508:5513   */\n      dup3\n        /* \"#utility.yul\":5490:5514   */\n      tag_269\n      jump\t// in\n    tag_379:\n        /* \"#utility.yul\":5479:5514   */\n      swap1\n      pop\n        /* \"#utility.yul\":5416:5520   */\n      swap2\n      swap1\n      pop\n      jump\t// out\n        /* \"#utility.yul\":5526:5668   */\n    tag_282:\n        /* \"#utility.yul\":5629:5661   */\n      tag_381\n        /* \"#utility.yul\":5655:5660   */\n      dup2\n        /* \"#utility.yul\":5629:5661   */\n      tag_281\n      jump\t// in\n    tag_381:\n        /* \"#utility.yul\":5624:5627   */\n      dup3\n        /* \"#utility.yul\":5617:5662   */\n      mstore\n        /* \"#utility.yul\":5526:5668   */\n      pop\n      pop\n      jump\t// out\n        /* \"#utility.yul\":5674:5928   */\n    tag_85:\n        /* \"#utility.yul\":5783:5787   */\n      0x00\n        /* \"#utility.yul\":5821:5823   */\n      0x20\n        /* \"#utility.yul\":5810:5819   */\n      dup3\n        /* \"#utility.yul\":5806:5824   */\n      add\n        /* \"#utility.yul\":5798:5824   */\n      swap1\n      pop\n        /* \"#utility.yul\":5834:5921   */\n      tag_383\n        /* \"#utility.yul\":5918:5919   */\n      0x00\n        /* \"#utility.yul\":5907:5916   */\n      dup4\n        /* \"#utility.yul\":5903:5920   */\n      add\n        /* \"#utility.yul\":5894:5900   */\n      dup5\n        /* \"#utility.yul\":5834:5921   */\n      tag_282\n      jump\t// in\n    tag_383:\n        /* \"#utility.yul\":5674:5928   */\n      swap3\n      swap2\n      pop\n      pop\n      jump\t// out\n        /* \"#utility.yul\":5934:6050   */\n    tag_283:\n        /* \"#utility.yul\":6004:6025   */\n      tag_385\n        /* \"#utility.yul\":6019:6024   */\n      dup2\n        /* \"#utility.yul\":6004:6025   */\n      tag_276\n      jump\t// in\n    tag_385:\n        /* \"#utility.yul\":5997:6002   */\n      dup2\n        /* \"#utility.yul\":5994:6026   */\n      eq\n        /* \"#utility.yul\":5984:6044   */\n      tag_386\n      jumpi\n        /* \"#utility.yul\":6040:6041   */\n      0x00\n        /* \"#utility.yul\":6037:6038   */\n      dup1\n        /* \"#utility.yul\":6030:6042   */\n      revert\n        /* \"#utility.yul\":5984:6044   */\n    tag_386:\n        /* \"#utility.yul\":5934:6050   */\n      pop\n      jump\t// out\n        /* \"#utility.yul\":6056:6189   */\n    tag_284:\n        /* \"#utility.yul\":6099:6104   */\n      0x00\n        /* \"#utility.yul\":6137:6143   */\n      dup2\n        /* \"#utility.yul\":6124:6144   */\n      calldataload\n        /* \"#utility.yul\":6115:6144   */\n      swap1\n      pop\n        /* \"#utility.yul\":6153:6183   */\n      tag_388\n        /* \"#utility.yul\":6177:6182   */\n      dup2\n        /* \"#utility.yul\":6153:6183   */\n      tag_283\n      jump\t// in\n    tag_388:\n        /* \"#utility.yul\":6056:6189   */\n      swap3\n      swap2\n      pop\n      pop\n      jump\t// out\n        /* \"#utility.yul\":6195:6663   */\n    tag_99:\n        /* \"#utility.yul\":6260:6266   */\n      0x00\n        /* \"#utility.yul\":6268:6274   */\n      dup1\n        /* \"#utility.yul\":6317:6319   */\n      0x40\n        /* \"#utility.yul\":6305:6314   */\n      dup4\n        /* \"#utility.yul\":6296:6303   */\n      dup6\n        /* \"#utility.yul\":6292:6315   */\n      sub\n        /* \"#utility.yul\":6288:6320   */\n      slt\n        /* \"#utility.yul\":6285:6404   */\n      iszero\n      tag_390\n      jumpi\n        /* \"#utility.yul\":6323:6402   */\n      tag_391\n      tag_267\n      jump\t// in\n    tag_391:\n        /* \"#utility.yul\":6285:6404   */\n    tag_390:\n        /* \"#utility.yul\":6443:6444   */\n      0x00\n        /* \"#utility.yul\":6468:6521   */\n      tag_392\n        /* \"#utility.yul\":6513:6520   */\n      dup6\n        /* \"#utility.yul\":6504:6510   */\n      dup3\n        /* \"#utility.yul\":6493:6502   */\n      dup7\n        /* \"#utility.yul\":6489:6511   */\n      add\n        /* \"#utility.yul\":6468:6521   */\n      tag_272\n      jump\t// in\n    tag_392:\n        /* \"#utility.yul\":6458:6521   */\n      swap3\n      pop\n        /* \"#utility.yul\":6414:6531   */\n      pop\n        /* \"#utility.yul\":6570:6572   */\n      0x20\n        /* \"#utility.yul\":6596:6646   */\n      tag_393\n        /* \"#utility.yul\":6638:6645   */\n      dup6\n        /* \"#utility.yul\":6629:6635   */\n      dup3\n        /* \"#utility.yul\":6618:6627   */\n      dup7\n        /* \"#utility.yul\":6614:6636   */\n      add\n        /* \"#utility.yul\":6596:6646   */\n      tag_284\n      jump\t// in\n    tag_393:\n        /* \"#utility.yul\":6586:6646   */\n      swap2\n      pop\n        /* \"#utility.yul\":6541:6656   */\n      pop\n        /* \"#utility.yul\":6195:6663   */\n      swap3\n      pop\n      swap3\n      swap1\n      pop\n      jump\t// out\n        /* \"#utility.yul\":6669:7143   */\n    tag_103:\n        /* \"#utility.yul\":6737:6743   */\n      0x00\n        /* \"#utility.yul\":6745:6751   */\n      dup1\n        /* \"#utility.yul\":6794:6796   */\n      0x40\n        /* \"#utility.yul\":6782:6791   */\n      dup4\n        /* \"#utility.yul\":6773:6780   */\n      dup6\n        /* \"#utility.yul\":6769:6792   */\n      sub\n        /* \"#utility.yul\":6765:6797   */\n      slt\n        /* \"#utility.yul\":6762:6881   */\n      iszero\n      tag_395\n      jumpi\n        /* \"#utility.yul\":6800:6879   */\n      tag_396\n      tag_267\n      jump\t// in\n    tag_396:\n        /* \"#utility.yul\":6762:6881   */\n    tag_395:\n        /* \"#utility.yul\":6920:6921   */\n      0x00\n        /* \"#utility.yul\":6945:6998   */\n      tag_397\n        /* \"#utility.yul\":6990:6997   */\n      dup6\n        /* \"#utility.yul\":6981:6987   */\n      dup3\n        /* \"#utility.yul\":6970:6979   */\n      dup7\n        /* \"#utility.yul\":6966:6988   */\n      add\n        /* \"#utility.yul\":6945:6998   */\n      tag_272\n      jump\t// in\n    tag_397:\n        /* \"#utility.yul\":6935:6998   */\n      swap3\n      pop\n        /* \"#utility.yul\":6891:7008   */\n      pop\n        /* \"#utility.yul\":7047:7049   */\n      0x20\n        /* \"#utility.yul\":7073:7126   */\n      tag_398\n        /* \"#utility.yul\":7118:7125   */\n      dup6\n        /* \"#utility.yul\":7109:7115   */\n      dup3\n        /* \"#utility.yul\":7098:7107   */\n      dup7\n        /* \"#utility.yul\":7094:7116   */\n      add\n        /* \"#utility.yul\":7073:7126   */\n      tag_272\n      jump\t// in\n    tag_398:\n        /* \"#utility.yul\":7063:7126   */\n      swap2\n      pop\n        /* \"#utility.yul\":7018:7136   */\n      pop\n        /* \"#utility.yul\":6669:7143   */\n      swap3\n      pop\n      swap3\n      swap1\n      pop\n      jump\t// out\n        /* \"#utility.yul\":7149:7329   */\n    tag_285:\n        /* \"#utility.yul\":7197:7274   */\n      0x4e487b7100000000000000000000000000000000000000000000000000000000\n        /* \"#utility.yul\":7194:7195   */\n      0x00\n        /* \"#utility.yul\":7187:7275   */\n      mstore\n        /* \"#utility.yul\":7294:7298   */\n      0x22\n        /* \"#utility.yul\":7291:7292   */\n      0x04\n        /* \"#utility.yul\":7284:7299   */\n      mstore\n        /* \"#utility.yul\":7318:7322   */\n      0x24\n        /* \"#utility.yul\":7315:7316   */\n      0x00\n        /* \"#utility.yul\":7308:7323   */\n      revert\n        /* \"#utility.yul\":7335:7655   */\n    tag_108:\n        /* \"#utility.yul\":7379:7385   */\n      0x00\n        /* \"#utility.yul\":7416:7417   */\n      0x02\n        /* \"#utility.yul\":7410:7414   */\n      dup3\n        /* \"#utility.yul\":7406:7418   */\n      div\n        /* \"#utility.yul\":7396:7418   */\n      swap1\n      pop\n        /* \"#utility.yul\":7463:7464   */\n      0x01\n        /* \"#utility.yul\":7457:7461   */\n      dup3\n        /* \"#utility.yul\":7453:7465   */\n      and\n        /* \"#utility.yul\":7484:7502   */\n      dup1\n        /* \"#utility.yul\":7474:7555   */\n      tag_401\n      jumpi\n        /* \"#utility.yul\":7540:7544   */\n      0x7f\n        /* \"#utility.yul\":7532:7538   */\n      dup3\n        /* \"#utility.yul\":7528:7545   */\n      and\n        /* \"#utility.yul\":7518:7545   */\n      swap2\n      pop\n        /* \"#utility.yul\":7474:7555   */\n    tag_401:\n        /* \"#utility.yul\":7602:7604   */\n      0x20\n        /* \"#utility.yul\":7594:7600   */\n      dup3\n        /* \"#utility.yul\":7591:7605   */\n      lt\n        /* \"#utility.yul\":7571:7589   */\n      dup2\n        /* \"#utility.yul\":7568:7606   */\n      sub\n        /* \"#utility.yul\":7565:7649   */\n      tag_402\n      jumpi\n        /* \"#utility.yul\":7621:7639   */\n      tag_403\n      tag_285\n      jump\t// in\n    tag_403:\n        /* \"#utility.yul\":7565:7649   */\n    tag_402:\n        /* \"#utility.yul\":7386:7655   */\n      pop\n        /* \"#utility.yul\":7335:7655   */\n      swap2\n      swap1\n      pop\n      jump\t// out\n        /* \"#utility.yul\":7661:7884   */\n    tag_286:\n        /* \"#utility.yul\":7801:7835   */\n      0x4f6e6c792062657474696e6720636f6e7472616374732063616e2063616c6c20\n        /* \"#utility.yul\":7797:7798   */\n      0x00\n        /* \"#utility.yul\":7789:7795   */\n      dup3\n        /* \"#utility.yul\":7785:7799   */\n      add\n        /* \"#utility.yul\":7778:7836   */\n      mstore\n        /* \"#utility.yul\":7870:7876   */\n      0x7468697300000000000000000000000000000000000000000000000000000000\n        /* \"#utility.yul\":7865:7867   */\n      0x20\n        /* \"#utility.yul\":7857:7863   */\n      dup3\n        /* \"#utility.yul\":7853:7868   */\n      add\n        /* \"#utility.yul\":7846:7877   */\n      mstore\n        /* \"#utility.yul\":7661:7884   */\n      pop\n      jump\t// out\n        /* \"#utility.yul\":7890:8256   */\n    tag_287:\n        /* \"#utility.yul\":8032:8035   */\n      0x00\n        /* \"#utility.yul\":8053:8120   */\n      tag_406\n        /* \"#utility.yul\":8117:8119   */\n      0x24\n        /* \"#utility.yul\":8112:8115   */\n      dup4\n        /* \"#utility.yul\":8053:8120   */\n      tag_262\n      jump\t// in\n    tag_406:\n        /* \"#utility.yul\":8046:8120   */\n      swap2\n      pop\n        /* \"#utility.yul\":8129:8222   */\n      tag_407\n        /* \"#utility.yul\":8218:8221   */\n      dup3\n        /* \"#utility.yul\":8129:8222   */\n      tag_286\n      jump\t// in\n    tag_407:\n        /* \"#utility.yul\":8247:8249   */\n      0x40\n        /* \"#utility.yul\":8242:8245   */\n      dup3\n        /* \"#utility.yul\":8238:8250   */\n      add\n        /* \"#utility.yul\":8231:8250   */\n      swap1\n      pop\n        /* \"#utility.yul\":7890:8256   */\n      swap2\n      swap1\n      pop\n      jump\t// out\n        /* \"#utility.yul\":8262:8681   */\n    tag_121:\n        /* \"#utility.yul\":8428:8432   */\n      0x00\n        /* \"#utility.yul\":8466:8468   */\n      0x20\n        /* \"#utility.yul\":8455:8464   */\n      dup3\n        /* \"#utility.yul\":8451:8469   */\n      add\n        /* \"#utility.yul\":8443:8469   */\n      swap1\n      pop\n        /* \"#utility.yul\":8515:8524   */\n      dup2\n        /* \"#utility.yul\":8509:8513   */\n      dup2\n        /* \"#utility.yul\":8505:8525   */\n      sub\n        /* \"#utility.yul\":8501:8502   */\n      0x00\n        /* \"#utility.yul\":8490:8499   */\n      dup4\n        /* \"#utility.yul\":8486:8503   */\n      add\n        /* \"#utility.yul\":8479:8526   */\n      mstore\n        /* \"#utility.yul\":8543:8674   */\n      tag_409\n        /* \"#utility.yul\":8669:8673   */\n      dup2\n        /* \"#utility.yul\":8543:8674   */\n      tag_287\n      jump\t// in\n    tag_409:\n        /* \"#utility.yul\":8535:8674   */\n      swap1\n      pop\n        /* \"#utility.yul\":8262:8681   */\n      swap2\n      swap1\n      pop\n      jump\t// out\n        /* \"#utility.yul\":8687:8911   */\n    tag_288:\n        /* \"#utility.yul\":8827:8861   */\n      0x4f6e6c7920746865206f776e65722063616e2063616c6c20746869732066756e\n        /* \"#utility.yul\":8823:8824   */\n      0x00\n        /* \"#utility.yul\":8815:8821   */\n      dup3\n        /* \"#utility.yul\":8811:8825   */\n      add\n        /* \"#utility.yul\":8804:8862   */\n      mstore\n        /* \"#utility.yul\":8896:8903   */\n      0x6374696f6e000000000000000000000000000000000000000000000000000000\n        /* \"#utility.yul\":8891:8893   */\n      0x20\n        /* \"#utility.yul\":8883:8889   */\n      dup3\n        /* \"#utility.yul\":8879:8894   */\n      add\n        /* \"#utility.yul\":8872:8904   */\n      mstore\n        /* \"#utility.yul\":8687:8911   */\n      pop\n      jump\t// out\n        /* \"#utility.yul\":8917:9283   */\n    tag_289:\n        /* \"#utility.yul\":9059:9062   */\n      0x00\n        /* \"#utility.yul\":9080:9147   */\n      tag_412\n        /* \"#utility.yul\":9144:9146   */\n      0x25\n        /* \"#utility.yul\":9139:9142   */\n      dup4\n        /* \"#utility.yul\":9080:9147   */\n      tag_262\n      jump\t// in\n    tag_412:\n        /* \"#utility.yul\":9073:9147   */\n      swap2\n      pop\n        /* \"#utility.yul\":9156:9249   */\n      tag_413\n        /* \"#utility.yul\":9245:9248   */\n      dup3\n        /* \"#utility.yul\":9156:9249   */\n      tag_288\n      jump\t// in\n    tag_413:\n        /* \"#utility.yul\":9274:9276   */\n      0x40\n        /* \"#utility.yul\":9269:9272   */\n      dup3\n        /* \"#utility.yul\":9265:9277   */\n      add\n        /* \"#utility.yul\":9258:9277   */\n      swap1\n      pop\n        /* \"#utility.yul\":8917:9283   */\n      swap2\n      swap1\n      pop\n      jump\t// out\n        /* \"#utility.yul\":9289:9708   */\n    tag_128:\n        /* \"#utility.yul\":9455:9459   */\n      0x00\n        /* \"#utility.yul\":9493:9495   */\n      0x20\n        /* \"#utility.yul\":9482:9491   */\n      dup3\n        /* \"#utility.yul\":9478:9496   */\n      add\n        /* \"#utility.yul\":9470:9496   */\n      swap1\n      pop\n        /* \"#utility.yul\":9542:9551   */\n      dup2\n        /* \"#utility.yul\":9536:9540   */\n      dup2\n        /* \"#utility.yul\":9532:9552   */\n      sub\n        /* \"#utility.yul\":9528:9529   */\n      0x00\n        /* \"#utility.yul\":9517:9526   */\n      dup4\n        /* \"#utility.yul\":9513:9530   */\n      add\n        /* \"#utility.yul\":9506:9553   */\n      mstore\n        /* \"#utility.yul\":9570:9701   */\n      tag_415\n        /* \"#utility.yul\":9696:9700   */\n      dup2\n        /* \"#utility.yul\":9570:9701   */\n      tag_289\n      jump\t// in\n    tag_415:\n        /* \"#utility.yul\":9562:9701   */\n      swap1\n      pop\n        /* \"#utility.yul\":9289:9708   */\n      swap2\n      swap1\n      pop\n      jump\t// out\n        /* \"#utility.yul\":9714:9894   */\n    tag_290:\n        /* \"#utility.yul\":9762:9839   */\n      0x4e487b7100000000000000000000000000000000000000000000000000000000\n        /* \"#utility.yul\":9759:9760   */\n      0x00\n        /* \"#utility.yul\":9752:9840   */\n      mstore\n        /* \"#utility.yul\":9859:9863   */\n      0x11\n        /* \"#utility.yul\":9856:9857   */\n      0x04\n        /* \"#utility.yul\":9849:9864   */\n      mstore\n        /* \"#utility.yul\":9883:9887   */\n      0x24\n        /* \"#utility.yul\":9880:9881   */\n      0x00\n        /* \"#utility.yul\":9873:9888   */\n      revert\n        /* \"#utility.yul\":9900:10002   */\n    tag_291:\n        /* \"#utility.yul\":9942:9950   */\n      0x00\n        /* \"#utility.yul\":9989:9994   */\n      dup2\n        /* \"#utility.yul\":9986:9987   */\n      0x01\n        /* \"#utility.yul\":9982:9995   */\n      shr\n        /* \"#utility.yul\":9961:9995   */\n      swap1\n      pop\n        /* \"#utility.yul\":9900:10002   */\n      swap2\n      swap1\n      pop\n      jump\t// out\n        /* \"#utility.yul\":10008:10856   */\n    tag_292:\n        /* \"#utility.yul\":10069:10074   */\n      0x00\n        /* \"#utility.yul\":10076:10080   */\n      dup1\n        /* \"#utility.yul\":10100:10106   */\n      dup3\n        /* \"#utility.yul\":10091:10106   */\n      swap2\n      pop\n        /* \"#utility.yul\":10124:10129   */\n      dup4\n        /* \"#utility.yul\":10115:10129   */\n      swap1\n      pop\n        /* \"#utility.yul\":10138:10850   */\n    tag_419:\n        /* \"#utility.yul\":10159:10160   */\n      0x01\n        /* \"#utility.yul\":10149:10157   */\n      dup6\n        /* \"#utility.yul\":10146:10161   */\n      gt\n        /* \"#utility.yul\":10138:10850   */\n      iszero\n      tag_421\n      jumpi\n        /* \"#utility.yul\":10254:10258   */\n      dup1\n        /* \"#utility.yul\":10249:10252   */\n      dup7\n        /* \"#utility.yul\":10245:10259   */\n      div\n        /* \"#utility.yul\":10239:10243   */\n      dup2\n        /* \"#utility.yul\":10236:10260   */\n      gt\n        /* \"#utility.yul\":10233:10283   */\n      iszero\n      tag_422\n      jumpi\n        /* \"#utility.yul\":10263:10281   */\n      tag_423\n      tag_290\n      jump\t// in\n    tag_423:\n        /* \"#utility.yul\":10233:10283   */\n    tag_422:\n        /* \"#utility.yul\":10313:10314   */\n      0x01\n        /* \"#utility.yul\":10303:10311   */\n      dup6\n        /* \"#utility.yul\":10299:10315   */\n      and\n        /* \"#utility.yul\":10296:10747   */\n      iszero\n      tag_424\n      jumpi\n        /* \"#utility.yul\":10728:10732   */\n      dup1\n        /* \"#utility.yul\":10721:10726   */\n      dup3\n        /* \"#utility.yul\":10717:10733   */\n      mul\n        /* \"#utility.yul\":10708:10733   */\n      swap2\n      pop\n        /* \"#utility.yul\":10296:10747   */\n    tag_424:\n        /* \"#utility.yul\":10778:10782   */\n      dup1\n        /* \"#utility.yul\":10772:10776   */\n      dup2\n        /* \"#utility.yul\":10768:10783   */\n      mul\n        /* \"#utility.yul\":10760:10783   */\n      swap1\n      pop\n        /* \"#utility.yul\":10808:10840   */\n      tag_425\n        /* \"#utility.yul\":10831:10839   */\n      dup6\n        /* \"#utility.yul\":10808:10840   */\n      tag_291\n      jump\t// in\n    tag_425:\n        /* \"#utility.yul\":10796:10840   */\n      swap5\n      pop\n        /* \"#utility.yul\":10138:10850   */\n      jump(tag_419)\n    tag_421:\n        /* \"#utility.yul\":10008:10856   */\n      swap5\n      pop\n      swap5\n      swap3\n      pop\n      pop\n      pop\n      jump\t// out\n        /* \"#utility.yul\":10862:11935   */\n    tag_293:\n        /* \"#utility.yul\":10916:10921   */\n      0x00\n        /* \"#utility.yul\":11107:11115   */\n      dup3\n        /* \"#utility.yul\":11097:11137   */\n      tag_427\n      jumpi\n        /* \"#utility.yul\":11128:11129   */\n      0x01\n        /* \"#utility.yul\":11119:11129   */\n      swap1\n      pop\n        /* \"#utility.yul\":11130:11135   */\n      jump(tag_426)\n        /* \"#utility.yul\":11097:11137   */\n    tag_427:\n        /* \"#utility.yul\":11156:11160   */\n      dup2\n        /* \"#utility.yul\":11146:11182   */\n      tag_428\n      jumpi\n        /* \"#utility.yul\":11173:11174   */\n      0x00\n        /* \"#utility.yul\":11164:11174   */\n      swap1\n      pop\n        /* \"#utility.yul\":11175:11180   */\n      jump(tag_426)\n        /* \"#utility.yul\":11146:11182   */\n    tag_428:\n        /* \"#utility.yul\":11242:11246   */\n      dup2\n        /* \"#utility.yul\":11290:11291   */\n      0x01\n        /* \"#utility.yul\":11285:11312   */\n      dup2\n      eq\n      tag_430\n      jumpi\n        /* \"#utility.yul\":11326:11327   */\n      0x02\n        /* \"#utility.yul\":11321:11512   */\n      dup2\n      eq\n      tag_431\n      jumpi\n        /* \"#utility.yul\":11235:11512   */\n      jump(tag_429)\n        /* \"#utility.yul\":11285:11312   */\n    tag_430:\n        /* \"#utility.yul\":11303:11304   */\n      0x01\n        /* \"#utility.yul\":11294:11304   */\n      swap2\n      pop\n        /* \"#utility.yul\":11305:11310   */\n      pop\n      jump(tag_426)\n        /* \"#utility.yul\":11321:11512   */\n    tag_431:\n        /* \"#utility.yul\":11366:11369   */\n      0xff\n        /* \"#utility.yul\":11356:11364   */\n      dup5\n        /* \"#utility.yul\":11353:11370   */\n      gt\n        /* \"#utility.yul\":11350:11393   */\n      iszero\n      tag_432\n      jumpi\n        /* \"#utility.yul\":11373:11391   */\n      tag_433\n      tag_290\n      jump\t// in\n    tag_433:\n        /* \"#utility.yul\":11350:11393   */\n    tag_432:\n        /* \"#utility.yul\":11422:11430   */\n      dup4\n        /* \"#utility.yul\":11419:11420   */\n      0x02\n        /* \"#utility.yul\":11415:11431   */\n      exp\n        /* \"#utility.yul\":11406:11431   */\n      swap2\n      pop\n        /* \"#utility.yul\":11457:11460   */\n      dup5\n        /* \"#utility.yul\":11450:11455   */\n      dup3\n        /* \"#utility.yul\":11447:11461   */\n      gt\n        /* \"#utility.yul\":11444:11484   */\n      iszero\n      tag_434\n      jumpi\n        /* \"#utility.yul\":11464:11482   */\n      tag_435\n      tag_290\n      jump\t// in\n    tag_435:\n        /* \"#utility.yul\":11444:11484   */\n    tag_434:\n        /* \"#utility.yul\":11497:11502   */\n      pop\n      jump(tag_426)\n        /* \"#utility.yul\":11235:11512   */\n    tag_429:\n      pop\n        /* \"#utility.yul\":11621:11623   */\n      0x20\n        /* \"#utility.yul\":11611:11619   */\n      dup4\n        /* \"#utility.yul\":11608:11624   */\n      lt\n        /* \"#utility.yul\":11602:11605   */\n      0x0133\n        /* \"#utility.yul\":11596:11600   */\n      dup4\n        /* \"#utility.yul\":11593:11606   */\n      lt\n        /* \"#utility.yul\":11589:11625   */\n      and\n        /* \"#utility.yul\":11571:11573   */\n      0x4e\n        /* \"#utility.yul\":11561:11569   */\n      dup5\n        /* \"#utility.yul\":11558:11574   */\n      lt\n        /* \"#utility.yul\":11553:11555   */\n      0x0b\n        /* \"#utility.yul\":11547:11551   */\n      dup5\n        /* \"#utility.yul\":11544:11556   */\n      lt\n        /* \"#utility.yul\":11540:11575   */\n      and\n        /* \"#utility.yul\":11524:11635   */\n      or\n        /* \"#utility.yul\":11521:11767   */\n      iszero\n      tag_436\n      jumpi\n        /* \"#utility.yul\":11677:11685   */\n      dup3\n        /* \"#utility.yul\":11671:11675   */\n      dup3\n        /* \"#utility.yul\":11667:11686   */\n      exp\n        /* \"#utility.yul\":11658:11686   */\n      swap1\n      pop\n        /* \"#utility.yul\":11712:11715   */\n      dup4\n        /* \"#utility.yul\":11705:11710   */\n      dup2\n        /* \"#utility.yul\":11702:11716   */\n      gt\n        /* \"#utility.yul\":11699:11739   */\n      iszero\n      tag_437\n      jumpi\n        /* \"#utility.yul\":11719:11737   */\n      tag_438\n      tag_290\n      jump\t// in\n    tag_438:\n        /* \"#utility.yul\":11699:11739   */\n    tag_437:\n        /* \"#utility.yul\":11752:11757   */\n      jump(tag_426)\n        /* \"#utility.yul\":11521:11767   */\n    tag_436:\n        /* \"#utility.yul\":11792:11834   */\n      tag_439\n        /* \"#utility.yul\":11830:11833   */\n      dup5\n        /* \"#utility.yul\":11820:11828   */\n      dup5\n        /* \"#utility.yul\":11814:11818   */\n      dup5\n        /* \"#utility.yul\":11811:11812   */\n      0x01\n        /* \"#utility.yul\":11792:11834   */\n      tag_292\n      jump\t// in\n    tag_439:\n        /* \"#utility.yul\":11777:11834   */\n      swap3\n      pop\n      swap1\n      pop\n        /* \"#utility.yul\":11866:11870   */\n      dup2\n        /* \"#utility.yul\":11861:11864   */\n      dup5\n        /* \"#utility.yul\":11857:11871   */\n      div\n        /* \"#utility.yul\":11850:11855   */\n      dup2\n        /* \"#utility.yul\":11847:11872   */\n      gt\n        /* \"#utility.yul\":11844:11895   */\n      iszero\n      tag_440\n      jumpi\n        /* \"#utility.yul\":11875:11893   */\n      tag_441\n      tag_290\n      jump\t// in\n    tag_441:\n        /* \"#utility.yul\":11844:11895   */\n    tag_440:\n        /* \"#utility.yul\":11924:11928   */\n      dup2\n        /* \"#utility.yul\":11917:11922   */\n      dup2\n        /* \"#utility.yul\":11913:11929   */\n      mul\n        /* \"#utility.yul\":11904:11929   */\n      swap1\n      pop\n        /* \"#utility.yul\":10862:11935   */\n    tag_426:\n      swap4\n      swap3\n      pop\n      pop\n      pop\n      jump\t// out\n        /* \"#utility.yul\":11941:12222   */\n    tag_132:\n        /* \"#utility.yul\":11999:12004   */\n      0x00\n        /* \"#utility.yul\":12023:12046   */\n      tag_443\n        /* \"#utility.yul\":12041:12045   */\n      dup3\n        /* \"#utility.yul\":12023:12046   */\n      tag_273\n      jump\t// in\n    tag_443:\n        /* \"#utility.yul\":12015:12046   */\n      swap2\n      pop\n        /* \"#utility.yul\":12067:12092   */\n      tag_444\n        /* \"#utility.yul\":12083:12091   */\n      dup4\n        /* \"#utility.yul\":12067:12092   */\n      tag_279\n      jump\t// in\n    tag_444:\n        /* \"#utility.yul\":12055:12092   */\n      swap3\n      pop\n        /* \"#utility.yul\":12111:12215   */\n      tag_445\n        /* \"#utility.yul\":12148:12214   */\n      0xffffffffffffffffffffffffffffffffffffffffffffffffffffffffffffffff\n        /* \"#utility.yul\":12138:12146   */\n      dup5\n        /* \"#utility.yul\":12132:12136   */\n      dup5\n        /* \"#utility.yul\":12111:12215   */\n      tag_293\n      jump\t// in\n    tag_445:\n        /* \"#utility.yul\":12102:12215   */\n      swap1\n      pop\n        /* \"#utility.yul\":11941:12222   */\n      swap3\n      swap2\n      pop\n      pop\n      jump\t// out\n        /* \"#utility.yul\":12228:12638   */\n    tag_134:\n        /* \"#utility.yul\":12268:12275   */\n      0x00\n        /* \"#utility.yul\":12291:12311   */\n      tag_447\n        /* \"#utility.yul\":12309:12310   */\n      dup3\n        /* \"#utility.yul\":12291:12311   */\n      tag_273\n      jump\t// in\n    tag_447:\n        /* \"#utility.yul\":12286:12311   */\n      swap2\n      pop\n        /* \"#utility.yul\":12325:12345   */\n      tag_448\n        /* \"#utility.yul\":12343:12344   */\n      dup4\n        /* \"#utility.yul\":12325:12345   */\n      tag_273\n      jump\t// in\n    tag_448:\n        /* \"#utility.yul\":12320:12345   */\n      swap3\n      pop\n        /* \"#utility.yul\":12380:12381   */\n      dup3\n        /* \"#utility.yul\":12377:12378   */\n      dup3\n        /* \"#utility.yul\":12373:12382   */\n      mul\n        /* \"#utility.yul\":12402:12432   */\n      tag_449\n        /* \"#utility.yul\":12420:12431   */\n      dup2\n        /* \"#utility.yul\":12402:12432   */\n      tag_273\n      jump\t// in\n    tag_449:\n        /* \"#utility.yul\":12391:12432   */\n      swap2\n      pop\n        /* \"#utility.yul\":12581:12582   */\n      dup3\n        /* \"#utility.yul\":12572:12579   */\n      dup3\n        /* \"#utility.yul\":12568:12583   */\n      div\n        /* \"#utility.yul\":12565:12566   */\n      dup5\n        /* \"#utility.yul\":12562:12584   */\n      eq\n        /* \"#utility.yul\":12542:12543   */\n      dup4\n        /* \"#utility.yul\":12535:12544   */\n      iszero\n        /* \"#utility.yul\":12515:12598   */\n      or\n        /* \"#utility.yul\":12492:12631   */\n      tag_450\n      jumpi\n        /* \"#utility.yul\":12611:12629   */\n      tag_451\n      tag_290\n      jump\t// in\n    tag_451:\n        /* \"#utility.yul\":12492:12631   */\n    tag_450:\n        /* \"#utility.yul\":12276:12638   */\n      pop\n        /* \"#utility.yul\":12228:12638   */\n      swap3\n      swap2\n      pop\n      pop\n      jump\t// out\n        /* \"#utility.yul\":12644:12835   */\n    tag_147:\n        /* \"#utility.yul\":12684:12687   */\n      0x00\n        /* \"#utility.yul\":12703:12723   */\n      tag_453\n        /* \"#utility.yul\":12721:12722   */\n      dup3\n        /* \"#utility.yul\":12703:12723   */\n      tag_273\n      jump\t// in\n    tag_453:\n        /* \"#utility.yul\":12698:12723   */\n      swap2\n      pop\n        /* \"#utility.yul\":12737:12757   */\n      tag_454\n        /* \"#utility.yul\":12755:12756   */\n      dup4\n        /* \"#utility.yul\":12737:12757   */\n      tag_273\n      jump\t// in\n    tag_454:\n        /* \"#utility.yul\":12732:12757   */\n      swap3\n      pop\n        /* \"#utility.yul\":12780:12781   */\n      dup3\n        /* \"#utility.yul\":12777:12778   */\n      dup3\n        /* \"#utility.yul\":12773:12782   */\n      add\n        /* \"#utility.yul\":12766:12782   */\n      swap1\n      pop\n        /* \"#utility.yul\":12801:12804   */\n      dup1\n        /* \"#utility.yul\":12798:12799   */\n      dup3\n        /* \"#utility.yul\":12795:12805   */\n      gt\n        /* \"#utility.yul\":12792:12828   */\n      iszero\n      tag_455\n      jumpi\n        /* \"#utility.yul\":12808:12826   */\n      tag_456\n      tag_290\n      jump\t// in\n    tag_456:\n        /* \"#utility.yul\":12792:12828   */\n    tag_455:\n        /* \"#utility.yul\":12644:12835   */\n      swap3\n      swap2\n      pop\n      pop\n      jump\t// out\n        /* \"#utility.yul\":12841:13065   */\n    tag_294:\n        /* \"#utility.yul\":12981:13015   */\n      0x45524332303a2064656372656173656420616c6c6f77616e63652062656c6f77\n        /* \"#utility.yul\":12977:12978   */\n      0x00\n        /* \"#utility.yul\":12969:12975   */\n      dup3\n        /* \"#utility.yul\":12965:12979   */\n      add\n        /* \"#utility.yul\":12958:13016   */\n      mstore\n        /* \"#utility.yul\":13050:13057   */\n      0x207a65726f000000000000000000000000000000000000000000000000000000\n        /* \"#utility.yul\":13045:13047   */\n      0x20\n        /* \"#utility.yul\":13037:13043   */\n      dup3\n        /* \"#utility.yul\":13033:13048   */\n      add\n        /* \"#utility.yul\":13026:13058   */\n      mstore\n        /* \"#utility.yul\":12841:13065   */\n      pop\n      jump\t// out\n        /* \"#utility.yul\":13071:13437   */\n    tag_295:\n        /* \"#utility.yul\":13213:13216   */\n      0x00\n        /* \"#utility.yul\":13234:13301   */\n      tag_459\n        /* \"#utility.yul\":13298:13300   */\n      0x25\n        /* \"#utility.yul\":13293:13296   */\n      dup4\n        /* \"#utility.yul\":13234:13301   */\n      tag_262\n      jump\t// in\n    tag_459:\n        /* \"#utility.yul\":13227:13301   */\n      swap2\n      pop\n        /* \"#utility.yul\":13310:13403   */\n      tag_460\n        /* \"#utility.yul\":13399:13402   */\n      dup3\n        /* \"#utility.yul\":13310:13403   */\n      tag_294\n      jump\t// in\n    tag_460:\n        /* \"#utility.yul\":13428:13430   */\n      0x40\n        /* \"#utility.yul\":13423:13426   */\n      dup3\n        /* \"#utility.yul\":13419:13431   */\n      add\n        /* \"#utility.yul\":13412:13431   */\n      swap1\n      pop\n        /* \"#utility.yul\":13071:13437   */\n      swap2\n      swap1\n      pop\n      jump\t// out\n        /* \"#utility.yul\":13443:13862   */\n    tag_168:\n        /* \"#utility.yul\":13609:13613   */\n      0x00\n        /* \"#utility.yul\":13647:13649   */\n      0x20\n        /* \"#utility.yul\":13636:13645   */\n      dup3\n        /* \"#utility.yul\":13632:13650   */\n      add\n        /* \"#utility.yul\":13624:13650   */\n      swap1\n      pop\n        /* \"#utility.yul\":13696:13705   */\n      dup2\n        /* \"#utility.yul\":13690:13694   */\n      dup2\n        /* \"#utility.yul\":13686:13706   */\n      sub\n        /* \"#utility.yul\":13682:13683   */\n      0x00\n        /* \"#utility.yul\":13671:13680   */\n      dup4\n        /* \"#utility.yul\":13667:13684   */\n      add\n        /* \"#utility.yul\":13660:13707   */\n      mstore\n        /* \"#utility.yul\":13724:13855   */\n      tag_462\n        /* \"#utility.yul\":13850:13854   */\n      dup2\n        /* \"#utility.yul\":13724:13855   */\n      tag_295\n      jump\t// in\n    tag_462:\n        /* \"#utility.yul\":13716:13855   */\n      swap1\n      pop\n        /* \"#utility.yul\":13443:13862   */\n      swap2\n      swap1\n      pop\n      jump\t// out\n        /* \"#utility.yul\":13868:14091   */\n    tag_296:\n        /* \"#utility.yul\":14008:14042   */\n      0x45524332303a20617070726f76652066726f6d20746865207a65726f20616464\n        /* \"#utility.yul\":14004:14005   */\n      0x00\n        /* \"#utility.yul\":13996:14002   */\n      dup3\n        /* \"#utility.yul\":13992:14006   */\n      add\n        /* \"#utility.yul\":13985:14043   */\n      mstore\n        /* \"#utility.yul\":14077:14083   */\n      0x7265737300000000000000000000000000000000000000000000000000000000\n        /* \"#utility.yul\":14072:14074   */\n      0x20\n        /* \"#utility.yul\":14064:14070   */\n      dup3\n        /* \"#utility.yul\":14060:14075   */\n      add\n        /* \"#utility.yul\":14053:14084   */\n      mstore\n        /* \"#utility.yul\":13868:14091   */\n      pop\n      jump\t// out\n        /* \"#utility.yul\":14097:14463   */\n    tag_297:\n        /* \"#utility.yul\":14239:14242   */\n      0x00\n        /* \"#utility.yul\":14260:14327   */\n      tag_465\n        /* \"#utility.yul\":14324:14326   */\n      0x24\n        /* \"#utility.yul\":14319:14322   */\n      dup4\n        /* \"#utility.yul\":14260:14327   */\n      tag_262\n      jump\t// in\n    tag_465:\n        /* \"#utility.yul\":14253:14327   */\n      swap2\n      pop\n        /* \"#utility.yul\":14336:14429   */\n      tag_466\n        /* \"#utility.yul\":14425:14428   */\n      dup3\n        /* \"#utility.yul\":14336:14429   */\n      tag_296\n      jump\t// in\n    tag_466:\n        /* \"#utility.yul\":14454:14456   */\n      0x40\n        /* \"#utility.yul\":14449:14452   */\n      dup3\n        /* \"#utility.yul\":14445:14457   */\n      add\n        /* \"#utility.yul\":14438:14457   */\n      swap1\n      pop\n        /* \"#utility.yul\":14097:14463   */\n      swap2\n      swap1\n      pop\n      jump\t// out\n        /* \"#utility.yul\":14469:14888   */\n    tag_182:\n        /* \"#utility.yul\":14635:14639   */\n      0x00\n        /* \"#utility.yul\":14673:14675   */\n      0x20\n        /* \"#utility.yul\":14662:14671   */\n      dup3\n        /* \"#utility.yul\":14658:14676   */\n      add\n        /* \"#utility.yul\":14650:14676   */\n      swap1\n      pop\n        /* \"#utility.yul\":14722:14731   */\n      dup2\n        /* \"#utility.yul\":14716:14720   */\n      dup2\n        /* \"#utility.yul\":14712:14732   */\n      sub\n        /* \"#utility.yul\":14708:14709   */\n      0x00\n        /* \"#utility.yul\":14697:14706   */\n      dup4\n        /* \"#utility.yul\":14693:14710   */\n      add\n        /* \"#utility.yul\":14686:14733   */\n      mstore\n        /* \"#utility.yul\":14750:14881   */\n      tag_468\n        /* \"#utility.yul\":14876:14880   */\n      dup2\n        /* \"#utility.yul\":14750:14881   */\n      tag_297\n      jump\t// in\n    tag_468:\n        /* \"#utility.yul\":14742:14881   */\n      swap1\n      pop\n        /* \"#utility.yul\":14469:14888   */\n      swap2\n      swap1\n      pop\n      jump\t// out\n        /* \"#utility.yul\":14894:15115   */\n    tag_298:\n        /* \"#utility.yul\":15034:15068   */\n      0x45524332303a20617070726f766520746f20746865207a65726f206164647265\n        /* \"#utility.yul\":15030:15031   */\n      0x00\n        /* \"#utility.yul\":15022:15028   */\n      dup3\n        /* \"#utility.yul\":15018:15032   */\n      add\n        /* \"#utility.yul\":15011:15069   */\n      mstore\n        /* \"#utility.yul\":15103:15107   */\n      0x7373000000000000000000000000000000000000000000000000000000000000\n        /* \"#utility.yul\":15098:15100   */\n      0x20\n        /* \"#utility.yul\":15090:15096   */\n      dup3\n        /* \"#utility.yul\":15086:15101   */\n      add\n        /* \"#utility.yul\":15079:15108   */\n      mstore\n        /* \"#utility.yul\":14894:15115   */\n      pop\n      jump\t// out\n        /* \"#utility.yul\":15121:15487   */\n    tag_299:\n        /* \"#utility.yul\":15263:15266   */\n      0x00\n        /* \"#utility.yul\":15284:15351   */\n      tag_471\n        /* \"#utility.yul\":15348:15350   */\n      0x22\n        /* \"#utility.yul\":15343:15346   */\n      dup4\n        /* \"#utility.yul\":15284:15351   */\n      tag_262\n      jump\t// in\n    tag_471:\n        /* \"#utility.yul\":15277:15351   */\n      swap2\n      pop\n        /* \"#utility.yul\":15360:15453   */\n      tag_472\n        /* \"#utility.yul\":15449:15452   */\n      dup3\n        /* \"#utility.yul\":15360:15453   */\n      tag_298\n      jump\t// in\n    tag_472:\n        /* \"#utility.yul\":15478:15480   */\n      0x40\n        /* \"#utility.yul\":15473:15476   */\n      dup3\n        /* \"#utility.yul\":15469:15481   */\n      add\n        /* \"#utility.yul\":15462:15481   */\n      swap1\n      pop\n        /* \"#utility.yul\":15121:15487   */\n      swap2\n      swap1\n      pop\n      jump\t// out\n        /* \"#utility.yul\":15493:15912   */\n    tag_185:\n        /* \"#utility.yul\":15659:15663   */\n      0x00\n        /* \"#utility.yul\":15697:15699   */\n      0x20\n        /* \"#utility.yul\":15686:15695   */\n      dup3\n        /* \"#utility.yul\":15682:15700   */\n      add\n        /* \"#utility.yul\":15674:15700   */\n      swap1\n      pop\n        /* \"#utility.yul\":15746:15755   */\n      dup2\n        /* \"#utility.yul\":15740:15744   */\n      dup2\n        /* \"#utility.yul\":15736:15756   */\n      sub\n        /* \"#utility.yul\":15732:15733   */\n      0x00\n        /* \"#utility.yul\":15721:15730   */\n      dup4\n        /* \"#utility.yul\":15717:15734   */\n      add\n        /* \"#utility.yul\":15710:15757   */\n      mstore\n        /* \"#utility.yul\":15774:15905   */\n      tag_474\n        /* \"#utility.yul\":15900:15904   */\n      dup2\n        /* \"#utility.yul\":15774:15905   */\n      tag_299\n      jump\t// in\n    tag_474:\n        /* \"#utility.yul\":15766:15905   */\n      swap1\n      pop\n        /* \"#utility.yul\":15493:15912   */\n      swap2\n      swap1\n      pop\n      jump\t// out\n        /* \"#utility.yul\":15918:16142   */\n    tag_300:\n        /* \"#utility.yul\":16058:16092   */\n      0x45524332303a207472616e736665722066726f6d20746865207a65726f206164\n        /* \"#utility.yul\":16054:16055   */\n      0x00\n        /* \"#utility.yul\":16046:16052   */\n      dup3\n        /* \"#utility.yul\":16042:16056   */\n      add\n        /* \"#utility.yul\":16035:16093   */\n      mstore\n        /* \"#utility.yul\":16127:16134   */\n      0x6472657373000000000000000000000000000000000000000000000000000000\n        /* \"#utility.yul\":16122:16124   */\n      0x20\n        /* \"#utility.yul\":16114:16120   */\n      dup3\n        /* \"#utility.yul\":16110:16125   */\n      add\n        /* \"#utility.yul\":16103:16135   */\n      mstore\n        /* \"#utility.yul\":15918:16142   */\n      pop\n      jump\t// out\n        /* \"#utility.yul\":16148:16514   */\n    tag_301:\n        /* \"#utility.yul\":16290:16293   */\n      0x00\n        /* \"#utility.yul\":16311:16378   */\n      tag_477\n        /* \"#utility.yul\":16375:16377   */\n      0x25\n        /* \"#utility.yul\":16370:16373   */\n      dup4\n        /* \"#utility.yul\":16311:16378   */\n      tag_262\n      jump\t// in\n    tag_477:\n        /* \"#utility.yul\":16304:16378   */\n      swap2\n      pop\n        /* \"#utility.yul\":16387:16480   */\n      tag_478\n        /* \"#utility.yul\":16476:16479   */\n      dup3\n        /* \"#utility.yul\":16387:16480   */\n      tag_300\n      jump\t// in\n    tag_478:\n        /* \"#utility.yul\":16505:16507   */\n      0x40\n        /* \"#utility.yul\":16500:16503   */\n      dup3\n        /* \"#utility.yul\":16496:16508   */\n      add\n        /* \"#utility.yul\":16489:16508   */\n      swap1\n      pop\n        /* \"#utility.yul\":16148:16514   */\n      swap2\n      swap1\n      pop\n      jump\t// out\n        /* \"#utility.yul\":16520:16939   */\n    tag_190:\n        /* \"#utility.yul\":16686:16690   */\n      0x00\n        /* \"#utility.yul\":16724:16726   */\n      0x20\n        /* \"#utility.yul\":16713:16722   */\n      dup3\n        /* \"#utility.yul\":16709:16727   */\n      add\n        /* \"#utility.yul\":16701:16727   */\n      swap1\n      pop\n        /* \"#utility.yul\":16773:16782   */\n      dup2\n        /* \"#utility.yul\":16767:16771   */\n      dup2\n        /* \"#utility.yul\":16763:16783   */\n      sub\n        /* \"#utility.yul\":16759:16760   */\n      0x00\n        /* \"#utility.yul\":16748:16757   */\n      dup4\n        /* \"#utility.yul\":16744:16761   */\n      add\n        /* \"#utility.yul\":16737:16784   */\n      mstore\n        /* \"#utility.yul\":16801:16932   */\n      tag_480\n        /* \"#utility.yul\":16927:16931   */\n      dup2\n        /* \"#utility.yul\":16801:16932   */\n      tag_301\n      jump\t// in\n    tag_480:\n        /* \"#utility.yul\":16793:16932   */\n      swap1\n      pop\n        /* \"#utility.yul\":16520:16939   */\n      swap2\n      swap1\n      pop\n      jump\t// out\n        /* \"#utility.yul\":16945:17167   */\n    tag_302:\n        /* \"#utility.yul\":17085:17119   */\n      0x45524332303a207472616e7366657220746f20746865207a65726f2061646472\n        /* \"#utility.yul\":17081:17082   */\n      0x00\n        /* \"#utility.yul\":17073:17079   */\n      dup3\n        /* \"#utility.yul\":17069:17083   */\n      add\n        /* \"#utility.yul\":17062:17120   */\n      mstore\n        /* \"#utility.yul\":17154:17159   */\n      0x6573730000000000000000000000000000000000000000000000000000000000\n        /* \"#utility.yul\":17149:17151   */\n      0x20\n        /* \"#utility.yul\":17141:17147   */\n      dup3\n        /* \"#utility.yul\":17137:17152   */\n      add\n        /* \"#utility.yul\":17130:17160   */\n      mstore\n        /* \"#utility.yul\":16945:17167   */\n      pop\n      jump\t// out\n        /* \"#utility.yul\":17173:17539   */\n    tag_303:\n        /* \"#utility.yul\":17315:17318   */\n      0x00\n        /* \"#utility.yul\":17336:17403   */\n      tag_483\n        /* \"#utility.yul\":17400:17402   */\n      0x23\n        /* \"#utility.yul\":17395:17398   */\n      dup4\n        /* \"#utility.yul\":17336:17403   */\n      tag_262\n      jump\t// in\n    tag_483:\n        /* \"#utility.yul\":17329:17403   */\n      swap2\n      pop\n        /* \"#utility.yul\":17412:17505   */\n      tag_484\n        /* \"#utility.yul\":17501:17504   */\n      dup3\n        /* \"#utility.yul\":17412:17505   */\n      tag_302\n      jump\t// in\n    tag_484:\n        /* \"#utility.yul\":17530:17532   */\n      0x40\n        /* \"#utility.yul\":17525:17528   */\n      dup3\n        /* \"#utility.yul\":17521:17533   */\n      add\n        /* \"#utility.yul\":17514:17533   */\n      swap1\n      pop\n        /* \"#utility.yul\":17173:17539   */\n      swap2\n      swap1\n      pop\n      jump\t// out\n        /* \"#utility.yul\":17545:17964   */\n    tag_193:\n        /* \"#utility.yul\":17711:17715   */\n      0x00\n        /* \"#utility.yul\":17749:17751   */\n      0x20\n        /* \"#utility.yul\":17738:17747   */\n      dup3\n        /* \"#utility.yul\":17734:17752   */\n      add\n        /* \"#utility.yul\":17726:17752   */\n      swap1\n      pop\n        /* \"#utility.yul\":17798:17807   */\n      dup2\n        /* \"#utility.yul\":17792:17796   */\n      dup2\n        /* \"#utility.yul\":17788:17808   */\n      sub\n        /* \"#utility.yul\":17784:17785   */\n      0x00\n        /* \"#utility.yul\":17773:17782   */\n      dup4\n        /* \"#utility.yul\":17769:17786   */\n      add\n        /* \"#utility.yul\":17762:17809   */\n      mstore\n        /* \"#utility.yul\":17826:17957   */\n      tag_486\n        /* \"#utility.yul\":17952:17956   */\n      dup2\n        /* \"#utility.yul\":17826:17957   */\n      tag_303\n      jump\t// in\n    tag_486:\n        /* \"#utility.yul\":17818:17957   */\n      swap1\n      pop\n        /* \"#utility.yul\":17545:17964   */\n      swap2\n      swap1\n      pop\n      jump\t// out\n        /* \"#utility.yul\":17970:18195   */\n    tag_304:\n        /* \"#utility.yul\":18110:18144   */\n      0x45524332303a207472616e7366657220616d6f756e7420657863656564732062\n        /* \"#utility.yul\":18106:18107   */\n      0x00\n        /* \"#utility.yul\":18098:18104   */\n      dup3\n        /* \"#utility.yul\":18094:18108   */\n      add\n        /* \"#utility.yul\":18087:18145   */\n      mstore\n        /* \"#utility.yul\":18179:18187   */\n      0x616c616e63650000000000000000000000000000000000000000000000000000\n        /* \"#utility.yul\":18174:18176   */\n      0x20\n        /* \"#utility.yul\":18166:18172   */\n      dup3\n        /* \"#utility.yul\":18162:18177   */\n      add\n        /* \"#utility.yul\":18155:18188   */\n      mstore\n        /* \"#utility.yul\":17970:18195   */\n      pop\n      jump\t// out\n        /* \"#utility.yul\":18201:18567   */\n    tag_305:\n        /* \"#utility.yul\":18343:18346   */\n      0x00\n        /* \"#utility.yul\":18364:18431   */\n      tag_489\n        /* \"#utility.yul\":18428:18430   */\n      0x26\n        /* \"#utility.yul\":18423:18426   */\n      dup4\n        /* \"#utility.yul\":18364:18431   */\n      tag_262\n      jump\t// in\n    tag_489:\n        /* \"#utility.yul\":18357:18431   */\n      swap2\n      pop\n        /* \"#utility.yul\":18440:18533   */\n      tag_490\n        /* \"#utility.yul\":18529:18532   */\n      dup3\n        /* \"#utility.yul\":18440:18533   */\n      tag_304\n      jump\t// in\n    tag_490:\n        /* \"#utility.yul\":18558:18560   */\n      0x40\n        /* \"#utility.yul\":18553:18556   */\n      dup3\n        /* \"#utility.yul\":18549:18561   */\n      add\n        /* \"#utility.yul\":18542:18561   */\n      swap1\n      pop\n        /* \"#utility.yul\":18201:18567   */\n      swap2\n      swap1\n      pop\n      jump\t// out\n        /* \"#utility.yul\":18573:18992   */\n    tag_198:\n        /* \"#utility.yul\":18739:18743   */\n      0x00\n        /* \"#utility.yul\":18777:18779   */\n      0x20\n        /* \"#utility.yul\":18766:18775   */\n      dup3\n        /* \"#utility.yul\":18762:18780   */\n      add\n        /* \"#utility.yul\":18754:18780   */\n      swap1\n      pop\n        /* \"#utility.yul\":18826:18835   */\n      dup2\n        /* \"#utility.yul\":18820:18824   */\n      dup2\n        /* \"#utility.yul\":18816:18836   */\n      sub\n        /* \"#utility.yul\":18812:18813   */\n      0x00\n        /* \"#utility.yul\":18801:18810   */\n      dup4\n        /* \"#utility.yul\":18797:18814   */\n      add\n        /* \"#utility.yul\":18790:18837   */\n      mstore\n        /* \"#utility.yul\":18854:18985   */\n      tag_492\n        /* \"#utility.yul\":18980:18984   */\n      dup2\n        /* \"#utility.yul\":18854:18985   */\n      tag_305\n      jump\t// in\n    tag_492:\n        /* \"#utility.yul\":18846:18985   */\n      swap1\n      pop\n        /* \"#utility.yul\":18573:18992   */\n      swap2\n      swap1\n      pop\n      jump\t// out\n        /* \"#utility.yul\":18998:19177   */\n    tag_306:\n        /* \"#utility.yul\":19138:19169   */\n      0x45524332303a20696e73756666696369656e7420616c6c6f77616e6365000000\n        /* \"#utility.yul\":19134:19135   */\n      0x00\n        /* \"#utility.yul\":19126:19132   */\n      dup3\n        /* \"#utility.yul\":19122:19136   */\n      add\n        /* \"#utility.yul\":19115:19170   */\n      mstore\n        /* \"#utility.yul\":18998:19177   */\n      pop\n      jump\t// out\n        /* \"#utility.yul\":19183:19549   */\n    tag_307:\n        /* \"#utility.yul\":19325:19328   */\n      0x00\n        /* \"#utility.yul\":19346:19413   */\n      tag_495\n        /* \"#utility.yul\":19410:19412   */\n      0x1d\n        /* \"#utility.yul\":19405:19408   */\n      dup4\n        /* \"#utility.yul\":19346:19413   */\n      tag_262\n      jump\t// in\n    tag_495:\n        /* \"#utility.yul\":19339:19413   */\n      swap2\n      pop\n        /* \"#utility.yul\":19422:19515   */\n      tag_496\n        /* \"#utility.yul\":19511:19514   */\n      dup3\n        /* \"#utility.yul\":19422:19515   */\n      tag_306\n      jump\t// in\n    tag_496:\n        /* \"#utility.yul\":19540:19542   */\n      0x20\n        /* \"#utility.yul\":19535:19538   */\n      dup3\n        /* \"#utility.yul\":19531:19543   */\n      add\n        /* \"#utility.yul\":19524:19543   */\n      swap1\n      pop\n        /* \"#utility.yul\":19183:19549   */\n      swap2\n      swap1\n      pop\n      jump\t// out\n        /* \"#utility.yul\":19555:19974   */\n    tag_207:\n        /* \"#utility.yul\":19721:19725   */\n      0x00\n        /* \"#utility.yul\":19759:19761   */\n      0x20\n        /* \"#utility.yul\":19748:19757   */\n      dup3\n        /* \"#utility.yul\":19744:19762   */\n      add\n        /* \"#utility.yul\":19736:19762   */\n      swap1\n      pop\n        /* \"#utility.yul\":19808:19817   */\n      dup2\n        /* \"#utility.yul\":19802:19806   */\n      dup2\n        /* \"#utility.yul\":19798:19818   */\n      sub\n        /* \"#utility.yul\":19794:19795   */\n      0x00\n        /* \"#utility.yul\":19783:19792   */\n      dup4\n        /* \"#utility.yul\":19779:19796   */\n      add\n        /* \"#utility.yul\":19772:19819   */\n      mstore\n        /* \"#utility.yul\":19836:19967   */\n      tag_498\n        /* \"#utility.yul\":19962:19966   */\n      dup2\n        /* \"#utility.yul\":19836:19967   */\n      tag_307\n      jump\t// in\n    tag_498:\n        /* \"#utility.yul\":19828:19967   */\n      swap1\n      pop\n        /* \"#utility.yul\":19555:19974   */\n      swap2\n      swap1\n      pop\n      jump\t// out\n        /* \"#utility.yul\":19980:20200   */\n    tag_308:\n        /* \"#utility.yul\":20120:20154   */\n      0x45524332303a206275726e2066726f6d20746865207a65726f20616464726573\n        /* \"#utility.yul\":20116:20117   */\n      0x00\n        /* \"#utility.yul\":20108:20114   */\n      dup3\n        /* \"#utility.yul\":20104:20118   */\n      add\n        /* \"#utility.yul\":20097:20155   */\n      mstore\n        /* \"#utility.yul\":20189:20192   */\n      0x7300000000000000000000000000000000000000000000000000000000000000\n        /* \"#utility.yul\":20184:20186   */\n      0x20\n        /* \"#utility.yul\":20176:20182   */\n      dup3\n        /* \"#utility.yul\":20172:20187   */\n      add\n        /* \"#utility.yul\":20165:20193   */\n      mstore\n        /* \"#utility.yul\":19980:20200   */\n      pop\n      jump\t// out\n        /* \"#utility.yul\":20206:20572   */\n    tag_309:\n        /* \"#utility.yul\":20348:20351   */\n      0x00\n        /* \"#utility.yul\":20369:20436   */\n      tag_501\n        /* \"#utility.yul\":20433:20435   */\n      0x21\n        /* \"#utility.yul\":20428:20431   */\n      dup4\n        /* \"#utility.yul\":20369:20436   */\n      tag_262\n      jump\t// in\n    tag_501:\n        /* \"#utility.yul\":20362:20436   */\n      swap2\n      pop\n        /* \"#utility.yul\":20445:20538   */\n      tag_502\n        /* \"#utility.yul\":20534:20537   */\n      dup3\n        /* \"#utility.yul\":20445:20538   */\n      tag_308\n      jump\t// in\n    tag_502:\n        /* \"#utility.yul\":20563:20565   */\n      0x40\n        /* \"#utility.yul\":20558:20561   */\n      dup3\n        /* \"#utility.yul\":20554:20566   */\n      add\n        /* \"#utility.yul\":20547:20566   */\n      swap1\n      pop\n        /* \"#utility.yul\":20206:20572   */\n      swap2\n      swap1\n      pop\n      jump\t// out\n        /* \"#utility.yul\":20578:20997   */\n    tag_212:\n        /* \"#utility.yul\":20744:20748   */\n      0x00\n        /* \"#utility.yul\":20782:20784   */\n      0x20\n        /* \"#utility.yul\":20771:20780   */\n      dup3\n        /* \"#utility.yul\":20767:20785   */\n      add\n        /* \"#utility.yul\":20759:20785   */\n      swap1\n      pop\n        /* \"#utility.yul\":20831:20840   */\n      dup2\n        /* \"#utility.yul\":20825:20829   */\n      dup2\n        /* \"#utility.yul\":20821:20841   */\n      sub\n        /* \"#utility.yul\":20817:20818   */\n      0x00\n        /* \"#utility.yul\":20806:20815   */\n      dup4\n        /* \"#utility.yul\":20802:20819   */\n      add\n        /* \"#utility.yul\":20795:20842   */\n      mstore\n        /* \"#utility.yul\":20859:20990   */\n      tag_504\n        /* \"#utility.yul\":20985:20989   */\n      dup2\n        /* \"#utility.yul\":20859:20990   */\n      tag_309\n      jump\t// in\n    tag_504:\n        /* \"#utility.yul\":20851:20990   */\n      swap1\n      pop\n        /* \"#utility.yul\":20578:20997   */\n      swap2\n      swap1\n      pop\n      jump\t// out\n        /* \"#utility.yul\":21003:21224   */\n    tag_310:\n        /* \"#utility.yul\":21143:21177   */\n      0x45524332303a206275726e20616d6f756e7420657863656564732062616c616e\n        /* \"#utility.yul\":21139:21140   */\n      0x00\n        /* \"#utility.yul\":21131:21137   */\n      dup3\n        /* \"#utility.yul\":21127:21141   */\n      add\n        /* \"#utility.yul\":21120:21178   */\n      mstore\n        /* \"#utility.yul\":21212:21216   */\n      0x6365000000000000000000000000000000000000000000000000000000000000\n        /* \"#utility.yul\":21207:21209   */\n      0x20\n        /* \"#utility.yul\":21199:21205   */\n      dup3\n        /* \"#utility.yul\":21195:21210   */\n      add\n        /* \"#utility.yul\":21188:21217   */\n      mstore\n        /* \"#utility.yul\":21003:21224   */\n      pop\n      jump\t// out\n        /* \"#utility.yul\":21230:21596   */\n    tag_311:\n        /* \"#utility.yul\":21372:21375   */\n      0x00\n        /* \"#utility.yul\":21393:21460   */\n      tag_507\n        /* \"#utility.yul\":21457:21459   */\n      0x22\n        /* \"#utility.yul\":21452:21455   */\n      dup4\n        /* \"#utility.yul\":21393:21460   */\n      tag_262\n      jump\t// in\n    tag_507:\n        /* \"#utility.yul\":21386:21460   */\n      swap2\n      pop\n        /* \"#utility.yul\":21469:21562   */\n      tag_508\n        /* \"#utility.yul\":21558:21561   */\n      dup3\n        /* \"#utility.yul\":21469:21562   */\n      tag_310\n      jump\t// in\n    tag_508:\n        /* \"#utility.yul\":21587:21589   */\n      0x40\n        /* \"#utility.yul\":21582:21585   */\n      dup3\n        /* \"#utility.yul\":21578:21590   */\n      add\n        /* \"#utility.yul\":21571:21590   */\n      swap1\n      pop\n        /* \"#utility.yul\":21230:21596   */\n      swap2\n      swap1\n      pop\n      jump\t// out\n        /* \"#utility.yul\":21602:22021   */\n    tag_216:\n        /* \"#utility.yul\":21768:21772   */\n      0x00\n        /* \"#utility.yul\":21806:21808   */\n      0x20\n        /* \"#utility.yul\":21795:21804   */\n      dup3\n        /* \"#utility.yul\":21791:21809   */\n      add\n        /* \"#utility.yul\":21783:21809   */\n      swap1\n      pop\n        /* \"#utility.yul\":21855:21864   */\n      dup2\n        /* \"#utility.yul\":21849:21853   */\n      dup2\n        /* \"#utility.yul\":21845:21865   */\n      sub\n        /* \"#utility.yul\":21841:21842   */\n      0x00\n        /* \"#utility.yul\":21830:21839   */\n      dup4\n        /* \"#utility.yul\":21826:21843   */\n      add\n        /* \"#utility.yul\":21819:21866   */\n      mstore\n        /* \"#utility.yul\":21883:22014   */\n      tag_510\n        /* \"#utility.yul\":22009:22013   */\n      dup2\n        /* \"#utility.yul\":21883:22014   */\n      tag_311\n      jump\t// in\n    tag_510:\n        /* \"#utility.yul\":21875:22014   */\n      swap1\n      pop\n        /* \"#utility.yul\":21602:22021   */\n      swap2\n      swap1\n      pop\n      jump\t// out\n        /* \"#utility.yul\":22027:22202   */\n    tag_312:\n        /* \"#utility.yul\":22167:22194   */\n      0x45524332304361707065643a2063617020657863656564656400000000000000\n        /* \"#utility.yul\":22163:22164   */\n      0x00\n        /* \"#utility.yul\":22155:22161   */\n      dup3\n        /* \"#utility.yul\":22151:22165   */\n      add\n        /* \"#utility.yul\":22144:22195   */\n      mstore\n        /* \"#utility.yul\":22027:22202   */\n      pop\n      jump\t// out\n        /* \"#utility.yul\":22208:22574   */\n    tag_313:\n        /* \"#utility.yul\":22350:22353   */\n      0x00\n        /* \"#utility.yul\":22371:22438   */\n      tag_513\n        /* \"#utility.yul\":22435:22437   */\n      0x19\n        /* \"#utility.yul\":22430:22433   */\n      dup4\n        /* \"#utility.yul\":22371:22438   */\n      tag_262\n      jump\t// in\n    tag_513:\n        /* \"#utility.yul\":22364:22438   */\n      swap2\n      pop\n        /* \"#utility.yul\":22447:22540   */\n      tag_514\n        /* \"#utility.yul\":22536:22539   */\n      dup3\n        /* \"#utility.yul\":22447:22540   */\n      tag_312\n      jump\t// in\n    tag_514:\n        /* \"#utility.yul\":22565:22567   */\n      0x20\n        /* \"#utility.yul\":22560:22563   */\n      dup3\n        /* \"#utility.yul\":22556:22568   */\n      add\n        /* \"#utility.yul\":22549:22568   */\n      swap1\n      pop\n        /* \"#utility.yul\":22208:22574   */\n      swap2\n      swap1\n      pop\n      jump\t// out\n        /* \"#utility.yul\":22580:22999   */\n    tag_242:\n        /* \"#utility.yul\":22746:22750   */\n      0x00\n        /* \"#utility.yul\":22784:22786   */\n      0x20\n        /* \"#utility.yul\":22773:22782   */\n      dup3\n        /* \"#utility.yul\":22769:22787   */\n      add\n        /* \"#utility.yul\":22761:22787   */\n      swap1\n      pop\n        /* \"#utility.yul\":22833:22842   */\n      dup2\n        /* \"#utility.yul\":22827:22831   */\n      dup2\n        /* \"#utility.yul\":22823:22843   */\n      sub\n        /* \"#utility.yul\":22819:22820   */\n      0x00\n        /* \"#utility.yul\":22808:22817   */\n      dup4\n        /* \"#utility.yul\":22804:22821   */\n      add\n        /* \"#utility.yul\":22797:22844   */\n      mstore\n        /* \"#utility.yul\":22861:22992   */\n      tag_516\n        /* \"#utility.yul\":22987:22991   */\n      dup2\n        /* \"#utility.yul\":22861:22992   */\n      tag_313\n      jump\t// in\n    tag_516:\n        /* \"#utility.yul\":22853:22992   */\n      swap1\n      pop\n        /* \"#utility.yul\":22580:22999   */\n      swap2\n      swap1\n      pop\n      jump\t// out\n        /* \"#utility.yul\":23005:23186   */\n    tag_314:\n        /* \"#utility.yul\":23145:23178   */\n      0x45524332303a206d696e7420746f20746865207a65726f206164647265737300\n        /* \"#utility.yul\":23141:23142   */\n      0x00\n        /* \"#utility.yul\":23133:23139   */\n      dup3\n        /* \"#utility.yul\":23129:23143   */\n      add\n        /* \"#utility.yul\":23122:23179   */\n      mstore\n        /* \"#utility.yul\":23005:23186   */\n      pop\n      jump\t// out\n        /* \"#utility.yul\":23192:23558   */\n    tag_315:\n        /* \"#utility.yul\":23334:23337   */\n      0x00\n        /* \"#utility.yul\":23355:23422   */\n      tag_519\n        /* \"#utility.yul\":23419:23421   */\n      0x1f\n        /* \"#utility.yul\":23414:23417   */\n      dup4\n        /* \"#utility.yul\":23355:23422   */\n      tag_262\n      jump\t// in\n    tag_519:\n        /* \"#utility.yul\":23348:23422   */\n      swap2\n      pop\n        /* \"#utility.yul\":23431:23524   */\n      tag_520\n        /* \"#utility.yul\":23520:23523   */\n      dup3\n        /* \"#utility.yul\":23431:23524   */\n      tag_314\n      jump\t// in\n    tag_520:\n        /* \"#utility.yul\":23549:23551   */\n      0x20\n        /* \"#utility.yul\":23544:23547   */\n      dup3\n        /* \"#utility.yul\":23540:23552   */\n      add\n        /* \"#utility.yul\":23533:23552   */\n      swap1\n      pop\n        /* \"#utility.yul\":23192:23558   */\n      swap2\n      swap1\n      pop\n      jump\t// out\n        /* \"#utility.yul\":23564:23983   */\n    tag_256:\n        /* \"#utility.yul\":23730:23734   */\n      0x00\n        /* \"#utility.yul\":23768:23770   */\n      0x20\n        /* \"#utility.yul\":23757:23766   */\n      dup3\n        /* \"#utility.yul\":23753:23771   */\n      add\n        /* \"#utility.yul\":23745:23771   */\n      swap1\n      pop\n        /* \"#utility.yul\":23817:23826   */\n      dup2\n        /* \"#utility.yul\":23811:23815   */\n      dup2\n        /* \"#utility.yul\":23807:23827   */\n      sub\n        /* \"#utility.yul\":23803:23804   */\n      0x00\n        /* \"#utility.yul\":23792:23801   */\n      dup4\n        /* \"#utility.yul\":23788:23805   */\n      add\n        /* \"#utility.yul\":23781:23828   */\n      mstore\n        /* \"#utility.yul\":23845:23976   */\n      tag_522\n        /* \"#utility.yul\":23971:23975   */\n      dup2\n        /* \"#utility.yul\":23845:23976   */\n      tag_315\n      jump\t// in\n    tag_522:\n        /* \"#utility.yul\":23837:23976   */\n      swap1\n      pop\n        /* \"#utility.yul\":23564:23983   */\n      swap2\n      swap1\n      pop\n      jump\t// out\n\n    auxdata: 0xa26469706673582212200536a610cf05c0d7c0f5ff832e06cf722b4bae35a347e23d79928852afacfc4564736f6c63430008190033\n}\n",
				"bytecode": {
					"linkReferences": {},
					"object": "60a060405234801561000f575f80fd5b50604051612d47380380612d47833981810160405281019061003191906105b7565b61003f6101f960201b60201c565b600a61004b919061075d565b8261005691906107a7565b6040518060400160405280600c81526020017f4575726f426574546f6b656e00000000000000000000000000000000000000008152506040518060400160405280600381526020017f454254000000000000000000000000000000000000000000000000000000000081525081600390816100d19190610a19565b5080600490816100e19190610a19565b5050505f8111610126576040517f08c379a000000000000000000000000000000000000000000000000000000000815260040161011d90610b42565b60405180910390fd5b8060808181525050503360055f6101000a81548173ffffffffffffffffffffffffffffffffffffffff021916908373ffffffffffffffffffffffffffffffffffffffff1602179055506101c760055f9054906101000a900473ffffffffffffffffffffffffffffffffffffffff166101a26101f960201b60201c565b600a6101ae919061075d565b624c4b406101bc91906107a7565b61020160201b60201c565b6101d56101f960201b60201c565b600a6101e1919061075d565b816101ec91906107a7565b6006819055505050610c8b565b5f6012905090565b61020f61027d60201b60201c565b8161021e61028660201b60201c565b6102289190610b60565b1115610269576040517f08c379a000000000000000000000000000000000000000000000000000000000815260040161026090610bdd565b60405180910390fd5b610279828261028f60201b60201c565b5050565b5f608051905090565b5f600254905090565b61029d61027d60201b60201c565b816102ac61028660201b60201c565b6102b69190610b60565b11156102f7576040517f08c379a00000000000000000000000000000000000000000000000000000000081526004016102ee90610bdd565b60405180910390fd5b610307828261030b60201b60201c565b5050565b5f73ffffffffffffffffffffffffffffffffffffffff168273ffffffffffffffffffffffffffffffffffffffff1603610379576040517f08c379a000000000000000000000000000000000000000000000000000000000815260040161037090610c45565b60405180910390fd5b61038a5f838361046560201b60201c565b8060025f82825461039b9190610b60565b92505081905550805f808473ffffffffffffffffffffffffffffffffffffffff1673ffffffffffffffffffffffffffffffffffffffff1681526020019081526020015f205f82825401925050819055508173ffffffffffffffffffffffffffffffffffffffff165f73ffffffffffffffffffffffffffffffffffffffff167fddf252ad1be2c89b69c2b068fc378daa952ba7f163c4a11628f55a4df523b3ef836040516104489190610c72565b60405180910390a36104615f838361056260201b60201c565b5050565b5f73ffffffffffffffffffffffffffffffffffffffff168373ffffffffffffffffffffffffffffffffffffffff16141580156104cd57504173ffffffffffffffffffffffffffffffffffffffff168273ffffffffffffffffffffffffffffffffffffffff1614155b801561050557505f73ffffffffffffffffffffffffffffffffffffffff164173ffffffffffffffffffffffffffffffffffffffff1614155b8015610538575061051a61027d60201b60201c565b60065461052b61028660201b60201c565b6105359190610b60565b11155b1561054c5761054b61056760201b60201c565b5b61055d83838361057b60201b60201c565b505050565b505050565b6105794160065461020160201b60201c565b565b505050565b5f80fd5b5f819050919050565b61059681610584565b81146105a0575f80fd5b50565b5f815190506105b18161058d565b92915050565b5f80604083850312156105cd576105cc610580565b5b5f6105da858286016105a3565b92505060206105eb858286016105a3565b9150509250929050565b7f4e487b71000000000000000000000000000000000000000000000000000000005f52601160045260245ffd5b5f8160011c9050919050565b5f808291508390505b600185111561067757808604811115610653576106526105f5565b5b60018516156106625780820291505b808102905061067085610622565b9450610637565b94509492505050565b5f8261068f576001905061074a565b8161069c575f905061074a565b81600181146106b257600281146106bc576106eb565b600191505061074a565b60ff8411156106ce576106cd6105f5565b5b8360020a9150848211156106e5576106e46105f5565b5b5061074a565b5060208310610133831016604e8410600b84101617156107205782820a90508381111561071b5761071a6105f5565b5b61074a565b61072d848484600161062e565b92509050818404811115610744576107436105f5565b5b81810290505b9392505050565b5f60ff82169050919050565b5f61076782610584565b915061077283610751565b925061079f7fffffffffffffffffffffffffffffffffffffffffffffffffffffffffffffffff8484610680565b905092915050565b5f6107b182610584565b91506107bc83610584565b92508282026107ca81610584565b915082820484148315176107e1576107e06105f5565b5b5092915050565b5f81519050919050565b7f4e487b71000000000000000000000000000000000000000000000000000000005f52604160045260245ffd5b7f4e487b71000000000000000000000000000000000000000000000000000000005f52602260045260245ffd5b5f600282049050600182168061086357607f821691505b6020821081036108765761087561081f565b5b50919050565b5f819050815f5260205f209050919050565b5f6020601f8301049050919050565b5f82821b905092915050565b5f600883026108d87fffffffffffffffffffffffffffffffffffffffffffffffffffffffffffffffff8261089d565b6108e2868361089d565b95508019841693508086168417925050509392505050565b5f819050919050565b5f61091d61091861091384610584565b6108fa565b610584565b9050919050565b5f819050919050565b61093683610903565b61094a61094282610924565b8484546108a9565b825550505050565b5f90565b61095e610952565b61096981848461092d565b505050565b5b8181101561098c576109815f82610956565b60018101905061096f565b5050565b601f8211156109d1576109a28161087c565b6109ab8461088e565b810160208510156109ba578190505b6109ce6109c68561088e565b83018261096e565b50505b505050565b5f82821c905092915050565b5f6109f15f19846008026109d6565b1980831691505092915050565b5f610a0983836109e2565b9150826002028217905092915050565b610a22826107e8565b67ffffffffffffffff811115610a3b57610a3a6107f2565b5b610a45825461084c565b610a50828285610990565b5f60209050601f831160018114610a81575f8415610a6f578287015190505b610a7985826109fe565b865550610ae0565b601f198416610a8f8661087c565b5f5b82811015610ab657848901518255600182019150602085019450602081019050610a91565b86831015610ad35784890151610acf601f8916826109e2565b8355505b6001600288020188555050505b505050505050565b5f82825260208201905092915050565b7f45524332304361707065643a20636170206973203000000000000000000000005f82015250565b5f610b2c601583610ae8565b9150610b3782610af8565b602082019050919050565b5f6020820190508181035f830152610b5981610b20565b9050919050565b5f610b6a82610584565b9150610b7583610584565b9250828201905080821115610b8d57610b8c6105f5565b5b92915050565b7f45524332304361707065643a20636170206578636565646564000000000000005f82015250565b5f610bc7601983610ae8565b9150610bd282610b93565b602082019050919050565b5f6020820190508181035f830152610bf481610bbb565b9050919050565b7f45524332303a206d696e7420746f20746865207a65726f2061646472657373005f82015250565b5f610c2f601f83610ae8565b9150610c3a82610bfb565b602082019050919050565b5f6020820190508181035f830152610c5c81610c23565b9050919050565b610c6c81610584565b82525050565b5f602082019050610c855f830184610c63565b92915050565b6080516120a4610ca35f395f61067801526120a45ff3fe608060405234801561000f575f80fd5b506004361061012a575f3560e01c806342966c68116100ab57806395d89b411161006f57806395d89b4114610356578063a457c2d714610374578063a9059cbb146103a4578063c0e6c965146103d4578063dd62ed3e146103f05761012a565b806342966c68146102a057806370a08231146102bc57806379cc6790146102ec57806380ac4be8146103085780638da5cb5b146103385761012a565b80631a18e707116100f25780631a18e707146101e857806323b872dd14610204578063313ce56714610234578063355274ea1461025257806339509351146102705761012a565b806306fdde031461012e578063095ea7b31461014c5780630ac168a11461017c578063155184c61461019a57806318160ddd146101ca575b5f80fd5b610136610420565b6040516101439190611430565b60405180910390f35b610166600480360381019061016191906114e1565b6104b0565b6040516101739190611539565b60405180910390f35b6101846104d2565b6040516101919190611561565b60405180910390f35b6101b460048036038101906101af919061157a565b6104d8565b6040516101c19190611539565b60405180910390f35b6101d261057f565b6040516101df9190611561565b60405180910390f35b61020260048036038101906101fd91906115ca565b610588565b005b61021e6004803603810190610219919061157a565b61063f565b60405161022b9190611539565b60405180910390f35b61023c61066d565b6040516102499190611610565b60405180910390f35b61025a610675565b6040516102679190611561565b60405180910390f35b61028a600480360381019061028591906114e1565b61069c565b6040516102979190611539565b60405180910390f35b6102ba60048036038101906102b591906115ca565b6106d2565b005b6102d660048036038101906102d19190611629565b6106e6565b6040516102e39190611561565b60405180910390f35b610306600480360381019061030191906114e1565b61072b565b005b610322600480360381019061031d9190611629565b61074b565b60405161032f9190611539565b60405180910390f35b610340610768565b60405161034d9190611674565b60405180910390f35b61035e61078d565b60405161036b9190611430565b60405180910390f35b61038e600480360381019061038991906114e1565b61081d565b60405161039b9190611539565b60405180910390f35b6103be60048036038101906103b991906114e1565b610892565b6040516103cb9190611539565b60405180910390f35b6103ee60048036038101906103e991906116b7565b6108b4565b005b61040a600480360381019061040591906116f5565b61099b565b6040516104179190611561565b60405180910390f35b60606003805461042f90611760565b80601f016020809104026020016040519081016040528092919081815260200182805461045b90611760565b80156104a65780601f1061047d576101008083540402835291602001916104a6565b820191905f5260205f20905b81548152906001019060200180831161048957829003601f168201915b5050505050905090565b5f806104ba610a1d565b90506104c7818585610a24565b600191505092915050565b60065481565b5f6001151560075f3373ffffffffffffffffffffffffffffffffffffffff1673ffffffffffffffffffffffffffffffffffffffff1681526020019081526020015f205f9054906101000a900460ff16151514610569576040517f08c379a000000000000000000000000000000000000000000000000000000000815260040161056090611800565b60405180910390fd5b610574848484610be7565b600190509392505050565b5f600254905090565b60055f9054906101000a900473ffffffffffffffffffffffffffffffffffffffff1673ffffffffffffffffffffffffffffffffffffffff163373ffffffffffffffffffffffffffffffffffffffff1614610617576040517f08c379a000000000000000000000000000000000000000000000000000000000815260040161060e9061188e565b60405180910390fd5b61061f61066d565b600a61062b9190611a08565b816106369190611a52565b60068190555050565b5f80610649610a1d565b9050610656858285610e53565b610661858585610be7565b60019150509392505050565b5f6012905090565b5f7f0000000000000000000000000000000000000000000000000000000000000000905090565b5f806106a6610a1d565b90506106c78185856106b8858961099b565b6106c29190611a93565b610a24565b600191505092915050565b6106e36106dd610a1d565b82610ede565b50565b5f805f8373ffffffffffffffffffffffffffffffffffffffff1673ffffffffffffffffffffffffffffffffffffffff1681526020019081526020015f20549050919050565b61073d82610737610a1d565b83610e53565b6107478282610ede565b5050565b6007602052805f5260405f205f915054906101000a900460ff1681565b60055f9054906101000a900473ffffffffffffffffffffffffffffffffffffffff1681565b60606004805461079c90611760565b80601f01602080910402602001604051908101604052809291908181526020018280546107c890611760565b80156108135780601f106107ea57610100808354040283529160200191610813565b820191905f5260205f20905b8154815290600101906020018083116107f657829003601f168201915b5050505050905090565b5f80610827610a1d565b90505f610834828661099b565b905083811015610879576040517f08c379a000000000000000000000000000000000000000000000000000000000815260040161087090611b36565b60405180910390fd5b6108868286868403610a24565b60019250505092915050565b5f8061089c610a1d565b90506108a9818585610be7565b600191505092915050565b60055f9054906101000a900473ffffffffffffffffffffffffffffffffffffffff1673ffffffffffffffffffffffffffffffffffffffff163373ffffffffffffffffffffffffffffffffffffffff1614610943576040517f08c379a000000000000000000000000000000000000000000000000000000000815260040161093a9061188e565b60405180910390fd5b8060075f8473ffffffffffffffffffffffffffffffffffffffff1673ffffffffffffffffffffffffffffffffffffffff1681526020019081526020015f205f6101000a81548160ff0219169083151502179055505050565b5f60015f8473ffffffffffffffffffffffffffffffffffffffff1673ffffffffffffffffffffffffffffffffffffffff1681526020019081526020015f205f8373ffffffffffffffffffffffffffffffffffffffff1673ffffffffffffffffffffffffffffffffffffffff1681526020019081526020015f2054905092915050565b5f33905090565b5f73ffffffffffffffffffffffffffffffffffffffff168373ffffffffffffffffffffffffffffffffffffffff1603610a92576040517f08c379a0000000000000000000000000000000000000000000000000000000008152600401610a8990611bc4565b60405180910390fd5b5f73ffffffffffffffffffffffffffffffffffffffff168273ffffffffffffffffffffffffffffffffffffffff1603610b00576040517f08c379a0000000000000000000000000000000000000000000000000000000008152600401610af790611c52565b60405180910390fd5b8060015f8573ffffffffffffffffffffffffffffffffffffffff1673ffffffffffffffffffffffffffffffffffffffff1681526020019081526020015f205f8473ffffffffffffffffffffffffffffffffffffffff1673ffffffffffffffffffffffffffffffffffffffff1681526020019081526020015f20819055508173ffffffffffffffffffffffffffffffffffffffff168373ffffffffffffffffffffffffffffffffffffffff167f8c5be1e5ebec7d5bd14f71427d1e84f3dd0314c0f7b2291e5b200ac8c7c3b92583604051610bda9190611561565b60405180910390a3505050565b5f73ffffffffffffffffffffffffffffffffffffffff168373ffffffffffffffffffffffffffffffffffffffff1603610c55576040517f08c379a0000000000000000000000000000000000000000000000000000000008152600401610c4c90611ce0565b60405180910390fd5b5f73ffffffffffffffffffffffffffffffffffffffff168273ffffffffffffffffffffffffffffffffffffffff1603610cc3576040517f08c379a0000000000000000000000000000000000000000000000000000000008152600401610cba90611d6e565b60405180910390fd5b610cce8383836110a1565b5f805f8573ffffffffffffffffffffffffffffffffffffffff1673ffffffffffffffffffffffffffffffffffffffff1681526020019081526020015f2054905081811015610d51576040517f08c379a0000000000000000000000000000000000000000000000000000000008152600401610d4890611dfc565b60405180910390fd5b8181035f808673ffffffffffffffffffffffffffffffffffffffff1673ffffffffffffffffffffffffffffffffffffffff1681526020019081526020015f2081905550815f808573ffffffffffffffffffffffffffffffffffffffff1673ffffffffffffffffffffffffffffffffffffffff1681526020019081526020015f205f82825401925050819055508273ffffffffffffffffffffffffffffffffffffffff168473ffffffffffffffffffffffffffffffffffffffff167fddf252ad1be2c89b69c2b068fc378daa952ba7f163c4a11628f55a4df523b3ef84604051610e3a9190611561565b60405180910390a3610e4d848484611186565b50505050565b5f610e5e848461099b565b90507fffffffffffffffffffffffffffffffffffffffffffffffffffffffffffffffff8114610ed85781811015610eca576040517f08c379a0000000000000000000000000000000000000000000000000000000008152600401610ec190611e64565b60405180910390fd5b610ed78484848403610a24565b5b50505050565b5f73ffffffffffffffffffffffffffffffffffffffff168273ffffffffffffffffffffffffffffffffffffffff1603610f4c576040517f08c379a0000000000000000000000000000000000000000000000000000000008152600401610f4390611ef2565b60405180910390fd5b610f57825f836110a1565b5f805f8473ffffffffffffffffffffffffffffffffffffffff1673ffffffffffffffffffffffffffffffffffffffff1681526020019081526020015f2054905081811015610fda576040517f08c379a0000000000000000000000000000000000000000000000000000000008152600401610fd190611f80565b60405180910390fd5b8181035f808573ffffffffffffffffffffffffffffffffffffffff1673ffffffffffffffffffffffffffffffffffffffff1681526020019081526020015f20819055508160025f82825403925050819055505f73ffffffffffffffffffffffffffffffffffffffff168373ffffffffffffffffffffffffffffffffffffffff167fddf252ad1be2c89b69c2b068fc378daa952ba7f163c4a11628f55a4df523b3ef846040516110899190611561565b60405180910390a361109c835f84611186565b505050565b5f73ffffffffffffffffffffffffffffffffffffffff168373ffffffffffffffffffffffffffffffffffffffff161415801561110957504173ffffffffffffffffffffffffffffffffffffffff168273ffffffffffffffffffffffffffffffffffffffff1614155b801561114157505f73ffffffffffffffffffffffffffffffffffffffff164173ffffffffffffffffffffffffffffffffffffffff1614155b80156111685750611150610675565b60065461115b61057f565b6111659190611a93565b11155b156111765761117561118b565b5b611181838383611199565b505050565b505050565b6111974160065461119e565b565b505050565b6111a6610675565b816111af61057f565b6111b99190611a93565b11156111fa576040517f08c379a00000000000000000000000000000000000000000000000000000000081526004016111f190611fe8565b60405180910390fd5b6112048282611208565b5050565b611210610675565b8161121961057f565b6112239190611a93565b1115611264576040517f08c379a000000000000000000000000000000000000000000000000000000000815260040161125b90611fe8565b60405180910390fd5b61126e8282611272565b5050565b5f73ffffffffffffffffffffffffffffffffffffffff168273ffffffffffffffffffffffffffffffffffffffff16036112e0576040517f08c379a00000000000000000000000000000000000000000000000000000000081526004016112d790612050565b60405180910390fd5b6112eb5f83836110a1565b8060025f8282546112fc9190611a93565b92505081905550805f808473ffffffffffffffffffffffffffffffffffffffff1673ffffffffffffffffffffffffffffffffffffffff1681526020019081526020015f205f82825401925050819055508173ffffffffffffffffffffffffffffffffffffffff165f73ffffffffffffffffffffffffffffffffffffffff167fddf252ad1be2c89b69c2b068fc378daa952ba7f163c4a11628f55a4df523b3ef836040516113a99190611561565b60405180910390a36113bc5f8383611186565b5050565b5f81519050919050565b5f82825260208201905092915050565b8281835e5f83830152505050565b5f601f19601f8301169050919050565b5f611402826113c0565b61140c81856113ca565b935061141c8185602086016113da565b611425816113e8565b840191505092915050565b5f6020820190508181035f83015261144881846113f8565b905092915050565b5f80fd5b5f73ffffffffffffffffffffffffffffffffffffffff82169050919050565b5f61147d82611454565b9050919050565b61148d81611473565b8114611497575f80fd5b50565b5f813590506114a881611484565b92915050565b5f819050919050565b6114c0816114ae565b81146114ca575f80fd5b50565b5f813590506114db816114b7565b92915050565b5f80604083850312156114f7576114f6611450565b5b5f6115048582860161149a565b9250506020611515858286016114cd565b9150509250929050565b5f8115159050919050565b6115338161151f565b82525050565b5f60208201905061154c5f83018461152a565b92915050565b61155b816114ae565b82525050565b5f6020820190506115745f830184611552565b92915050565b5f805f6060848603121561159157611590611450565b5b5f61159e8682870161149a565b93505060206115af8682870161149a565b92505060406115c0868287016114cd565b9150509250925092565b5f602082840312156115df576115de611450565b5b5f6115ec848285016114cd565b91505092915050565b5f60ff82169050919050565b61160a816115f5565b82525050565b5f6020820190506116235f830184611601565b92915050565b5f6020828403121561163e5761163d611450565b5b5f61164b8482850161149a565b91505092915050565b5f61165e82611454565b9050919050565b61166e81611654565b82525050565b5f6020820190506116875f830184611665565b92915050565b6116968161151f565b81146116a0575f80fd5b50565b5f813590506116b18161168d565b92915050565b5f80604083850312156116cd576116cc611450565b5b5f6116da8582860161149a565b92505060206116eb858286016116a3565b9150509250929050565b5f806040838503121561170b5761170a611450565b5b5f6117188582860161149a565b92505060206117298582860161149a565b9150509250929050565b7f4e487b71000000000000000000000000000000000000000000000000000000005f52602260045260245ffd5b5f600282049050600182168061177757607f821691505b60208210810361178a57611789611733565b5b50919050565b7f4f6e6c792062657474696e6720636f6e7472616374732063616e2063616c6c205f8201527f7468697300000000000000000000000000000000000000000000000000000000602082015250565b5f6117ea6024836113ca565b91506117f582611790565b604082019050919050565b5f6020820190508181035f830152611817816117de565b9050919050565b7f4f6e6c7920746865206f776e65722063616e2063616c6c20746869732066756e5f8201527f6374696f6e000000000000000000000000000000000000000000000000000000602082015250565b5f6118786025836113ca565b91506118838261181e565b604082019050919050565b5f6020820190508181035f8301526118a58161186c565b9050919050565b7f4e487b71000000000000000000000000000000000000000000000000000000005f52601160045260245ffd5b5f8160011c9050919050565b5f808291508390505b600185111561192e5780860481111561190a576119096118ac565b5b60018516156119195780820291505b8081029050611927856118d9565b94506118ee565b94509492505050565b5f826119465760019050611a01565b81611953575f9050611a01565b81600181146119695760028114611973576119a2565b6001915050611a01565b60ff841115611985576119846118ac565b5b8360020a91508482111561199c5761199b6118ac565b5b50611a01565b5060208310610133831016604e8410600b84101617156119d75782820a9050838111156119d2576119d16118ac565b5b611a01565b6119e484848460016118e5565b925090508184048111156119fb576119fa6118ac565b5b81810290505b9392505050565b5f611a12826114ae565b9150611a1d836115f5565b9250611a4a7fffffffffffffffffffffffffffffffffffffffffffffffffffffffffffffffff8484611937565b905092915050565b5f611a5c826114ae565b9150611a67836114ae565b9250828202611a75816114ae565b91508282048414831517611a8c57611a8b6118ac565b5b5092915050565b5f611a9d826114ae565b9150611aa8836114ae565b9250828201905080821115611ac057611abf6118ac565b5b92915050565b7f45524332303a2064656372656173656420616c6c6f77616e63652062656c6f775f8201527f207a65726f000000000000000000000000000000000000000000000000000000602082015250565b5f611b206025836113ca565b9150611b2b82611ac6565b604082019050919050565b5f6020820190508181035f830152611b4d81611b14565b9050919050565b7f45524332303a20617070726f76652066726f6d20746865207a65726f206164645f8201527f7265737300000000000000000000000000000000000000000000000000000000602082015250565b5f611bae6024836113ca565b9150611bb982611b54565b604082019050919050565b5f6020820190508181035f830152611bdb81611ba2565b9050919050565b7f45524332303a20617070726f766520746f20746865207a65726f2061646472655f8201527f7373000000000000000000000000000000000000000000000000000000000000602082015250565b5f611c3c6022836113ca565b9150611c4782611be2565b604082019050919050565b5f6020820190508181035f830152611c6981611c30565b9050919050565b7f45524332303a207472616e736665722066726f6d20746865207a65726f2061645f8201527f6472657373000000000000000000000000000000000000000000000000000000602082015250565b5f611cca6025836113ca565b9150611cd582611c70565b604082019050919050565b5f6020820190508181035f830152611cf781611cbe565b9050919050565b7f45524332303a207472616e7366657220746f20746865207a65726f20616464725f8201527f6573730000000000000000000000000000000000000000000000000000000000602082015250565b5f611d586023836113ca565b9150611d6382611cfe565b604082019050919050565b5f6020820190508181035f830152611d8581611d4c565b9050919050565b7f45524332303a207472616e7366657220616d6f756e74206578636565647320625f8201527f616c616e63650000000000000000000000000000000000000000000000000000602082015250565b5f611de66026836113ca565b9150611df182611d8c565b604082019050919050565b5f6020820190508181035f830152611e1381611dda565b9050919050565b7f45524332303a20696e73756666696369656e7420616c6c6f77616e63650000005f82015250565b5f611e4e601d836113ca565b9150611e5982611e1a565b602082019050919050565b5f6020820190508181035f830152611e7b81611e42565b9050919050565b7f45524332303a206275726e2066726f6d20746865207a65726f206164647265735f8201527f7300000000000000000000000000000000000000000000000000000000000000602082015250565b5f611edc6021836113ca565b9150611ee782611e82565b604082019050919050565b5f6020820190508181035f830152611f0981611ed0565b9050919050565b7f45524332303a206275726e20616d6f756e7420657863656564732062616c616e5f8201527f6365000000000000000000000000000000000000000000000000000000000000602082015250565b5f611f6a6022836113ca565b9150611f7582611f10565b604082019050919050565b5f6020820190508181035f830152611f9781611f5e565b9050919050565b7f45524332304361707065643a20636170206578636565646564000000000000005f82015250565b5f611fd26019836113ca565b9150611fdd82611f9e565b602082019050919050565b5f6020820190508181035f830152611fff81611fc6565b9050919050565b7f45524332303a206d696e7420746f20746865207a65726f2061646472657373005f82015250565b5f61203a601f836113ca565b915061204582612006565b602082019050919050565b5f6020820190508181035f8301526120678161202e565b905091905056fea26469706673582212200536a610cf05c0d7c0f5ff832e06cf722b4bae35a347e23d79928852afacfc4564736f6c63430008190033",
					"opcodes": "PUSH1 0xA0 PUSH1 0x40 MSTORE CALLVALUE DUP1 ISZERO PUSH2 0xF JUMPI PUSH0 DUP1 REVERT JUMPDEST POP PUSH1 0x40 MLOAD PUSH2 0x2D47 CODESIZE SUB DUP1 PUSH2 0x2D47 DUP4 CODECOPY DUP2 DUP2 ADD PUSH1 0x40 MSTORE DUP2 ADD SWAP1 PUSH2 0x31 SWAP2 SWAP1 PUSH2 0x5B7 JUMP JUMPDEST PUSH2 0x3F PUSH2 0x1F9 PUSH1 0x20 SHL PUSH1 0x20 SHR JUMP JUMPDEST PUSH1 0xA PUSH2 0x4B SWAP2 SWAP1 PUSH2 0x75D JUMP JUMPDEST DUP3 PUSH2 0x56 SWAP2 SWAP1 PUSH2 0x7A7 JUMP JUMPDEST PUSH1 0x40 MLOAD DUP1 PUSH1 0x40 ADD PUSH1 0x40 MSTORE DUP1 PUSH1 0xC DUP2 MSTORE PUSH1 0x20 ADD PUSH32 0x4575726F426574546F6B656E0000000000000000000000000000000000000000 DUP2 MSTORE POP PUSH1 0x40 MLOAD DUP1 PUSH1 0x40 ADD PUSH1 0x40 MSTORE DUP1 PUSH1 0x3 DUP2 MSTORE PUSH1 0x20 ADD PUSH32 0x4542540000000000000000000000000000000000000000000000000000000000 DUP2 MSTORE POP DUP2 PUSH1 0x3 SWAP1 DUP2 PUSH2 0xD1 SWAP2 SWAP1 PUSH2 0xA19 JUMP JUMPDEST POP DUP1 PUSH1 0x4 SWAP1 DUP2 PUSH2 0xE1 SWAP2 SWAP1 PUSH2 0xA19 JUMP JUMPDEST POP POP POP PUSH0 DUP2 GT PUSH2 0x126 JUMPI PUSH1 0x40 MLOAD PUSH32 0x8C379A000000000000000000000000000000000000000000000000000000000 DUP2 MSTORE PUSH1 0x4 ADD PUSH2 0x11D SWAP1 PUSH2 0xB42 JUMP JUMPDEST PUSH1 0x40 MLOAD DUP1 SWAP2 SUB SWAP1 REVERT JUMPDEST DUP1 PUSH1 0x80 DUP2 DUP2 MSTORE POP POP POP CALLER PUSH1 0x5 PUSH0 PUSH2 0x100 EXP DUP2 SLOAD DUP2 PUSH20 0xFFFFFFFFFFFFFFFFFFFFFFFFFFFFFFFFFFFFFFFF MUL NOT AND SWAP1 DUP4 PUSH20 0xFFFFFFFFFFFFFFFFFFFFFFFFFFFFFFFFFFFFFFFF AND MUL OR SWAP1 SSTORE POP PUSH2 0x1C7 PUSH1 0x5 PUSH0 SWAP1 SLOAD SWAP1 PUSH2 0x100 EXP SWAP1 DIV PUSH20 0xFFFFFFFFFFFFFFFFFFFFFFFFFFFFFFFFFFFFFFFF AND PUSH2 0x1A2 PUSH2 0x1F9 PUSH1 0x20 SHL PUSH1 0x20 SHR JUMP JUMPDEST PUSH1 0xA PUSH2 0x1AE SWAP2 SWAP1 PUSH2 0x75D JUMP JUMPDEST PUSH3 0x4C4B40 PUSH2 0x1BC SWAP2 SWAP1 PUSH2 0x7A7 JUMP JUMPDEST PUSH2 0x201 PUSH1 0x20 SHL PUSH1 0x20 SHR JUMP JUMPDEST PUSH2 0x1D5 PUSH2 0x1F9 PUSH1 0x20 SHL PUSH1 0x20 SHR JUMP JUMPDEST PUSH1 0xA PUSH2 0x1E1 SWAP2 SWAP1 PUSH2 0x75D JUMP JUMPDEST DUP2 PUSH2 0x1EC SWAP2 SWAP1 PUSH2 0x7A7 JUMP JUMPDEST PUSH1 0x6 DUP2 SWAP1 SSTORE POP POP POP PUSH2 0xC8B JUMP JUMPDEST PUSH0 PUSH1 0x12 SWAP1 POP SWAP1 JUMP JUMPDEST PUSH2 0x20F PUSH2 0x27D PUSH1 0x20 SHL PUSH1 0x20 SHR JUMP JUMPDEST DUP2 PUSH2 0x21E PUSH2 0x286 PUSH1 0x20 SHL PUSH1 0x20 SHR JUMP JUMPDEST PUSH2 0x228 SWAP2 SWAP1 PUSH2 0xB60 JUMP JUMPDEST GT ISZERO PUSH2 0x269 JUMPI PUSH1 0x40 MLOAD PUSH32 0x8C379A000000000000000000000000000000000000000000000000000000000 DUP2 MSTORE PUSH1 0x4 ADD PUSH2 0x260 SWAP1 PUSH2 0xBDD JUMP JUMPDEST PUSH1 0x40 MLOAD DUP1 SWAP2 SUB SWAP1 REVERT JUMPDEST PUSH2 0x279 DUP3 DUP3 PUSH2 0x28F PUSH1 0x20 SHL PUSH1 0x20 SHR JUMP JUMPDEST POP POP JUMP JUMPDEST PUSH0 PUSH1 0x80 MLOAD SWAP1 POP SWAP1 JUMP JUMPDEST PUSH0 PUSH1 0x2 SLOAD SWAP1 POP SWAP1 JUMP JUMPDEST PUSH2 0x29D PUSH2 0x27D PUSH1 0x20 SHL PUSH1 0x20 SHR JUMP JUMPDEST DUP2 PUSH2 0x2AC PUSH2 0x286 PUSH1 0x20 SHL PUSH1 0x20 SHR JUMP JUMPDEST PUSH2 0x2B6 SWAP2 SWAP1 PUSH2 0xB60 JUMP JUMPDEST GT ISZERO PUSH2 0x2F7 JUMPI PUSH1 0x40 MLOAD PUSH32 0x8C379A000000000000000000000000000000000000000000000000000000000 DUP2 MSTORE PUSH1 0x4 ADD PUSH2 0x2EE SWAP1 PUSH2 0xBDD JUMP JUMPDEST PUSH1 0x40 MLOAD DUP1 SWAP2 SUB SWAP1 REVERT JUMPDEST PUSH2 0x307 DUP3 DUP3 PUSH2 0x30B PUSH1 0x20 SHL PUSH1 0x20 SHR JUMP JUMPDEST POP POP JUMP JUMPDEST PUSH0 PUSH20 0xFFFFFFFFFFFFFFFFFFFFFFFFFFFFFFFFFFFFFFFF AND DUP3 PUSH20 0xFFFFFFFFFFFFFFFFFFFFFFFFFFFFFFFFFFFFFFFF AND SUB PUSH2 0x379 JUMPI PUSH1 0x40 MLOAD PUSH32 0x8C379A000000000000000000000000000000000000000000000000000000000 DUP2 MSTORE PUSH1 0x4 ADD PUSH2 0x370 SWAP1 PUSH2 0xC45 JUMP JUMPDEST PUSH1 0x40 MLOAD DUP1 SWAP2 SUB SWAP1 REVERT JUMPDEST PUSH2 0x38A PUSH0 DUP4 DUP4 PUSH2 0x465 PUSH1 0x20 SHL PUSH1 0x20 SHR JUMP JUMPDEST DUP1 PUSH1 0x2 PUSH0 DUP3 DUP3 SLOAD PUSH2 0x39B SWAP2 SWAP1 PUSH2 0xB60 JUMP JUMPDEST SWAP3 POP POP DUP2 SWAP1 SSTORE POP DUP1 PUSH0 DUP1 DUP5 PUSH20 0xFFFFFFFFFFFFFFFFFFFFFFFFFFFFFFFFFFFFFFFF AND PUSH20 0xFFFFFFFFFFFFFFFFFFFFFFFFFFFFFFFFFFFFFFFF AND DUP2 MSTORE PUSH1 0x20 ADD SWAP1 DUP2 MSTORE PUSH1 0x20 ADD PUSH0 KECCAK256 PUSH0 DUP3 DUP3 SLOAD ADD SWAP3 POP POP DUP2 SWAP1 SSTORE POP DUP2 PUSH20 0xFFFFFFFFFFFFFFFFFFFFFFFFFFFFFFFFFFFFFFFF AND PUSH0 PUSH20 0xFFFFFFFFFFFFFFFFFFFFFFFFFFFFFFFFFFFFFFFF AND PUSH32 0xDDF252AD1BE2C89B69C2B068FC378DAA952BA7F163C4A11628F55A4DF523B3EF DUP4 PUSH1 0x40 MLOAD PUSH2 0x448 SWAP2 SWAP1 PUSH2 0xC72 JUMP JUMPDEST PUSH1 0x40 MLOAD DUP1 SWAP2 SUB SWAP1 LOG3 PUSH2 0x461 PUSH0 DUP4 DUP4 PUSH2 0x562 PUSH1 0x20 SHL PUSH1 0x20 SHR JUMP JUMPDEST POP POP JUMP JUMPDEST PUSH0 PUSH20 0xFFFFFFFFFFFFFFFFFFFFFFFFFFFFFFFFFFFFFFFF AND DUP4 PUSH20 0xFFFFFFFFFFFFFFFFFFFFFFFFFFFFFFFFFFFFFFFF AND EQ ISZERO DUP1 ISZERO PUSH2 0x4CD JUMPI POP COINBASE PUSH20 0xFFFFFFFFFFFFFFFFFFFFFFFFFFFFFFFFFFFFFFFF AND DUP3 PUSH20 0xFFFFFFFFFFFFFFFFFFFFFFFFFFFFFFFFFFFFFFFF AND EQ ISZERO JUMPDEST DUP1 ISZERO PUSH2 0x505 JUMPI POP PUSH0 PUSH20 0xFFFFFFFFFFFFFFFFFFFFFFFFFFFFFFFFFFFFFFFF AND COINBASE PUSH20 0xFFFFFFFFFFFFFFFFFFFFFFFFFFFFFFFFFFFFFFFF AND EQ ISZERO JUMPDEST DUP1 ISZERO PUSH2 0x538 JUMPI POP PUSH2 0x51A PUSH2 0x27D PUSH1 0x20 SHL PUSH1 0x20 SHR JUMP JUMPDEST PUSH1 0x6 SLOAD PUSH2 0x52B PUSH2 0x286 PUSH1 0x20 SHL PUSH1 0x20 SHR JUMP JUMPDEST PUSH2 0x535 SWAP2 SWAP1 PUSH2 0xB60 JUMP JUMPDEST GT ISZERO JUMPDEST ISZERO PUSH2 0x54C JUMPI PUSH2 0x54B PUSH2 0x567 PUSH1 0x20 SHL PUSH1 0x20 SHR JUMP JUMPDEST JUMPDEST PUSH2 0x55D DUP4 DUP4 DUP4 PUSH2 0x57B PUSH1 0x20 SHL PUSH1 0x20 SHR JUMP JUMPDEST POP POP POP JUMP JUMPDEST POP POP POP JUMP JUMPDEST PUSH2 0x579 COINBASE PUSH1 0x6 SLOAD PUSH2 0x201 PUSH1 0x20 SHL PUSH1 0x20 SHR JUMP JUMPDEST JUMP JUMPDEST POP POP POP JUMP JUMPDEST PUSH0 DUP1 REVERT JUMPDEST PUSH0 DUP2 SWAP1 POP SWAP2 SWAP1 POP JUMP JUMPDEST PUSH2 0x596 DUP2 PUSH2 0x584 JUMP JUMPDEST DUP2 EQ PUSH2 0x5A0 JUMPI PUSH0 DUP1 REVERT JUMPDEST POP JUMP JUMPDEST PUSH0 DUP2 MLOAD SWAP1 POP PUSH2 0x5B1 DUP2 PUSH2 0x58D JUMP JUMPDEST SWAP3 SWAP2 POP POP JUMP JUMPDEST PUSH0 DUP1 PUSH1 0x40 DUP4 DUP6 SUB SLT ISZERO PUSH2 0x5CD JUMPI PUSH2 0x5CC PUSH2 0x580 JUMP JUMPDEST JUMPDEST PUSH0 PUSH2 0x5DA DUP6 DUP3 DUP7 ADD PUSH2 0x5A3 JUMP JUMPDEST SWAP3 POP POP PUSH1 0x20 PUSH2 0x5EB DUP6 DUP3 DUP7 ADD PUSH2 0x5A3 JUMP JUMPDEST SWAP2 POP POP SWAP3 POP SWAP3 SWAP1 POP JUMP JUMPDEST PUSH32 0x4E487B7100000000000000000000000000000000000000000000000000000000 PUSH0 MSTORE PUSH1 0x11 PUSH1 0x4 MSTORE PUSH1 0x24 PUSH0 REVERT JUMPDEST PUSH0 DUP2 PUSH1 0x1 SHR SWAP1 POP SWAP2 SWAP1 POP JUMP JUMPDEST PUSH0 DUP1 DUP3 SWAP2 POP DUP4 SWAP1 POP JUMPDEST PUSH1 0x1 DUP6 GT ISZERO PUSH2 0x677 JUMPI DUP1 DUP7 DIV DUP2 GT ISZERO PUSH2 0x653 JUMPI PUSH2 0x652 PUSH2 0x5F5 JUMP JUMPDEST JUMPDEST PUSH1 0x1 DUP6 AND ISZERO PUSH2 0x662 JUMPI DUP1 DUP3 MUL SWAP2 POP JUMPDEST DUP1 DUP2 MUL SWAP1 POP PUSH2 0x670 DUP6 PUSH2 0x622 JUMP JUMPDEST SWAP5 POP PUSH2 0x637 JUMP JUMPDEST SWAP5 POP SWAP5 SWAP3 POP POP POP JUMP JUMPDEST PUSH0 DUP3 PUSH2 0x68F JUMPI PUSH1 0x1 SWAP1 POP PUSH2 0x74A JUMP JUMPDEST DUP2 PUSH2 0x69C JUMPI PUSH0 SWAP1 POP PUSH2 0x74A JUMP JUMPDEST DUP2 PUSH1 0x1 DUP2 EQ PUSH2 0x6B2 JUMPI PUSH1 0x2 DUP2 EQ PUSH2 0x6BC JUMPI PUSH2 0x6EB JUMP JUMPDEST PUSH1 0x1 SWAP2 POP POP PUSH2 0x74A JUMP JUMPDEST PUSH1 0xFF DUP5 GT ISZERO PUSH2 0x6CE JUMPI PUSH2 0x6CD PUSH2 0x5F5 JUMP JUMPDEST JUMPDEST DUP4 PUSH1 0x2 EXP SWAP2 POP DUP5 DUP3 GT ISZERO PUSH2 0x6E5 JUMPI PUSH2 0x6E4 PUSH2 0x5F5 JUMP JUMPDEST JUMPDEST POP PUSH2 0x74A JUMP JUMPDEST POP PUSH1 0x20 DUP4 LT PUSH2 0x133 DUP4 LT AND PUSH1 0x4E DUP5 LT PUSH1 0xB DUP5 LT AND OR ISZERO PUSH2 0x720 JUMPI DUP3 DUP3 EXP SWAP1 POP DUP4 DUP2 GT ISZERO PUSH2 0x71B JUMPI PUSH2 0x71A PUSH2 0x5F5 JUMP JUMPDEST JUMPDEST PUSH2 0x74A JUMP JUMPDEST PUSH2 0x72D DUP5 DUP5 DUP5 PUSH1 0x1 PUSH2 0x62E JUMP JUMPDEST SWAP3 POP SWAP1 POP DUP2 DUP5 DIV DUP2 GT ISZERO PUSH2 0x744 JUMPI PUSH2 0x743 PUSH2 0x5F5 JUMP JUMPDEST JUMPDEST DUP2 DUP2 MUL SWAP1 POP JUMPDEST SWAP4 SWAP3 POP POP POP JUMP JUMPDEST PUSH0 PUSH1 0xFF DUP3 AND SWAP1 POP SWAP2 SWAP1 POP JUMP JUMPDEST PUSH0 PUSH2 0x767 DUP3 PUSH2 0x584 JUMP JUMPDEST SWAP2 POP PUSH2 0x772 DUP4 PUSH2 0x751 JUMP JUMPDEST SWAP3 POP PUSH2 0x79F PUSH32 0xFFFFFFFFFFFFFFFFFFFFFFFFFFFFFFFFFFFFFFFFFFFFFFFFFFFFFFFFFFFFFFFF DUP5 DUP5 PUSH2 0x680 JUMP JUMPDEST SWAP1 POP SWAP3 SWAP2 POP POP JUMP JUMPDEST PUSH0 PUSH2 0x7B1 DUP3 PUSH2 0x584 JUMP JUMPDEST SWAP2 POP PUSH2 0x7BC DUP4 PUSH2 0x584 JUMP JUMPDEST SWAP3 POP DUP3 DUP3 MUL PUSH2 0x7CA DUP2 PUSH2 0x584 JUMP JUMPDEST SWAP2 POP DUP3 DUP3 DIV DUP5 EQ DUP4 ISZERO OR PUSH2 0x7E1 JUMPI PUSH2 0x7E0 PUSH2 0x5F5 JUMP JUMPDEST JUMPDEST POP SWAP3 SWAP2 POP POP JUMP JUMPDEST PUSH0 DUP2 MLOAD SWAP1 POP SWAP2 SWAP1 POP JUMP JUMPDEST PUSH32 0x4E487B7100000000000000000000000000000000000000000000000000000000 PUSH0 MSTORE PUSH1 0x41 PUSH1 0x4 MSTORE PUSH1 0x24 PUSH0 REVERT JUMPDEST PUSH32 0x4E487B7100000000000000000000000000000000000000000000000000000000 PUSH0 MSTORE PUSH1 0x22 PUSH1 0x4 MSTORE PUSH1 0x24 PUSH0 REVERT JUMPDEST PUSH0 PUSH1 0x2 DUP3 DIV SWAP1 POP PUSH1 0x1 DUP3 AND DUP1 PUSH2 0x863 JUMPI PUSH1 0x7F DUP3 AND SWAP2 POP JUMPDEST PUSH1 0x20 DUP3 LT DUP2 SUB PUSH2 0x876 JUMPI PUSH2 0x875 PUSH2 0x81F JUMP JUMPDEST JUMPDEST POP SWAP2 SWAP1 POP JUMP JUMPDEST PUSH0 DUP2 SWAP1 POP DUP2 PUSH0 MSTORE PUSH1 0x20 PUSH0 KECCAK256 SWAP1 POP SWAP2 SWAP1 POP JUMP JUMPDEST PUSH0 PUSH1 0x20 PUSH1 0x1F DUP4 ADD DIV SWAP1 POP SWAP2 SWAP1 POP JUMP JUMPDEST PUSH0 DUP3 DUP3 SHL SWAP1 POP SWAP3 SWAP2 POP POP JUMP JUMPDEST PUSH0 PUSH1 0x8 DUP4 MUL PUSH2 0x8D8 PUSH32 0xFFFFFFFFFFFFFFFFFFFFFFFFFFFFFFFFFFFFFFFFFFFFFFFFFFFFFFFFFFFFFFFF DUP3 PUSH2 0x89D JUMP JUMPDEST PUSH2 0x8E2 DUP7 DUP4 PUSH2 0x89D JUMP JUMPDEST SWAP6 POP DUP1 NOT DUP5 AND SWAP4 POP DUP1 DUP7 AND DUP5 OR SWAP3 POP POP POP SWAP4 SWAP3 POP POP POP JUMP JUMPDEST PUSH0 DUP2 SWAP1 POP SWAP2 SWAP1 POP JUMP JUMPDEST PUSH0 PUSH2 0x91D PUSH2 0x918 PUSH2 0x913 DUP5 PUSH2 0x584 JUMP JUMPDEST PUSH2 0x8FA JUMP JUMPDEST PUSH2 0x584 JUMP JUMPDEST SWAP1 POP SWAP2 SWAP1 POP JUMP JUMPDEST PUSH0 DUP2 SWAP1 POP SWAP2 SWAP1 POP JUMP JUMPDEST PUSH2 0x936 DUP4 PUSH2 0x903 JUMP JUMPDEST PUSH2 0x94A PUSH2 0x942 DUP3 PUSH2 0x924 JUMP JUMPDEST DUP5 DUP5 SLOAD PUSH2 0x8A9 JUMP JUMPDEST DUP3 SSTORE POP POP POP POP JUMP JUMPDEST PUSH0 SWAP1 JUMP JUMPDEST PUSH2 0x95E PUSH2 0x952 JUMP JUMPDEST PUSH2 0x969 DUP2 DUP5 DUP5 PUSH2 0x92D JUMP JUMPDEST POP POP POP JUMP JUMPDEST JUMPDEST DUP2 DUP2 LT ISZERO PUSH2 0x98C JUMPI PUSH2 0x981 PUSH0 DUP3 PUSH2 0x956 JUMP JUMPDEST PUSH1 0x1 DUP2 ADD SWAP1 POP PUSH2 0x96F JUMP JUMPDEST POP POP JUMP JUMPDEST PUSH1 0x1F DUP3 GT ISZERO PUSH2 0x9D1 JUMPI PUSH2 0x9A2 DUP2 PUSH2 0x87C JUMP JUMPDEST PUSH2 0x9AB DUP5 PUSH2 0x88E JUMP JUMPDEST DUP2 ADD PUSH1 0x20 DUP6 LT ISZERO PUSH2 0x9BA JUMPI DUP2 SWAP1 POP JUMPDEST PUSH2 0x9CE PUSH2 0x9C6 DUP6 PUSH2 0x88E JUMP JUMPDEST DUP4 ADD DUP3 PUSH2 0x96E JUMP JUMPDEST POP POP JUMPDEST POP POP POP JUMP JUMPDEST PUSH0 DUP3 DUP3 SHR SWAP1 POP SWAP3 SWAP2 POP POP JUMP JUMPDEST PUSH0 PUSH2 0x9F1 PUSH0 NOT DUP5 PUSH1 0x8 MUL PUSH2 0x9D6 JUMP JUMPDEST NOT DUP1 DUP4 AND SWAP2 POP POP SWAP3 SWAP2 POP POP JUMP JUMPDEST PUSH0 PUSH2 0xA09 DUP4 DUP4 PUSH2 0x9E2 JUMP JUMPDEST SWAP2 POP DUP3 PUSH1 0x2 MUL DUP3 OR SWAP1 POP SWAP3 SWAP2 POP POP JUMP JUMPDEST PUSH2 0xA22 DUP3 PUSH2 0x7E8 JUMP JUMPDEST PUSH8 0xFFFFFFFFFFFFFFFF DUP2 GT ISZERO PUSH2 0xA3B JUMPI PUSH2 0xA3A PUSH2 0x7F2 JUMP JUMPDEST JUMPDEST PUSH2 0xA45 DUP3 SLOAD PUSH2 0x84C JUMP JUMPDEST PUSH2 0xA50 DUP3 DUP3 DUP6 PUSH2 0x990 JUMP JUMPDEST PUSH0 PUSH1 0x20 SWAP1 POP PUSH1 0x1F DUP4 GT PUSH1 0x1 DUP2 EQ PUSH2 0xA81 JUMPI PUSH0 DUP5 ISZERO PUSH2 0xA6F JUMPI DUP3 DUP8 ADD MLOAD SWAP1 POP JUMPDEST PUSH2 0xA79 DUP6 DUP3 PUSH2 0x9FE JUMP JUMPDEST DUP7 SSTORE POP PUSH2 0xAE0 JUMP JUMPDEST PUSH1 0x1F NOT DUP5 AND PUSH2 0xA8F DUP7 PUSH2 0x87C JUMP JUMPDEST PUSH0 JUMPDEST DUP3 DUP2 LT ISZERO PUSH2 0xAB6 JUMPI DUP5 DUP10 ADD MLOAD DUP3 SSTORE PUSH1 0x1 DUP3 ADD SWAP2 POP PUSH1 0x20 DUP6 ADD SWAP5 POP PUSH1 0x20 DUP2 ADD SWAP1 POP PUSH2 0xA91 JUMP JUMPDEST DUP7 DUP4 LT ISZERO PUSH2 0xAD3 JUMPI DUP5 DUP10 ADD MLOAD PUSH2 0xACF PUSH1 0x1F DUP10 AND DUP3 PUSH2 0x9E2 JUMP JUMPDEST DUP4 SSTORE POP JUMPDEST PUSH1 0x1 PUSH1 0x2 DUP9 MUL ADD DUP9 SSTORE POP POP POP JUMPDEST POP POP POP POP POP POP JUMP JUMPDEST PUSH0 DUP3 DUP3 MSTORE PUSH1 0x20 DUP3 ADD SWAP1 POP SWAP3 SWAP2 POP POP JUMP JUMPDEST PUSH32 0x45524332304361707065643A2063617020697320300000000000000000000000 PUSH0 DUP3 ADD MSTORE POP JUMP JUMPDEST PUSH0 PUSH2 0xB2C PUSH1 0x15 DUP4 PUSH2 0xAE8 JUMP JUMPDEST SWAP2 POP PUSH2 0xB37 DUP3 PUSH2 0xAF8 JUMP JUMPDEST PUSH1 0x20 DUP3 ADD SWAP1 POP SWAP2 SWAP1 POP JUMP JUMPDEST PUSH0 PUSH1 0x20 DUP3 ADD SWAP1 POP DUP2 DUP2 SUB PUSH0 DUP4 ADD MSTORE PUSH2 0xB59 DUP2 PUSH2 0xB20 JUMP JUMPDEST SWAP1 POP SWAP2 SWAP1 POP JUMP JUMPDEST PUSH0 PUSH2 0xB6A DUP3 PUSH2 0x584 JUMP JUMPDEST SWAP2 POP PUSH2 0xB75 DUP4 PUSH2 0x584 JUMP JUMPDEST SWAP3 POP DUP3 DUP3 ADD SWAP1 POP DUP1 DUP3 GT ISZERO PUSH2 0xB8D JUMPI PUSH2 0xB8C PUSH2 0x5F5 JUMP JUMPDEST JUMPDEST SWAP3 SWAP2 POP POP JUMP JUMPDEST PUSH32 0x45524332304361707065643A2063617020657863656564656400000000000000 PUSH0 DUP3 ADD MSTORE POP JUMP JUMPDEST PUSH0 PUSH2 0xBC7 PUSH1 0x19 DUP4 PUSH2 0xAE8 JUMP JUMPDEST SWAP2 POP PUSH2 0xBD2 DUP3 PUSH2 0xB93 JUMP JUMPDEST PUSH1 0x20 DUP3 ADD SWAP1 POP SWAP2 SWAP1 POP JUMP JUMPDEST PUSH0 PUSH1 0x20 DUP3 ADD SWAP1 POP DUP2 DUP2 SUB PUSH0 DUP4 ADD MSTORE PUSH2 0xBF4 DUP2 PUSH2 0xBBB JUMP JUMPDEST SWAP1 POP SWAP2 SWAP1 POP JUMP JUMPDEST PUSH32 0x45524332303A206D696E7420746F20746865207A65726F206164647265737300 PUSH0 DUP3 ADD MSTORE POP JUMP JUMPDEST PUSH0 PUSH2 0xC2F PUSH1 0x1F DUP4 PUSH2 0xAE8 JUMP JUMPDEST SWAP2 POP PUSH2 0xC3A DUP3 PUSH2 0xBFB JUMP JUMPDEST PUSH1 0x20 DUP3 ADD SWAP1 POP SWAP2 SWAP1 POP JUMP JUMPDEST PUSH0 PUSH1 0x20 DUP3 ADD SWAP1 POP DUP2 DUP2 SUB PUSH0 DUP4 ADD MSTORE PUSH2 0xC5C DUP2 PUSH2 0xC23 JUMP JUMPDEST SWAP1 POP SWAP2 SWAP1 POP JUMP JUMPDEST PUSH2 0xC6C DUP2 PUSH2 0x584 JUMP JUMPDEST DUP3 MSTORE POP POP JUMP JUMPDEST PUSH0 PUSH1 0x20 DUP3 ADD SWAP1 POP PUSH2 0xC85 PUSH0 DUP4 ADD DUP5 PUSH2 0xC63 JUMP JUMPDEST SWAP3 SWAP2 POP POP JUMP JUMPDEST PUSH1 0x80 MLOAD PUSH2 0x20A4 PUSH2 0xCA3 PUSH0 CODECOPY PUSH0 PUSH2 0x678 ADD MSTORE PUSH2 0x20A4 PUSH0 RETURN INVALID PUSH1 0x80 PUSH1 0x40 MSTORE CALLVALUE DUP1 ISZERO PUSH2 0xF JUMPI PUSH0 DUP1 REVERT JUMPDEST POP PUSH1 0x4 CALLDATASIZE LT PUSH2 0x12A JUMPI PUSH0 CALLDATALOAD PUSH1 0xE0 SHR DUP1 PUSH4 0x42966C68 GT PUSH2 0xAB JUMPI DUP1 PUSH4 0x95D89B41 GT PUSH2 0x6F JUMPI DUP1 PUSH4 0x95D89B41 EQ PUSH2 0x356 JUMPI DUP1 PUSH4 0xA457C2D7 EQ PUSH2 0x374 JUMPI DUP1 PUSH4 0xA9059CBB EQ PUSH2 0x3A4 JUMPI DUP1 PUSH4 0xC0E6C965 EQ PUSH2 0x3D4 JUMPI DUP1 PUSH4 0xDD62ED3E EQ PUSH2 0x3F0 JUMPI PUSH2 0x12A JUMP JUMPDEST DUP1 PUSH4 0x42966C68 EQ PUSH2 0x2A0 JUMPI DUP1 PUSH4 0x70A08231 EQ PUSH2 0x2BC JUMPI DUP1 PUSH4 0x79CC6790 EQ PUSH2 0x2EC JUMPI DUP1 PUSH4 0x80AC4BE8 EQ PUSH2 0x308 JUMPI DUP1 PUSH4 0x8DA5CB5B EQ PUSH2 0x338 JUMPI PUSH2 0x12A JUMP JUMPDEST DUP1 PUSH4 0x1A18E707 GT PUSH2 0xF2 JUMPI DUP1 PUSH4 0x1A18E707 EQ PUSH2 0x1E8 JUMPI DUP1 PUSH4 0x23B872DD EQ PUSH2 0x204 JUMPI DUP1 PUSH4 0x313CE567 EQ PUSH2 0x234 JUMPI DUP1 PUSH4 0x355274EA EQ PUSH2 0x252 JUMPI DUP1 PUSH4 0x39509351 EQ PUSH2 0x270 JUMPI PUSH2 0x12A JUMP JUMPDEST DUP1 PUSH4 0x6FDDE03 EQ PUSH2 0x12E JUMPI DUP1 PUSH4 0x95EA7B3 EQ PUSH2 0x14C JUMPI DUP1 PUSH4 0xAC168A1 EQ PUSH2 0x17C JUMPI DUP1 PUSH4 0x155184C6 EQ PUSH2 0x19A JUMPI DUP1 PUSH4 0x18160DDD EQ PUSH2 0x1CA JUMPI JUMPDEST PUSH0 DUP1 REVERT JUMPDEST PUSH2 0x136 PUSH2 0x420 JUMP JUMPDEST PUSH1 0x40 MLOAD PUSH2 0x143 SWAP2 SWAP1 PUSH2 0x1430 JUMP JUMPDEST PUSH1 0x40 MLOAD DUP1 SWAP2 SUB SWAP1 RETURN JUMPDEST PUSH2 0x166 PUSH1 0x4 DUP1 CALLDATASIZE SUB DUP2 ADD SWAP1 PUSH2 0x161 SWAP2 SWAP1 PUSH2 0x14E1 JUMP JUMPDEST PUSH2 0x4B0 JUMP JUMPDEST PUSH1 0x40 MLOAD PUSH2 0x173 SWAP2 SWAP1 PUSH2 0x1539 JUMP JUMPDEST PUSH1 0x40 MLOAD DUP1 SWAP2 SUB SWAP1 RETURN JUMPDEST PUSH2 0x184 PUSH2 0x4D2 JUMP JUMPDEST PUSH1 0x40 MLOAD PUSH2 0x191 SWAP2 SWAP1 PUSH2 0x1561 JUMP JUMPDEST PUSH1 0x40 MLOAD DUP1 SWAP2 SUB SWAP1 RETURN JUMPDEST PUSH2 0x1B4 PUSH1 0x4 DUP1 CALLDATASIZE SUB DUP2 ADD SWAP1 PUSH2 0x1AF SWAP2 SWAP1 PUSH2 0x157A JUMP JUMPDEST PUSH2 0x4D8 JUMP JUMPDEST PUSH1 0x40 MLOAD PUSH2 0x1C1 SWAP2 SWAP1 PUSH2 0x1539 JUMP JUMPDEST PUSH1 0x40 MLOAD DUP1 SWAP2 SUB SWAP1 RETURN JUMPDEST PUSH2 0x1D2 PUSH2 0x57F JUMP JUMPDEST PUSH1 0x40 MLOAD PUSH2 0x1DF SWAP2 SWAP1 PUSH2 0x1561 JUMP JUMPDEST PUSH1 0x40 MLOAD DUP1 SWAP2 SUB SWAP1 RETURN JUMPDEST PUSH2 0x202 PUSH1 0x4 DUP1 CALLDATASIZE SUB DUP2 ADD SWAP1 PUSH2 0x1FD SWAP2 SWAP1 PUSH2 0x15CA JUMP JUMPDEST PUSH2 0x588 JUMP JUMPDEST STOP JUMPDEST PUSH2 0x21E PUSH1 0x4 DUP1 CALLDATASIZE SUB DUP2 ADD SWAP1 PUSH2 0x219 SWAP2 SWAP1 PUSH2 0x157A JUMP JUMPDEST PUSH2 0x63F JUMP JUMPDEST PUSH1 0x40 MLOAD PUSH2 0x22B SWAP2 SWAP1 PUSH2 0x1539 JUMP JUMPDEST PUSH1 0x40 MLOAD DUP1 SWAP2 SUB SWAP1 RETURN JUMPDEST PUSH2 0x23C PUSH2 0x66D JUMP JUMPDEST PUSH1 0x40 MLOAD PUSH2 0x249 SWAP2 SWAP1 PUSH2 0x1610 JUMP JUMPDEST PUSH1 0x40 MLOAD DUP1 SWAP2 SUB SWAP1 RETURN JUMPDEST PUSH2 0x25A PUSH2 0x675 JUMP JUMPDEST PUSH1 0x40 MLOAD PUSH2 0x267 SWAP2 SWAP1 PUSH2 0x1561 JUMP JUMPDEST PUSH1 0x40 MLOAD DUP1 SWAP2 SUB SWAP1 RETURN JUMPDEST PUSH2 0x28A PUSH1 0x4 DUP1 CALLDATASIZE SUB DUP2 ADD SWAP1 PUSH2 0x285 SWAP2 SWAP1 PUSH2 0x14E1 JUMP JUMPDEST PUSH2 0x69C JUMP JUMPDEST PUSH1 0x40 MLOAD PUSH2 0x297 SWAP2 SWAP1 PUSH2 0x1539 JUMP JUMPDEST PUSH1 0x40 MLOAD DUP1 SWAP2 SUB SWAP1 RETURN JUMPDEST PUSH2 0x2BA PUSH1 0x4 DUP1 CALLDATASIZE SUB DUP2 ADD SWAP1 PUSH2 0x2B5 SWAP2 SWAP1 PUSH2 0x15CA JUMP JUMPDEST PUSH2 0x6D2 JUMP JUMPDEST STOP JUMPDEST PUSH2 0x2D6 PUSH1 0x4 DUP1 CALLDATASIZE SUB DUP2 ADD SWAP1 PUSH2 0x2D1 SWAP2 SWAP1 PUSH2 0x1629 JUMP JUMPDEST PUSH2 0x6E6 JUMP JUMPDEST PUSH1 0x40 MLOAD PUSH2 0x2E3 SWAP2 SWAP1 PUSH2 0x1561 JUMP JUMPDEST PUSH1 0x40 MLOAD DUP1 SWAP2 SUB SWAP1 RETURN JUMPDEST PUSH2 0x306 PUSH1 0x4 DUP1 CALLDATASIZE SUB DUP2 ADD SWAP1 PUSH2 0x301 SWAP2 SWAP1 PUSH2 0x14E1 JUMP JUMPDEST PUSH2 0x72B JUMP JUMPDEST STOP JUMPDEST PUSH2 0x322 PUSH1 0x4 DUP1 CALLDATASIZE SUB DUP2 ADD SWAP1 PUSH2 0x31D SWAP2 SWAP1 PUSH2 0x1629 JUMP JUMPDEST PUSH2 0x74B JUMP JUMPDEST PUSH1 0x40 MLOAD PUSH2 0x32F SWAP2 SWAP1 PUSH2 0x1539 JUMP JUMPDEST PUSH1 0x40 MLOAD DUP1 SWAP2 SUB SWAP1 RETURN JUMPDEST PUSH2 0x340 PUSH2 0x768 JUMP JUMPDEST PUSH1 0x40 MLOAD PUSH2 0x34D SWAP2 SWAP1 PUSH2 0x1674 JUMP JUMPDEST PUSH1 0x40 MLOAD DUP1 SWAP2 SUB SWAP1 RETURN JUMPDEST PUSH2 0x35E PUSH2 0x78D JUMP JUMPDEST PUSH1 0x40 MLOAD PUSH2 0x36B SWAP2 SWAP1 PUSH2 0x1430 JUMP JUMPDEST PUSH1 0x40 MLOAD DUP1 SWAP2 SUB SWAP1 RETURN JUMPDEST PUSH2 0x38E PUSH1 0x4 DUP1 CALLDATASIZE SUB DUP2 ADD SWAP1 PUSH2 0x389 SWAP2 SWAP1 PUSH2 0x14E1 JUMP JUMPDEST PUSH2 0x81D JUMP JUMPDEST PUSH1 0x40 MLOAD PUSH2 0x39B SWAP2 SWAP1 PUSH2 0x1539 JUMP JUMPDEST PUSH1 0x40 MLOAD DUP1 SWAP2 SUB SWAP1 RETURN JUMPDEST PUSH2 0x3BE PUSH1 0x4 DUP1 CALLDATASIZE SUB DUP2 ADD SWAP1 PUSH2 0x3B9 SWAP2 SWAP1 PUSH2 0x14E1 JUMP JUMPDEST PUSH2 0x892 JUMP JUMPDEST PUSH1 0x40 MLOAD PUSH2 0x3CB SWAP2 SWAP1 PUSH2 0x1539 JUMP JUMPDEST PUSH1 0x40 MLOAD DUP1 SWAP2 SUB SWAP1 RETURN JUMPDEST PUSH2 0x3EE PUSH1 0x4 DUP1 CALLDATASIZE SUB DUP2 ADD SWAP1 PUSH2 0x3E9 SWAP2 SWAP1 PUSH2 0x16B7 JUMP JUMPDEST PUSH2 0x8B4 JUMP JUMPDEST STOP JUMPDEST PUSH2 0x40A PUSH1 0x4 DUP1 CALLDATASIZE SUB DUP2 ADD SWAP1 PUSH2 0x405 SWAP2 SWAP1 PUSH2 0x16F5 JUMP JUMPDEST PUSH2 0x99B JUMP JUMPDEST PUSH1 0x40 MLOAD PUSH2 0x417 SWAP2 SWAP1 PUSH2 0x1561 JUMP JUMPDEST PUSH1 0x40 MLOAD DUP1 SWAP2 SUB SWAP1 RETURN JUMPDEST PUSH1 0x60 PUSH1 0x3 DUP1 SLOAD PUSH2 0x42F SWAP1 PUSH2 0x1760 JUMP JUMPDEST DUP1 PUSH1 0x1F ADD PUSH1 0x20 DUP1 SWAP2 DIV MUL PUSH1 0x20 ADD PUSH1 0x40 MLOAD SWAP1 DUP2 ADD PUSH1 0x40 MSTORE DUP1 SWAP3 SWAP2 SWAP1 DUP2 DUP2 MSTORE PUSH1 0x20 ADD DUP3 DUP1 SLOAD PUSH2 0x45B SWAP1 PUSH2 0x1760 JUMP JUMPDEST DUP1 ISZERO PUSH2 0x4A6 JUMPI DUP1 PUSH1 0x1F LT PUSH2 0x47D JUMPI PUSH2 0x100 DUP1 DUP4 SLOAD DIV MUL DUP4 MSTORE SWAP2 PUSH1 0x20 ADD SWAP2 PUSH2 0x4A6 JUMP JUMPDEST DUP3 ADD SWAP2 SWAP1 PUSH0 MSTORE PUSH1 0x20 PUSH0 KECCAK256 SWAP1 JUMPDEST DUP2 SLOAD DUP2 MSTORE SWAP1 PUSH1 0x1 ADD SWAP1 PUSH1 0x20 ADD DUP1 DUP4 GT PUSH2 0x489 JUMPI DUP3 SWAP1 SUB PUSH1 0x1F AND DUP3 ADD SWAP2 JUMPDEST POP POP POP POP POP SWAP1 POP SWAP1 JUMP JUMPDEST PUSH0 DUP1 PUSH2 0x4BA PUSH2 0xA1D JUMP JUMPDEST SWAP1 POP PUSH2 0x4C7 DUP2 DUP6 DUP6 PUSH2 0xA24 JUMP JUMPDEST PUSH1 0x1 SWAP2 POP POP SWAP3 SWAP2 POP POP JUMP JUMPDEST PUSH1 0x6 SLOAD DUP2 JUMP JUMPDEST PUSH0 PUSH1 0x1 ISZERO ISZERO PUSH1 0x7 PUSH0 CALLER PUSH20 0xFFFFFFFFFFFFFFFFFFFFFFFFFFFFFFFFFFFFFFFF AND PUSH20 0xFFFFFFFFFFFFFFFFFFFFFFFFFFFFFFFFFFFFFFFF AND DUP2 MSTORE PUSH1 0x20 ADD SWAP1 DUP2 MSTORE PUSH1 0x20 ADD PUSH0 KECCAK256 PUSH0 SWAP1 SLOAD SWAP1 PUSH2 0x100 EXP SWAP1 DIV PUSH1 0xFF AND ISZERO ISZERO EQ PUSH2 0x569 JUMPI PUSH1 0x40 MLOAD PUSH32 0x8C379A000000000000000000000000000000000000000000000000000000000 DUP2 MSTORE PUSH1 0x4 ADD PUSH2 0x560 SWAP1 PUSH2 0x1800 JUMP JUMPDEST PUSH1 0x40 MLOAD DUP1 SWAP2 SUB SWAP1 REVERT JUMPDEST PUSH2 0x574 DUP5 DUP5 DUP5 PUSH2 0xBE7 JUMP JUMPDEST PUSH1 0x1 SWAP1 POP SWAP4 SWAP3 POP POP POP JUMP JUMPDEST PUSH0 PUSH1 0x2 SLOAD SWAP1 POP SWAP1 JUMP JUMPDEST PUSH1 0x5 PUSH0 SWAP1 SLOAD SWAP1 PUSH2 0x100 EXP SWAP1 DIV PUSH20 0xFFFFFFFFFFFFFFFFFFFFFFFFFFFFFFFFFFFFFFFF AND PUSH20 0xFFFFFFFFFFFFFFFFFFFFFFFFFFFFFFFFFFFFFFFF AND CALLER PUSH20 0xFFFFFFFFFFFFFFFFFFFFFFFFFFFFFFFFFFFFFFFF AND EQ PUSH2 0x617 JUMPI PUSH1 0x40 MLOAD PUSH32 0x8C379A000000000000000000000000000000000000000000000000000000000 DUP2 MSTORE PUSH1 0x4 ADD PUSH2 0x60E SWAP1 PUSH2 0x188E JUMP JUMPDEST PUSH1 0x40 MLOAD DUP1 SWAP2 SUB SWAP1 REVERT JUMPDEST PUSH2 0x61F PUSH2 0x66D JUMP JUMPDEST PUSH1 0xA PUSH2 0x62B SWAP2 SWAP1 PUSH2 0x1A08 JUMP JUMPDEST DUP2 PUSH2 0x636 SWAP2 SWAP1 PUSH2 0x1A52 JUMP JUMPDEST PUSH1 0x6 DUP2 SWAP1 SSTORE POP POP JUMP JUMPDEST PUSH0 DUP1 PUSH2 0x649 PUSH2 0xA1D JUMP JUMPDEST SWAP1 POP PUSH2 0x656 DUP6 DUP3 DUP6 PUSH2 0xE53 JUMP JUMPDEST PUSH2 0x661 DUP6 DUP6 DUP6 PUSH2 0xBE7 JUMP JUMPDEST PUSH1 0x1 SWAP2 POP POP SWAP4 SWAP3 POP POP POP JUMP JUMPDEST PUSH0 PUSH1 0x12 SWAP1 POP SWAP1 JUMP JUMPDEST PUSH0 PUSH32 0x0 SWAP1 POP SWAP1 JUMP JUMPDEST PUSH0 DUP1 PUSH2 0x6A6 PUSH2 0xA1D JUMP JUMPDEST SWAP1 POP PUSH2 0x6C7 DUP2 DUP6 DUP6 PUSH2 0x6B8 DUP6 DUP10 PUSH2 0x99B JUMP JUMPDEST PUSH2 0x6C2 SWAP2 SWAP1 PUSH2 0x1A93 JUMP JUMPDEST PUSH2 0xA24 JUMP JUMPDEST PUSH1 0x1 SWAP2 POP POP SWAP3 SWAP2 POP POP JUMP JUMPDEST PUSH2 0x6E3 PUSH2 0x6DD PUSH2 0xA1D JUMP JUMPDEST DUP3 PUSH2 0xEDE JUMP JUMPDEST POP JUMP JUMPDEST PUSH0 DUP1 PUSH0 DUP4 PUSH20 0xFFFFFFFFFFFFFFFFFFFFFFFFFFFFFFFFFFFFFFFF AND PUSH20 0xFFFFFFFFFFFFFFFFFFFFFFFFFFFFFFFFFFFFFFFF AND DUP2 MSTORE PUSH1 0x20 ADD SWAP1 DUP2 MSTORE PUSH1 0x20 ADD PUSH0 KECCAK256 SLOAD SWAP1 POP SWAP2 SWAP1 POP JUMP JUMPDEST PUSH2 0x73D DUP3 PUSH2 0x737 PUSH2 0xA1D JUMP JUMPDEST DUP4 PUSH2 0xE53 JUMP JUMPDEST PUSH2 0x747 DUP3 DUP3 PUSH2 0xEDE JUMP JUMPDEST POP POP JUMP JUMPDEST PUSH1 0x7 PUSH1 0x20 MSTORE DUP1 PUSH0 MSTORE PUSH1 0x40 PUSH0 KECCAK256 PUSH0 SWAP2 POP SLOAD SWAP1 PUSH2 0x100 EXP SWAP1 DIV PUSH1 0xFF AND DUP2 JUMP JUMPDEST PUSH1 0x5 PUSH0 SWAP1 SLOAD SWAP1 PUSH2 0x100 EXP SWAP1 DIV PUSH20 0xFFFFFFFFFFFFFFFFFFFFFFFFFFFFFFFFFFFFFFFF AND DUP2 JUMP JUMPDEST PUSH1 0x60 PUSH1 0x4 DUP1 SLOAD PUSH2 0x79C SWAP1 PUSH2 0x1760 JUMP JUMPDEST DUP1 PUSH1 0x1F ADD PUSH1 0x20 DUP1 SWAP2 DIV MUL PUSH1 0x20 ADD PUSH1 0x40 MLOAD SWAP1 DUP2 ADD PUSH1 0x40 MSTORE DUP1 SWAP3 SWAP2 SWAP1 DUP2 DUP2 MSTORE PUSH1 0x20 ADD DUP3 DUP1 SLOAD PUSH2 0x7C8 SWAP1 PUSH2 0x1760 JUMP JUMPDEST DUP1 ISZERO PUSH2 0x813 JUMPI DUP1 PUSH1 0x1F LT PUSH2 0x7EA JUMPI PUSH2 0x100 DUP1 DUP4 SLOAD DIV MUL DUP4 MSTORE SWAP2 PUSH1 0x20 ADD SWAP2 PUSH2 0x813 JUMP JUMPDEST DUP3 ADD SWAP2 SWAP1 PUSH0 MSTORE PUSH1 0x20 PUSH0 KECCAK256 SWAP1 JUMPDEST DUP2 SLOAD DUP2 MSTORE SWAP1 PUSH1 0x1 ADD SWAP1 PUSH1 0x20 ADD DUP1 DUP4 GT PUSH2 0x7F6 JUMPI DUP3 SWAP1 SUB PUSH1 0x1F AND DUP3 ADD SWAP2 JUMPDEST POP POP POP POP POP SWAP1 POP SWAP1 JUMP JUMPDEST PUSH0 DUP1 PUSH2 0x827 PUSH2 0xA1D JUMP JUMPDEST SWAP1 POP PUSH0 PUSH2 0x834 DUP3 DUP7 PUSH2 0x99B JUMP JUMPDEST SWAP1 POP DUP4 DUP2 LT ISZERO PUSH2 0x879 JUMPI PUSH1 0x40 MLOAD PUSH32 0x8C379A000000000000000000000000000000000000000000000000000000000 DUP2 MSTORE PUSH1 0x4 ADD PUSH2 0x870 SWAP1 PUSH2 0x1B36 JUMP JUMPDEST PUSH1 0x40 MLOAD DUP1 SWAP2 SUB SWAP1 REVERT JUMPDEST PUSH2 0x886 DUP3 DUP7 DUP7 DUP5 SUB PUSH2 0xA24 JUMP JUMPDEST PUSH1 0x1 SWAP3 POP POP POP SWAP3 SWAP2 POP POP JUMP JUMPDEST PUSH0 DUP1 PUSH2 0x89C PUSH2 0xA1D JUMP JUMPDEST SWAP1 POP PUSH2 0x8A9 DUP2 DUP6 DUP6 PUSH2 0xBE7 JUMP JUMPDEST PUSH1 0x1 SWAP2 POP POP SWAP3 SWAP2 POP POP JUMP JUMPDEST PUSH1 0x5 PUSH0 SWAP1 SLOAD SWAP1 PUSH2 0x100 EXP SWAP1 DIV PUSH20 0xFFFFFFFFFFFFFFFFFFFFFFFFFFFFFFFFFFFFFFFF AND PUSH20 0xFFFFFFFFFFFFFFFFFFFFFFFFFFFFFFFFFFFFFFFF AND CALLER PUSH20 0xFFFFFFFFFFFFFFFFFFFFFFFFFFFFFFFFFFFFFFFF AND EQ PUSH2 0x943 JUMPI PUSH1 0x40 MLOAD PUSH32 0x8C379A000000000000000000000000000000000000000000000000000000000 DUP2 MSTORE PUSH1 0x4 ADD PUSH2 0x93A SWAP1 PUSH2 0x188E JUMP JUMPDEST PUSH1 0x40 MLOAD DUP1 SWAP2 SUB SWAP1 REVERT JUMPDEST DUP1 PUSH1 0x7 PUSH0 DUP5 PUSH20 0xFFFFFFFFFFFFFFFFFFFFFFFFFFFFFFFFFFFFFFFF AND PUSH20 0xFFFFFFFFFFFFFFFFFFFFFFFFFFFFFFFFFFFFFFFF AND DUP2 MSTORE PUSH1 0x20 ADD SWAP1 DUP2 MSTORE PUSH1 0x20 ADD PUSH0 KECCAK256 PUSH0 PUSH2 0x100 EXP DUP2 SLOAD DUP2 PUSH1 0xFF MUL NOT AND SWAP1 DUP4 ISZERO ISZERO MUL OR SWAP1 SSTORE POP POP POP JUMP JUMPDEST PUSH0 PUSH1 0x1 PUSH0 DUP5 PUSH20 0xFFFFFFFFFFFFFFFFFFFFFFFFFFFFFFFFFFFFFFFF AND PUSH20 0xFFFFFFFFFFFFFFFFFFFFFFFFFFFFFFFFFFFFFFFF AND DUP2 MSTORE PUSH1 0x20 ADD SWAP1 DUP2 MSTORE PUSH1 0x20 ADD PUSH0 KECCAK256 PUSH0 DUP4 PUSH20 0xFFFFFFFFFFFFFFFFFFFFFFFFFFFFFFFFFFFFFFFF AND PUSH20 0xFFFFFFFFFFFFFFFFFFFFFFFFFFFFFFFFFFFFFFFF AND DUP2 MSTORE PUSH1 0x20 ADD SWAP1 DUP2 MSTORE PUSH1 0x20 ADD PUSH0 KECCAK256 SLOAD SWAP1 POP SWAP3 SWAP2 POP POP JUMP JUMPDEST PUSH0 CALLER SWAP1 POP SWAP1 JUMP JUMPDEST PUSH0 PUSH20 0xFFFFFFFFFFFFFFFFFFFFFFFFFFFFFFFFFFFFFFFF AND DUP4 PUSH20 0xFFFFFFFFFFFFFFFFFFFFFFFFFFFFFFFFFFFFFFFF AND SUB PUSH2 0xA92 JUMPI PUSH1 0x40 MLOAD PUSH32 0x8C379A000000000000000000000000000000000000000000000000000000000 DUP2 MSTORE PUSH1 0x4 ADD PUSH2 0xA89 SWAP1 PUSH2 0x1BC4 JUMP JUMPDEST PUSH1 0x40 MLOAD DUP1 SWAP2 SUB SWAP1 REVERT JUMPDEST PUSH0 PUSH20 0xFFFFFFFFFFFFFFFFFFFFFFFFFFFFFFFFFFFFFFFF AND DUP3 PUSH20 0xFFFFFFFFFFFFFFFFFFFFFFFFFFFFFFFFFFFFFFFF AND SUB PUSH2 0xB00 JUMPI PUSH1 0x40 MLOAD PUSH32 0x8C379A000000000000000000000000000000000000000000000000000000000 DUP2 MSTORE PUSH1 0x4 ADD PUSH2 0xAF7 SWAP1 PUSH2 0x1C52 JUMP JUMPDEST PUSH1 0x40 MLOAD DUP1 SWAP2 SUB SWAP1 REVERT JUMPDEST DUP1 PUSH1 0x1 PUSH0 DUP6 PUSH20 0xFFFFFFFFFFFFFFFFFFFFFFFFFFFFFFFFFFFFFFFF AND PUSH20 0xFFFFFFFFFFFFFFFFFFFFFFFFFFFFFFFFFFFFFFFF AND DUP2 MSTORE PUSH1 0x20 ADD SWAP1 DUP2 MSTORE PUSH1 0x20 ADD PUSH0 KECCAK256 PUSH0 DUP5 PUSH20 0xFFFFFFFFFFFFFFFFFFFFFFFFFFFFFFFFFFFFFFFF AND PUSH20 0xFFFFFFFFFFFFFFFFFFFFFFFFFFFFFFFFFFFFFFFF AND DUP2 MSTORE PUSH1 0x20 ADD SWAP1 DUP2 MSTORE PUSH1 0x20 ADD PUSH0 KECCAK256 DUP2 SWAP1 SSTORE POP DUP2 PUSH20 0xFFFFFFFFFFFFFFFFFFFFFFFFFFFFFFFFFFFFFFFF AND DUP4 PUSH20 0xFFFFFFFFFFFFFFFFFFFFFFFFFFFFFFFFFFFFFFFF AND PUSH32 0x8C5BE1E5EBEC7D5BD14F71427D1E84F3DD0314C0F7B2291E5B200AC8C7C3B925 DUP4 PUSH1 0x40 MLOAD PUSH2 0xBDA SWAP2 SWAP1 PUSH2 0x1561 JUMP JUMPDEST PUSH1 0x40 MLOAD DUP1 SWAP2 SUB SWAP1 LOG3 POP POP POP JUMP JUMPDEST PUSH0 PUSH20 0xFFFFFFFFFFFFFFFFFFFFFFFFFFFFFFFFFFFFFFFF AND DUP4 PUSH20 0xFFFFFFFFFFFFFFFFFFFFFFFFFFFFFFFFFFFFFFFF AND SUB PUSH2 0xC55 JUMPI PUSH1 0x40 MLOAD PUSH32 0x8C379A000000000000000000000000000000000000000000000000000000000 DUP2 MSTORE PUSH1 0x4 ADD PUSH2 0xC4C SWAP1 PUSH2 0x1CE0 JUMP JUMPDEST PUSH1 0x40 MLOAD DUP1 SWAP2 SUB SWAP1 REVERT JUMPDEST PUSH0 PUSH20 0xFFFFFFFFFFFFFFFFFFFFFFFFFFFFFFFFFFFFFFFF AND DUP3 PUSH20 0xFFFFFFFFFFFFFFFFFFFFFFFFFFFFFFFFFFFFFFFF AND SUB PUSH2 0xCC3 JUMPI PUSH1 0x40 MLOAD PUSH32 0x8C379A000000000000000000000000000000000000000000000000000000000 DUP2 MSTORE PUSH1 0x4 ADD PUSH2 0xCBA SWAP1 PUSH2 0x1D6E JUMP JUMPDEST PUSH1 0x40 MLOAD DUP1 SWAP2 SUB SWAP1 REVERT JUMPDEST PUSH2 0xCCE DUP4 DUP4 DUP4 PUSH2 0x10A1 JUMP JUMPDEST PUSH0 DUP1 PUSH0 DUP6 PUSH20 0xFFFFFFFFFFFFFFFFFFFFFFFFFFFFFFFFFFFFFFFF AND PUSH20 0xFFFFFFFFFFFFFFFFFFFFFFFFFFFFFFFFFFFFFFFF AND DUP2 MSTORE PUSH1 0x20 ADD SWAP1 DUP2 MSTORE PUSH1 0x20 ADD PUSH0 KECCAK256 SLOAD SWAP1 POP DUP2 DUP2 LT ISZERO PUSH2 0xD51 JUMPI PUSH1 0x40 MLOAD PUSH32 0x8C379A000000000000000000000000000000000000000000000000000000000 DUP2 MSTORE PUSH1 0x4 ADD PUSH2 0xD48 SWAP1 PUSH2 0x1DFC JUMP JUMPDEST PUSH1 0x40 MLOAD DUP1 SWAP2 SUB SWAP1 REVERT JUMPDEST DUP2 DUP2 SUB PUSH0 DUP1 DUP7 PUSH20 0xFFFFFFFFFFFFFFFFFFFFFFFFFFFFFFFFFFFFFFFF AND PUSH20 0xFFFFFFFFFFFFFFFFFFFFFFFFFFFFFFFFFFFFFFFF AND DUP2 MSTORE PUSH1 0x20 ADD SWAP1 DUP2 MSTORE PUSH1 0x20 ADD PUSH0 KECCAK256 DUP2 SWAP1 SSTORE POP DUP2 PUSH0 DUP1 DUP6 PUSH20 0xFFFFFFFFFFFFFFFFFFFFFFFFFFFFFFFFFFFFFFFF AND PUSH20 0xFFFFFFFFFFFFFFFFFFFFFFFFFFFFFFFFFFFFFFFF AND DUP2 MSTORE PUSH1 0x20 ADD SWAP1 DUP2 MSTORE PUSH1 0x20 ADD PUSH0 KECCAK256 PUSH0 DUP3 DUP3 SLOAD ADD SWAP3 POP POP DUP2 SWAP1 SSTORE POP DUP3 PUSH20 0xFFFFFFFFFFFFFFFFFFFFFFFFFFFFFFFFFFFFFFFF AND DUP5 PUSH20 0xFFFFFFFFFFFFFFFFFFFFFFFFFFFFFFFFFFFFFFFF AND PUSH32 0xDDF252AD1BE2C89B69C2B068FC378DAA952BA7F163C4A11628F55A4DF523B3EF DUP5 PUSH1 0x40 MLOAD PUSH2 0xE3A SWAP2 SWAP1 PUSH2 0x1561 JUMP JUMPDEST PUSH1 0x40 MLOAD DUP1 SWAP2 SUB SWAP1 LOG3 PUSH2 0xE4D DUP5 DUP5 DUP5 PUSH2 0x1186 JUMP JUMPDEST POP POP POP POP JUMP JUMPDEST PUSH0 PUSH2 0xE5E DUP5 DUP5 PUSH2 0x99B JUMP JUMPDEST SWAP1 POP PUSH32 0xFFFFFFFFFFFFFFFFFFFFFFFFFFFFFFFFFFFFFFFFFFFFFFFFFFFFFFFFFFFFFFFF DUP2 EQ PUSH2 0xED8 JUMPI DUP2 DUP2 LT ISZERO PUSH2 0xECA JUMPI PUSH1 0x40 MLOAD PUSH32 0x8C379A000000000000000000000000000000000000000000000000000000000 DUP2 MSTORE PUSH1 0x4 ADD PUSH2 0xEC1 SWAP1 PUSH2 0x1E64 JUMP JUMPDEST PUSH1 0x40 MLOAD DUP1 SWAP2 SUB SWAP1 REVERT JUMPDEST PUSH2 0xED7 DUP5 DUP5 DUP5 DUP5 SUB PUSH2 0xA24 JUMP JUMPDEST JUMPDEST POP POP POP POP JUMP JUMPDEST PUSH0 PUSH20 0xFFFFFFFFFFFFFFFFFFFFFFFFFFFFFFFFFFFFFFFF AND DUP3 PUSH20 0xFFFFFFFFFFFFFFFFFFFFFFFFFFFFFFFFFFFFFFFF AND SUB PUSH2 0xF4C JUMPI PUSH1 0x40 MLOAD PUSH32 0x8C379A000000000000000000000000000000000000000000000000000000000 DUP2 MSTORE PUSH1 0x4 ADD PUSH2 0xF43 SWAP1 PUSH2 0x1EF2 JUMP JUMPDEST PUSH1 0x40 MLOAD DUP1 SWAP2 SUB SWAP1 REVERT JUMPDEST PUSH2 0xF57 DUP3 PUSH0 DUP4 PUSH2 0x10A1 JUMP JUMPDEST PUSH0 DUP1 PUSH0 DUP5 PUSH20 0xFFFFFFFFFFFFFFFFFFFFFFFFFFFFFFFFFFFFFFFF AND PUSH20 0xFFFFFFFFFFFFFFFFFFFFFFFFFFFFFFFFFFFFFFFF AND DUP2 MSTORE PUSH1 0x20 ADD SWAP1 DUP2 MSTORE PUSH1 0x20 ADD PUSH0 KECCAK256 SLOAD SWAP1 POP DUP2 DUP2 LT ISZERO PUSH2 0xFDA JUMPI PUSH1 0x40 MLOAD PUSH32 0x8C379A000000000000000000000000000000000000000000000000000000000 DUP2 MSTORE PUSH1 0x4 ADD PUSH2 0xFD1 SWAP1 PUSH2 0x1F80 JUMP JUMPDEST PUSH1 0x40 MLOAD DUP1 SWAP2 SUB SWAP1 REVERT JUMPDEST DUP2 DUP2 SUB PUSH0 DUP1 DUP6 PUSH20 0xFFFFFFFFFFFFFFFFFFFFFFFFFFFFFFFFFFFFFFFF AND PUSH20 0xFFFFFFFFFFFFFFFFFFFFFFFFFFFFFFFFFFFFFFFF AND DUP2 MSTORE PUSH1 0x20 ADD SWAP1 DUP2 MSTORE PUSH1 0x20 ADD PUSH0 KECCAK256 DUP2 SWAP1 SSTORE POP DUP2 PUSH1 0x2 PUSH0 DUP3 DUP3 SLOAD SUB SWAP3 POP POP DUP2 SWAP1 SSTORE POP PUSH0 PUSH20 0xFFFFFFFFFFFFFFFFFFFFFFFFFFFFFFFFFFFFFFFF AND DUP4 PUSH20 0xFFFFFFFFFFFFFFFFFFFFFFFFFFFFFFFFFFFFFFFF AND PUSH32 0xDDF252AD1BE2C89B69C2B068FC378DAA952BA7F163C4A11628F55A4DF523B3EF DUP5 PUSH1 0x40 MLOAD PUSH2 0x1089 SWAP2 SWAP1 PUSH2 0x1561 JUMP JUMPDEST PUSH1 0x40 MLOAD DUP1 SWAP2 SUB SWAP1 LOG3 PUSH2 0x109C DUP4 PUSH0 DUP5 PUSH2 0x1186 JUMP JUMPDEST POP POP POP JUMP JUMPDEST PUSH0 PUSH20 0xFFFFFFFFFFFFFFFFFFFFFFFFFFFFFFFFFFFFFFFF AND DUP4 PUSH20 0xFFFFFFFFFFFFFFFFFFFFFFFFFFFFFFFFFFFFFFFF AND EQ ISZERO DUP1 ISZERO PUSH2 0x1109 JUMPI POP COINBASE PUSH20 0xFFFFFFFFFFFFFFFFFFFFFFFFFFFFFFFFFFFFFFFF AND DUP3 PUSH20 0xFFFFFFFFFFFFFFFFFFFFFFFFFFFFFFFFFFFFFFFF AND EQ ISZERO JUMPDEST DUP1 ISZERO PUSH2 0x1141 JUMPI POP PUSH0 PUSH20 0xFFFFFFFFFFFFFFFFFFFFFFFFFFFFFFFFFFFFFFFF AND COINBASE PUSH20 0xFFFFFFFFFFFFFFFFFFFFFFFFFFFFFFFFFFFFFFFF AND EQ ISZERO JUMPDEST DUP1 ISZERO PUSH2 0x1168 JUMPI POP PUSH2 0x1150 PUSH2 0x675 JUMP JUMPDEST PUSH1 0x6 SLOAD PUSH2 0x115B PUSH2 0x57F JUMP JUMPDEST PUSH2 0x1165 SWAP2 SWAP1 PUSH2 0x1A93 JUMP JUMPDEST GT ISZERO JUMPDEST ISZERO PUSH2 0x1176 JUMPI PUSH2 0x1175 PUSH2 0x118B JUMP JUMPDEST JUMPDEST PUSH2 0x1181 DUP4 DUP4 DUP4 PUSH2 0x1199 JUMP JUMPDEST POP POP POP JUMP JUMPDEST POP POP POP JUMP JUMPDEST PUSH2 0x1197 COINBASE PUSH1 0x6 SLOAD PUSH2 0x119E JUMP JUMPDEST JUMP JUMPDEST POP POP POP JUMP JUMPDEST PUSH2 0x11A6 PUSH2 0x675 JUMP JUMPDEST DUP2 PUSH2 0x11AF PUSH2 0x57F JUMP JUMPDEST PUSH2 0x11B9 SWAP2 SWAP1 PUSH2 0x1A93 JUMP JUMPDEST GT ISZERO PUSH2 0x11FA JUMPI PUSH1 0x40 MLOAD PUSH32 0x8C379A000000000000000000000000000000000000000000000000000000000 DUP2 MSTORE PUSH1 0x4 ADD PUSH2 0x11F1 SWAP1 PUSH2 0x1FE8 JUMP JUMPDEST PUSH1 0x40 MLOAD DUP1 SWAP2 SUB SWAP1 REVERT JUMPDEST PUSH2 0x1204 DUP3 DUP3 PUSH2 0x1208 JUMP JUMPDEST POP POP JUMP JUMPDEST PUSH2 0x1210 PUSH2 0x675 JUMP JUMPDEST DUP2 PUSH2 0x1219 PUSH2 0x57F JUMP JUMPDEST PUSH2 0x1223 SWAP2 SWAP1 PUSH2 0x1A93 JUMP JUMPDEST GT ISZERO PUSH2 0x1264 JUMPI PUSH1 0x40 MLOAD PUSH32 0x8C379A000000000000000000000000000000000000000000000000000000000 DUP2 MSTORE PUSH1 0x4 ADD PUSH2 0x125B SWAP1 PUSH2 0x1FE8 JUMP JUMPDEST PUSH1 0x40 MLOAD DUP1 SWAP2 SUB SWAP1 REVERT JUMPDEST PUSH2 0x126E DUP3 DUP3 PUSH2 0x1272 JUMP JUMPDEST POP POP JUMP JUMPDEST PUSH0 PUSH20 0xFFFFFFFFFFFFFFFFFFFFFFFFFFFFFFFFFFFFFFFF AND DUP3 PUSH20 0xFFFFFFFFFFFFFFFFFFFFFFFFFFFFFFFFFFFFFFFF AND SUB PUSH2 0x12E0 JUMPI PUSH1 0x40 MLOAD PUSH32 0x8C379A000000000000000000000000000000000000000000000000000000000 DUP2 MSTORE PUSH1 0x4 ADD PUSH2 0x12D7 SWAP1 PUSH2 0x2050 JUMP JUMPDEST PUSH1 0x40 MLOAD DUP1 SWAP2 SUB SWAP1 REVERT JUMPDEST PUSH2 0x12EB PUSH0 DUP4 DUP4 PUSH2 0x10A1 JUMP JUMPDEST DUP1 PUSH1 0x2 PUSH0 DUP3 DUP3 SLOAD PUSH2 0x12FC SWAP2 SWAP1 PUSH2 0x1A93 JUMP JUMPDEST SWAP3 POP POP DUP2 SWAP1 SSTORE POP DUP1 PUSH0 DUP1 DUP5 PUSH20 0xFFFFFFFFFFFFFFFFFFFFFFFFFFFFFFFFFFFFFFFF AND PUSH20 0xFFFFFFFFFFFFFFFFFFFFFFFFFFFFFFFFFFFFFFFF AND DUP2 MSTORE PUSH1 0x20 ADD SWAP1 DUP2 MSTORE PUSH1 0x20 ADD PUSH0 KECCAK256 PUSH0 DUP3 DUP3 SLOAD ADD SWAP3 POP POP DUP2 SWAP1 SSTORE POP DUP2 PUSH20 0xFFFFFFFFFFFFFFFFFFFFFFFFFFFFFFFFFFFFFFFF AND PUSH0 PUSH20 0xFFFFFFFFFFFFFFFFFFFFFFFFFFFFFFFFFFFFFFFF AND PUSH32 0xDDF252AD1BE2C89B69C2B068FC378DAA952BA7F163C4A11628F55A4DF523B3EF DUP4 PUSH1 0x40 MLOAD PUSH2 0x13A9 SWAP2 SWAP1 PUSH2 0x1561 JUMP JUMPDEST PUSH1 0x40 MLOAD DUP1 SWAP2 SUB SWAP1 LOG3 PUSH2 0x13BC PUSH0 DUP4 DUP4 PUSH2 0x1186 JUMP JUMPDEST POP POP JUMP JUMPDEST PUSH0 DUP2 MLOAD SWAP1 POP SWAP2 SWAP1 POP JUMP JUMPDEST PUSH0 DUP3 DUP3 MSTORE PUSH1 0x20 DUP3 ADD SWAP1 POP SWAP3 SWAP2 POP POP JUMP JUMPDEST DUP3 DUP2 DUP4 MCOPY PUSH0 DUP4 DUP4 ADD MSTORE POP POP POP JUMP JUMPDEST PUSH0 PUSH1 0x1F NOT PUSH1 0x1F DUP4 ADD AND SWAP1 POP SWAP2 SWAP1 POP JUMP JUMPDEST PUSH0 PUSH2 0x1402 DUP3 PUSH2 0x13C0 JUMP JUMPDEST PUSH2 0x140C DUP2 DUP6 PUSH2 0x13CA JUMP JUMPDEST SWAP4 POP PUSH2 0x141C DUP2 DUP6 PUSH1 0x20 DUP7 ADD PUSH2 0x13DA JUMP JUMPDEST PUSH2 0x1425 DUP2 PUSH2 0x13E8 JUMP JUMPDEST DUP5 ADD SWAP2 POP POP SWAP3 SWAP2 POP POP JUMP JUMPDEST PUSH0 PUSH1 0x20 DUP3 ADD SWAP1 POP DUP2 DUP2 SUB PUSH0 DUP4 ADD MSTORE PUSH2 0x1448 DUP2 DUP5 PUSH2 0x13F8 JUMP JUMPDEST SWAP1 POP SWAP3 SWAP2 POP POP JUMP JUMPDEST PUSH0 DUP1 REVERT JUMPDEST PUSH0 PUSH20 0xFFFFFFFFFFFFFFFFFFFFFFFFFFFFFFFFFFFFFFFF DUP3 AND SWAP1 POP SWAP2 SWAP1 POP JUMP JUMPDEST PUSH0 PUSH2 0x147D DUP3 PUSH2 0x1454 JUMP JUMPDEST SWAP1 POP SWAP2 SWAP1 POP JUMP JUMPDEST PUSH2 0x148D DUP2 PUSH2 0x1473 JUMP JUMPDEST DUP2 EQ PUSH2 0x1497 JUMPI PUSH0 DUP1 REVERT JUMPDEST POP JUMP JUMPDEST PUSH0 DUP2 CALLDATALOAD SWAP1 POP PUSH2 0x14A8 DUP2 PUSH2 0x1484 JUMP JUMPDEST SWAP3 SWAP2 POP POP JUMP JUMPDEST PUSH0 DUP2 SWAP1 POP SWAP2 SWAP1 POP JUMP JUMPDEST PUSH2 0x14C0 DUP2 PUSH2 0x14AE JUMP JUMPDEST DUP2 EQ PUSH2 0x14CA JUMPI PUSH0 DUP1 REVERT JUMPDEST POP JUMP JUMPDEST PUSH0 DUP2 CALLDATALOAD SWAP1 POP PUSH2 0x14DB DUP2 PUSH2 0x14B7 JUMP JUMPDEST SWAP3 SWAP2 POP POP JUMP JUMPDEST PUSH0 DUP1 PUSH1 0x40 DUP4 DUP6 SUB SLT ISZERO PUSH2 0x14F7 JUMPI PUSH2 0x14F6 PUSH2 0x1450 JUMP JUMPDEST JUMPDEST PUSH0 PUSH2 0x1504 DUP6 DUP3 DUP7 ADD PUSH2 0x149A JUMP JUMPDEST SWAP3 POP POP PUSH1 0x20 PUSH2 0x1515 DUP6 DUP3 DUP7 ADD PUSH2 0x14CD JUMP JUMPDEST SWAP2 POP POP SWAP3 POP SWAP3 SWAP1 POP JUMP JUMPDEST PUSH0 DUP2 ISZERO ISZERO SWAP1 POP SWAP2 SWAP1 POP JUMP JUMPDEST PUSH2 0x1533 DUP2 PUSH2 0x151F JUMP JUMPDEST DUP3 MSTORE POP POP JUMP JUMPDEST PUSH0 PUSH1 0x20 DUP3 ADD SWAP1 POP PUSH2 0x154C PUSH0 DUP4 ADD DUP5 PUSH2 0x152A JUMP JUMPDEST SWAP3 SWAP2 POP POP JUMP JUMPDEST PUSH2 0x155B DUP2 PUSH2 0x14AE JUMP JUMPDEST DUP3 MSTORE POP POP JUMP JUMPDEST PUSH0 PUSH1 0x20 DUP3 ADD SWAP1 POP PUSH2 0x1574 PUSH0 DUP4 ADD DUP5 PUSH2 0x1552 JUMP JUMPDEST SWAP3 SWAP2 POP POP JUMP JUMPDEST PUSH0 DUP1 PUSH0 PUSH1 0x60 DUP5 DUP7 SUB SLT ISZERO PUSH2 0x1591 JUMPI PUSH2 0x1590 PUSH2 0x1450 JUMP JUMPDEST JUMPDEST PUSH0 PUSH2 0x159E DUP7 DUP3 DUP8 ADD PUSH2 0x149A JUMP JUMPDEST SWAP4 POP POP PUSH1 0x20 PUSH2 0x15AF DUP7 DUP3 DUP8 ADD PUSH2 0x149A JUMP JUMPDEST SWAP3 POP POP PUSH1 0x40 PUSH2 0x15C0 DUP7 DUP3 DUP8 ADD PUSH2 0x14CD JUMP JUMPDEST SWAP2 POP POP SWAP3 POP SWAP3 POP SWAP3 JUMP JUMPDEST PUSH0 PUSH1 0x20 DUP3 DUP5 SUB SLT ISZERO PUSH2 0x15DF JUMPI PUSH2 0x15DE PUSH2 0x1450 JUMP JUMPDEST JUMPDEST PUSH0 PUSH2 0x15EC DUP5 DUP3 DUP6 ADD PUSH2 0x14CD JUMP JUMPDEST SWAP2 POP POP SWAP3 SWAP2 POP POP JUMP JUMPDEST PUSH0 PUSH1 0xFF DUP3 AND SWAP1 POP SWAP2 SWAP1 POP JUMP JUMPDEST PUSH2 0x160A DUP2 PUSH2 0x15F5 JUMP JUMPDEST DUP3 MSTORE POP POP JUMP JUMPDEST PUSH0 PUSH1 0x20 DUP3 ADD SWAP1 POP PUSH2 0x1623 PUSH0 DUP4 ADD DUP5 PUSH2 0x1601 JUMP JUMPDEST SWAP3 SWAP2 POP POP JUMP JUMPDEST PUSH0 PUSH1 0x20 DUP3 DUP5 SUB SLT ISZERO PUSH2 0x163E JUMPI PUSH2 0x163D PUSH2 0x1450 JUMP JUMPDEST JUMPDEST PUSH0 PUSH2 0x164B DUP5 DUP3 DUP6 ADD PUSH2 0x149A JUMP JUMPDEST SWAP2 POP POP SWAP3 SWAP2 POP POP JUMP JUMPDEST PUSH0 PUSH2 0x165E DUP3 PUSH2 0x1454 JUMP JUMPDEST SWAP1 POP SWAP2 SWAP1 POP JUMP JUMPDEST PUSH2 0x166E DUP2 PUSH2 0x1654 JUMP JUMPDEST DUP3 MSTORE POP POP JUMP JUMPDEST PUSH0 PUSH1 0x20 DUP3 ADD SWAP1 POP PUSH2 0x1687 PUSH0 DUP4 ADD DUP5 PUSH2 0x1665 JUMP JUMPDEST SWAP3 SWAP2 POP POP JUMP JUMPDEST PUSH2 0x1696 DUP2 PUSH2 0x151F JUMP JUMPDEST DUP2 EQ PUSH2 0x16A0 JUMPI PUSH0 DUP1 REVERT JUMPDEST POP JUMP JUMPDEST PUSH0 DUP2 CALLDATALOAD SWAP1 POP PUSH2 0x16B1 DUP2 PUSH2 0x168D JUMP JUMPDEST SWAP3 SWAP2 POP POP JUMP JUMPDEST PUSH0 DUP1 PUSH1 0x40 DUP4 DUP6 SUB SLT ISZERO PUSH2 0x16CD JUMPI PUSH2 0x16CC PUSH2 0x1450 JUMP JUMPDEST JUMPDEST PUSH0 PUSH2 0x16DA DUP6 DUP3 DUP7 ADD PUSH2 0x149A JUMP JUMPDEST SWAP3 POP POP PUSH1 0x20 PUSH2 0x16EB DUP6 DUP3 DUP7 ADD PUSH2 0x16A3 JUMP JUMPDEST SWAP2 POP POP SWAP3 POP SWAP3 SWAP1 POP JUMP JUMPDEST PUSH0 DUP1 PUSH1 0x40 DUP4 DUP6 SUB SLT ISZERO PUSH2 0x170B JUMPI PUSH2 0x170A PUSH2 0x1450 JUMP JUMPDEST JUMPDEST PUSH0 PUSH2 0x1718 DUP6 DUP3 DUP7 ADD PUSH2 0x149A JUMP JUMPDEST SWAP3 POP POP PUSH1 0x20 PUSH2 0x1729 DUP6 DUP3 DUP7 ADD PUSH2 0x149A JUMP JUMPDEST SWAP2 POP POP SWAP3 POP SWAP3 SWAP1 POP JUMP JUMPDEST PUSH32 0x4E487B7100000000000000000000000000000000000000000000000000000000 PUSH0 MSTORE PUSH1 0x22 PUSH1 0x4 MSTORE PUSH1 0x24 PUSH0 REVERT JUMPDEST PUSH0 PUSH1 0x2 DUP3 DIV SWAP1 POP PUSH1 0x1 DUP3 AND DUP1 PUSH2 0x1777 JUMPI PUSH1 0x7F DUP3 AND SWAP2 POP JUMPDEST PUSH1 0x20 DUP3 LT DUP2 SUB PUSH2 0x178A JUMPI PUSH2 0x1789 PUSH2 0x1733 JUMP JUMPDEST JUMPDEST POP SWAP2 SWAP1 POP JUMP JUMPDEST PUSH32 0x4F6E6C792062657474696E6720636F6E7472616374732063616E2063616C6C20 PUSH0 DUP3 ADD MSTORE PUSH32 0x7468697300000000000000000000000000000000000000000000000000000000 PUSH1 0x20 DUP3 ADD MSTORE POP JUMP JUMPDEST PUSH0 PUSH2 0x17EA PUSH1 0x24 DUP4 PUSH2 0x13CA JUMP JUMPDEST SWAP2 POP PUSH2 0x17F5 DUP3 PUSH2 0x1790 JUMP JUMPDEST PUSH1 0x40 DUP3 ADD SWAP1 POP SWAP2 SWAP1 POP JUMP JUMPDEST PUSH0 PUSH1 0x20 DUP3 ADD SWAP1 POP DUP2 DUP2 SUB PUSH0 DUP4 ADD MSTORE PUSH2 0x1817 DUP2 PUSH2 0x17DE JUMP JUMPDEST SWAP1 POP SWAP2 SWAP1 POP JUMP JUMPDEST PUSH32 0x4F6E6C7920746865206F776E65722063616E2063616C6C20746869732066756E PUSH0 DUP3 ADD MSTORE PUSH32 0x6374696F6E000000000000000000000000000000000000000000000000000000 PUSH1 0x20 DUP3 ADD MSTORE POP JUMP JUMPDEST PUSH0 PUSH2 0x1878 PUSH1 0x25 DUP4 PUSH2 0x13CA JUMP JUMPDEST SWAP2 POP PUSH2 0x1883 DUP3 PUSH2 0x181E JUMP JUMPDEST PUSH1 0x40 DUP3 ADD SWAP1 POP SWAP2 SWAP1 POP JUMP JUMPDEST PUSH0 PUSH1 0x20 DUP3 ADD SWAP1 POP DUP2 DUP2 SUB PUSH0 DUP4 ADD MSTORE PUSH2 0x18A5 DUP2 PUSH2 0x186C JUMP JUMPDEST SWAP1 POP SWAP2 SWAP1 POP JUMP JUMPDEST PUSH32 0x4E487B7100000000000000000000000000000000000000000000000000000000 PUSH0 MSTORE PUSH1 0x11 PUSH1 0x4 MSTORE PUSH1 0x24 PUSH0 REVERT JUMPDEST PUSH0 DUP2 PUSH1 0x1 SHR SWAP1 POP SWAP2 SWAP1 POP JUMP JUMPDEST PUSH0 DUP1 DUP3 SWAP2 POP DUP4 SWAP1 POP JUMPDEST PUSH1 0x1 DUP6 GT ISZERO PUSH2 0x192E JUMPI DUP1 DUP7 DIV DUP2 GT ISZERO PUSH2 0x190A JUMPI PUSH2 0x1909 PUSH2 0x18AC JUMP JUMPDEST JUMPDEST PUSH1 0x1 DUP6 AND ISZERO PUSH2 0x1919 JUMPI DUP1 DUP3 MUL SWAP2 POP JUMPDEST DUP1 DUP2 MUL SWAP1 POP PUSH2 0x1927 DUP6 PUSH2 0x18D9 JUMP JUMPDEST SWAP5 POP PUSH2 0x18EE JUMP JUMPDEST SWAP5 POP SWAP5 SWAP3 POP POP POP JUMP JUMPDEST PUSH0 DUP3 PUSH2 0x1946 JUMPI PUSH1 0x1 SWAP1 POP PUSH2 0x1A01 JUMP JUMPDEST DUP2 PUSH2 0x1953 JUMPI PUSH0 SWAP1 POP PUSH2 0x1A01 JUMP JUMPDEST DUP2 PUSH1 0x1 DUP2 EQ PUSH2 0x1969 JUMPI PUSH1 0x2 DUP2 EQ PUSH2 0x1973 JUMPI PUSH2 0x19A2 JUMP JUMPDEST PUSH1 0x1 SWAP2 POP POP PUSH2 0x1A01 JUMP JUMPDEST PUSH1 0xFF DUP5 GT ISZERO PUSH2 0x1985 JUMPI PUSH2 0x1984 PUSH2 0x18AC JUMP JUMPDEST JUMPDEST DUP4 PUSH1 0x2 EXP SWAP2 POP DUP5 DUP3 GT ISZERO PUSH2 0x199C JUMPI PUSH2 0x199B PUSH2 0x18AC JUMP JUMPDEST JUMPDEST POP PUSH2 0x1A01 JUMP JUMPDEST POP PUSH1 0x20 DUP4 LT PUSH2 0x133 DUP4 LT AND PUSH1 0x4E DUP5 LT PUSH1 0xB DUP5 LT AND OR ISZERO PUSH2 0x19D7 JUMPI DUP3 DUP3 EXP SWAP1 POP DUP4 DUP2 GT ISZERO PUSH2 0x19D2 JUMPI PUSH2 0x19D1 PUSH2 0x18AC JUMP JUMPDEST JUMPDEST PUSH2 0x1A01 JUMP JUMPDEST PUSH2 0x19E4 DUP5 DUP5 DUP5 PUSH1 0x1 PUSH2 0x18E5 JUMP JUMPDEST SWAP3 POP SWAP1 POP DUP2 DUP5 DIV DUP2 GT ISZERO PUSH2 0x19FB JUMPI PUSH2 0x19FA PUSH2 0x18AC JUMP JUMPDEST JUMPDEST DUP2 DUP2 MUL SWAP1 POP JUMPDEST SWAP4 SWAP3 POP POP POP JUMP JUMPDEST PUSH0 PUSH2 0x1A12 DUP3 PUSH2 0x14AE JUMP JUMPDEST SWAP2 POP PUSH2 0x1A1D DUP4 PUSH2 0x15F5 JUMP JUMPDEST SWAP3 POP PUSH2 0x1A4A PUSH32 0xFFFFFFFFFFFFFFFFFFFFFFFFFFFFFFFFFFFFFFFFFFFFFFFFFFFFFFFFFFFFFFFF DUP5 DUP5 PUSH2 0x1937 JUMP JUMPDEST SWAP1 POP SWAP3 SWAP2 POP POP JUMP JUMPDEST PUSH0 PUSH2 0x1A5C DUP3 PUSH2 0x14AE JUMP JUMPDEST SWAP2 POP PUSH2 0x1A67 DUP4 PUSH2 0x14AE JUMP JUMPDEST SWAP3 POP DUP3 DUP3 MUL PUSH2 0x1A75 DUP2 PUSH2 0x14AE JUMP JUMPDEST SWAP2 POP DUP3 DUP3 DIV DUP5 EQ DUP4 ISZERO OR PUSH2 0x1A8C JUMPI PUSH2 0x1A8B PUSH2 0x18AC JUMP JUMPDEST JUMPDEST POP SWAP3 SWAP2 POP POP JUMP JUMPDEST PUSH0 PUSH2 0x1A9D DUP3 PUSH2 0x14AE JUMP JUMPDEST SWAP2 POP PUSH2 0x1AA8 DUP4 PUSH2 0x14AE JUMP JUMPDEST SWAP3 POP DUP3 DUP3 ADD SWAP1 POP DUP1 DUP3 GT ISZERO PUSH2 0x1AC0 JUMPI PUSH2 0x1ABF PUSH2 0x18AC JUMP JUMPDEST JUMPDEST SWAP3 SWAP2 POP POP JUMP JUMPDEST PUSH32 0x45524332303A2064656372656173656420616C6C6F77616E63652062656C6F77 PUSH0 DUP3 ADD MSTORE PUSH32 0x207A65726F000000000000000000000000000000000000000000000000000000 PUSH1 0x20 DUP3 ADD MSTORE POP JUMP JUMPDEST PUSH0 PUSH2 0x1B20 PUSH1 0x25 DUP4 PUSH2 0x13CA JUMP JUMPDEST SWAP2 POP PUSH2 0x1B2B DUP3 PUSH2 0x1AC6 JUMP JUMPDEST PUSH1 0x40 DUP3 ADD SWAP1 POP SWAP2 SWAP1 POP JUMP JUMPDEST PUSH0 PUSH1 0x20 DUP3 ADD SWAP1 POP DUP2 DUP2 SUB PUSH0 DUP4 ADD MSTORE PUSH2 0x1B4D DUP2 PUSH2 0x1B14 JUMP JUMPDEST SWAP1 POP SWAP2 SWAP1 POP JUMP JUMPDEST PUSH32 0x45524332303A20617070726F76652066726F6D20746865207A65726F20616464 PUSH0 DUP3 ADD MSTORE PUSH32 0x7265737300000000000000000000000000000000000000000000000000000000 PUSH1 0x20 DUP3 ADD MSTORE POP JUMP JUMPDEST PUSH0 PUSH2 0x1BAE PUSH1 0x24 DUP4 PUSH2 0x13CA JUMP JUMPDEST SWAP2 POP PUSH2 0x1BB9 DUP3 PUSH2 0x1B54 JUMP JUMPDEST PUSH1 0x40 DUP3 ADD SWAP1 POP SWAP2 SWAP1 POP JUMP JUMPDEST PUSH0 PUSH1 0x20 DUP3 ADD SWAP1 POP DUP2 DUP2 SUB PUSH0 DUP4 ADD MSTORE PUSH2 0x1BDB DUP2 PUSH2 0x1BA2 JUMP JUMPDEST SWAP1 POP SWAP2 SWAP1 POP JUMP JUMPDEST PUSH32 0x45524332303A20617070726F766520746F20746865207A65726F206164647265 PUSH0 DUP3 ADD MSTORE PUSH32 0x7373000000000000000000000000000000000000000000000000000000000000 PUSH1 0x20 DUP3 ADD MSTORE POP JUMP JUMPDEST PUSH0 PUSH2 0x1C3C PUSH1 0x22 DUP4 PUSH2 0x13CA JUMP JUMPDEST SWAP2 POP PUSH2 0x1C47 DUP3 PUSH2 0x1BE2 JUMP JUMPDEST PUSH1 0x40 DUP3 ADD SWAP1 POP SWAP2 SWAP1 POP JUMP JUMPDEST PUSH0 PUSH1 0x20 DUP3 ADD SWAP1 POP DUP2 DUP2 SUB PUSH0 DUP4 ADD MSTORE PUSH2 0x1C69 DUP2 PUSH2 0x1C30 JUMP JUMPDEST SWAP1 POP SWAP2 SWAP1 POP JUMP JUMPDEST PUSH32 0x45524332303A207472616E736665722066726F6D20746865207A65726F206164 PUSH0 DUP3 ADD MSTORE PUSH32 0x6472657373000000000000000000000000000000000000000000000000000000 PUSH1 0x20 DUP3 ADD MSTORE POP JUMP JUMPDEST PUSH0 PUSH2 0x1CCA PUSH1 0x25 DUP4 PUSH2 0x13CA JUMP JUMPDEST SWAP2 POP PUSH2 0x1CD5 DUP3 PUSH2 0x1C70 JUMP JUMPDEST PUSH1 0x40 DUP3 ADD SWAP1 POP SWAP2 SWAP1 POP JUMP JUMPDEST PUSH0 PUSH1 0x20 DUP3 ADD SWAP1 POP DUP2 DUP2 SUB PUSH0 DUP4 ADD MSTORE PUSH2 0x1CF7 DUP2 PUSH2 0x1CBE JUMP JUMPDEST SWAP1 POP SWAP2 SWAP1 POP JUMP JUMPDEST PUSH32 0x45524332303A207472616E7366657220746F20746865207A65726F2061646472 PUSH0 DUP3 ADD MSTORE PUSH32 0x6573730000000000000000000000000000000000000000000000000000000000 PUSH1 0x20 DUP3 ADD MSTORE POP JUMP JUMPDEST PUSH0 PUSH2 0x1D58 PUSH1 0x23 DUP4 PUSH2 0x13CA JUMP JUMPDEST SWAP2 POP PUSH2 0x1D63 DUP3 PUSH2 0x1CFE JUMP JUMPDEST PUSH1 0x40 DUP3 ADD SWAP1 POP SWAP2 SWAP1 POP JUMP JUMPDEST PUSH0 PUSH1 0x20 DUP3 ADD SWAP1 POP DUP2 DUP2 SUB PUSH0 DUP4 ADD MSTORE PUSH2 0x1D85 DUP2 PUSH2 0x1D4C JUMP JUMPDEST SWAP1 POP SWAP2 SWAP1 POP JUMP JUMPDEST PUSH32 0x45524332303A207472616E7366657220616D6F756E7420657863656564732062 PUSH0 DUP3 ADD MSTORE PUSH32 0x616C616E63650000000000000000000000000000000000000000000000000000 PUSH1 0x20 DUP3 ADD MSTORE POP JUMP JUMPDEST PUSH0 PUSH2 0x1DE6 PUSH1 0x26 DUP4 PUSH2 0x13CA JUMP JUMPDEST SWAP2 POP PUSH2 0x1DF1 DUP3 PUSH2 0x1D8C JUMP JUMPDEST PUSH1 0x40 DUP3 ADD SWAP1 POP SWAP2 SWAP1 POP JUMP JUMPDEST PUSH0 PUSH1 0x20 DUP3 ADD SWAP1 POP DUP2 DUP2 SUB PUSH0 DUP4 ADD MSTORE PUSH2 0x1E13 DUP2 PUSH2 0x1DDA JUMP JUMPDEST SWAP1 POP SWAP2 SWAP1 POP JUMP JUMPDEST PUSH32 0x45524332303A20696E73756666696369656E7420616C6C6F77616E6365000000 PUSH0 DUP3 ADD MSTORE POP JUMP JUMPDEST PUSH0 PUSH2 0x1E4E PUSH1 0x1D DUP4 PUSH2 0x13CA JUMP JUMPDEST SWAP2 POP PUSH2 0x1E59 DUP3 PUSH2 0x1E1A JUMP JUMPDEST PUSH1 0x20 DUP3 ADD SWAP1 POP SWAP2 SWAP1 POP JUMP JUMPDEST PUSH0 PUSH1 0x20 DUP3 ADD SWAP1 POP DUP2 DUP2 SUB PUSH0 DUP4 ADD MSTORE PUSH2 0x1E7B DUP2 PUSH2 0x1E42 JUMP JUMPDEST SWAP1 POP SWAP2 SWAP1 POP JUMP JUMPDEST PUSH32 0x45524332303A206275726E2066726F6D20746865207A65726F20616464726573 PUSH0 DUP3 ADD MSTORE PUSH32 0x7300000000000000000000000000000000000000000000000000000000000000 PUSH1 0x20 DUP3 ADD MSTORE POP JUMP JUMPDEST PUSH0 PUSH2 0x1EDC PUSH1 0x21 DUP4 PUSH2 0x13CA JUMP JUMPDEST SWAP2 POP PUSH2 0x1EE7 DUP3 PUSH2 0x1E82 JUMP JUMPDEST PUSH1 0x40 DUP3 ADD SWAP1 POP SWAP2 SWAP1 POP JUMP JUMPDEST PUSH0 PUSH1 0x20 DUP3 ADD SWAP1 POP DUP2 DUP2 SUB PUSH0 DUP4 ADD MSTORE PUSH2 0x1F09 DUP2 PUSH2 0x1ED0 JUMP JUMPDEST SWAP1 POP SWAP2 SWAP1 POP JUMP JUMPDEST PUSH32 0x45524332303A206275726E20616D6F756E7420657863656564732062616C616E PUSH0 DUP3 ADD MSTORE PUSH32 0x6365000000000000000000000000000000000000000000000000000000000000 PUSH1 0x20 DUP3 ADD MSTORE POP JUMP JUMPDEST PUSH0 PUSH2 0x1F6A PUSH1 0x22 DUP4 PUSH2 0x13CA JUMP JUMPDEST SWAP2 POP PUSH2 0x1F75 DUP3 PUSH2 0x1F10 JUMP JUMPDEST PUSH1 0x40 DUP3 ADD SWAP1 POP SWAP2 SWAP1 POP JUMP JUMPDEST PUSH0 PUSH1 0x20 DUP3 ADD SWAP1 POP DUP2 DUP2 SUB PUSH0 DUP4 ADD MSTORE PUSH2 0x1F97 DUP2 PUSH2 0x1F5E JUMP JUMPDEST SWAP1 POP SWAP2 SWAP1 POP JUMP JUMPDEST PUSH32 0x45524332304361707065643A2063617020657863656564656400000000000000 PUSH0 DUP3 ADD MSTORE POP JUMP JUMPDEST PUSH0 PUSH2 0x1FD2 PUSH1 0x19 DUP4 PUSH2 0x13CA JUMP JUMPDEST SWAP2 POP PUSH2 0x1FDD DUP3 PUSH2 0x1F9E JUMP JUMPDEST PUSH1 0x20 DUP3 ADD SWAP1 POP SWAP2 SWAP1 POP JUMP JUMPDEST PUSH0 PUSH1 0x20 DUP3 ADD SWAP1 POP DUP2 DUP2 SUB PUSH0 DUP4 ADD MSTORE PUSH2 0x1FFF DUP2 PUSH2 0x1FC6 JUMP JUMPDEST SWAP1 POP SWAP2 SWAP1 POP JUMP JUMPDEST PUSH32 0x45524332303A206D696E7420746F20746865207A65726F206164647265737300 PUSH0 DUP3 ADD MSTORE POP JUMP JUMPDEST PUSH0 PUSH2 0x203A PUSH1 0x1F DUP4 PUSH2 0x13CA JUMP JUMPDEST SWAP2 POP PUSH2 0x2045 DUP3 PUSH2 0x2006 JUMP JUMPDEST PUSH1 0x20 DUP3 ADD SWAP1 POP SWAP2 SWAP1 POP JUMP JUMPDEST PUSH0 PUSH1 0x20 DUP3 ADD SWAP1 POP DUP2 DUP2 SUB PUSH0 DUP4 ADD MSTORE PUSH2 0x2067 DUP2 PUSH2 0x202E JUMP JUMPDEST SWAP1 POP SWAP2 SWAP1 POP JUMP INVALID LOG2 PUSH5 0x6970667358 0x22 SLT KECCAK256 SDIV CALLDATASIZE 0xA6 LT 0xCF SDIV 0xC0 0xD7 0xC0 CREATE2 SELFDESTRUCT DUP4 0x2E MOD 0xCF PUSH19 0x2B4BAE35A347E23D79928852AFACFC4564736F PUSH13 0x63430008190033000000000000 "
				},
				"gasEstimates": {
					"creation": {
						"codeDepositCost": "1671200",
						"executionCost": "infinite",
						"totalCost": "infinite"
					},
					"external": {
						"allowance(address,address)": "infinite",
						"approve(address,uint256)": "infinite",
						"balanceOf(address)": "2874",
						"bettingContracts(address)": "2922",
						"blockReward()": "2493",
						"burn(uint256)": "infinite",
						"burnFrom(address,uint256)": "infinite",
						"cap()": "infinite",
						"decimals()": "405",
						"decreaseAllowance(address,uint256)": "infinite",
						"increaseAllowance(address,uint256)": "infinite",
						"name()": "infinite",
						"owner()": "2619",
						"setBettingContract(address,bool)": "27237",
						"setBlockReward(uint256)": "infinite",
						"symbol()": "infinite",
						"totalSupply()": "2544",
						"transfer(address,uint256)": "infinite",
						"transferForBetting(address,address,uint256)": "infinite",
						"transferFrom(address,address,uint256)": "infinite"
					},
					"internal": {
						"_beforeTokenTransfer(address,address,uint256)": "infinite",
						"_mint(address,uint256)": "infinite",
						"_mintMinerReward()": "infinite"
					}
				},
				"methodIdentifiers": {
					"allowance(address,address)": "dd62ed3e",
					"approve(address,uint256)": "095ea7b3",
					"balanceOf(address)": "70a08231",
					"bettingContracts(address)": "80ac4be8",
					"blockReward()": "0ac168a1",
					"burn(uint256)": "42966c68",
					"burnFrom(address,uint256)": "79cc6790",
					"cap()": "355274ea",
					"decimals()": "313ce567",
					"decreaseAllowance(address,uint256)": "a457c2d7",
					"increaseAllowance(address,uint256)": "39509351",
					"name()": "06fdde03",
					"owner()": "8da5cb5b",
					"setBettingContract(address,bool)": "c0e6c965",
					"setBlockReward(uint256)": "1a18e707",
					"symbol()": "95d89b41",
					"totalSupply()": "18160ddd",
					"transfer(address,uint256)": "a9059cbb",
					"transferForBetting(address,address,uint256)": "155184c6",
					"transferFrom(address,address,uint256)": "23b872dd"
				}
			},
			"storageLayout": {
				"storage": [
					{
						"astId": 251,
						"contract": "contracts/EuroBetToken.sol:EuroBetToken",
						"label": "_balances",
						"offset": 0,
						"slot": "0",
						"type": "t_mapping(t_address,t_uint256)"
					},
					{
						"astId": 257,
						"contract": "contracts/EuroBetToken.sol:EuroBetToken",
						"label": "_allowances",
						"offset": 0,
						"slot": "1",
						"type": "t_mapping(t_address,t_mapping(t_address,t_uint256))"
					},
					{
						"astId": 259,
						"contract": "contracts/EuroBetToken.sol:EuroBetToken",
						"label": "_totalSupply",
						"offset": 0,
						"slot": "2",
						"type": "t_uint256"
					},
					{
						"astId": 261,
						"contract": "contracts/EuroBetToken.sol:EuroBetToken",
						"label": "_name",
						"offset": 0,
						"slot": "3",
						"type": "t_string_storage"
					},
					{
						"astId": 263,
						"contract": "contracts/EuroBetToken.sol:EuroBetToken",
						"label": "_symbol",
						"offset": 0,
						"slot": "4",
						"type": "t_string_storage"
					},
					{
						"astId": 10,
						"contract": "contracts/EuroBetToken.sol:EuroBetToken",
						"label": "owner",
						"offset": 0,
						"slot": "5",
						"type": "t_address_payable"
					},
					{
						"astId": 12,
						"contract": "contracts/EuroBetToken.sol:EuroBetToken",
						"label": "blockReward",
						"offset": 0,
						"slot": "6",
						"type": "t_uint256"
					},
					{
						"astId": 16,
						"contract": "contracts/EuroBetToken.sol:EuroBetToken",
						"label": "bettingContracts",
						"offset": 0,
						"slot": "7",
						"type": "t_mapping(t_address,t_bool)"
					}
				],
				"types": {
					"t_address": {
						"encoding": "inplace",
						"label": "address",
						"numberOfBytes": "20"
					},
					"t_address_payable": {
						"encoding": "inplace",
						"label": "address payable",
						"numberOfBytes": "20"
					},
					"t_bool": {
						"encoding": "inplace",
						"label": "bool",
						"numberOfBytes": "1"
					},
					"t_mapping(t_address,t_bool)": {
						"encoding": "mapping",
						"key": "t_address",
						"label": "mapping(address => bool)",
						"numberOfBytes": "32",
						"value": "t_bool"
					},
					"t_mapping(t_address,t_mapping(t_address,t_uint256))": {
						"encoding": "mapping",
						"key": "t_address",
						"label": "mapping(address => mapping(address => uint256))",
						"numberOfBytes": "32",
						"value": "t_mapping(t_address,t_uint256)"
					},
					"t_mapping(t_address,t_uint256)": {
						"encoding": "mapping",
						"key": "t_address",
						"label": "mapping(address => uint256)",
						"numberOfBytes": "32",
						"value": "t_uint256"
					},
					"t_string_storage": {
						"encoding": "bytes",
						"label": "string",
						"numberOfBytes": "32"
					},
					"t_uint256": {
						"encoding": "inplace",
						"label": "uint256",
						"numberOfBytes": "32"
					}
				}
			},
			"userdoc": {
				"kind": "user",
				"methods": {},
				"version": 1
			}
		}
	}
}